{
  "abi": [
    {
      "anonymous": false,
      "inputs": [
        {
          "indexed": true,
          "internalType": "address",
          "name": "owner",
          "type": "address"
        },
        {
          "indexed": true,
          "internalType": "address",
          "name": "spender",
          "type": "address"
        },
        {
          "indexed": true,
          "internalType": "uint256",
          "name": "id",
          "type": "uint256"
        }
      ],
      "name": "Approval",
      "type": "event"
    },
    {
      "anonymous": false,
      "inputs": [
        {
          "indexed": true,
          "internalType": "address",
          "name": "owner",
          "type": "address"
        },
        {
          "indexed": true,
          "internalType": "address",
          "name": "operator",
          "type": "address"
        },
        {
          "indexed": false,
          "internalType": "bool",
          "name": "approved",
          "type": "bool"
        }
      ],
      "name": "ApprovalForAll",
      "type": "event"
    },
    {
      "anonymous": false,
      "inputs": [
        {
          "indexed": false,
          "internalType": "address",
          "name": "userAddress",
          "type": "address"
        },
        {
          "indexed": false,
          "internalType": "address payable",
          "name": "relayerAddress",
          "type": "address"
        },
        {
          "indexed": false,
          "internalType": "bytes",
          "name": "functionSignature",
          "type": "bytes"
        }
      ],
      "name": "MetaTransactionExecuted",
      "type": "event"
    },
    {
      "anonymous": false,
      "inputs": [
        {
          "indexed": true,
          "internalType": "address",
          "name": "from",
          "type": "address"
        },
        {
          "indexed": true,
          "internalType": "address",
          "name": "to",
          "type": "address"
        },
        {
          "indexed": true,
          "internalType": "uint256",
          "name": "id",
          "type": "uint256"
        }
      ],
      "name": "Transfer",
      "type": "event"
    },
    {
      "inputs": [
        {
          "internalType": "address",
          "name": "spender",
          "type": "address"
        },
        {
          "internalType": "uint256",
          "name": "id",
          "type": "uint256"
        }
      ],
      "name": "approve",
      "outputs": [],
      "stateMutability": "nonpayable",
      "type": "function"
    },
    {
      "inputs": [
        {
          "internalType": "address",
          "name": "",
          "type": "address"
        }
      ],
      "name": "balanceOf",
      "outputs": [
        {
          "internalType": "uint256",
          "name": "",
          "type": "uint256"
        }
      ],
      "stateMutability": "view",
      "type": "function"
    },
    {
      "inputs": [
        {
          "internalType": "string",
          "name": "_name",
          "type": "string"
        },
        {
          "internalType": "string",
          "name": "_symbol",
          "type": "string"
        },
        {
          "internalType": "address",
          "name": "_token",
          "type": "address"
        },
        {
          "internalType": "address",
          "name": "strategy",
          "type": "address"
        }
      ],
      "name": "baseInit",
      "outputs": [],
      "stateMutability": "nonpayable",
      "type": "function"
    },
    {
      "inputs": [
        {
          "internalType": "uint256",
          "name": "id",
          "type": "uint256"
        }
      ],
      "name": "burnNFTAndWithdraw",
      "outputs": [],
      "stateMutability": "nonpayable",
      "type": "function"
    },
    {
      "inputs": [],
      "name": "currentId",
      "outputs": [
        {
          "internalType": "uint256",
          "name": "",
          "type": "uint256"
        }
      ],
      "stateMutability": "view",
      "type": "function"
    },
    {
      "inputs": [
        {
          "internalType": "uint256",
          "name": "amount",
          "type": "uint256"
        },
        {
          "internalType": "uint256",
          "name": "id",
          "type": "uint256"
        }
      ],
      "name": "depositToId",
      "outputs": [],
      "stateMutability": "nonpayable",
      "type": "function"
    },
    {
      "inputs": [
        {
          "internalType": "uint256",
          "name": "",
          "type": "uint256"
        }
      ],
      "name": "deposits",
      "outputs": [
        {
          "internalType": "uint256",
          "name": "amount",
          "type": "uint256"
        },
        {
          "internalType": "uint256",
          "name": "tracker",
          "type": "uint256"
        }
      ],
      "stateMutability": "view",
      "type": "function"
    },
    {
      "inputs": [],
      "name": "distributeYield",
      "outputs": [],
      "stateMutability": "nonpayable",
      "type": "function"
    },
    {
      "inputs": [
        {
          "internalType": "address",
          "name": "userAddress",
          "type": "address"
        },
        {
          "internalType": "bytes",
          "name": "functionSignature",
          "type": "bytes"
        },
        {
          "internalType": "bytes32",
          "name": "sigR",
          "type": "bytes32"
        },
        {
          "internalType": "bytes32",
          "name": "sigS",
          "type": "bytes32"
        },
        {
          "internalType": "uint8",
          "name": "sigV",
          "type": "uint8"
        }
      ],
      "name": "executeMetaTransaction",
      "outputs": [
        {
          "internalType": "bytes",
          "name": "",
          "type": "bytes"
        }
      ],
      "stateMutability": "payable",
      "type": "function"
    },
    {
      "inputs": [
        {
          "internalType": "uint256",
          "name": "",
          "type": "uint256"
        }
      ],
      "name": "getApproved",
      "outputs": [
        {
          "internalType": "address",
          "name": "",
          "type": "address"
        }
      ],
      "stateMutability": "view",
      "type": "function"
    },
    {
      "inputs": [],
      "name": "getChainID",
      "outputs": [
        {
          "internalType": "uint256",
          "name": "",
          "type": "uint256"
        }
      ],
      "stateMutability": "view",
      "type": "function"
    },
    {
      "inputs": [
        {
          "internalType": "address",
          "name": "user",
          "type": "address"
        }
      ],
      "name": "getNonce",
      "outputs": [
        {
          "internalType": "uint256",
          "name": "nonce",
          "type": "uint256"
        }
      ],
      "stateMutability": "view",
      "type": "function"
    },
    {
      "inputs": [],
      "name": "initStrat",
      "outputs": [],
      "stateMutability": "nonpayable",
      "type": "function"
    },
    {
      "inputs": [
        {
          "internalType": "address",
          "name": "",
          "type": "address"
        },
        {
          "internalType": "address",
          "name": "",
          "type": "address"
        }
      ],
      "name": "isApprovedForAll",
      "outputs": [
        {
          "internalType": "bool",
          "name": "",
          "type": "bool"
        }
      ],
      "stateMutability": "view",
      "type": "function"
    },
    {
      "inputs": [
        {
          "internalType": "uint256",
          "name": "amount",
          "type": "uint256"
        }
      ],
      "name": "mintNewNft",
      "outputs": [
        {
          "internalType": "uint256",
          "name": "",
          "type": "uint256"
        }
      ],
      "stateMutability": "nonpayable",
      "type": "function"
    },
    {
      "inputs": [],
      "name": "name",
      "outputs": [
        {
          "internalType": "string",
          "name": "",
          "type": "string"
        }
      ],
      "stateMutability": "view",
      "type": "function"
    },
    {
      "inputs": [
        {
          "internalType": "uint256",
          "name": "",
          "type": "uint256"
        }
      ],
      "name": "ownerOf",
      "outputs": [
        {
          "internalType": "address",
          "name": "",
          "type": "address"
        }
      ],
      "stateMutability": "view",
      "type": "function"
    },
    {
      "inputs": [
        {
          "internalType": "address",
          "name": "operator",
          "type": "address"
        },
        {
          "internalType": "bool",
          "name": "approved",
          "type": "bool"
        }
      ],
      "name": "setApprovalForAll",
      "outputs": [],
      "stateMutability": "nonpayable",
      "type": "function"
    },
    {
      "inputs": [],
      "name": "strat",
      "outputs": [
        {
          "internalType": "contract IStrategy",
          "name": "",
          "type": "address"
        }
      ],
      "stateMutability": "view",
      "type": "function"
    },
    {
      "inputs": [
        {
          "internalType": "bytes4",
          "name": "interfaceId",
          "type": "bytes4"
        }
      ],
      "name": "supportsInterface",
      "outputs": [
        {
          "internalType": "bool",
          "name": "",
          "type": "bool"
        }
      ],
      "stateMutability": "pure",
      "type": "function"
    },
    {
      "inputs": [],
      "name": "symbol",
      "outputs": [
        {
          "internalType": "string",
          "name": "",
          "type": "string"
        }
      ],
      "stateMutability": "view",
      "type": "function"
    },
    {
      "inputs": [
        {
          "internalType": "uint256",
          "name": "id",
          "type": "uint256"
        }
      ],
      "name": "tokenURI",
      "outputs": [
        {
          "components": [
            {
              "internalType": "string",
              "name": "name",
              "type": "string"
            },
            {
              "internalType": "address",
              "name": "vaultAddress",
              "type": "address"
            },
            {
              "internalType": "uint256",
              "name": "withdrawable",
              "type": "uint256"
            },
            {
              "internalType": "uint256",
              "name": "id",
              "type": "uint256"
            },
            {
              "internalType": "uint256",
              "name": "vaultType",
              "type": "uint256"
            }
          ],
          "internalType": "struct BaseVault.MetaData",
          "name": "",
          "type": "tuple"
        }
      ],
      "stateMutability": "view",
      "type": "function"
    },
    {
      "inputs": [],
      "name": "totalDeposits",
      "outputs": [
        {
          "internalType": "uint256",
          "name": "",
          "type": "uint256"
        }
      ],
      "stateMutability": "view",
      "type": "function"
    },
    {
      "inputs": [
        {
          "internalType": "address",
          "name": "from",
          "type": "address"
        },
        {
          "internalType": "address",
          "name": "to",
          "type": "address"
        },
        {
          "internalType": "uint256",
          "name": "id",
          "type": "uint256"
        }
      ],
      "name": "transferFrom",
      "outputs": [],
      "stateMutability": "nonpayable",
      "type": "function"
    },
    {
      "inputs": [],
      "name": "vaultToken",
      "outputs": [
        {
          "internalType": "contract ERC20",
          "name": "",
          "type": "address"
        }
      ],
      "stateMutability": "view",
      "type": "function"
    },
    {
      "inputs": [
        {
          "internalType": "address",
          "name": "owner",
          "type": "address"
        },
        {
          "internalType": "uint256",
          "name": "nonce",
          "type": "uint256"
        },
        {
          "internalType": "uint256",
          "name": "chainID",
          "type": "uint256"
        },
        {
          "internalType": "bytes",
          "name": "functionSignature",
          "type": "bytes"
        },
        {
          "internalType": "bytes32",
          "name": "sigR",
          "type": "bytes32"
        },
        {
          "internalType": "bytes32",
          "name": "sigS",
          "type": "bytes32"
        },
        {
          "internalType": "uint8",
          "name": "sigV",
          "type": "uint8"
        }
      ],
      "name": "verify",
      "outputs": [
        {
          "internalType": "bool",
          "name": "",
          "type": "bool"
        }
      ],
      "stateMutability": "view",
      "type": "function"
    },
    {
      "inputs": [
        {
          "internalType": "uint256",
          "name": "id",
          "type": "uint256"
        },
        {
          "internalType": "uint256",
          "name": "amount",
          "type": "uint256"
        }
      ],
      "name": "withdrawFromId",
      "outputs": [],
      "stateMutability": "nonpayable",
      "type": "function"
    },
    {
      "inputs": [
        {
          "internalType": "uint256",
          "name": "id",
          "type": "uint256"
        }
      ],
      "name": "withdrawableById",
      "outputs": [
        {
          "internalType": "uint256",
          "name": "claimId",
          "type": "uint256"
        }
      ],
      "stateMutability": "view",
      "type": "function"
    },
    {
      "inputs": [],
      "name": "yieldPerDeposit",
      "outputs": [
        {
          "internalType": "uint256",
          "name": "",
          "type": "uint256"
        }
      ],
      "stateMutability": "view",
      "type": "function"
    },
    {
      "inputs": [
        {
          "internalType": "uint256",
          "name": "id",
          "type": "uint256"
        }
      ],
      "name": "yieldPerId",
      "outputs": [
        {
          "internalType": "uint256",
          "name": "",
          "type": "uint256"
        }
      ],
      "stateMutability": "view",
      "type": "function"
    }
  ],
  "bytecode": {
    "object": "0x6080604052600160035534801561001557600080fd5b50612174806100256000396000f3fe6080604052600436106101cd5760003560e01c80636352211e116100f757806395d89b4111610095578063e00dd16111610064578063e00dd16114610591578063e985e9c5146105a7578063eaaf1fca146105e2578063f60fabe51461060257600080fd5b806395d89b41146104e6578063a22cb465146104fb578063b02c43d01461051b578063c87b56dd1461056457600080fd5b8063703bafd5116100d1578063703bafd51461046e57806370a082311461048e5780637d882097146104bb5780638a570a12146104d157600080fd5b80636352211e146103f85780636c9980e11461042e5780636d43d9f11461044e57600080fd5b80631ab2f6af1161016f57806340229cbb1161013e57806340229cbb146103855780634b6d69d3146103a5578063564b81ef146103c55780636281133d146103d857600080fd5b80631ab2f6af146102ec57806323b872dd1461031a5780632d0335ab1461033a57806334d894c91461037057600080fd5b8063081812fc116101ab578063081812fc14610261578063095ea7b3146102975780630c53c51c146102b9578063159b4962146102cc57600080fd5b806301ffc9a7146101d2578063059b2a101461020757806306fdde031461023f575b600080fd5b3480156101de57600080fd5b506101f26101ed366004611b05565b610618565b60405190151581526020015b60405180910390f35b34801561021357600080fd5b50601154610227906001600160a01b031681565b6040516001600160a01b0390911681526020016101fe565b34801561024b57600080fd5b5061025461066a565b6040516101fe9190611b8b565b34801561026d57600080fd5b5061022761027c366004611b9e565b6006602052600090815260409020546001600160a01b031681565b3480156102a357600080fd5b506102b76102b2366004611bd3565b6106f8565b005b6102546102c7366004611cb1565b6107df565b3480156102d857600080fd5b506102b76102e7366004611d23565b61098a565b3480156102f857600080fd5b5061030c610307366004611b9e565b610998565b6040519081526020016101fe565b34801561032657600080fd5b506102b7610335366004611d45565b6109fe565b34801561034657600080fd5b5061030c610355366004611d81565b6001600160a01b031660009081526008602052604090205490565b34801561037c57600080fd5b506102b7610bc5565b34801561039157600080fd5b506102b76103a0366004611b9e565b610d63565b3480156103b157600080fd5b5061030c6103c0366004611b9e565b610d83565b3480156103d157600080fd5b504661030c565b3480156103e457600080fd5b506101f26103f3366004611d9c565b610d8e565b34801561040457600080fd5b50610227610413366004611b9e565b6005602052600090815260409020546001600160a01b031681565b34801561043a57600080fd5b506102b7610449366004611e21565b610ed6565b34801561045a57600080fd5b5061030c610469366004611b9e565b610f63565b34801561047a57600080fd5b50600f54610227906001600160a01b031681565b34801561049a57600080fd5b5061030c6104a9366004611d81565b60046020526000908152604090205481565b3480156104c757600080fd5b5061030c600b5481565b3480156104dd57600080fd5b506102b7610f87565b3480156104f257600080fd5b50610254611112565b34801561050757600080fd5b506102b7610516366004611eb7565b61111f565b34801561052757600080fd5b5061054f610536366004611b9e565b6009602052600090815260409020805460019091015482565b604080519283526020830191909152016101fe565b34801561057057600080fd5b5061058461057f366004611b9e565b61118b565b6040516101fe9190611eee565b34801561059d57600080fd5b5061030c60035481565b3480156105b357600080fd5b506101f26105c2366004611f46565b600760209081526000928352604080842090915290825290205460ff1681565b3480156105ee57600080fd5b506102b76105fd366004611d23565b611288565b34801561060e57600080fd5b5061030c600a5481565b60006301ffc9a760e01b6001600160e01b03198316148061064957506380ac58cd60e01b6001600160e01b03198316145b806106645750635b5e139f60e01b6001600160e01b03198316145b92915050565b6000805461067790611f79565b80601f01602080910402602001604051908101604052809291908181526020018280546106a390611f79565b80156106f05780601f106106c5576101008083540402835291602001916106f0565b820191906000526020600020905b8154815290600101906020018083116106d357829003601f168201915b505050505081565b6000818152600560205260409020546001600160a01b03163381148061074157506001600160a01b038116600090815260076020908152604080832033845290915290205460ff165b6107835760405162461bcd60e51b815260206004820152600e60248201526d1393d517d055551213d49256915160921b60448201526064015b60405180910390fd5b60008281526006602052604080822080546001600160a01b0319166001600160a01b0387811691821790925591518593918516917f8c5be1e5ebec7d5bd14f71427d1e84f3dd0314c0f7b2291e5b200ac8c7c3b92591a4505050565b6001600160a01b03851660009081526008602052604090205460609061080b9087904688888888610d8e565b6108615760405162461bcd60e51b815260206004820152602160248201527f5369676e657220616e64207369676e617475726520646f206e6f74206d6174636044820152600d60fb1b606482015260840161077a565b6001600160a01b0386166000908152600860209081526040808320805460010190555182913091610896918a918c9101611fb4565b60408051601f19818403018152908290526108b091611feb565b6000604051808303816000865af19150503d80600081146108ed576040519150601f19603f3d011682016040523d82523d6000602084013e6108f2565b606091505b5091509150816109445760405162461bcd60e51b815260206004820152601c60248201527f46756e6374696f6e2063616c6c206e6f74207375636365737366756c00000000604482015260640161077a565b7f5845892132946850460bff5a0083f71031bc5bf9aadcd40f1de79423eac9b10b88338960405161097793929190612007565b60405180910390a1979650505050505050565b6109948282611292565b5050565b600a54600082815260096020526040812054909182916402540be400916109be91612052565b6109c89190612071565b6000848152600960205260409020600101549091506109ed906402540be40090612071565b6109f79082612093565b9392505050565b6000818152600560205260409020546001600160a01b03848116911614610a545760405162461bcd60e51b815260206004820152600a60248201526957524f4e475f46524f4d60b01b604482015260640161077a565b6001600160a01b038216610a9e5760405162461bcd60e51b81526020600482015260116024820152701253959053125117d49150d25412515395607a1b604482015260640161077a565b336001600160a01b0384161480610acb57506000818152600660205260409020546001600160a01b031633145b80610af957506001600160a01b038316600090815260076020908152604080832033845290915290205460ff165b610b365760405162461bcd60e51b815260206004820152600e60248201526d1393d517d055551213d49256915160921b604482015260640161077a565b6001600160a01b0380841660008181526004602090815260408083208054600019019055938616808352848320805460010190558583526005825284832080546001600160a01b03199081168317909155600690925284832080549092169091559251849392917fddf252ad1be2c89b69c2b068fc378daa952ba7f163c4a11628f55a4df523b3ef91a4505050565b6011546001600160a01b0316610c0b5760405162461bcd60e51b815260206004820152600b60248201526a4e6f20537472617465677960a81b604482015260640161077a565b6000612710600b54611388610c209190612052565b610c2a9190612071565b90506000600e5482610c3c9190612093565b905080600e6000828254610c5091906120aa565b9250508190555080600d6000828254610c6991906120aa565b9250508190555080600c6000828254610c829190612093565b9091555050600f5460115460405163095ea7b360e01b81526001600160a01b0391821660048201526024810184905291169063095ea7b3906044016020604051808303816000875af1158015610cdc573d6000803e3d6000fd5b505050506040513d601f19601f82011682018060405250810190610d0091906120c2565b5060115460405163b6b55f2560e01b8152600481018390526001600160a01b039091169063b6b55f2590602401600060405180830381600087803b158015610d4757600080fd5b505af1158015610d5b573d6000803e3d6000fd5b505050505050565b6000610d6e82610f63565b9050610d7a81836113f2565b61099482611650565b60006106648261171d565b600080610e0b88308989604051602001610dab94939291906120df565b60408051601f1981840301815282825280516020918201207f19457468657265756d205369676e6564204d6573736167653a0a33320000000084830152603c8085019190915282518085039091018152605c909301909152815191012090565b6040805160008082526020820180845284905260ff87169282019290925260608101889052608081018790529192509060019060a0016020604051602081039080840390855afa158015610e63573d6000803e3d6000fd5b5050604051601f1901519150506001600160a01b038116610eba5760405162461bcd60e51b8152602060048201526011602482015270496e76616c6964207369676e617475726560781b604482015260640161077a565b6001600160a01b038a8116911614915050979650505050505050565b60105415610f1c5760405162461bcd60e51b8152602060048201526013602482015272105b1c9958591e48125b9a5d1a585b1a5e9959606a1b604482015260640161077a565b610f268484611853565b601180546001600160a01b039283166001600160a01b031991821617909155600f8054939092169216919091179055505060016003819055601055565b6000610f6e82610998565b60008381526009602052604090205461066491906120aa565b600c54600f546040516370a0823160e01b8152306004820152600092916001600160a01b0316906370a0823190602401602060405180830381865afa158015610fd4573d6000803e3d6000fd5b505050506040513d601f19601f82011682018060405250810190610ff89190612125565b6110029190612093565b905080600c600082825461101691906120aa565b90915550506011546000906001600160a01b03166110355760006110b9565b600d54601160009054906101000a90046001600160a01b03166001600160a01b031663192366376040518163ffffffff1660e01b8152600401602060405180830381865afa15801561108b573d6000803e3d6000fd5b505050506040513d601f19601f820116820180604052508101906110af9190612125565b6110b99190612093565b905080600d60008282546110cd91906120aa565b9091555050600b546110df82846120aa565b6110ee906402540be400612052565b6110f89190612071565b600a600082825461110991906120aa565b90915550505050565b6001805461067790611f79565b3360008181526007602090815260408083206001600160a01b03871680855290835292819020805460ff191686151590811790915590519081529192917f17307eab39ab6107e8899845ad3d59bd9653f200f220920489ca2b5937696c31910160405180910390a35050565b6111c66040518060a001604052806060815260200160006001600160a01b031681526020016000815260200160008152602001600081525090565b6040518060a00160405280600080546111de90611f79565b80601f016020809104026020016040519081016040528092919081815260200182805461120a90611f79565b80156112575780601f1061122c57610100808354040283529160200191611257565b820191906000526020600020905b81548152906001019060200180831161123a57829003601f168201915b505050918352505030602082015260400161127184610f63565b815260200183815260200160008152509050919050565b61099481836113f2565b6000818152600560205260409020546001600160a01b03166112b261187a565b6001600160a01b0316146112c557600080fd5b600b54156112d5576112d5610f87565b600081815260096020526040812080548492906112f39084906120aa565b9091555050600a546113059083612052565b600082815260096020526040812060010180549091906113269084906120aa565b9250508190555081600b600082825461133f91906120aa565b9250508190555081600c600082825461135891906120aa565b9091555050600f546001600160a01b03166323b872dd61137661187a565b6040516001600160e01b031960e084901b1681526001600160a01b039091166004820152306024820152604481018590526064016020604051808303816000875af11580156113c9573d6000803e3d6000fd5b505050506040513d601f19601f820116820180604052508101906113ed91906120c2565b505050565b6113fa610f87565b6000818152600560205260409020546001600160a01b031661141a61187a565b6001600160a01b0316148015611438575061143481610f63565b8211155b61144157600080fd5b600f546040516370a0823160e01b81523060048201526000916001600160a01b0316906370a0823190602401602060405180830381865afa15801561148a573d6000803e3d6000fd5b505050506040513d601f19601f820116820180604052508101906114ae9190612125565b90506000806114bc84610998565b905080851115611544576114d08186612093565b6000858152600960205260408120805492945084929091906114f3908490612093565b9250508190555081600b600082825461150c9190612093565b9091555050600a5460008581526009602052604090205461152d9190612052565b60008581526009602052604090206001015561157a565b611553856402540be400612052565b600085815260096020526040812060010180549091906115749084906120aa565b90915550505b600083861161158a576000611594565b6115948487612093565b905080156115bd576115a5816118d9565b82600e60008282546115b79190612093565b90915550505b600f546001600160a01b031663a9059cbb6115d661187a565b6040516001600160e01b031960e084901b1681526001600160a01b039091166004820152602481018990526044016020604051808303816000875af1158015611623573d6000803e3d6000fd5b505050506040513d601f19601f8201168201806040525081019061164791906120c2565b50505050505050565b6000818152600560205260409020546001600160a01b0316806116a25760405162461bcd60e51b815260206004820152600a6024820152691393d517d3525395115160b21b604482015260640161077a565b6001600160a01b038116600081815260046020908152604080832080546000190190558583526005825280832080546001600160a01b031990811690915560069092528083208054909216909155518492907fddf252ad1be2c89b69c2b068fc378daa952ba7f163c4a11628f55a4df523b3ef908390a45050565b60008061173361172b61187a565b600354611951565b600b549091501561174657611746610f87565b6000818152600960205260409020839055600a546117649084612052565b600082815260096020526040812060010180549091906117859084906120aa565b9250508190555082600b600082825461179e91906120aa565b9250508190555082600c60008282546117b791906120aa565b9091555050600f546001600160a01b03166323b872dd6117d561187a565b6040516001600160e01b031960e084901b1681526001600160a01b039091166004820152306024820152604481018690526064016020604051808303816000875af1158015611828573d6000803e3d6000fd5b505050506040513d601f19601f8201168201806040525081019061184c91906120c2565b5092915050565b8051611866906001906020840190611a6c565b5081516113ed906000906020850190611a6c565b6000333014156118d157600080368080601f0160208091040260200160405190810160405280939291908181526020018383808284376000920191909152505050503601516001600160a01b031691506118d69050565b503390565b90565b601154604051632e1a7d4d60e01b8152600481018390526001600160a01b0390911690632e1a7d4d90602401600060405180830381600087803b15801561191f57600080fd5b505af1158015611933573d6000803e3d6000fd5b5050505080600d60008282546119499190612093565b909155505050565b60006001600160a01b03831661199d5760405162461bcd60e51b81526020600482015260116024820152701253959053125117d49150d25412515395607a1b604482015260640161077a565b6000828152600560205260409020546001600160a01b0316156119f35760405162461bcd60e51b815260206004820152600e60248201526d1053149150511657d3525395115160921b604482015260640161077a565b6001600160a01b038316600081815260046020908152604080832080546001908101909155600380549091019055858352600590915280822080546001600160a01b0319168417905551849291907fddf252ad1be2c89b69c2b068fc378daa952ba7f163c4a11628f55a4df523b3ef908290a450919050565b828054611a7890611f79565b90600052602060002090601f016020900481019282611a9a5760008555611ae0565b82601f10611ab357805160ff1916838001178555611ae0565b82800160010185558215611ae0579182015b82811115611ae0578251825591602001919060010190611ac5565b50611aec929150611af0565b5090565b5b80821115611aec5760008155600101611af1565b600060208284031215611b1757600080fd5b81356001600160e01b0319811681146109f757600080fd5b60005b83811015611b4a578181015183820152602001611b32565b83811115611b59576000848401525b50505050565b60008151808452611b77816020860160208601611b2f565b601f01601f19169290920160200192915050565b6020815260006109f76020830184611b5f565b600060208284031215611bb057600080fd5b5035919050565b80356001600160a01b0381168114611bce57600080fd5b919050565b60008060408385031215611be657600080fd5b611bef83611bb7565b946020939093013593505050565b634e487b7160e01b600052604160045260246000fd5b600082601f830112611c2457600080fd5b813567ffffffffffffffff80821115611c3f57611c3f611bfd565b604051601f8301601f19908116603f01168101908282118183101715611c6757611c67611bfd565b81604052838152866020858801011115611c8057600080fd5b836020870160208301376000602085830101528094505050505092915050565b803560ff81168114611bce57600080fd5b600080600080600060a08688031215611cc957600080fd5b611cd286611bb7565b9450602086013567ffffffffffffffff811115611cee57600080fd5b611cfa88828901611c13565b9450506040860135925060608601359150611d1760808701611ca0565b90509295509295909350565b60008060408385031215611d3657600080fd5b50508035926020909101359150565b600080600060608486031215611d5a57600080fd5b611d6384611bb7565b9250611d7160208501611bb7565b9150604084013590509250925092565b600060208284031215611d9357600080fd5b6109f782611bb7565b600080600080600080600060e0888a031215611db757600080fd5b611dc088611bb7565b96506020880135955060408801359450606088013567ffffffffffffffff811115611dea57600080fd5b611df68a828b01611c13565b9450506080880135925060a08801359150611e1360c08901611ca0565b905092959891949750929550565b60008060008060808587031215611e3757600080fd5b843567ffffffffffffffff80821115611e4f57600080fd5b611e5b88838901611c13565b95506020870135915080821115611e7157600080fd5b50611e7e87828801611c13565b935050611e8d60408601611bb7565b9150611e9b60608601611bb7565b905092959194509250565b8015158114611eb457600080fd5b50565b60008060408385031215611eca57600080fd5b611ed383611bb7565b91506020830135611ee381611ea6565b809150509250929050565b602081526000825160a06020840152611f0a60c0840182611b5f565b905060018060a01b0360208501511660408401526040840151606084015260608401516080840152608084015160a08401528091505092915050565b60008060408385031215611f5957600080fd5b611f6283611bb7565b9150611f7060208401611bb7565b90509250929050565b600181811c90821680611f8d57607f821691505b60208210811415611fae57634e487b7160e01b600052602260045260246000fd5b50919050565b60008351611fc6818460208801611b2f565b60609390931b6bffffffffffffffffffffffff19169190920190815260140192915050565b60008251611ffd818460208701611b2f565b9190910192915050565b6001600160a01b0384811682528316602082015260606040820181905260009061203390830184611b5f565b95945050505050565b634e487b7160e01b600052601160045260246000fd5b600081600019048311821515161561206c5761206c61203c565b500290565b60008261208e57634e487b7160e01b600052601260045260246000fd5b500490565b6000828210156120a5576120a561203c565b500390565b600082198211156120bd576120bd61203c565b500190565b6000602082840312156120d457600080fd5b81516109f781611ea6565b8481526bffffffffffffffffffffffff198460601b16602082015282603482015260008251612115816054850160208701611b2f565b9190910160540195945050505050565b60006020828403121561213757600080fd5b505191905056fea26469706673582212202ba5900b967a928cd17a229b1e9877f5de42751b93e0cbceb6092be8ba94a66e64736f6c634300080a0033",
    "linkReferences": {}
  }
}