{
  "_format": "hh-sol-artifact-1",
  "contractName": "AaveStrategy",
  "sourceName": "src/strategies/ExampleAaveStrat.sol",
  "abi": [
    {
      "inputs": [
        {
          "internalType": "address",
          "name": "aaveStrategy",
          "type": "address"
        },
        {
          "internalType": "address",
          "name": "_token",
          "type": "address"
        }
      ],
      "stateMutability": "nonpayable",
      "type": "constructor"
    },
    {
      "inputs": [],
      "name": "aToken",
      "outputs": [
        {
          "internalType": "contract ERC20",
          "name": "",
          "type": "address"
        }
      ],
      "stateMutability": "view",
      "type": "function"
    },
    {
      "inputs": [
        {
          "internalType": "uint256",
          "name": "amount",
          "type": "uint256"
        }
      ],
      "name": "deposit",
      "outputs": [],
      "stateMutability": "nonpayable",
      "type": "function"
    },
    {
      "inputs": [
        {
          "internalType": "address",
          "name": "_vault",
          "type": "address"
        }
      ],
      "name": "initVault",
      "outputs": [],
      "stateMutability": "nonpayable",
      "type": "function"
    },
    {
      "inputs": [],
      "name": "pool",
      "outputs": [
        {
          "internalType": "contract IPool",
          "name": "",
          "type": "address"
        }
      ],
      "stateMutability": "view",
      "type": "function"
    },
    {
      "inputs": [
        {
          "internalType": "address",
          "name": "_aToken",
          "type": "address"
        }
      ],
      "name": "setAToken",
      "outputs": [],
      "stateMutability": "nonpayable",
      "type": "function"
    },
    {
      "inputs": [],
      "name": "token",
      "outputs": [
        {
          "internalType": "contract ERC20",
          "name": "",
          "type": "address"
        }
      ],
      "stateMutability": "view",
      "type": "function"
    },
    {
      "inputs": [
        {
          "internalType": "uint256",
          "name": "amount",
          "type": "uint256"
        }
      ],
      "name": "withdraw",
      "outputs": [],
      "stateMutability": "nonpayable",
      "type": "function"
    },
    {
      "inputs": [],
      "name": "withdrawableVaultToken",
      "outputs": [
        {
          "internalType": "uint256",
          "name": "",
          "type": "uint256"
        }
      ],
      "stateMutability": "view",
      "type": "function"
    }
  ],
  "bytecode": "0x60a060405234801561001057600080fd5b506040516105a33803806105a383398101604081905261002f91610083565b600080546001600160a01b039384166001600160a01b031991821617909155600180549290931691161790553360601b6080526100b5565b80516001600160a01b038116811461007e57600080fd5b919050565b60008060408385031215610095578182fd5b61009e83610067565b91506100ac60208401610067565b90509250929050565b60805160601c6104d06100d3600039600061028101526104d06000f3fe608060405234801561001057600080fd5b50600436106100885760003560e01c80635f09d84c1161005b5780635f09d84c146100fb578063a0c1f15e1461010e578063b6b55f2514610121578063fc0c546a1461013457600080fd5b806316f0115b1461008d57806319236637146100bd5780632e1a7d4d146100d35780632ebe3fbb146100e8575b600080fd5b6000546100a0906001600160a01b031681565b6040516001600160a01b0390911681526020015b60405180910390f35b6100c5610147565b6040519081526020016100b4565b6100e66100e136600461046a565b6101c8565b005b6100e66100f636600461041c565b610276565b6100e661010936600461041c565b6102e2565b6002546100a0906001600160a01b031681565b6100e661012f36600461046a565b61031a565b6001546100a0906001600160a01b031681565b6002546040516370a0823160e01b81523060048201526000916001600160a01b0316906370a082319060240160206040518083038186803b15801561018b57600080fd5b505afa15801561019f573d6000803e3d6000fd5b505050506040513d601f19601f820116820180604052508101906101c39190610482565b905090565b6003546001600160a01b031633146101df57600080fd5b600054600154600354604051631a4ca37b60e21b81526001600160a01b0392831660048201526024810185905290821660448201529116906369328dec90606401602060405180830381600087803b15801561023a57600080fd5b505af115801561024e573d6000803e3d6000fd5b505050506040513d601f19601f820116820180604052508101906102729190610482565b5050565b336001600160a01b037f0000000000000000000000000000000000000000000000000000000000000000161480156102b757506003546001600160a01b0316155b6102c057600080fd5b600380546001600160a01b0319166001600160a01b0392909216919091179055565b6002546001600160a01b0316156102f857600080fd5b600280546001600160a01b0319166001600160a01b0392909216919091179055565b60015460005460405163095ea7b360e01b81526001600160a01b0391821660048201526024810184905291169063095ea7b390604401602060405180830381600087803b15801561036a57600080fd5b505af115801561037e573d6000803e3d6000fd5b505050506040513d601f19601f820116820180604052508101906103a2919061044a565b506000805460015460405163617ba03760e01b81526001600160a01b039182166004820152602481018590523060448201526064810193909352169063617ba03790608401600060405180830381600087803b15801561040157600080fd5b505af1158015610415573d6000803e3d6000fd5b5050505050565b60006020828403121561042d578081fd5b81356001600160a01b0381168114610443578182fd5b9392505050565b60006020828403121561045b578081fd5b81518015158114610443578182fd5b60006020828403121561047b578081fd5b5035919050565b600060208284031215610493578081fd5b505191905056fea2646970667358221220184da7be185bdd5cc05d7b71b1a3d7fc37f365e82be9485914720c92db470c4264736f6c63430008040033",
  "linkReferences": {},
  "deployedLinkReferences": {}
}