{
  "_format": "hh-sol-artifact-1",
  "contractName": "BaseVault",
  "sourceName": "src/BaseVault.sol",
  "abi": [
    {
      "anonymous": false,
      "inputs": [
        {
          "indexed": true,
          "internalType": "address",
          "name": "owner",
          "type": "address"
        },
        {
          "indexed": true,
          "internalType": "address",
          "name": "spender",
          "type": "address"
        },
        {
          "indexed": true,
          "internalType": "uint256",
          "name": "id",
          "type": "uint256"
        }
      ],
      "name": "Approval",
      "type": "event"
    },
    {
      "anonymous": false,
      "inputs": [
        {
          "indexed": true,
          "internalType": "address",
          "name": "owner",
          "type": "address"
        },
        {
          "indexed": true,
          "internalType": "address",
          "name": "operator",
          "type": "address"
        },
        {
          "indexed": false,
          "internalType": "bool",
          "name": "approved",
          "type": "bool"
        }
      ],
      "name": "ApprovalForAll",
      "type": "event"
    },
    {
      "anonymous": false,
      "inputs": [
        {
          "indexed": false,
          "internalType": "address",
          "name": "userAddress",
          "type": "address"
        },
        {
          "indexed": false,
          "internalType": "address payable",
          "name": "relayerAddress",
          "type": "address"
        },
        {
          "indexed": false,
          "internalType": "bytes",
          "name": "functionSignature",
          "type": "bytes"
        }
      ],
      "name": "MetaTransactionExecuted",
      "type": "event"
    },
    {
      "anonymous": false,
      "inputs": [
        {
          "indexed": true,
          "internalType": "address",
          "name": "from",
          "type": "address"
        },
        {
          "indexed": true,
          "internalType": "address",
          "name": "to",
          "type": "address"
        },
        {
          "indexed": true,
          "internalType": "uint256",
          "name": "id",
          "type": "uint256"
        }
      ],
      "name": "Transfer",
      "type": "event"
    },
    {
      "inputs": [
        {
          "internalType": "address",
          "name": "spender",
          "type": "address"
        },
        {
          "internalType": "uint256",
          "name": "id",
          "type": "uint256"
        }
      ],
      "name": "approve",
      "outputs": [],
      "stateMutability": "nonpayable",
      "type": "function"
    },
    {
      "inputs": [
        {
          "internalType": "address",
          "name": "",
          "type": "address"
        }
      ],
      "name": "balanceOf",
      "outputs": [
        {
          "internalType": "uint256",
          "name": "",
          "type": "uint256"
        }
      ],
      "stateMutability": "view",
      "type": "function"
    },
    {
      "inputs": [
        {
          "internalType": "string",
          "name": "_name",
          "type": "string"
        },
        {
          "internalType": "string",
          "name": "_symbol",
          "type": "string"
        },
        {
          "internalType": "address",
          "name": "_token",
          "type": "address"
        },
        {
          "internalType": "address",
          "name": "strategy",
          "type": "address"
        }
      ],
      "name": "baseInit",
      "outputs": [],
      "stateMutability": "nonpayable",
      "type": "function"
    },
    {
      "inputs": [
        {
          "internalType": "uint256",
          "name": "id",
          "type": "uint256"
        }
      ],
      "name": "burnNFTAndWithdraw",
      "outputs": [],
      "stateMutability": "nonpayable",
      "type": "function"
    },
    {
      "inputs": [],
      "name": "currentId",
      "outputs": [
        {
          "internalType": "uint256",
          "name": "",
          "type": "uint256"
        }
      ],
      "stateMutability": "view",
      "type": "function"
    },
    {
      "inputs": [
        {
          "internalType": "uint256",
          "name": "amount",
          "type": "uint256"
        },
        {
          "internalType": "uint256",
          "name": "id",
          "type": "uint256"
        }
      ],
      "name": "depositToId",
      "outputs": [],
      "stateMutability": "nonpayable",
      "type": "function"
    },
    {
      "inputs": [
        {
          "internalType": "uint256",
          "name": "",
          "type": "uint256"
        }
      ],
      "name": "deposits",
      "outputs": [
        {
          "internalType": "uint256",
          "name": "amount",
          "type": "uint256"
        },
        {
          "internalType": "uint256",
          "name": "tracker",
          "type": "uint256"
        }
      ],
      "stateMutability": "view",
      "type": "function"
    },
    {
      "inputs": [],
      "name": "distributeYield",
      "outputs": [],
      "stateMutability": "nonpayable",
      "type": "function"
    },
    {
      "inputs": [
        {
          "internalType": "address",
          "name": "userAddress",
          "type": "address"
        },
        {
          "internalType": "bytes",
          "name": "functionSignature",
          "type": "bytes"
        },
        {
          "internalType": "bytes32",
          "name": "sigR",
          "type": "bytes32"
        },
        {
          "internalType": "bytes32",
          "name": "sigS",
          "type": "bytes32"
        },
        {
          "internalType": "uint8",
          "name": "sigV",
          "type": "uint8"
        }
      ],
      "name": "executeMetaTransaction",
      "outputs": [
        {
          "internalType": "bytes",
          "name": "",
          "type": "bytes"
        }
      ],
      "stateMutability": "payable",
      "type": "function"
    },
    {
      "inputs": [
        {
          "internalType": "uint256",
          "name": "",
          "type": "uint256"
        }
      ],
      "name": "getApproved",
      "outputs": [
        {
          "internalType": "address",
          "name": "",
          "type": "address"
        }
      ],
      "stateMutability": "view",
      "type": "function"
    },
    {
      "inputs": [],
      "name": "getChainID",
      "outputs": [
        {
          "internalType": "uint256",
          "name": "",
          "type": "uint256"
        }
      ],
      "stateMutability": "view",
      "type": "function"
    },
    {
      "inputs": [
        {
          "internalType": "address",
          "name": "user",
          "type": "address"
        }
      ],
      "name": "getNonce",
      "outputs": [
        {
          "internalType": "uint256",
          "name": "nonce",
          "type": "uint256"
        }
      ],
      "stateMutability": "view",
      "type": "function"
    },
    {
      "inputs": [],
      "name": "initStrat",
      "outputs": [],
      "stateMutability": "nonpayable",
      "type": "function"
    },
    {
      "inputs": [
        {
          "internalType": "address",
          "name": "",
          "type": "address"
        },
        {
          "internalType": "address",
          "name": "",
          "type": "address"
        }
      ],
      "name": "isApprovedForAll",
      "outputs": [
        {
          "internalType": "bool",
          "name": "",
          "type": "bool"
        }
      ],
      "stateMutability": "view",
      "type": "function"
    },
    {
      "inputs": [
        {
          "internalType": "uint256",
          "name": "amount",
          "type": "uint256"
        }
      ],
      "name": "mintNewNft",
      "outputs": [
        {
          "internalType": "uint256",
          "name": "",
          "type": "uint256"
        }
      ],
      "stateMutability": "nonpayable",
      "type": "function"
    },
    {
      "inputs": [],
      "name": "name",
      "outputs": [
        {
          "internalType": "string",
          "name": "",
          "type": "string"
        }
      ],
      "stateMutability": "view",
      "type": "function"
    },
    {
      "inputs": [
        {
          "internalType": "uint256",
          "name": "",
          "type": "uint256"
        }
      ],
      "name": "ownerOf",
      "outputs": [
        {
          "internalType": "address",
          "name": "",
          "type": "address"
        }
      ],
      "stateMutability": "view",
      "type": "function"
    },
    {
      "inputs": [
        {
          "internalType": "address",
          "name": "operator",
          "type": "address"
        },
        {
          "internalType": "bool",
          "name": "approved",
          "type": "bool"
        }
      ],
      "name": "setApprovalForAll",
      "outputs": [],
      "stateMutability": "nonpayable",
      "type": "function"
    },
    {
      "inputs": [],
      "name": "strat",
      "outputs": [
        {
          "internalType": "contract IStrategy",
          "name": "",
          "type": "address"
        }
      ],
      "stateMutability": "view",
      "type": "function"
    },
    {
      "inputs": [
        {
          "internalType": "bytes4",
          "name": "interfaceId",
          "type": "bytes4"
        }
      ],
      "name": "supportsInterface",
      "outputs": [
        {
          "internalType": "bool",
          "name": "",
          "type": "bool"
        }
      ],
      "stateMutability": "pure",
      "type": "function"
    },
    {
      "inputs": [],
      "name": "symbol",
      "outputs": [
        {
          "internalType": "string",
          "name": "",
          "type": "string"
        }
      ],
      "stateMutability": "view",
      "type": "function"
    },
    {
      "inputs": [
        {
          "internalType": "uint256",
          "name": "id",
          "type": "uint256"
        }
      ],
      "name": "tokenURI",
      "outputs": [
        {
          "components": [
            {
              "internalType": "string",
              "name": "name",
              "type": "string"
            },
            {
              "internalType": "address",
              "name": "vaultAddress",
              "type": "address"
            },
            {
              "internalType": "uint256",
              "name": "withdrawable",
              "type": "uint256"
            },
            {
              "internalType": "uint256",
              "name": "id",
              "type": "uint256"
            },
            {
              "internalType": "uint256",
              "name": "vaultType",
              "type": "uint256"
            }
          ],
          "internalType": "struct BaseVault.MetaData",
          "name": "",
          "type": "tuple"
        }
      ],
      "stateMutability": "view",
      "type": "function"
    },
    {
      "inputs": [],
      "name": "totalDeposits",
      "outputs": [
        {
          "internalType": "uint256",
          "name": "",
          "type": "uint256"
        }
      ],
      "stateMutability": "view",
      "type": "function"
    },
    {
      "inputs": [
        {
          "internalType": "address",
          "name": "from",
          "type": "address"
        },
        {
          "internalType": "address",
          "name": "to",
          "type": "address"
        },
        {
          "internalType": "uint256",
          "name": "id",
          "type": "uint256"
        }
      ],
      "name": "transferFrom",
      "outputs": [],
      "stateMutability": "nonpayable",
      "type": "function"
    },
    {
      "inputs": [],
      "name": "vaultToken",
      "outputs": [
        {
          "internalType": "contract ERC20",
          "name": "",
          "type": "address"
        }
      ],
      "stateMutability": "view",
      "type": "function"
    },
    {
      "inputs": [
        {
          "internalType": "address",
          "name": "owner",
          "type": "address"
        },
        {
          "internalType": "uint256",
          "name": "nonce",
          "type": "uint256"
        },
        {
          "internalType": "uint256",
          "name": "chainID",
          "type": "uint256"
        },
        {
          "internalType": "bytes",
          "name": "functionSignature",
          "type": "bytes"
        },
        {
          "internalType": "bytes32",
          "name": "sigR",
          "type": "bytes32"
        },
        {
          "internalType": "bytes32",
          "name": "sigS",
          "type": "bytes32"
        },
        {
          "internalType": "uint8",
          "name": "sigV",
          "type": "uint8"
        }
      ],
      "name": "verify",
      "outputs": [
        {
          "internalType": "bool",
          "name": "",
          "type": "bool"
        }
      ],
      "stateMutability": "view",
      "type": "function"
    },
    {
      "inputs": [
        {
          "internalType": "uint256",
          "name": "id",
          "type": "uint256"
        },
        {
          "internalType": "uint256",
          "name": "amount",
          "type": "uint256"
        }
      ],
      "name": "withdrawFromId",
      "outputs": [],
      "stateMutability": "nonpayable",
      "type": "function"
    },
    {
      "inputs": [
        {
          "internalType": "uint256",
          "name": "id",
          "type": "uint256"
        }
      ],
      "name": "withdrawableById",
      "outputs": [
        {
          "internalType": "uint256",
          "name": "claimId",
          "type": "uint256"
        }
      ],
      "stateMutability": "view",
      "type": "function"
    },
    {
      "inputs": [],
      "name": "yieldPerDeposit",
      "outputs": [
        {
          "internalType": "uint256",
          "name": "",
          "type": "uint256"
        }
      ],
      "stateMutability": "view",
      "type": "function"
    },
    {
      "inputs": [
        {
          "internalType": "uint256",
          "name": "id",
          "type": "uint256"
        }
      ],
      "name": "yieldPerId",
      "outputs": [
        {
          "internalType": "uint256",
          "name": "",
          "type": "uint256"
        }
      ],
      "stateMutability": "view",
      "type": "function"
    }
  ],
  "bytecode": "0x6080604052600160035534801561001557600080fd5b506121f3806100256000396000f3fe6080604052600436106101cd5760003560e01c80636352211e116100f757806395d89b4111610095578063e00dd16111610064578063e00dd16114610591578063e985e9c5146105a7578063eaaf1fca146105e2578063f60fabe51461060257600080fd5b806395d89b41146104e6578063a22cb465146104fb578063b02c43d01461051b578063c87b56dd1461056457600080fd5b8063703bafd5116100d1578063703bafd51461046e57806370a082311461048e5780637d882097146104bb5780638a570a12146104d157600080fd5b80636352211e146103f85780636c9980e11461042e5780636d43d9f11461044e57600080fd5b80631ab2f6af1161016f57806340229cbb1161013e57806340229cbb146103855780634b6d69d3146103a5578063564b81ef146103c55780636281133d146103d857600080fd5b80631ab2f6af146102ec57806323b872dd1461031a5780632d0335ab1461033a57806334d894c91461037057600080fd5b8063081812fc116101ab578063081812fc14610261578063095ea7b3146102975780630c53c51c146102b9578063159b4962146102cc57600080fd5b806301ffc9a7146101d2578063059b2a101461020757806306fdde031461023f575b600080fd5b3480156101de57600080fd5b506101f26101ed366004611e47565b610618565b60405190151581526020015b60405180910390f35b34801561021357600080fd5b50601154610227906001600160a01b031681565b6040516001600160a01b0390911681526020016101fe565b34801561024b57600080fd5b5061025461066a565b6040516101fe919061203c565b34801561026d57600080fd5b5061022761027c366004611ef1565b6006602052600090815260409020546001600160a01b031681565b3480156102a357600080fd5b506102b76102b2366004611d7f565b6106f8565b005b6102546102c7366004611d0f565b6107df565b3480156102d857600080fd5b506102b76102e7366004611f21565b6109ae565b3480156102f857600080fd5b5061030c610307366004611ef1565b6109bc565b6040519081526020016101fe565b34801561032657600080fd5b506102b7610335366004611c9e565b610a22565b34801561034657600080fd5b5061030c610355366004611c52565b6001600160a01b031660009081526008602052604090205490565b34801561037c57600080fd5b506102b7610be9565b34801561039157600080fd5b506102b76103a0366004611ef1565b610d96565b3480156103b157600080fd5b5061030c6103c0366004611ef1565b610db6565b3480156103d157600080fd5b504661030c565b3480156103e457600080fd5b506101f26103f3366004611da8565b610dc1565b34801561040457600080fd5b50610227610413366004611ef1565b6005602052600090815260409020546001600160a01b031681565b34801561043a57600080fd5b506102b7610449366004611e6f565b610f09565b34801561045a57600080fd5b5061030c610469366004611ef1565b610f96565b34801561047a57600080fd5b50600f54610227906001600160a01b031681565b34801561049a57600080fd5b5061030c6104a9366004611c52565b60046020526000908152604090205481565b3480156104c757600080fd5b5061030c600b5481565b3480156104dd57600080fd5b506102b7610fba565b3480156104f257600080fd5b50610254611163565b34801561050757600080fd5b506102b7610516366004611cd9565b611170565b34801561052757600080fd5b5061054f610536366004611ef1565b6009602052600090815260409020805460019091015482565b604080519283526020830191909152016101fe565b34801561057057600080fd5b5061058461057f366004611ef1565b6111dc565b6040516101fe919061204f565b34801561059d57600080fd5b5061030c60035481565b3480156105b357600080fd5b506101f26105c2366004611c6c565b600760209081526000928352604080842090915290825290205460ff1681565b3480156105ee57600080fd5b506102b76105fd366004611f21565b6112d9565b34801561060e57600080fd5b5061030c600a5481565b60006301ffc9a760e01b6001600160e01b03198316148061064957506380ac58cd60e01b6001600160e01b03198316145b806106645750635b5e139f60e01b6001600160e01b03198316145b92915050565b6000805461067790612145565b80601f01602080910402602001604051908101604052809291908181526020018280546106a390612145565b80156106f05780601f106106c5576101008083540402835291602001916106f0565b820191906000526020600020905b8154815290600101906020018083116106d357829003601f168201915b505050505081565b6000818152600560205260409020546001600160a01b03163381148061074157506001600160a01b038116600090815260076020908152604080832033845290915290205460ff165b6107835760405162461bcd60e51b815260206004820152600e60248201526d1393d517d055551213d49256915160921b60448201526064015b60405180910390fd5b60008281526006602052604080822080546001600160a01b0319166001600160a01b0387811691821790925591518593918516917f8c5be1e5ebec7d5bd14f71427d1e84f3dd0314c0f7b2291e5b200ac8c7c3b92591a4505050565b6001600160a01b03851660009081526008602052604090205460609061080b9087904688888888610dc1565b6108615760405162461bcd60e51b815260206004820152602160248201527f5369676e657220616e64207369676e617475726520646f206e6f74206d6174636044820152600d60fb1b606482015260840161077a565b6001600160a01b0386166000908152600860205260409020546108859060016112e3565b6001600160a01b03871660009081526008602090815260408083209390935591519091829130916108ba918a918c9101611f8a565b60408051601f19818403018152908290526108d491611f6e565b6000604051808303816000865af19150503d8060008114610911576040519150601f19603f3d011682016040523d82523d6000602084013e610916565b606091505b5091509150816109685760405162461bcd60e51b815260206004820152601c60248201527f46756e6374696f6e2063616c6c206e6f74207375636365737366756c00000000604482015260640161077a565b7f5845892132946850460bff5a0083f71031bc5bf9aadcd40f1de79423eac9b10b88338960405161099b93929190612007565b60405180910390a1979650505050505050565b6109b882826112ef565b5050565b600a54600082815260096020526040812054909182916402540be400916109e2916120df565b6109ec91906120bf565b600084815260096020526040902060010154909150610a11906402540be400906120bf565b610a1b90826120fe565b9392505050565b6000818152600560205260409020546001600160a01b03848116911614610a785760405162461bcd60e51b815260206004820152600a60248201526957524f4e475f46524f4d60b01b604482015260640161077a565b6001600160a01b038216610ac25760405162461bcd60e51b81526020600482015260116024820152701253959053125117d49150d25412515395607a1b604482015260640161077a565b336001600160a01b0384161480610aef57506000818152600660205260409020546001600160a01b031633145b80610b1d57506001600160a01b038316600090815260076020908152604080832033845290915290205460ff165b610b5a5760405162461bcd60e51b815260206004820152600e60248201526d1393d517d055551213d49256915160921b604482015260640161077a565b6001600160a01b0380841660008181526004602090815260408083208054600019019055938616808352848320805460010190558583526005825284832080546001600160a01b03199081168317909155600690925284832080549092169091559251849392917fddf252ad1be2c89b69c2b068fc378daa952ba7f163c4a11628f55a4df523b3ef91a4505050565b6011546001600160a01b0316610c2f5760405162461bcd60e51b815260206004820152600b60248201526a4e6f20537472617465677960a81b604482015260640161077a565b6000612710600b54611388610c4491906120df565b610c4e91906120bf565b90506000600e5482610c6091906120fe565b905080600e6000828254610c7491906120a7565b9250508190555080600d6000828254610c8d91906120a7565b9250508190555080600c6000828254610ca691906120fe565b9091555050600f5460115460405163095ea7b360e01b81526001600160a01b0391821660048201526024810184905291169063095ea7b390604401602060405180830381600087803b158015610cfb57600080fd5b505af1158015610d0f573d6000803e3d6000fd5b505050506040513d601f19601f82011682018060405250810190610d339190611e2b565b5060115460405163b6b55f2560e01b8152600481018390526001600160a01b039091169063b6b55f2590602401600060405180830381600087803b158015610d7a57600080fd5b505af1158015610d8e573d6000803e3d6000fd5b505050505050565b6000610da182610f96565b9050610dad818361145e565b6109b8826116da565b6000610664826117a7565b600080610e3e88308989604051602001610dde9493929190611fc1565b60408051601f1981840301815282825280516020918201207f19457468657265756d205369676e6564204d6573736167653a0a33320000000084830152603c8085019190915282518085039091018152605c909301909152815191012090565b6040805160008082526020820180845284905260ff87169282019290925260608101889052608081018790529192509060019060a0016020604051602081039080840390855afa158015610e96573d6000803e3d6000fd5b5050604051601f1901519150506001600160a01b038116610eed5760405162461bcd60e51b8152602060048201526011602482015270496e76616c6964207369676e617475726560781b604482015260640161077a565b6001600160a01b038a8116911614915050979650505050505050565b60105415610f4f5760405162461bcd60e51b8152602060048201526013602482015272105b1c9958591e48125b9a5d1a585b1a5e9959606a1b604482015260640161077a565b610f5984846118ec565b601180546001600160a01b039283166001600160a01b031991821617909155600f8054939092169216919091179055505060016003819055601055565b6000610fa1826109bc565b60008381526009602052604090205461066491906120a7565b600c54600f546040516370a0823160e01b8152306004820152600092916001600160a01b0316906370a082319060240160206040518083038186803b15801561100257600080fd5b505afa158015611016573d6000803e3d6000fd5b505050506040513d601f19601f8201168201806040525081019061103a9190611f09565b61104491906120fe565b905080600c600082825461105891906120a7565b90915550506011546000906001600160a01b031661107757600061110a565b600d54601160009054906101000a90046001600160a01b03166001600160a01b031663192366376040518163ffffffff1660e01b815260040160206040518083038186803b1580156110c857600080fd5b505afa1580156110dc573d6000803e3d6000fd5b505050506040513d601f19601f820116820180604052508101906111009190611f09565b61110a91906120fe565b905080600d600082825461111e91906120a7565b9091555050600b5461113082846120a7565b61113f906402540be4006120df565b61114991906120bf565b600a600082825461115a91906120a7565b90915550505050565b6001805461067790612145565b3360008181526007602090815260408083206001600160a01b03871680855290835292819020805460ff191686151590811790915590519081529192917f17307eab39ab6107e8899845ad3d59bd9653f200f220920489ca2b5937696c31910160405180910390a35050565b6112176040518060a001604052806060815260200160006001600160a01b031681526020016000815260200160008152602001600081525090565b6040518060a001604052806000805461122f90612145565b80601f016020809104026020016040519081016040528092919081815260200182805461125b90612145565b80156112a85780601f1061127d576101008083540402835291602001916112a8565b820191906000526020600020905b81548152906001019060200180831161128b57829003601f168201915b50505091835250503060208201526040016112c284610f96565b815260200183815260200160008152509050919050565b6109b8818361145e565b6000610a1b82846120a7565b6000818152600560205260409020546001600160a01b031661130f611913565b6001600160a01b03161461132257600080fd5b600b541561133257611332610fba565b600081815260096020526040812080548492906113509084906120a7565b9091555050600a5461136290836120df565b600082815260096020526040812060010180549091906113839084906120a7565b9250508190555081600b600082825461139c91906120a7565b9250508190555081600c60008282546113b591906120a7565b9091555050600f546001600160a01b03166323b872dd6113d3611913565b6040516001600160e01b031960e084901b1681526001600160a01b03909116600482015230602482015260448101859052606401602060405180830381600087803b15801561142157600080fd5b505af1158015611435573d6000803e3d6000fd5b505050506040513d601f19601f820116820180604052508101906114599190611e2b565b505050565b611466610fba565b6000818152600560205260409020546001600160a01b0316611486611913565b6001600160a01b03161480156114a457506114a081610f96565b8211155b6114ad57600080fd5b600f546040516370a0823160e01b81523060048201526000916001600160a01b0316906370a082319060240160206040518083038186803b1580156114f157600080fd5b505afa158015611505573d6000803e3d6000fd5b505050506040513d601f19601f820116820180604052508101906115299190611f09565b9050600080611537846109bc565b9050808511156115bf5761154b81866120fe565b60008581526009602052604081208054929450849290919061156e9084906120fe565b9250508190555081600b600082825461158791906120fe565b9091555050600a546000858152600960205260409020546115a891906120df565b6000858152600960205260409020600101556115f5565b6115ce856402540be4006120df565b600085815260096020526040812060010180549091906115ef9084906120a7565b90915550505b600083861161160557600061160f565b61160f84876120fe565b905080156116385761162081611972565b82600e600082825461163291906120fe565b90915550505b600f546001600160a01b031663a9059cbb611651611913565b6040516001600160e01b031960e084901b1681526001600160a01b03909116600482015260248101899052604401602060405180830381600087803b15801561169957600080fd5b505af11580156116ad573d6000803e3d6000fd5b505050506040513d601f19601f820116820180604052508101906116d19190611e2b565b50505050505050565b6000818152600560205260409020546001600160a01b03168061172c5760405162461bcd60e51b815260206004820152600a6024820152691393d517d3525395115160b21b604482015260640161077a565b6001600160a01b038116600081815260046020908152604080832080546000190190558583526005825280832080546001600160a01b031990811690915560069092528083208054909216909155518492907fddf252ad1be2c89b69c2b068fc378daa952ba7f163c4a11628f55a4df523b3ef908390a45050565b6000806117bd6117b5611913565b6003546119ea565b600b54909150156117d0576117d0610fba565b6000818152600960205260409020839055600a546117ee90846120df565b6000828152600960205260408120600101805490919061180f9084906120a7565b9250508190555082600b600082825461182891906120a7565b9250508190555082600c600082825461184191906120a7565b9091555050600f546001600160a01b03166323b872dd61185f611913565b6040516001600160e01b031960e084901b1681526001600160a01b03909116600482015230602482015260448101869052606401602060405180830381600087803b1580156118ad57600080fd5b505af11580156118c1573d6000803e3d6000fd5b505050506040513d601f19601f820116820180604052508101906118e59190611e2b565b5092915050565b80516118ff906001906020840190611b05565b508151611459906000906020850190611b05565b60003330141561196a57600080368080601f0160208091040260200160405190810160405280939291908181526020018383808284376000920191909152505050503601516001600160a01b0316915061196f9050565b503390565b90565b601154604051632e1a7d4d60e01b8152600481018390526001600160a01b0390911690632e1a7d4d90602401600060405180830381600087803b1580156119b857600080fd5b505af11580156119cc573d6000803e3d6000fd5b5050505080600d60008282546119e291906120fe565b909155505050565b60006001600160a01b038316611a365760405162461bcd60e51b81526020600482015260116024820152701253959053125117d49150d25412515395607a1b604482015260640161077a565b6000828152600560205260409020546001600160a01b031615611a8c5760405162461bcd60e51b815260206004820152600e60248201526d1053149150511657d3525395115160921b604482015260640161077a565b6001600160a01b038316600081815260046020908152604080832080546001908101909155600380549091019055858352600590915280822080546001600160a01b0319168417905551849291907fddf252ad1be2c89b69c2b068fc378daa952ba7f163c4a11628f55a4df523b3ef908290a450919050565b828054611b1190612145565b90600052602060002090601f016020900481019282611b335760008555611b79565b82601f10611b4c57805160ff1916838001178555611b79565b82800160010185558215611b79579182015b82811115611b79578251825591602001919060010190611b5e565b50611b85929150611b89565b5090565b5b80821115611b855760008155600101611b8a565b80356001600160a01b0381168114611bb557600080fd5b919050565b600082601f830112611bca578081fd5b813567ffffffffffffffff80821115611be557611be5612196565b604051601f8301601f19908116603f01168101908282118183101715611c0d57611c0d612196565b81604052838152866020858801011115611c25578485fd5b8360208701602083013792830160200193909352509392505050565b803560ff81168114611bb557600080fd5b600060208284031215611c63578081fd5b610a1b82611b9e565b60008060408385031215611c7e578081fd5b611c8783611b9e565b9150611c9560208401611b9e565b90509250929050565b600080600060608486031215611cb2578081fd5b611cbb84611b9e565b9250611cc960208501611b9e565b9150604084013590509250925092565b60008060408385031215611ceb578182fd5b611cf483611b9e565b91506020830135611d04816121ac565b809150509250929050565b600080600080600060a08688031215611d26578081fd5b611d2f86611b9e565b9450602086013567ffffffffffffffff811115611d4a578182fd5b611d5688828901611bba565b9450506040860135925060608601359150611d7360808701611c41565b90509295509295909350565b60008060408385031215611d91578182fd5b611d9a83611b9e565b946020939093013593505050565b600080600080600080600060e0888a031215611dc2578182fd5b611dcb88611b9e565b96506020880135955060408801359450606088013567ffffffffffffffff811115611df4578283fd5b611e008a828b01611bba565b9450506080880135925060a08801359150611e1d60c08901611c41565b905092959891949750929550565b600060208284031215611e3c578081fd5b8151610a1b816121ac565b600060208284031215611e58578081fd5b81356001600160e01b031981168114610a1b578182fd5b60008060008060808587031215611e84578384fd5b843567ffffffffffffffff80821115611e9b578586fd5b611ea788838901611bba565b95506020870135915080821115611ebc578485fd5b50611ec987828801611bba565b935050611ed860408601611b9e565b9150611ee660608601611b9e565b905092959194509250565b600060208284031215611f02578081fd5b5035919050565b600060208284031215611f1a578081fd5b5051919050565b60008060408385031215611f33578182fd5b50508035926020909101359150565b60008151808452611f5a816020860160208601612115565b601f01601f19169290920160200192915050565b60008251611f80818460208701612115565b9190910192915050565b60008351611f9c818460208801612115565b60609390931b6bffffffffffffffffffffffff19169190920190815260140192915050565b8481526bffffffffffffffffffffffff198460601b16602082015282603482015260008251611ff7816054850160208701612115565b9190910160540195945050505050565b6001600160a01b0384811682528316602082015260606040820181905260009061203390830184611f42565b95945050505050565b602081526000610a1b6020830184611f42565b602081526000825160a0602084015261206b60c0840182611f42565b905060018060a01b0360208501511660408401526040840151606084015260608401516080840152608084015160a08401528091505092915050565b600082198211156120ba576120ba612180565b500190565b6000826120da57634e487b7160e01b81526012600452602481fd5b500490565b60008160001904831182151516156120f9576120f9612180565b500290565b60008282101561211057612110612180565b500390565b60005b83811015612130578181015183820152602001612118565b8381111561213f576000848401525b50505050565b600181811c9082168061215957607f821691505b6020821081141561217a57634e487b7160e01b600052602260045260246000fd5b50919050565b634e487b7160e01b600052601160045260246000fd5b634e487b7160e01b600052604160045260246000fd5b80151581146121ba57600080fd5b5056fea2646970667358221220d2cb86384a3b8770a421180c8a7d1141149cd4f133ed3a90d3bb8920443ba08664736f6c63430008040033",
  "linkReferences": {},
  "deployedLinkReferences": {}
}