{
  "_format": "hh-sol-artifact-1",
  "contractName": "MockYearnVault",
  "sourceName": "src/tokens/MockYearnVault.sol",
  "abi": [
    {
      "inputs": [
        {
          "internalType": "address",
          "name": "strategy",
          "type": "address"
        }
      ],
      "stateMutability": "nonpayable",
      "type": "constructor"
    },
    {
      "inputs": [
        {
          "internalType": "address",
          "name": "who",
          "type": "address"
        }
      ],
      "name": "balanceOf",
      "outputs": [
        {
          "internalType": "uint256",
          "name": "",
          "type": "uint256"
        }
      ],
      "stateMutability": "pure",
      "type": "function"
    },
    {
      "inputs": [
        {
          "internalType": "uint256",
          "name": "_amount",
          "type": "uint256"
        }
      ],
      "name": "deposit",
      "outputs": [],
      "stateMutability": "nonpayable",
      "type": "function"
    },
    {
      "inputs": [],
      "name": "getPricePerFullShare",
      "outputs": [
        {
          "internalType": "uint256",
          "name": "",
          "type": "uint256"
        }
      ],
      "stateMutability": "pure",
      "type": "function"
    },
    {
      "inputs": [
        {
          "internalType": "uint256",
          "name": "amount",
          "type": "uint256"
        }
      ],
      "name": "withdraw",
      "outputs": [],
      "stateMutability": "nonpayable",
      "type": "function"
    }
  ],
  "bytecode": "0x608060405234801561001057600080fd5b5060405161016e38038061016e83398101604081905261002f91610035565b50610063565b600060208284031215610046578081fd5b81516001600160a01b038116811461005c578182fd5b9392505050565b60fd806100716000396000f3fe6080604052348015600f57600080fd5b506004361060465760003560e01c80632e1a7d4d14604b57806370a0823114605b57806377c7b8fc14607e578063b6b55f2514604b575b600080fd5b6059605636600460b0565b50565b005b606c60663660046084565b50600190565b60405190815260200160405180910390f35b6001606c565b6000602082840312156094578081fd5b81356001600160a01b038116811460a9578182fd5b9392505050565b60006020828403121560c0578081fd5b503591905056fea26469706673582212209cc5ffe258fde2cf1f6ef10b032cfbcb1b18b90cbf86ebb21130a914ddde771364736f6c63430008040033",
  "linkReferences": {},
  "deployedLinkReferences": {}
}