{
  "_format": "hh-sol-artifact-1",
  "contractName": "YearnStrategy",
  "sourceName": "contracts/strategies/ExampleYearnStrat.sol",
  "abi": [
    {
      "inputs": [
        {
          "internalType": "uint256",
          "name": "amount",
          "type": "uint256"
        }
      ],
      "name": "deposit",
      "outputs": [],
      "stateMutability": "nonpayable",
      "type": "function"
    },
    {
      "inputs": [
        {
          "internalType": "address",
          "name": "_yVault",
          "type": "address"
        },
        {
          "internalType": "address",
          "name": "_token",
          "type": "address"
        },
        {
          "internalType": "address",
          "name": "_vault",
          "type": "address"
        }
      ],
      "name": "init",
      "outputs": [],
      "stateMutability": "nonpayable",
      "type": "function"
    },
    {
      "inputs": [],
      "name": "token",
      "outputs": [
        {
          "internalType": "contract ERC20",
          "name": "",
          "type": "address"
        }
      ],
      "stateMutability": "view",
      "type": "function"
    },
    {
      "inputs": [],
      "name": "vault",
      "outputs": [
        {
          "internalType": "address",
          "name": "",
          "type": "address"
        }
      ],
      "stateMutability": "view",
      "type": "function"
    },
    {
      "inputs": [
        {
          "internalType": "uint256",
          "name": "tokenAmount",
          "type": "uint256"
        }
      ],
      "name": "withdraw",
      "outputs": [],
      "stateMutability": "nonpayable",
      "type": "function"
    },
    {
      "inputs": [],
      "name": "withdrawableVaultToken",
      "outputs": [
        {
          "internalType": "uint256",
          "name": "",
          "type": "uint256"
        }
      ],
      "stateMutability": "view",
      "type": "function"
    },
    {
      "inputs": [],
      "name": "yvault",
      "outputs": [
        {
          "internalType": "contract IYearnVault",
          "name": "",
          "type": "address"
        }
      ],
      "stateMutability": "view",
      "type": "function"
    }
  ],
  "bytecode": "0x608060405234801561001057600080fd5b5061073b806100206000396000f3fe608060405234801561001057600080fd5b506004361061007d5760003560e01c80632e1a7d4d1161005b5780632e1a7d4d146100dd578063b6b55f25146100f0578063fbfa77cf14610103578063fc0c546a1461011657600080fd5b8063147ccfb514610082578063184b9559146100b257806319236637146100c7575b600080fd5b600054610095906001600160a01b031681565b6040516001600160a01b0390911681526020015b60405180910390f35b6100c56100c0366004610621565b610129565b005b6100cf610175565b6040519081526020016100a9565b6100c56100eb36600461068a565b610282565b6100c56100fe36600461068a565b6104d3565b600354610095906001600160a01b031681565b600154610095906001600160a01b031681565b6002541561013657600080fd5b50600080546001600160a01b039384166001600160a01b0319918216179091556001805492909316918116919091179091556004805490911633179055565b6000805460408051631df1ee3f60e21b8152905183926001600160a01b0316916377c7b8fc916004808301926020929190829003018186803b1580156101ba57600080fd5b505afa1580156101ce573d6000803e3d6000fd5b505050506040513d601f19601f820116820180604052508101906101f291906106a2565b6000546040516370a0823160e01b815230600482015291925082916001600160a01b03909116906370a082319060240160206040518083038186803b15801561023a57600080fd5b505afa15801561024e573d6000803e3d6000fd5b505050506040513d601f19601f8201168201806040525081019061027291906106a2565b61027c91906106da565b91505090565b6003546001600160a01b031633146102d05760405162461bcd60e51b815260206004820152600c60248201526b155b985d5d1a1bdc9a5e995960a21b60448201526064015b60405180910390fd5b60008060009054906101000a90046001600160a01b03166001600160a01b03166377c7b8fc6040518163ffffffff1660e01b815260040160206040518083038186803b15801561031f57600080fd5b505afa158015610333573d6000803e3d6000fd5b505050506040513d601f19601f8201168201806040525081019061035791906106a2565b9050600061036582846106ba565b600054604051632e1a7d4d60e01b8152600481018390529192506001600160a01b031690632e1a7d4d90602401600060405180830381600087803b1580156103ac57600080fd5b505af11580156103c0573d6000803e3d6000fd5b50506001546040516370a0823160e01b8152306004820152600093506001600160a01b0390911691506370a082319060240160206040518083038186803b15801561040a57600080fd5b505afa15801561041e573d6000803e3d6000fd5b505050506040513d601f19601f8201168201806040525081019061044291906106a2565b60015460035460405163a9059cbb60e01b81526001600160a01b03918216600482015260248101849052929350169063a9059cbb90604401602060405180830381600087803b15801561049457600080fd5b505af11580156104a8573d6000803e3d6000fd5b505050506040513d601f19601f820116820180604052508101906104cc9190610663565b5050505050565b6003546001600160a01b0316331461051c5760405162461bcd60e51b815260206004820152600c60248201526b155b985d5d1a1bdc9a5e995960a21b60448201526064016102c7565b6001546003546040516323b872dd60e01b81526001600160a01b039182166004820152306024820152604481018490529116906323b872dd90606401602060405180830381600087803b15801561057257600080fd5b505af1158015610586573d6000803e3d6000fd5b505050506040513d601f19601f820116820180604052508101906105aa9190610663565b5060005460405163b6b55f2560e01b8152600481018390526001600160a01b039091169063b6b55f2590602401600060405180830381600087803b1580156105f157600080fd5b505af11580156104cc573d6000803e3d6000fd5b80356001600160a01b038116811461061c57600080fd5b919050565b600080600060608486031215610635578283fd5b61063e84610605565b925061064c60208501610605565b915061065a60408501610605565b90509250925092565b600060208284031215610674578081fd5b81518015158114610683578182fd5b9392505050565b60006020828403121561069b578081fd5b5035919050565b6000602082840312156106b3578081fd5b5051919050565b6000826106d557634e487b7160e01b81526012600452602481fd5b500490565b600081600019048311821515161561070057634e487b7160e01b81526011600452602481fd5b50029056fea264697066735822122069e01d7091c2bdf54588cbe3840ace0ee04b42da3a240de5ac8a62ddc144c91b64736f6c63430008040033",
  "linkReferences": {},
  "deployedLinkReferences": {}
}