{
  "_format": "hh-sol-artifact-1",
  "contractName": "Controller",
  "sourceName": "contracts/src/controllers/controllermultisig.sol",
  "abi": [
    {
      "inputs": [
        {
          "internalType": "address[]",
          "name": "_signers",
          "type": "address[]"
        },
        {
          "internalType": "uint256",
          "name": "_sigsNeeded",
          "type": "uint256"
        }
      ],
      "stateMutability": "nonpayable",
      "type": "constructor"
    },
    {
      "inputs": [
        {
          "internalType": "uint256",
          "name": "key",
          "type": "uint256"
        }
      ],
      "name": "exectuteManage",
      "outputs": [
        {
          "internalType": "bool",
          "name": "",
          "type": "bool"
        }
      ],
      "stateMutability": "nonpayable",
      "type": "function"
    },
    {
      "inputs": [
        {
          "internalType": "uint256",
          "name": "key",
          "type": "uint256"
        }
      ],
      "name": "executeStrategy",
      "outputs": [
        {
          "internalType": "bool",
          "name": "",
          "type": "bool"
        }
      ],
      "stateMutability": "nonpayable",
      "type": "function"
    },
    {
      "inputs": [
        {
          "internalType": "address",
          "name": "who",
          "type": "address"
        },
        {
          "internalType": "uint256",
          "name": "amount",
          "type": "uint256"
        }
      ],
      "name": "initManage",
      "outputs": [
        {
          "internalType": "uint256",
          "name": "",
          "type": "uint256"
        }
      ],
      "stateMutability": "nonpayable",
      "type": "function"
    },
    {
      "inputs": [
        {
          "internalType": "address",
          "name": "who",
          "type": "address"
        }
      ],
      "name": "initStrat",
      "outputs": [
        {
          "internalType": "uint256",
          "name": "",
          "type": "uint256"
        }
      ],
      "stateMutability": "nonpayable",
      "type": "function"
    },
    {
      "inputs": [
        {
          "internalType": "uint256",
          "name": "key",
          "type": "uint256"
        }
      ],
      "name": "signManage",
      "outputs": [
        {
          "internalType": "bool",
          "name": "",
          "type": "bool"
        }
      ],
      "stateMutability": "nonpayable",
      "type": "function"
    },
    {
      "inputs": [
        {
          "internalType": "uint256",
          "name": "key",
          "type": "uint256"
        }
      ],
      "name": "signStrat",
      "outputs": [
        {
          "internalType": "bool",
          "name": "",
          "type": "bool"
        }
      ],
      "stateMutability": "nonpayable",
      "type": "function"
    }
  ],
  "bytecode": "0x608060405234801561001057600080fd5b5060405161035c38038061035c83398101604081905261002f916100cc565b815160005b818110156100a557600160008086848151811061006157634e487b7160e01b600052603260045260246000fd5b6020908102919091018101516001600160a01b03168252810191909152604001600020805460ff19169115159190911790558061009d8161019a565b915050610034565b5050600155506101d7565b80516001600160a01b03811681146100c757600080fd5b919050565b600080604083850312156100de578182fd5b82516001600160401b03808211156100f4578384fd5b818501915085601f830112610107578384fd5b815160208282111561011b5761011b6101c1565b8160051b604051601f19603f83011681018181108682111715610140576101406101c1565b604052838152828101945085830182870184018b101561015e578889fd5b8896505b8487101561018757610173816100b0565b865260019690960195948301948301610162565b5097909101519698969750505050505050565b60006000198214156101ba57634e487b7160e01b81526011600452602481fd5b5060010190565b634e487b7160e01b600052604160045260246000fd5b610176806101e66000396000f3fe608060405234801561001057600080fd5b50600436106100625760003560e01c80632862556c1461006757806368fce00214610067578063887a2f721461006757806392b20d7f14610067578063a5060fca14610090578063aec54529146100ac575b600080fd5b61007b610075366004610128565b50600090565b60405190151581526020015b60405180910390f35b61009e6100753660046100de565b604051908152602001610087565b61009e6100ba3660046100ff565b600092915050565b80356001600160a01b03811681146100d957600080fd5b919050565b6000602082840312156100ef578081fd5b6100f8826100c2565b9392505050565b60008060408385031215610111578081fd5b61011a836100c2565b946020939093013593505050565b600060208284031215610139578081fd5b503591905056fea26469706673582212204c7fcd7d4305b7d3a5615c16099984d11ff79f21a6330acc20e230299b36ee7164736f6c63430008040033",
  "linkReferences": {},
  "deployedLinkReferences": {}
}