{
  "abi": [
    {
      "inputs": [
        {
          "internalType": "uint256",
          "name": "amount",
          "type": "uint256"
        }
      ],
      "name": "deposit",
      "outputs": [],
      "stateMutability": "nonpayable",
      "type": "function"
    },
    {
      "inputs": [
        {
          "internalType": "address",
          "name": "_yVault",
          "type": "address"
        },
        {
          "internalType": "address",
          "name": "_token",
          "type": "address"
        },
        {
          "internalType": "address",
          "name": "_vault",
          "type": "address"
        }
      ],
      "name": "init",
      "outputs": [],
      "stateMutability": "nonpayable",
      "type": "function"
    },
    {
      "inputs": [],
      "name": "token",
      "outputs": [
        {
          "internalType": "contract ERC20",
          "name": "",
          "type": "address"
        }
      ],
      "stateMutability": "view",
      "type": "function"
    },
    {
      "inputs": [],
      "name": "vault",
      "outputs": [
        {
          "internalType": "address",
          "name": "",
          "type": "address"
        }
      ],
      "stateMutability": "view",
      "type": "function"
    },
    {
      "inputs": [
        {
          "internalType": "uint256",
          "name": "tokenAmount",
          "type": "uint256"
        }
      ],
      "name": "withdraw",
      "outputs": [],
      "stateMutability": "nonpayable",
      "type": "function"
    },
    {
      "inputs": [],
      "name": "withdrawableVaultToken",
      "outputs": [
        {
          "internalType": "uint256",
          "name": "",
          "type": "uint256"
        }
      ],
      "stateMutability": "view",
      "type": "function"
    },
    {
      "inputs": [],
      "name": "yvault",
      "outputs": [
        {
          "internalType": "contract IYearnVault",
          "name": "",
          "type": "address"
        }
      ],
      "stateMutability": "view",
      "type": "function"
    }
  ],
  "bytecode": {
    "object": "0x608060405234801561001057600080fd5b506106ea806100206000396000f3fe608060405234801561001057600080fd5b506004361061007d5760003560e01c80632e1a7d4d1161005b5780632e1a7d4d146100dd578063b6b55f25146100f0578063fbfa77cf14610103578063fc0c546a1461011657600080fd5b8063147ccfb514610082578063184b9559146100b257806319236637146100c7575b600080fd5b600054610095906001600160a01b031681565b6040516001600160a01b0390911681526020015b60405180910390f35b6100c56100c03660046105c7565b610129565b005b6100cf610175565b6040519081526020016100a9565b6100c56100eb36600461060a565b610264565b6100c56100fe36600461060a565b610488565b600354610095906001600160a01b031681565b600154610095906001600160a01b031681565b6002541561013657600080fd5b50600080546001600160a01b039384166001600160a01b0319918216179091556001805492909316918116919091179091556004805490911633179055565b6000805460408051631df1ee3f60e21b8152905183926001600160a01b0316916377c7b8fc9160048083019260209291908290030181865afa1580156101bf573d6000803e3d6000fd5b505050506040513d601f19601f820116820180604052508101906101e39190610623565b6000546040516370a0823160e01b815230600482015291925082916001600160a01b03909116906370a0823190602401602060405180830381865afa158015610230573d6000803e3d6000fd5b505050506040513d601f19601f820116820180604052508101906102549190610623565b61025e919061063c565b91505090565b6003546001600160a01b031633146102b25760405162461bcd60e51b815260206004820152600c60248201526b155b985d5d1a1bdc9a5e995960a21b60448201526064015b60405180910390fd5b60008060009054906101000a90046001600160a01b03166001600160a01b03166377c7b8fc6040518163ffffffff1660e01b8152600401602060405180830381865afa158015610306573d6000803e3d6000fd5b505050506040513d601f19601f8201168201806040525081019061032a9190610623565b905060006103388284610669565b600054604051632e1a7d4d60e01b8152600481018390529192506001600160a01b031690632e1a7d4d90602401600060405180830381600087803b15801561037f57600080fd5b505af1158015610393573d6000803e3d6000fd5b50506001546040516370a0823160e01b8152306004820152600093506001600160a01b0390911691506370a0823190602401602060405180830381865afa1580156103e2573d6000803e3d6000fd5b505050506040513d601f19601f820116820180604052508101906104069190610623565b60015460035460405163a9059cbb60e01b81526001600160a01b03918216600482015260248101849052929350169063a9059cbb906044016020604051808303816000875af115801561045d573d6000803e3d6000fd5b505050506040513d601f19601f82011682018060405250810190610481919061068b565b5050505050565b6003546001600160a01b031633146104d15760405162461bcd60e51b815260206004820152600c60248201526b155b985d5d1a1bdc9a5e995960a21b60448201526064016102a9565b6001546003546040516323b872dd60e01b81526001600160a01b039182166004820152306024820152604481018490529116906323b872dd906064016020604051808303816000875af115801561052c573d6000803e3d6000fd5b505050506040513d601f19601f82011682018060405250810190610550919061068b565b5060005460405163b6b55f2560e01b8152600481018390526001600160a01b039091169063b6b55f2590602401600060405180830381600087803b15801561059757600080fd5b505af1158015610481573d6000803e3d6000fd5b80356001600160a01b03811681146105c257600080fd5b919050565b6000806000606084860312156105dc57600080fd5b6105e5846105ab565b92506105f3602085016105ab565b9150610601604085016105ab565b90509250925092565b60006020828403121561061c57600080fd5b5035919050565b60006020828403121561063557600080fd5b5051919050565b600081600019048311821515161561066457634e487b7160e01b600052601160045260246000fd5b500290565b60008261068657634e487b7160e01b600052601260045260246000fd5b500490565b60006020828403121561069d57600080fd5b815180151581146106ad57600080fd5b939250505056fea26469706673582212209f9f21c490e46887c394886b3d0cf378586605ba24a627335575237cfa5e943064736f6c634300080a0033",
    "linkReferences": {}
  }
}