{
  "_format": "hh-sol-artifact-1",
  "contractName": "BaseVault",
  "sourceName": "contracts/src/BaseVault.sol",
  "abi": [
    {
      "inputs": [
        {
          "internalType": "address",
          "name": "_controller",
          "type": "address"
        },
        {
          "internalType": "contract ERC721",
          "name": "_NFT",
          "type": "address"
        },
        {
          "internalType": "contract ERC20",
          "name": "_vaultToken",
          "type": "address"
        }
      ],
      "stateMutability": "nonpayable",
      "type": "constructor"
    },
    {
      "inputs": [],
      "name": "NFT",
      "outputs": [
        {
          "internalType": "contract ERC721",
          "name": "",
          "type": "address"
        }
      ],
      "stateMutability": "view",
      "type": "function"
    },
    {
      "inputs": [],
      "name": "adjustYeild",
      "outputs": [],
      "stateMutability": "nonpayable",
      "type": "function"
    },
    {
      "inputs": [
        {
          "internalType": "uint256",
          "name": "id",
          "type": "uint256"
        }
      ],
      "name": "burn",
      "outputs": [],
      "stateMutability": "nonpayable",
      "type": "function"
    },
    {
      "inputs": [
        {
          "internalType": "uint256",
          "name": "amount",
          "type": "uint256"
        },
        {
          "internalType": "uint256",
          "name": "id",
          "type": "uint256"
        }
      ],
      "name": "depositToId",
      "outputs": [],
      "stateMutability": "nonpayable",
      "type": "function"
    },
    {
      "inputs": [],
      "name": "depositedToStrat",
      "outputs": [
        {
          "internalType": "uint256",
          "name": "",
          "type": "uint256"
        }
      ],
      "stateMutability": "view",
      "type": "function"
    },
    {
      "inputs": [
        {
          "internalType": "uint256",
          "name": "",
          "type": "uint256"
        }
      ],
      "name": "deposits",
      "outputs": [
        {
          "internalType": "uint256",
          "name": "amount",
          "type": "uint256"
        },
        {
          "internalType": "uint256",
          "name": "tracker",
          "type": "uint256"
        }
      ],
      "stateMutability": "view",
      "type": "function"
    },
    {
      "inputs": [],
      "name": "initStrat",
      "outputs": [],
      "stateMutability": "nonpayable",
      "type": "function"
    },
    {
      "inputs": [
        {
          "internalType": "uint256",
          "name": "amount",
          "type": "uint256"
        }
      ],
      "name": "mintNewNFT",
      "outputs": [
        {
          "internalType": "uint256",
          "name": "",
          "type": "uint256"
        }
      ],
      "stateMutability": "nonpayable",
      "type": "function"
    },
    {
      "inputs": [
        {
          "internalType": "address",
          "name": "addr",
          "type": "address"
        }
      ],
      "name": "setStrategy",
      "outputs": [],
      "stateMutability": "nonpayable",
      "type": "function"
    },
    {
      "inputs": [],
      "name": "totalDeposits",
      "outputs": [
        {
          "internalType": "uint256",
          "name": "",
          "type": "uint256"
        }
      ],
      "stateMutability": "view",
      "type": "function"
    },
    {
      "inputs": [
        {
          "internalType": "uint256",
          "name": "amount",
          "type": "uint256"
        },
        {
          "internalType": "uint256",
          "name": "id",
          "type": "uint256"
        }
      ],
      "name": "withdrawFromId",
      "outputs": [],
      "stateMutability": "nonpayable",
      "type": "function"
    },
    {
      "inputs": [
        {
          "internalType": "uint256",
          "name": "id",
          "type": "uint256"
        }
      ],
      "name": "withdrawableById",
      "outputs": [
        {
          "internalType": "uint256",
          "name": "",
          "type": "uint256"
        }
      ],
      "stateMutability": "view",
      "type": "function"
    },
    {
      "inputs": [],
      "name": "yeildPerDeposit",
      "outputs": [
        {
          "internalType": "uint256",
          "name": "",
          "type": "uint256"
        }
      ],
      "stateMutability": "view",
      "type": "function"
    }
  ],
  "bytecode": "0x60c06040526402540be40060035534801561001957600080fd5b50604051610fa7380380610fa7833981016040819052610038916100c9565b606083811b6001600160601b031990811660a052600580546001600160a01b0319166001600160a01b0386169081179091559183901b1660805260408051637c65f50360e01b81529051637c65f5039160048082019260009290919082900301818387803b1580156100a957600080fd5b505af11580156100bd573d6000803e3d6000fd5b5050505050505061012d565b6000806000606084860312156100dd578283fd5b83516100e881610115565b60208501519093506100f981610115565b604085015190925061010a81610115565b809150509250925092565b6001600160a01b038116811461012a57600080fd5b50565b60805160601c60a05160601c610e2c61017b60003960006103ab01526000818161031701528181610454015281816106780152818161084601528181610a1f0152610b300152610e2c6000f3fe608060405234801561001057600080fd5b50600436106100cf5760003560e01c80637c0b8de21161008c578063a2d6b25f11610066578063a2d6b25f1461018c578063b02c43d014610195578063c91b5dd2146101d1578063eaaf1fca146101da57600080fd5b80637c0b8de2146101455780637d882097146101705780639b270da81461017957600080fd5b8063159b4962146100d457806333a100ca146100e957806334d894c9146100fc57806342966c68146101045780635239af4b146101175780636d43d9f11461011f575b600080fd5b6100e76100e2366004610d39565b6101ed565b005b6100e76100f7366004610cb1565b6103a0565b6100e76103f7565b6100e7610112366004610d09565b610534565b6100e761057c565b61013261012d366004610d09565b610642565b6040519081526020015b60405180910390f35b600554610158906001600160a01b031681565b6040516001600160a01b03909116815260200161013c565b61013260025481565b610132610187366004610d09565b61073b565b61013260015481565b6101bc6101a3366004610d09565b6000602081905290815260409020805460019091015482565b6040805192835260208301919091520161013c565b61013260045481565b6100e76101e8366004610d39565b610959565b6005546040516331a9108f60e11b8152600481018390526001600160a01b0390911690636352211e9060240160206040518083038186803b15801561023157600080fd5b505afa158015610245573d6000803e3d6000fd5b505050506040513d601f19601f820116820180604052508101906102699190610ccd565b6001600160a01b0316336001600160a01b03161461028657600080fd5b600081815260208190526040812080548492906102a4908490610d5a565b90915550506001546102b69083610d92565b600082815260208190526040812060010180549091906102d7908490610d5a565b9250508190555081600260008282546102f09190610d5a565b90915550506040516323b872dd60e01b8152336004820152306024820152604481018390527f00000000000000000000000000000000000000000000000000000000000000006001600160a01b0316906323b872dd90606401602060405180830381600087803b15801561036357600080fd5b505af1158015610377573d6000803e3d6000fd5b505050506040513d601f19601f8201168201806040525081019061039b9190610ce9565b505050565b336001600160a01b037f000000000000000000000000000000000000000000000000000000000000000016146103d557600080fd5b600680546001600160a01b0319166001600160a01b0392909216919091179055565b600061271060025461138861040c9190610d92565b6104169190610d72565b90506000600454826104289190610db1565b60065460405163095ea7b360e01b81526001600160a01b039182166004820152602481018390529192507f0000000000000000000000000000000000000000000000000000000000000000169063095ea7b390604401602060405180830381600087803b15801561049857600080fd5b505af11580156104ac573d6000803e3d6000fd5b505050506040513d601f19601f820116820180604052508101906104d09190610ce9565b5060065460405163b6b55f2560e01b8152600481018390526001600160a01b039091169063b6b55f25906024015b600060405180830381600087803b15801561051857600080fd5b505af115801561052c573d6000803e3d6000fd5b505050505050565b600061053f82610642565b905061054b8183610959565b600554604051630852cd8d60e31b8152600481018490526001600160a01b03909116906342966c68906024016104fe565b60065460408051632307fed760e11b815290516000926001600160a01b03169163460ffdae916004808301926020929190829003018186803b1580156105c157600080fd5b505afa1580156105d5573d6000803e3d6000fd5b505050506040513d601f19601f820116820180604052508101906105f99190610d21565b905060006004548261060b9190610db1565b90506002546003548261061e9190610d92565b6106289190610d72565b600160008282546106399190610d5a565b90915550505050565b60008061064e83610bba565b600480546040516370a0823160e01b81523092810192909252919250600091906001600160a01b037f000000000000000000000000000000000000000000000000000000000000000016906370a082319060240160206040518083038186803b1580156106ba57600080fd5b505afa1580156106ce573d6000803e3d6000fd5b505050506040513d601f19601f820116820180604052508101906106f29190610d21565b6106fc9190610d5a565b6002546000868152602081905260408120549293509161071c9084610d92565b6107269190610d72565b90506107328382610d5a565b95945050505050565b600080600560009054906101000a90046001600160a01b03166001600160a01b031663e00dd1616040518163ffffffff1660e01b815260040160206040518083038186803b15801561078c57600080fd5b505afa1580156107a0573d6000803e3d6000fd5b505050506040513d601f19601f820116820180604052508101906107c49190610d21565b60008181526020819052604090208490556001549091506107e59084610d92565b60008281526020819052604081206001018054909190610806908490610d5a565b92505081905550826002600082825461081f9190610d5a565b90915550506040516323b872dd60e01b8152336004820152306024820152604481018490527f00000000000000000000000000000000000000000000000000000000000000006001600160a01b0316906323b872dd90606401602060405180830381600087803b15801561089257600080fd5b505af11580156108a6573d6000803e3d6000fd5b505050506040513d601f19601f820116820180604052508101906108ca9190610ce9565b506005546040516335313c2160e11b81523360048201526001600160a01b0390911690636a62784290602401602060405180830381600087803b15801561091057600080fd5b505af1158015610924573d6000803e3d6000fd5b505050506040513d601f19601f820116820180604052508101906109489190610d21565b811461095357600080fd5b92915050565b6005546040516331a9108f60e11b8152600481018390526001600160a01b0390911690636352211e9060240160206040518083038186803b15801561099d57600080fd5b505afa1580156109b1573d6000803e3d6000fd5b505050506040513d601f19601f820116820180604052508101906109d59190610ccd565b6001600160a01b0316336001600160a01b0316146109f257600080fd5b6109fb81610642565b821115610a0757600080fd5b6040516370a0823160e01b81523060048201526000907f00000000000000000000000000000000000000000000000000000000000000006001600160a01b0316906370a082319060240160206040518083038186803b158015610a6957600080fd5b505afa158015610a7d573d6000803e3d6000fd5b505050506040513d601f19601f82011682018060405250810190610aa19190610d21565b905080831115610abe57610abe610ab88285610db1565b83610c1b565b60008281526020819052604081208054859290610adc908490610db1565b9091555050600154610aee9084610d92565b60008381526020819052604081206001018054909190610b0f908490610db1565b909155505060405163a9059cbb60e01b8152336004820152602481018490527f00000000000000000000000000000000000000000000000000000000000000006001600160a01b03169063a9059cbb90604401602060405180830381600087803b158015610b7c57600080fd5b505af1158015610b90573d6000803e3d6000fd5b505050506040513d601f19601f82011682018060405250810190610bb49190610ce9565b50505050565b600354600154600083815260208190526040812054909283929091610bdf9190610d92565b610be99190610d72565b600354600085815260208190526040902060010154919250610c0a91610d72565b610c149082610db1565b9392505050565b6000610c2682610bba565b90506000610c348285610db1565b90508060046000828254610c489190610db1565b9091555050600654604051631c8901bb60e31b8152600481018690526001600160a01b039091169063e4480dd890602401600060405180830381600087803b158015610c9357600080fd5b505af1158015610ca7573d6000803e3d6000fd5b5050505050505050565b600060208284031215610cc2578081fd5b8135610c1481610dde565b600060208284031215610cde578081fd5b8151610c1481610dde565b600060208284031215610cfa578081fd5b81518015158114610c14578182fd5b600060208284031215610d1a578081fd5b5035919050565b600060208284031215610d32578081fd5b5051919050565b60008060408385031215610d4b578081fd5b50508035926020909101359150565b60008219821115610d6d57610d6d610dc8565b500190565b600082610d8d57634e487b7160e01b81526012600452602481fd5b500490565b6000816000190483118215151615610dac57610dac610dc8565b500290565b600082821015610dc357610dc3610dc8565b500390565b634e487b7160e01b600052601160045260246000fd5b6001600160a01b0381168114610df357600080fd5b5056fea26469706673582212207f7aaac644d06ec60be09e28d4fc3bd18207bd503fc16d2ea8f23d851fa01de564736f6c63430008040033",
  "linkReferences": {},
  "deployedLinkReferences": {}
}