{
  "_format": "hh-sol-artifact-1",
  "contractName": "BaseVault",
  "sourceName": "contracts/src/BaseVault.sol",
  "abi": [
    {
      "inputs": [
        {
          "internalType": "address",
          "name": "_vaultToken",
          "type": "address"
        },
        {
          "internalType": "string",
          "name": "name",
          "type": "string"
        },
        {
          "internalType": "string",
          "name": "symbol",
          "type": "string"
        }
      ],
      "stateMutability": "nonpayable",
      "type": "constructor"
    },
    {
      "anonymous": false,
      "inputs": [
        {
          "indexed": true,
          "internalType": "address",
          "name": "owner",
          "type": "address"
        },
        {
          "indexed": true,
          "internalType": "address",
          "name": "spender",
          "type": "address"
        },
        {
          "indexed": true,
          "internalType": "uint256",
          "name": "id",
          "type": "uint256"
        }
      ],
      "name": "Approval",
      "type": "event"
    },
    {
      "anonymous": false,
      "inputs": [
        {
          "indexed": true,
          "internalType": "address",
          "name": "owner",
          "type": "address"
        },
        {
          "indexed": true,
          "internalType": "address",
          "name": "operator",
          "type": "address"
        },
        {
          "indexed": false,
          "internalType": "bool",
          "name": "approved",
          "type": "bool"
        }
      ],
      "name": "ApprovalForAll",
      "type": "event"
    },
    {
      "anonymous": false,
      "inputs": [
        {
          "indexed": false,
          "internalType": "address",
          "name": "userAddress",
          "type": "address"
        },
        {
          "indexed": false,
          "internalType": "address payable",
          "name": "relayerAddress",
          "type": "address"
        },
        {
          "indexed": false,
          "internalType": "bytes",
          "name": "functionSignature",
          "type": "bytes"
        }
      ],
      "name": "MetaTransactionExecuted",
      "type": "event"
    },
    {
      "anonymous": false,
      "inputs": [
        {
          "indexed": true,
          "internalType": "address",
          "name": "from",
          "type": "address"
        },
        {
          "indexed": true,
          "internalType": "address",
          "name": "to",
          "type": "address"
        },
        {
          "indexed": true,
          "internalType": "uint256",
          "name": "id",
          "type": "uint256"
        }
      ],
      "name": "Transfer",
      "type": "event"
    },
    {
      "inputs": [
        {
          "internalType": "address",
          "name": "spender",
          "type": "address"
        },
        {
          "internalType": "uint256",
          "name": "id",
          "type": "uint256"
        }
      ],
      "name": "approve",
      "outputs": [],
      "stateMutability": "nonpayable",
      "type": "function"
    },
    {
      "inputs": [
        {
          "internalType": "address",
          "name": "",
          "type": "address"
        }
      ],
      "name": "balanceOf",
      "outputs": [
        {
          "internalType": "uint256",
          "name": "",
          "type": "uint256"
        }
      ],
      "stateMutability": "view",
      "type": "function"
    },
    {
      "inputs": [
        {
          "internalType": "uint256",
          "name": "id",
          "type": "uint256"
        }
      ],
      "name": "burnNFTAndWithdrawl",
      "outputs": [],
      "stateMutability": "nonpayable",
      "type": "function"
    },
    {
      "inputs": [],
      "name": "currentId",
      "outputs": [
        {
          "internalType": "uint256",
          "name": "",
          "type": "uint256"
        }
      ],
      "stateMutability": "view",
      "type": "function"
    },
    {
      "inputs": [
        {
          "internalType": "uint256",
          "name": "amount",
          "type": "uint256"
        },
        {
          "internalType": "uint256",
          "name": "id",
          "type": "uint256"
        }
      ],
      "name": "depositToId",
      "outputs": [],
      "stateMutability": "nonpayable",
      "type": "function"
    },
    {
      "inputs": [
        {
          "internalType": "uint256",
          "name": "",
          "type": "uint256"
        }
      ],
      "name": "deposits",
      "outputs": [
        {
          "internalType": "uint256",
          "name": "amount",
          "type": "uint256"
        },
        {
          "internalType": "uint256",
          "name": "tracker",
          "type": "uint256"
        }
      ],
      "stateMutability": "view",
      "type": "function"
    },
    {
      "inputs": [],
      "name": "distributeYeild",
      "outputs": [],
      "stateMutability": "nonpayable",
      "type": "function"
    },
    {
      "inputs": [
        {
          "internalType": "address",
          "name": "userAddress",
          "type": "address"
        },
        {
          "internalType": "bytes",
          "name": "functionSignature",
          "type": "bytes"
        },
        {
          "internalType": "bytes32",
          "name": "sigR",
          "type": "bytes32"
        },
        {
          "internalType": "bytes32",
          "name": "sigS",
          "type": "bytes32"
        },
        {
          "internalType": "uint8",
          "name": "sigV",
          "type": "uint8"
        }
      ],
      "name": "executeMetaTransaction",
      "outputs": [
        {
          "internalType": "bytes",
          "name": "",
          "type": "bytes"
        }
      ],
      "stateMutability": "payable",
      "type": "function"
    },
    {
      "inputs": [
        {
          "internalType": "uint256",
          "name": "",
          "type": "uint256"
        }
      ],
      "name": "getApproved",
      "outputs": [
        {
          "internalType": "address",
          "name": "",
          "type": "address"
        }
      ],
      "stateMutability": "view",
      "type": "function"
    },
    {
      "inputs": [],
      "name": "getChainID",
      "outputs": [
        {
          "internalType": "uint256",
          "name": "",
          "type": "uint256"
        }
      ],
      "stateMutability": "view",
      "type": "function"
    },
    {
      "inputs": [
        {
          "internalType": "address",
          "name": "user",
          "type": "address"
        }
      ],
      "name": "getNonce",
      "outputs": [
        {
          "internalType": "uint256",
          "name": "nonce",
          "type": "uint256"
        }
      ],
      "stateMutability": "view",
      "type": "function"
    },
    {
      "inputs": [],
      "name": "initStrat",
      "outputs": [],
      "stateMutability": "nonpayable",
      "type": "function"
    },
    {
      "inputs": [
        {
          "internalType": "address",
          "name": "",
          "type": "address"
        },
        {
          "internalType": "address",
          "name": "",
          "type": "address"
        }
      ],
      "name": "isApprovedForAll",
      "outputs": [
        {
          "internalType": "bool",
          "name": "",
          "type": "bool"
        }
      ],
      "stateMutability": "view",
      "type": "function"
    },
    {
      "inputs": [
        {
          "internalType": "uint256",
          "name": "amount",
          "type": "uint256"
        }
      ],
      "name": "mintNewNft",
      "outputs": [
        {
          "internalType": "uint256",
          "name": "",
          "type": "uint256"
        }
      ],
      "stateMutability": "nonpayable",
      "type": "function"
    },
    {
      "inputs": [],
      "name": "name",
      "outputs": [
        {
          "internalType": "string",
          "name": "",
          "type": "string"
        }
      ],
      "stateMutability": "view",
      "type": "function"
    },
    {
      "inputs": [
        {
          "internalType": "uint256",
          "name": "",
          "type": "uint256"
        }
      ],
      "name": "ownerOf",
      "outputs": [
        {
          "internalType": "address",
          "name": "",
          "type": "address"
        }
      ],
      "stateMutability": "view",
      "type": "function"
    },
    {
      "inputs": [
        {
          "internalType": "address",
          "name": "operator",
          "type": "address"
        },
        {
          "internalType": "bool",
          "name": "approved",
          "type": "bool"
        }
      ],
      "name": "setApprovalForAll",
      "outputs": [],
      "stateMutability": "nonpayable",
      "type": "function"
    },
    {
      "inputs": [
        {
          "internalType": "address",
          "name": "addr",
          "type": "address"
        }
      ],
      "name": "setStrat",
      "outputs": [],
      "stateMutability": "nonpayable",
      "type": "function"
    },
    {
      "inputs": [
        {
          "internalType": "bytes4",
          "name": "interfaceId",
          "type": "bytes4"
        }
      ],
      "name": "supportsInterface",
      "outputs": [
        {
          "internalType": "bool",
          "name": "",
          "type": "bool"
        }
      ],
      "stateMutability": "pure",
      "type": "function"
    },
    {
      "inputs": [],
      "name": "symbol",
      "outputs": [
        {
          "internalType": "string",
          "name": "",
          "type": "string"
        }
      ],
      "stateMutability": "view",
      "type": "function"
    },
    {
      "inputs": [
        {
          "internalType": "uint256",
          "name": "id",
          "type": "uint256"
        }
      ],
      "name": "tokenURI",
      "outputs": [
        {
          "components": [
            {
              "internalType": "string",
              "name": "name",
              "type": "string"
            },
            {
              "internalType": "address",
              "name": "vaultAddress",
              "type": "address"
            },
            {
              "internalType": "uint256",
              "name": "withdrawable",
              "type": "uint256"
            },
            {
              "internalType": "uint256",
              "name": "id",
              "type": "uint256"
            },
            {
              "internalType": "uint256",
              "name": "vaultType",
              "type": "uint256"
            }
          ],
          "internalType": "struct BaseVault.MetaData",
          "name": "",
          "type": "tuple"
        }
      ],
      "stateMutability": "view",
      "type": "function"
    },
    {
      "inputs": [],
      "name": "totalDeposits",
      "outputs": [
        {
          "internalType": "uint256",
          "name": "",
          "type": "uint256"
        }
      ],
      "stateMutability": "view",
      "type": "function"
    },
    {
      "inputs": [
        {
          "internalType": "address",
          "name": "from",
          "type": "address"
        },
        {
          "internalType": "address",
          "name": "to",
          "type": "address"
        },
        {
          "internalType": "uint256",
          "name": "id",
          "type": "uint256"
        }
      ],
      "name": "transferFrom",
      "outputs": [],
      "stateMutability": "nonpayable",
      "type": "function"
    },
    {
      "inputs": [
        {
          "internalType": "address",
          "name": "owner",
          "type": "address"
        },
        {
          "internalType": "uint256",
          "name": "nonce",
          "type": "uint256"
        },
        {
          "internalType": "uint256",
          "name": "chainID",
          "type": "uint256"
        },
        {
          "internalType": "bytes",
          "name": "functionSignature",
          "type": "bytes"
        },
        {
          "internalType": "bytes32",
          "name": "sigR",
          "type": "bytes32"
        },
        {
          "internalType": "bytes32",
          "name": "sigS",
          "type": "bytes32"
        },
        {
          "internalType": "uint8",
          "name": "sigV",
          "type": "uint8"
        }
      ],
      "name": "verify",
      "outputs": [
        {
          "internalType": "bool",
          "name": "",
          "type": "bool"
        }
      ],
      "stateMutability": "view",
      "type": "function"
    },
    {
      "inputs": [
        {
          "internalType": "uint256",
          "name": "id",
          "type": "uint256"
        },
        {
          "internalType": "uint256",
          "name": "amount",
          "type": "uint256"
        }
      ],
      "name": "withdrawFromId",
      "outputs": [],
      "stateMutability": "nonpayable",
      "type": "function"
    },
    {
      "inputs": [
        {
          "internalType": "uint256",
          "name": "id",
          "type": "uint256"
        }
      ],
      "name": "withdrawableById",
      "outputs": [
        {
          "internalType": "uint256",
          "name": "claimId",
          "type": "uint256"
        }
      ],
      "stateMutability": "view",
      "type": "function"
    },
    {
      "inputs": [],
      "name": "yeildPerDeposit",
      "outputs": [
        {
          "internalType": "uint256",
          "name": "",
          "type": "uint256"
        }
      ],
      "stateMutability": "view",
      "type": "function"
    },
    {
      "inputs": [
        {
          "internalType": "uint256",
          "name": "id",
          "type": "uint256"
        }
      ],
      "name": "yieldPerId",
      "outputs": [
        {
          "internalType": "uint256",
          "name": "",
          "type": "uint256"
        }
      ],
      "stateMutability": "view",
      "type": "function"
    }
  ],
  "bytecode": "0x60c060405260016003556402540be400600c553480156200001f57600080fd5b50604051620023fb380380620023fb8339810160408190526200004291620001ed565b8151829082906200005b90600090602085019062000094565b5080516200007190600190602084019062000094565b5050506001600160601b0319606093841b16608052505033901b60a052620002c6565b828054620000a29062000273565b90600052602060002090601f016020900481019282620000c6576000855562000111565b82601f10620000e157805160ff191683800117855562000111565b8280016001018555821562000111579182015b8281111562000111578251825591602001919060010190620000f4565b506200011f92915062000123565b5090565b5b808211156200011f576000815560010162000124565b600082601f8301126200014b578081fd5b81516001600160401b0380821115620001685762000168620002b0565b604051601f8301601f19908116603f01168101908282118183101715620001935762000193620002b0565b81604052838152602092508683858801011115620001af578485fd5b8491505b83821015620001d25785820183015181830184015290820190620001b3565b83821115620001e357848385830101525b9695505050505050565b60008060006060848603121562000202578283fd5b83516001600160a01b038116811462000219578384fd5b60208501519093506001600160401b038082111562000236578384fd5b62000244878388016200013a565b935060408601519150808211156200025a578283fd5b5062000269868287016200013a565b9150509250925092565b600181811c908216806200028857607f821691505b60208210811415620002aa57634e487b7160e01b600052602260045260246000fd5b50919050565b634e487b7160e01b600052604160045260246000fd5b60805160601c60a05160601c6120e6620003156000396000610971015260008181610ce5015281816110f701528181611382015281816114e3015281816115fc015261179601526120e66000f3fe6080604052600436106101b75760003560e01c80636352211e116100ec578063a2d6b25f1161008a578063ca1e3c8311610064578063ca1e3c831461053c578063e00dd16114610551578063e985e9c514610567578063eaaf1fca146105a257600080fd5b8063a2d6b25f146104b0578063b02c43d0146104c6578063c87b56dd1461050f57600080fd5b80637d882097116100c65780637d8820971461044557806389f3dd371461045b57806395d89b411461047b578063a22cb4651461049057600080fd5b80636352211e146103c25780636d43d9f1146103f857806370a082311461041857600080fd5b80631ab2f6af1161015957806334d894c91161013357806334d894c91461035a5780634b6d69d31461036f578063564b81ef1461038f5780636281133d146103a257600080fd5b80631ab2f6af146102d657806323b872dd146103045780632d0335ab1461032457600080fd5b8063095ea7b311610195578063095ea7b3146102615780630c53c51c14610283578063159b49621461029657806316cc3b07146102b657600080fd5b806301ffc9a7146101bc57806306fdde03146101f1578063081812fc14610213575b600080fd5b3480156101c857600080fd5b506101dc6101d7366004611dbc565b6105c2565b60405190151581526020015b60405180910390f35b3480156101fd57600080fd5b50610206610614565b6040516101e89190611f2f565b34801561021f57600080fd5b5061024961022e366004611de4565b6006602052600090815260409020546001600160a01b031681565b6040516001600160a01b0390911681526020016101e8565b34801561026d57600080fd5b5061028161027c366004611cf4565b6106a2565b005b610206610291366004611c84565b610789565b3480156102a257600080fd5b506102816102b1366004611e14565b610958565b3480156102c257600080fd5b506102816102d1366004611bc7565b610966565b3480156102e257600080fd5b506102f66102f1366004611de4565b6109d2565b6040519081526020016101e8565b34801561031057600080fd5b5061028161031f366004611c13565b610a33565b34801561033057600080fd5b506102f661033f366004611bc7565b6001600160a01b031660009081526008602052604090205490565b34801561036657600080fd5b50610281610bfa565b34801561037b57600080fd5b506102f661038a366004611de4565b610dc6565b34801561039b57600080fd5b50466102f6565b3480156103ae57600080fd5b506101dc6103bd366004611d1d565b610dd1565b3480156103ce57600080fd5b506102496103dd366004611de4565b6005602052600090815260409020546001600160a01b031681565b34801561040457600080fd5b506102f6610413366004611de4565b610f19565b34801561042457600080fd5b506102f6610433366004611bc7565b60046020526000908152604090205481565b34801561045157600080fd5b506102f6600b5481565b34801561046757600080fd5b50610281610476366004611de4565b610f3d565b34801561048757600080fd5b50610206610f5d565b34801561049c57600080fd5b506102816104ab366004611c4e565b610f6a565b3480156104bc57600080fd5b506102f6600a5481565b3480156104d257600080fd5b506104fa6104e1366004611de4565b6009602052600090815260409020805460019091015482565b604080519283526020830191909152016101e8565b34801561051b57600080fd5b5061052f61052a366004611de4565b610fd6565b6040516101e89190611f42565b34801561054857600080fd5b506102816110d3565b34801561055d57600080fd5b506102f660035481565b34801561057357600080fd5b506101dc610582366004611be1565b600760209081526000928352604080842090915290825290205460ff1681565b3480156105ae57600080fd5b506102816105bd366004611e14565b61129f565b60006301ffc9a760e01b6001600160e01b0319831614806105f357506380ac58cd60e01b6001600160e01b03198316145b8061060e5750635b5e139f60e01b6001600160e01b03198316145b92915050565b6000805461062190612038565b80601f016020809104026020016040519081016040528092919081815260200182805461064d90612038565b801561069a5780601f1061066f5761010080835404028352916020019161069a565b820191906000526020600020905b81548152906001019060200180831161067d57829003601f168201915b505050505081565b6000818152600560205260409020546001600160a01b0316338114806106eb57506001600160a01b038116600090815260076020908152604080832033845290915290205460ff165b61072d5760405162461bcd60e51b815260206004820152600e60248201526d1393d517d055551213d49256915160921b60448201526064015b60405180910390fd5b60008281526006602052604080822080546001600160a01b0319166001600160a01b0387811691821790925591518593918516917f8c5be1e5ebec7d5bd14f71427d1e84f3dd0314c0f7b2291e5b200ac8c7c3b92591a4505050565b6001600160a01b0385166000908152600860205260409020546060906107b59087904688888888610dd1565b61080b5760405162461bcd60e51b815260206004820152602160248201527f5369676e657220616e64207369676e617475726520646f206e6f74206d6174636044820152600d60fb1b6064820152608401610724565b6001600160a01b03861660009081526008602052604090205461082f9060016112a9565b6001600160a01b0387166000908152600860209081526040808320939093559151909182913091610864918a918c9101611e7d565b60408051601f198184030181529082905261087e91611e61565b6000604051808303816000865af19150503d80600081146108bb576040519150601f19603f3d011682016040523d82523d6000602084013e6108c0565b606091505b5091509150816109125760405162461bcd60e51b815260206004820152601c60248201527f46756e6374696f6e2063616c6c206e6f74207375636365737366756c000000006044820152606401610724565b7f5845892132946850460bff5a0083f71031bc5bf9aadcd40f1de79423eac9b10b88338960405161094593929190611efa565b60405180910390a1979650505050505050565b61096282826112b5565b5050565b336001600160a01b037f0000000000000000000000000000000000000000000000000000000000000000161480156109a757506010546001600160a01b0316155b6109b057600080fd5b601080546001600160a01b0319166001600160a01b0392909216919091179055565b600c54600a546000838152600960205260408120549092839290916109f79190611fd2565b610a019190611fb2565b600c54600085815260096020526040902060010154919250610a2291611fb2565b610a2c9082611ff1565b9392505050565b6000818152600560205260409020546001600160a01b03848116911614610a895760405162461bcd60e51b815260206004820152600a60248201526957524f4e475f46524f4d60b01b6044820152606401610724565b6001600160a01b038216610ad35760405162461bcd60e51b81526020600482015260116024820152701253959053125117d49150d25412515395607a1b6044820152606401610724565b336001600160a01b0384161480610b0057506000818152600660205260409020546001600160a01b031633145b80610b2e57506001600160a01b038316600090815260076020908152604080832033845290915290205460ff165b610b6b5760405162461bcd60e51b815260206004820152600e60248201526d1393d517d055551213d49256915160921b6044820152606401610724565b6001600160a01b0380841660008181526004602090815260408083208054600019019055938616808352848320805460010190558583526005825284832080546001600160a01b03199081168317909155600690925284832080549092169091559251849392917fddf252ad1be2c89b69c2b068fc378daa952ba7f163c4a11628f55a4df523b3ef91a4505050565b6010546001600160a01b0316610c405760405162461bcd60e51b815260206004820152600b60248201526a4e6f20537472617465677960a81b6044820152606401610724565b6000612710600b54611388610c559190611fd2565b610c5f9190611fb2565b90506000600f5482610c719190611ff1565b905080600f6000828254610c859190611f9a565b9250508190555080600e6000828254610c9e9190611f9a565b9250508190555080600d6000828254610cb79190611ff1565b909155505060105460405163095ea7b360e01b81526001600160a01b039182166004820152602481018390527f00000000000000000000000000000000000000000000000000000000000000009091169063095ea7b390604401602060405180830381600087803b158015610d2b57600080fd5b505af1158015610d3f573d6000803e3d6000fd5b505050506040513d601f19601f82011682018060405250810190610d639190611da0565b5060105460405163b6b55f2560e01b8152600481018390526001600160a01b039091169063b6b55f2590602401600060405180830381600087803b158015610daa57600080fd5b505af1158015610dbe573d6000803e3d6000fd5b505050505050565b600061060e8261143a565b600080610e4e88308989604051602001610dee9493929190611eb4565b60408051601f1981840301815282825280516020918201207f19457468657265756d205369676e6564204d6573736167653a0a33320000000084830152603c8085019190915282518085039091018152605c909301909152815191012090565b6040805160008082526020820180845284905260ff87169282019290925260608101889052608081018790529192509060019060a0016020604051602081039080840390855afa158015610ea6573d6000803e3d6000fd5b5050604051601f1901519150506001600160a01b038116610efd5760405162461bcd60e51b8152602060048201526011602482015270496e76616c6964207369676e617475726560781b6044820152606401610724565b6001600160a01b038a8116911614915050979650505050505050565b6000610f24826109d2565b60008381526009602052604090205461060e9190611f9a565b6000610f4882610f19565b9050610f54818361159d565b61096282611854565b6001805461062190612038565b3360008181526007602090815260408083206001600160a01b03871680855290835292819020805460ff191686151590811790915590519081529192917f17307eab39ab6107e8899845ad3d59bd9653f200f220920489ca2b5937696c31910160405180910390a35050565b6110116040518060a001604052806060815260200160006001600160a01b031681526020016000815260200160008152602001600081525090565b6040518060a001604052806000805461102990612038565b80601f016020809104026020016040519081016040528092919081815260200182805461105590612038565b80156110a25780601f10611077576101008083540402835291602001916110a2565b820191906000526020600020905b81548152906001019060200180831161108557829003601f168201915b50505091835250503060208201526040016110bc84610f19565b815260200183815260200160008152509050919050565b600d546040516370a0823160e01b8152306004820152600091906001600160a01b037f000000000000000000000000000000000000000000000000000000000000000016906370a082319060240160206040518083038186803b15801561113957600080fd5b505afa15801561114d573d6000803e3d6000fd5b505050506040513d601f19601f820116820180604052508101906111719190611dfc565b61117b9190611ff1565b905080600d600082825461118f9190611f9a565b90915550506010546000906001600160a01b03166111ae576000611241565b600e54601060009054906101000a90046001600160a01b03166001600160a01b031663460ffdae6040518163ffffffff1660e01b815260040160206040518083038186803b1580156111ff57600080fd5b505afa158015611213573d6000803e3d6000fd5b505050506040513d601f19601f820116820180604052508101906112379190611dfc565b6112419190611ff1565b905080600e60008282546112559190611f9a565b90915550600090506112678284611f9a565b9050600b54600c548261127a9190611fd2565b6112849190611fb2565b600a60008282546112959190611f9a565b9091555050505050565b610962818361159d565b6000610a2c8284611f9a565b6000818152600560205260409020546001600160a01b03166112d5611921565b6001600160a01b0316146112e857600080fd5b6112f06110d3565b6000818152600960205260408120805484929061130e908490611f9a565b9091555050600a546113209083611fd2565b60008281526009602052604081206001018054909190611341908490611f9a565b9250508190555081600b600082825461135a9190611f9a565b9250508190555081600d60008282546113739190611f9a565b90915550506001600160a01b037f0000000000000000000000000000000000000000000000000000000000000000166323b872dd6113af611921565b6040516001600160e01b031960e084901b1681526001600160a01b03909116600482015230602482015260448101859052606401602060405180830381600087803b1580156113fd57600080fd5b505af1158015611411573d6000803e3d6000fd5b505050506040513d601f19601f820116820180604052508101906114359190611da0565b505050565b600080611450611448611921565b600354611980565b600b5490915015611463576114636110d3565b6000818152600960205260409020839055600a546114819084611fd2565b600082815260096020526040812060010180549091906114a2908490611f9a565b9250508190555082600b60008282546114bb9190611f9a565b9250508190555082600d60008282546114d49190611f9a565b90915550506001600160a01b037f0000000000000000000000000000000000000000000000000000000000000000166323b872dd611510611921565b6040516001600160e01b031960e084901b1681526001600160a01b03909116600482015230602482015260448101869052606401602060405180830381600087803b15801561155e57600080fd5b505af1158015611572573d6000803e3d6000fd5b505050506040513d601f19601f820116820180604052508101906115969190611da0565b5092915050565b6000818152600560205260409020546001600160a01b03166115bd611921565b6001600160a01b03161480156115db57506115d781610f19565b8211155b6115e457600080fd5b6040516370a0823160e01b81523060048201526000907f00000000000000000000000000000000000000000000000000000000000000006001600160a01b0316906370a082319060240160206040518083038186803b15801561164657600080fd5b505afa15801561165a573d6000803e3d6000fd5b505050506040513d601f19601f8201168201806040525081019061167e9190611dfc565b9050600061168a6110d3565b6000611695846109d2565b90508085111561171d576116a98186611ff1565b6000858152600960205260408120805492945084929091906116cc908490611ff1565b9250508190555081600b60008282546116e59190611ff1565b9091555050600a546000858152600960205260409020546117069190611fd2565b600085815260096020526040902060010155611751565b600c5461172a9086611fd2565b6000858152600960205260408120600101805490919061174b908490611f9a565b90915550505b600083861161176157600061176b565b61176b8487611ff1565b905080156117945761177c81611a9b565b82600f600082825461178e9190611ff1565b90915550505b7f00000000000000000000000000000000000000000000000000000000000000006001600160a01b031663a9059cbb6117cb611921565b6040516001600160e01b031960e084901b1681526001600160a01b03909116600482015260248101899052604401602060405180830381600087803b15801561181357600080fd5b505af1158015611827573d6000803e3d6000fd5b505050506040513d601f19601f8201168201806040525081019061184b9190611da0565b50505050505050565b6000818152600560205260409020546001600160a01b0316806118a65760405162461bcd60e51b815260206004820152600a6024820152691393d517d3525395115160b21b6044820152606401610724565b6001600160a01b038116600081815260046020908152604080832080546000190190558583526005825280832080546001600160a01b031990811690915560069092528083208054909216909155518492907fddf252ad1be2c89b69c2b068fc378daa952ba7f163c4a11628f55a4df523b3ef908390a45050565b60003330141561197857600080368080601f0160208091040260200160405190810160405280939291908181526020018383808284376000920191909152505050503601516001600160a01b0316915061197d9050565b503390565b90565b60006001600160a01b0383166119cc5760405162461bcd60e51b81526020600482015260116024820152701253959053125117d49150d25412515395607a1b6044820152606401610724565b6000828152600560205260409020546001600160a01b031615611a225760405162461bcd60e51b815260206004820152600e60248201526d1053149150511657d3525395115160921b6044820152606401610724565b6001600160a01b038316600081815260046020908152604080832080546001908101909155600380549091019055858352600590915280822080546001600160a01b0319168417905551849291907fddf252ad1be2c89b69c2b068fc378daa952ba7f163c4a11628f55a4df523b3ef908290a450919050565b601054604051631c8901bb60e31b8152600481018390526001600160a01b039091169063e4480dd890602401600060405180830381600087803b158015611ae157600080fd5b505af1158015611af5573d6000803e3d6000fd5b5050505080600e6000828254611b0b9190611ff1565b909155505050565b80356001600160a01b0381168114611b2a57600080fd5b919050565b600082601f830112611b3f578081fd5b813567ffffffffffffffff80821115611b5a57611b5a612089565b604051601f8301601f19908116603f01168101908282118183101715611b8257611b82612089565b81604052838152866020858801011115611b9a578485fd5b8360208701602083013792830160200193909352509392505050565b803560ff81168114611b2a57600080fd5b600060208284031215611bd8578081fd5b610a2c82611b13565b60008060408385031215611bf3578081fd5b611bfc83611b13565b9150611c0a60208401611b13565b90509250929050565b600080600060608486031215611c27578081fd5b611c3084611b13565b9250611c3e60208501611b13565b9150604084013590509250925092565b60008060408385031215611c60578182fd5b611c6983611b13565b91506020830135611c798161209f565b809150509250929050565b600080600080600060a08688031215611c9b578081fd5b611ca486611b13565b9450602086013567ffffffffffffffff811115611cbf578182fd5b611ccb88828901611b2f565b9450506040860135925060608601359150611ce860808701611bb6565b90509295509295909350565b60008060408385031215611d06578182fd5b611d0f83611b13565b946020939093013593505050565b600080600080600080600060e0888a031215611d37578182fd5b611d4088611b13565b96506020880135955060408801359450606088013567ffffffffffffffff811115611d69578283fd5b611d758a828b01611b2f565b9450506080880135925060a08801359150611d9260c08901611bb6565b905092959891949750929550565b600060208284031215611db1578081fd5b8151610a2c8161209f565b600060208284031215611dcd578081fd5b81356001600160e01b031981168114610a2c578182fd5b600060208284031215611df5578081fd5b5035919050565b600060208284031215611e0d578081fd5b5051919050565b60008060408385031215611e26578182fd5b50508035926020909101359150565b60008151808452611e4d816020860160208601612008565b601f01601f19169290920160200192915050565b60008251611e73818460208701612008565b9190910192915050565b60008351611e8f818460208801612008565b60609390931b6bffffffffffffffffffffffff19169190920190815260140192915050565b8481526bffffffffffffffffffffffff198460601b16602082015282603482015260008251611eea816054850160208701612008565b9190910160540195945050505050565b6001600160a01b03848116825283166020820152606060408201819052600090611f2690830184611e35565b95945050505050565b602081526000610a2c6020830184611e35565b602081526000825160a06020840152611f5e60c0840182611e35565b905060018060a01b0360208501511660408401526040840151606084015260608401516080840152608084015160a08401528091505092915050565b60008219821115611fad57611fad612073565b500190565b600082611fcd57634e487b7160e01b81526012600452602481fd5b500490565b6000816000190483118215151615611fec57611fec612073565b500290565b60008282101561200357612003612073565b500390565b60005b8381101561202357818101518382015260200161200b565b83811115612032576000848401525b50505050565b600181811c9082168061204c57607f821691505b6020821081141561206d57634e487b7160e01b600052602260045260246000fd5b50919050565b634e487b7160e01b600052601160045260246000fd5b634e487b7160e01b600052604160045260246000fd5b80151581146120ad57600080fd5b5056fea26469706673582212205f63381739793adad8decb6f6a7ef0f4e4c0bb246d152816dc1136b027038d5264736f6c63430008040033",
  "linkReferences": {},
  "deployedLinkReferences": {}
}