{
  "_format": "hh-sol-artifact-1",
  "contractName": "DaoVault",
  "sourceName": "contracts/src/DaoVault.sol",
  "abi": [
    {
      "inputs": [
        {
          "internalType": "address",
          "name": "_vaultToken",
          "type": "address"
        },
        {
          "internalType": "string",
          "name": "name",
          "type": "string"
        },
        {
          "internalType": "string",
          "name": "symbol",
          "type": "string"
        }
      ],
      "stateMutability": "nonpayable",
      "type": "constructor"
    },
    {
      "anonymous": false,
      "inputs": [
        {
          "indexed": true,
          "internalType": "address",
          "name": "owner",
          "type": "address"
        },
        {
          "indexed": true,
          "internalType": "address",
          "name": "spender",
          "type": "address"
        },
        {
          "indexed": true,
          "internalType": "uint256",
          "name": "id",
          "type": "uint256"
        }
      ],
      "name": "Approval",
      "type": "event"
    },
    {
      "anonymous": false,
      "inputs": [
        {
          "indexed": true,
          "internalType": "address",
          "name": "owner",
          "type": "address"
        },
        {
          "indexed": true,
          "internalType": "address",
          "name": "operator",
          "type": "address"
        },
        {
          "indexed": false,
          "internalType": "bool",
          "name": "approved",
          "type": "bool"
        }
      ],
      "name": "ApprovalForAll",
      "type": "event"
    },
    {
      "anonymous": false,
      "inputs": [
        {
          "indexed": false,
          "internalType": "address",
          "name": "userAddress",
          "type": "address"
        },
        {
          "indexed": false,
          "internalType": "address payable",
          "name": "relayerAddress",
          "type": "address"
        },
        {
          "indexed": false,
          "internalType": "bytes",
          "name": "functionSignature",
          "type": "bytes"
        }
      ],
      "name": "MetaTransactionExecuted",
      "type": "event"
    },
    {
      "anonymous": false,
      "inputs": [
        {
          "indexed": true,
          "internalType": "address",
          "name": "from",
          "type": "address"
        },
        {
          "indexed": true,
          "internalType": "address",
          "name": "to",
          "type": "address"
        },
        {
          "indexed": true,
          "internalType": "uint256",
          "name": "id",
          "type": "uint256"
        }
      ],
      "name": "Transfer",
      "type": "event"
    },
    {
      "inputs": [
        {
          "internalType": "address",
          "name": "spender",
          "type": "address"
        },
        {
          "internalType": "uint256",
          "name": "id",
          "type": "uint256"
        }
      ],
      "name": "approve",
      "outputs": [],
      "stateMutability": "nonpayable",
      "type": "function"
    },
    {
      "inputs": [
        {
          "internalType": "address",
          "name": "",
          "type": "address"
        }
      ],
      "name": "balanceOf",
      "outputs": [
        {
          "internalType": "uint256",
          "name": "",
          "type": "uint256"
        }
      ],
      "stateMutability": "view",
      "type": "function"
    },
    {
      "inputs": [
        {
          "internalType": "uint256",
          "name": "id",
          "type": "uint256"
        }
      ],
      "name": "burnNFTAndWithdrawl",
      "outputs": [],
      "stateMutability": "nonpayable",
      "type": "function"
    },
    {
      "inputs": [],
      "name": "currentId",
      "outputs": [
        {
          "internalType": "uint256",
          "name": "",
          "type": "uint256"
        }
      ],
      "stateMutability": "view",
      "type": "function"
    },
    {
      "inputs": [
        {
          "internalType": "uint256",
          "name": "amount",
          "type": "uint256"
        },
        {
          "internalType": "uint256",
          "name": "id",
          "type": "uint256"
        }
      ],
      "name": "depositToId",
      "outputs": [],
      "stateMutability": "nonpayable",
      "type": "function"
    },
    {
      "inputs": [
        {
          "internalType": "uint256",
          "name": "",
          "type": "uint256"
        }
      ],
      "name": "deposits",
      "outputs": [
        {
          "internalType": "uint256",
          "name": "amount",
          "type": "uint256"
        },
        {
          "internalType": "uint256",
          "name": "tracker",
          "type": "uint256"
        }
      ],
      "stateMutability": "view",
      "type": "function"
    },
    {
      "inputs": [],
      "name": "distributeYeild",
      "outputs": [],
      "stateMutability": "nonpayable",
      "type": "function"
    },
    {
      "inputs": [
        {
          "internalType": "address",
          "name": "userAddress",
          "type": "address"
        },
        {
          "internalType": "bytes",
          "name": "functionSignature",
          "type": "bytes"
        },
        {
          "internalType": "bytes32",
          "name": "sigR",
          "type": "bytes32"
        },
        {
          "internalType": "bytes32",
          "name": "sigS",
          "type": "bytes32"
        },
        {
          "internalType": "uint8",
          "name": "sigV",
          "type": "uint8"
        }
      ],
      "name": "executeMetaTransaction",
      "outputs": [
        {
          "internalType": "bytes",
          "name": "",
          "type": "bytes"
        }
      ],
      "stateMutability": "payable",
      "type": "function"
    },
    {
      "inputs": [
        {
          "internalType": "uint256",
          "name": "",
          "type": "uint256"
        }
      ],
      "name": "getApproved",
      "outputs": [
        {
          "internalType": "address",
          "name": "",
          "type": "address"
        }
      ],
      "stateMutability": "view",
      "type": "function"
    },
    {
      "inputs": [],
      "name": "getChainID",
      "outputs": [
        {
          "internalType": "uint256",
          "name": "",
          "type": "uint256"
        }
      ],
      "stateMutability": "view",
      "type": "function"
    },
    {
      "inputs": [
        {
          "internalType": "address",
          "name": "user",
          "type": "address"
        }
      ],
      "name": "getNonce",
      "outputs": [
        {
          "internalType": "uint256",
          "name": "nonce",
          "type": "uint256"
        }
      ],
      "stateMutability": "view",
      "type": "function"
    },
    {
      "inputs": [],
      "name": "initStrat",
      "outputs": [],
      "stateMutability": "nonpayable",
      "type": "function"
    },
    {
      "inputs": [
        {
          "internalType": "address",
          "name": "",
          "type": "address"
        },
        {
          "internalType": "address",
          "name": "",
          "type": "address"
        }
      ],
      "name": "isApprovedForAll",
      "outputs": [
        {
          "internalType": "bool",
          "name": "",
          "type": "bool"
        }
      ],
      "stateMutability": "view",
      "type": "function"
    },
    {
      "inputs": [
        {
          "internalType": "uint256",
          "name": "amount",
          "type": "uint256"
        }
      ],
      "name": "mintNewNft",
      "outputs": [
        {
          "internalType": "uint256",
          "name": "",
          "type": "uint256"
        }
      ],
      "stateMutability": "nonpayable",
      "type": "function"
    },
    {
      "inputs": [],
      "name": "name",
      "outputs": [
        {
          "internalType": "string",
          "name": "",
          "type": "string"
        }
      ],
      "stateMutability": "view",
      "type": "function"
    },
    {
      "inputs": [
        {
          "internalType": "uint256",
          "name": "",
          "type": "uint256"
        }
      ],
      "name": "ownerOf",
      "outputs": [
        {
          "internalType": "address",
          "name": "",
          "type": "address"
        }
      ],
      "stateMutability": "view",
      "type": "function"
    },
    {
      "inputs": [
        {
          "internalType": "uint256",
          "name": "amount",
          "type": "uint256"
        }
      ],
      "name": "returnManagedFunds",
      "outputs": [],
      "stateMutability": "nonpayable",
      "type": "function"
    },
    {
      "inputs": [
        {
          "internalType": "address",
          "name": "operator",
          "type": "address"
        },
        {
          "internalType": "bool",
          "name": "approved",
          "type": "bool"
        }
      ],
      "name": "setApprovalForAll",
      "outputs": [],
      "stateMutability": "nonpayable",
      "type": "function"
    },
    {
      "inputs": [
        {
          "internalType": "address",
          "name": "addr",
          "type": "address"
        }
      ],
      "name": "setStrat",
      "outputs": [],
      "stateMutability": "nonpayable",
      "type": "function"
    },
    {
      "inputs": [
        {
          "internalType": "bytes4",
          "name": "interfaceId",
          "type": "bytes4"
        }
      ],
      "name": "supportsInterface",
      "outputs": [
        {
          "internalType": "bool",
          "name": "",
          "type": "bool"
        }
      ],
      "stateMutability": "pure",
      "type": "function"
    },
    {
      "inputs": [],
      "name": "symbol",
      "outputs": [
        {
          "internalType": "string",
          "name": "",
          "type": "string"
        }
      ],
      "stateMutability": "view",
      "type": "function"
    },
    {
      "inputs": [
        {
          "internalType": "uint256",
          "name": "id",
          "type": "uint256"
        }
      ],
      "name": "tokenURI",
      "outputs": [
        {
          "components": [
            {
              "internalType": "string",
              "name": "name",
              "type": "string"
            },
            {
              "internalType": "address",
              "name": "vaultAddress",
              "type": "address"
            },
            {
              "internalType": "uint256",
              "name": "withdrawable",
              "type": "uint256"
            },
            {
              "internalType": "uint256",
              "name": "id",
              "type": "uint256"
            },
            {
              "internalType": "uint256",
              "name": "vaultType",
              "type": "uint256"
            }
          ],
          "internalType": "struct BaseVault.MetaData",
          "name": "",
          "type": "tuple"
        }
      ],
      "stateMutability": "view",
      "type": "function"
    },
    {
      "inputs": [],
      "name": "totalDeposits",
      "outputs": [
        {
          "internalType": "uint256",
          "name": "",
          "type": "uint256"
        }
      ],
      "stateMutability": "view",
      "type": "function"
    },
    {
      "inputs": [
        {
          "internalType": "address",
          "name": "from",
          "type": "address"
        },
        {
          "internalType": "address",
          "name": "to",
          "type": "address"
        },
        {
          "internalType": "uint256",
          "name": "id",
          "type": "uint256"
        }
      ],
      "name": "transferFrom",
      "outputs": [],
      "stateMutability": "nonpayable",
      "type": "function"
    },
    {
      "inputs": [
        {
          "internalType": "address",
          "name": "owner",
          "type": "address"
        },
        {
          "internalType": "uint256",
          "name": "nonce",
          "type": "uint256"
        },
        {
          "internalType": "uint256",
          "name": "chainID",
          "type": "uint256"
        },
        {
          "internalType": "bytes",
          "name": "functionSignature",
          "type": "bytes"
        },
        {
          "internalType": "bytes32",
          "name": "sigR",
          "type": "bytes32"
        },
        {
          "internalType": "bytes32",
          "name": "sigS",
          "type": "bytes32"
        },
        {
          "internalType": "uint8",
          "name": "sigV",
          "type": "uint8"
        }
      ],
      "name": "verify",
      "outputs": [
        {
          "internalType": "bool",
          "name": "",
          "type": "bool"
        }
      ],
      "stateMutability": "view",
      "type": "function"
    },
    {
      "inputs": [
        {
          "internalType": "uint256",
          "name": "id",
          "type": "uint256"
        },
        {
          "internalType": "uint256",
          "name": "amount",
          "type": "uint256"
        }
      ],
      "name": "withdrawFromId",
      "outputs": [],
      "stateMutability": "nonpayable",
      "type": "function"
    },
    {
      "inputs": [
        {
          "internalType": "uint256",
          "name": "id",
          "type": "uint256"
        }
      ],
      "name": "withdrawableById",
      "outputs": [
        {
          "internalType": "uint256",
          "name": "",
          "type": "uint256"
        }
      ],
      "stateMutability": "view",
      "type": "function"
    },
    {
      "inputs": [],
      "name": "yeildPerDeposit",
      "outputs": [
        {
          "internalType": "uint256",
          "name": "",
          "type": "uint256"
        }
      ],
      "stateMutability": "view",
      "type": "function"
    },
    {
      "inputs": [
        {
          "internalType": "uint256",
          "name": "id",
          "type": "uint256"
        }
      ],
      "name": "yieldPerId",
      "outputs": [
        {
          "internalType": "uint256",
          "name": "",
          "type": "uint256"
        }
      ],
      "stateMutability": "view",
      "type": "function"
    }
  ],
  "bytecode": "0x60c060405260016003556402540be400600c553480156200001f57600080fd5b506040516200253c3803806200253c8339810160408190526200004291620001f5565b828282818181600090805190602001906200005f9291906200009c565b508051620000759060019060208401906200009c565b5050506001600160601b0319606093841b16608052505033901b60a05250620002ce915050565b828054620000aa906200027b565b90600052602060002090601f016020900481019282620000ce576000855562000119565b82601f10620000e957805160ff191683800117855562000119565b8280016001018555821562000119579182015b8281111562000119578251825591602001919060010190620000fc565b50620001279291506200012b565b5090565b5b808211156200012757600081556001016200012c565b600082601f83011262000153578081fd5b81516001600160401b0380821115620001705762000170620002b8565b604051601f8301601f19908116603f011681019082821181831017156200019b576200019b620002b8565b81604052838152602092508683858801011115620001b7578485fd5b8491505b83821015620001da5785820183015181830184015290820190620001bb565b83821115620001eb57848385830101525b9695505050505050565b6000806000606084860312156200020a578283fd5b83516001600160a01b038116811462000221578384fd5b60208501519093506001600160401b03808211156200023e578384fd5b6200024c8783880162000142565b9350604086015191508082111562000262578283fd5b50620002718682870162000142565b9150509250925092565b600181811c908216806200029057607f821691505b60208210811415620002b257634e487b7160e01b600052602260045260246000fd5b50919050565b634e487b7160e01b600052604160045260246000fd5b60805160601c60a05160601c61221862000324600039600061099c015260008181610d1001528181610e4e01528181611229015281816114b4015281816116150152818161172e01526118c801526122186000f3fe6080604052600436106101c25760003560e01c80636281133d116100f7578063a22cb46511610095578063ca1e3c8311610064578063ca1e3c8314610567578063e00dd1611461057c578063e985e9c514610592578063eaaf1fca146105cd57600080fd5b8063a22cb465146104bb578063a2d6b25f146104db578063b02c43d0146104f1578063c87b56dd1461053a57600080fd5b806370a08231116100d157806370a08231146104435780637d8820971461047057806389f3dd371461048657806395d89b41146104a657600080fd5b80636281133d146103cd5780636352211e146103ed5780636d43d9f11461042357600080fd5b80631ab2f6af1161016457806334d894c91161013e57806334d894c9146103655780634b6d69d31461037a5780634fad28a71461039a578063564b81ef146103ba57600080fd5b80631ab2f6af146102e157806323b872dd1461030f5780632d0335ab1461032f57600080fd5b8063095ea7b3116101a0578063095ea7b31461026c5780630c53c51c1461028e578063159b4962146102a157806316cc3b07146102c157600080fd5b806301ffc9a7146101c757806306fdde03146101fc578063081812fc1461021e575b600080fd5b3480156101d357600080fd5b506101e76101e2366004611eee565b6105ed565b60405190151581526020015b60405180910390f35b34801561020857600080fd5b5061021161063f565b6040516101f39190612061565b34801561022a57600080fd5b50610254610239366004611f16565b6006602052600090815260409020546001600160a01b031681565b6040516001600160a01b0390911681526020016101f3565b34801561027857600080fd5b5061028c610287366004611e26565b6106cd565b005b61021161029c366004611db6565b6107b4565b3480156102ad57600080fd5b5061028c6102bc366004611f46565b610983565b3480156102cd57600080fd5b5061028c6102dc366004611cf9565b610991565b3480156102ed57600080fd5b506103016102fc366004611f16565b6109fd565b6040519081526020016101f3565b34801561031b57600080fd5b5061028c61032a366004611d45565b610a5e565b34801561033b57600080fd5b5061030161034a366004611cf9565b6001600160a01b031660009081526008602052604090205490565b34801561037157600080fd5b5061028c610c25565b34801561038657600080fd5b50610301610395366004611f16565b610df1565b3480156103a657600080fd5b5061028c6103b5366004611f16565b610dfc565b3480156103c657600080fd5b5046610301565b3480156103d957600080fd5b506101e76103e8366004611e4f565b610ed2565b3480156103f957600080fd5b50610254610408366004611f16565b6005602052600090815260409020546001600160a01b031681565b34801561042f57600080fd5b5061030161043e366004611f16565b61101a565b34801561044f57600080fd5b5061030161045e366004611cf9565b60046020526000908152604090205481565b34801561047c57600080fd5b50610301600b5481565b34801561049257600080fd5b5061028c6104a1366004611f16565b61106f565b3480156104b257600080fd5b5061021161108f565b3480156104c757600080fd5b5061028c6104d6366004611d80565b61109c565b3480156104e757600080fd5b50610301600a5481565b3480156104fd57600080fd5b5061052561050c366004611f16565b6009602052600090815260409020805460019091015482565b604080519283526020830191909152016101f3565b34801561054657600080fd5b5061055a610555366004611f16565b611108565b6040516101f39190612074565b34801561057357600080fd5b5061028c611205565b34801561058857600080fd5b5061030160035481565b34801561059e57600080fd5b506101e76105ad366004611d13565b600760209081526000928352604080842090915290825290205460ff1681565b3480156105d957600080fd5b5061028c6105e8366004611f46565b6113d1565b60006301ffc9a760e01b6001600160e01b03198316148061061e57506380ac58cd60e01b6001600160e01b03198316145b806106395750635b5e139f60e01b6001600160e01b03198316145b92915050565b6000805461064c9061216a565b80601f01602080910402602001604051908101604052809291908181526020018280546106789061216a565b80156106c55780601f1061069a576101008083540402835291602001916106c5565b820191906000526020600020905b8154815290600101906020018083116106a857829003601f168201915b505050505081565b6000818152600560205260409020546001600160a01b03163381148061071657506001600160a01b038116600090815260076020908152604080832033845290915290205460ff165b6107585760405162461bcd60e51b815260206004820152600e60248201526d1393d517d055551213d49256915160921b60448201526064015b60405180910390fd5b60008281526006602052604080822080546001600160a01b0319166001600160a01b0387811691821790925591518593918516917f8c5be1e5ebec7d5bd14f71427d1e84f3dd0314c0f7b2291e5b200ac8c7c3b92591a4505050565b6001600160a01b0385166000908152600860205260409020546060906107e09087904688888888610ed2565b6108365760405162461bcd60e51b815260206004820152602160248201527f5369676e657220616e64207369676e617475726520646f206e6f74206d6174636044820152600d60fb1b606482015260840161074f565b6001600160a01b03861660009081526008602052604090205461085a9060016113db565b6001600160a01b038716600090815260086020908152604080832093909355915190918291309161088f918a918c9101611faf565b60408051601f19818403018152908290526108a991611f93565b6000604051808303816000865af19150503d80600081146108e6576040519150601f19603f3d011682016040523d82523d6000602084013e6108eb565b606091505b50915091508161093d5760405162461bcd60e51b815260206004820152601c60248201527f46756e6374696f6e2063616c6c206e6f74207375636365737366756c00000000604482015260640161074f565b7f5845892132946850460bff5a0083f71031bc5bf9aadcd40f1de79423eac9b10b8833896040516109709392919061202c565b60405180910390a1979650505050505050565b61098d82826113e7565b5050565b336001600160a01b037f0000000000000000000000000000000000000000000000000000000000000000161480156109d257506010546001600160a01b0316155b6109db57600080fd5b601080546001600160a01b0319166001600160a01b0392909216919091179055565b600c54600a54600083815260096020526040812054909283929091610a229190612104565b610a2c91906120e4565b600c54600085815260096020526040902060010154919250610a4d916120e4565b610a579082612123565b9392505050565b6000818152600560205260409020546001600160a01b03848116911614610ab45760405162461bcd60e51b815260206004820152600a60248201526957524f4e475f46524f4d60b01b604482015260640161074f565b6001600160a01b038216610afe5760405162461bcd60e51b81526020600482015260116024820152701253959053125117d49150d25412515395607a1b604482015260640161074f565b336001600160a01b0384161480610b2b57506000818152600660205260409020546001600160a01b031633145b80610b5957506001600160a01b038316600090815260076020908152604080832033845290915290205460ff165b610b965760405162461bcd60e51b815260206004820152600e60248201526d1393d517d055551213d49256915160921b604482015260640161074f565b6001600160a01b0380841660008181526004602090815260408083208054600019019055938616808352848320805460010190558583526005825284832080546001600160a01b03199081168317909155600690925284832080549092169091559251849392917fddf252ad1be2c89b69c2b068fc378daa952ba7f163c4a11628f55a4df523b3ef91a4505050565b6010546001600160a01b0316610c6b5760405162461bcd60e51b815260206004820152600b60248201526a4e6f20537472617465677960a81b604482015260640161074f565b6000612710600b54611388610c809190612104565b610c8a91906120e4565b90506000600f5482610c9c9190612123565b905080600f6000828254610cb091906120cc565b9250508190555080600e6000828254610cc991906120cc565b9250508190555080600d6000828254610ce29190612123565b909155505060105460405163095ea7b360e01b81526001600160a01b039182166004820152602481018390527f00000000000000000000000000000000000000000000000000000000000000009091169063095ea7b390604401602060405180830381600087803b158015610d5657600080fd5b505af1158015610d6a573d6000803e3d6000fd5b505050506040513d601f19601f82011682018060405250810190610d8e9190611ed2565b5060105460405163b6b55f2560e01b8152600481018390526001600160a01b039091169063b6b55f2590602401600060405180830381600087803b158015610dd557600080fd5b505af1158015610de9573d6000803e3d6000fd5b505050505050565b60006106398261156c565b80600d6000828254610e0e91906120cc565b925050819055508060116000828254610e279190612123565b90915550506040516323b872dd60e01b8152336004820152306024820152604481018290527f00000000000000000000000000000000000000000000000000000000000000006001600160a01b0316906323b872dd90606401602060405180830381600087803b158015610e9a57600080fd5b505af1158015610eae573d6000803e3d6000fd5b505050506040513d601f19601f8201168201806040525081019061098d9190611ed2565b600080610f4f88308989604051602001610eef9493929190611fe6565b60408051601f1981840301815282825280516020918201207f19457468657265756d205369676e6564204d6573736167653a0a33320000000084830152603c8085019190915282518085039091018152605c909301909152815191012090565b6040805160008082526020820180845284905260ff87169282019290925260608101889052608081018790529192509060019060a0016020604051602081039080840390855afa158015610fa7573d6000803e3d6000fd5b5050604051601f1901519150506001600160a01b038116610ffe5760405162461bcd60e51b8152602060048201526011602482015270496e76616c6964207369676e617475726560781b604482015260640161074f565b6001600160a01b038a8116911614915050979650505050505050565b6000611025826109fd565b600b54600084815260096020526040902054601154600f5461104790846120cc565b6110519190612123565b61105b9190612104565b61106591906120e4565b61063991906120cc565b600061107a8261101a565b905061108681836116cf565b61098d82611986565b6001805461064c9061216a565b3360008181526007602090815260408083206001600160a01b03871680855290835292819020805460ff191686151590811790915590519081529192917f17307eab39ab6107e8899845ad3d59bd9653f200f220920489ca2b5937696c31910160405180910390a35050565b6111436040518060a001604052806060815260200160006001600160a01b031681526020016000815260200160008152602001600081525090565b6040518060a001604052806000805461115b9061216a565b80601f01602080910402602001604051908101604052809291908181526020018280546111879061216a565b80156111d45780601f106111a9576101008083540402835291602001916111d4565b820191906000526020600020905b8154815290600101906020018083116111b757829003601f168201915b50505091835250503060208201526040016111ee8461101a565b815260200183815260200160008152509050919050565b600d546040516370a0823160e01b8152306004820152600091906001600160a01b037f000000000000000000000000000000000000000000000000000000000000000016906370a082319060240160206040518083038186803b15801561126b57600080fd5b505afa15801561127f573d6000803e3d6000fd5b505050506040513d601f19601f820116820180604052508101906112a39190611f2e565b6112ad9190612123565b905080600d60008282546112c191906120cc565b90915550506010546000906001600160a01b03166112e0576000611373565b600e54601060009054906101000a90046001600160a01b03166001600160a01b031663460ffdae6040518163ffffffff1660e01b815260040160206040518083038186803b15801561133157600080fd5b505afa158015611345573d6000803e3d6000fd5b505050506040513d601f19601f820116820180604052508101906113699190611f2e565b6113739190612123565b905080600e600082825461138791906120cc565b909155506000905061139982846120cc565b9050600b54600c54826113ac9190612104565b6113b691906120e4565b600a60008282546113c791906120cc565b9091555050505050565b61098d81836116cf565b6000610a5782846120cc565b6000818152600560205260409020546001600160a01b0316611407611a53565b6001600160a01b03161461141a57600080fd5b611422611205565b600081815260096020526040812080548492906114409084906120cc565b9091555050600a546114529083612104565b600082815260096020526040812060010180549091906114739084906120cc565b9250508190555081600b600082825461148c91906120cc565b9250508190555081600d60008282546114a591906120cc565b90915550506001600160a01b037f0000000000000000000000000000000000000000000000000000000000000000166323b872dd6114e1611a53565b6040516001600160e01b031960e084901b1681526001600160a01b03909116600482015230602482015260448101859052606401602060405180830381600087803b15801561152f57600080fd5b505af1158015611543573d6000803e3d6000fd5b505050506040513d601f19601f820116820180604052508101906115679190611ed2565b505050565b60008061158261157a611a53565b600354611ab2565b600b549091501561159557611595611205565b6000818152600960205260409020839055600a546115b39084612104565b600082815260096020526040812060010180549091906115d49084906120cc565b9250508190555082600b60008282546115ed91906120cc565b9250508190555082600d600082825461160691906120cc565b90915550506001600160a01b037f0000000000000000000000000000000000000000000000000000000000000000166323b872dd611642611a53565b6040516001600160e01b031960e084901b1681526001600160a01b03909116600482015230602482015260448101869052606401602060405180830381600087803b15801561169057600080fd5b505af11580156116a4573d6000803e3d6000fd5b505050506040513d601f19601f820116820180604052508101906116c89190611ed2565b5092915050565b6000818152600560205260409020546001600160a01b03166116ef611a53565b6001600160a01b031614801561170d57506117098161101a565b8211155b61171657600080fd5b6040516370a0823160e01b81523060048201526000907f00000000000000000000000000000000000000000000000000000000000000006001600160a01b0316906370a082319060240160206040518083038186803b15801561177857600080fd5b505afa15801561178c573d6000803e3d6000fd5b505050506040513d601f19601f820116820180604052508101906117b09190611f2e565b905060006117bc611205565b60006117c7846109fd565b90508085111561184f576117db8186612123565b6000858152600960205260408120805492945084929091906117fe908490612123565b9250508190555081600b60008282546118179190612123565b9091555050600a546000858152600960205260409020546118389190612104565b600085815260096020526040902060010155611883565b600c5461185c9086612104565b6000858152600960205260408120600101805490919061187d9084906120cc565b90915550505b600083861161189357600061189d565b61189d8487612123565b905080156118c6576118ae81611bcd565b82600f60008282546118c09190612123565b90915550505b7f00000000000000000000000000000000000000000000000000000000000000006001600160a01b031663a9059cbb6118fd611a53565b6040516001600160e01b031960e084901b1681526001600160a01b03909116600482015260248101899052604401602060405180830381600087803b15801561194557600080fd5b505af1158015611959573d6000803e3d6000fd5b505050506040513d601f19601f8201168201806040525081019061197d9190611ed2565b50505050505050565b6000818152600560205260409020546001600160a01b0316806119d85760405162461bcd60e51b815260206004820152600a6024820152691393d517d3525395115160b21b604482015260640161074f565b6001600160a01b038116600081815260046020908152604080832080546000190190558583526005825280832080546001600160a01b031990811690915560069092528083208054909216909155518492907fddf252ad1be2c89b69c2b068fc378daa952ba7f163c4a11628f55a4df523b3ef908390a45050565b600033301415611aaa57600080368080601f0160208091040260200160405190810160405280939291908181526020018383808284376000920191909152505050503601516001600160a01b03169150611aaf9050565b503390565b90565b60006001600160a01b038316611afe5760405162461bcd60e51b81526020600482015260116024820152701253959053125117d49150d25412515395607a1b604482015260640161074f565b6000828152600560205260409020546001600160a01b031615611b545760405162461bcd60e51b815260206004820152600e60248201526d1053149150511657d3525395115160921b604482015260640161074f565b6001600160a01b038316600081815260046020908152604080832080546001908101909155600380549091019055858352600590915280822080546001600160a01b0319168417905551849291907fddf252ad1be2c89b69c2b068fc378daa952ba7f163c4a11628f55a4df523b3ef908290a450919050565b601054604051631c8901bb60e31b8152600481018390526001600160a01b039091169063e4480dd890602401600060405180830381600087803b158015611c1357600080fd5b505af1158015611c27573d6000803e3d6000fd5b5050505080600e6000828254611c3d9190612123565b909155505050565b80356001600160a01b0381168114611c5c57600080fd5b919050565b600082601f830112611c71578081fd5b813567ffffffffffffffff80821115611c8c57611c8c6121bb565b604051601f8301601f19908116603f01168101908282118183101715611cb457611cb46121bb565b81604052838152866020858801011115611ccc578485fd5b8360208701602083013792830160200193909352509392505050565b803560ff81168114611c5c57600080fd5b600060208284031215611d0a578081fd5b610a5782611c45565b60008060408385031215611d25578081fd5b611d2e83611c45565b9150611d3c60208401611c45565b90509250929050565b600080600060608486031215611d59578081fd5b611d6284611c45565b9250611d7060208501611c45565b9150604084013590509250925092565b60008060408385031215611d92578182fd5b611d9b83611c45565b91506020830135611dab816121d1565b809150509250929050565b600080600080600060a08688031215611dcd578081fd5b611dd686611c45565b9450602086013567ffffffffffffffff811115611df1578182fd5b611dfd88828901611c61565b9450506040860135925060608601359150611e1a60808701611ce8565b90509295509295909350565b60008060408385031215611e38578182fd5b611e4183611c45565b946020939093013593505050565b600080600080600080600060e0888a031215611e69578182fd5b611e7288611c45565b96506020880135955060408801359450606088013567ffffffffffffffff811115611e9b578283fd5b611ea78a828b01611c61565b9450506080880135925060a08801359150611ec460c08901611ce8565b905092959891949750929550565b600060208284031215611ee3578081fd5b8151610a57816121d1565b600060208284031215611eff578081fd5b81356001600160e01b031981168114610a57578182fd5b600060208284031215611f27578081fd5b5035919050565b600060208284031215611f3f578081fd5b5051919050565b60008060408385031215611f58578182fd5b50508035926020909101359150565b60008151808452611f7f81602086016020860161213a565b601f01601f19169290920160200192915050565b60008251611fa581846020870161213a565b9190910192915050565b60008351611fc181846020880161213a565b60609390931b6bffffffffffffffffffffffff19169190920190815260140192915050565b8481526bffffffffffffffffffffffff198460601b1660208201528260348201526000825161201c81605485016020870161213a565b9190910160540195945050505050565b6001600160a01b0384811682528316602082015260606040820181905260009061205890830184611f67565b95945050505050565b602081526000610a576020830184611f67565b602081526000825160a0602084015261209060c0840182611f67565b905060018060a01b0360208501511660408401526040840151606084015260608401516080840152608084015160a08401528091505092915050565b600082198211156120df576120df6121a5565b500190565b6000826120ff57634e487b7160e01b81526012600452602481fd5b500490565b600081600019048311821515161561211e5761211e6121a5565b500290565b600082821015612135576121356121a5565b500390565b60005b8381101561215557818101518382015260200161213d565b83811115612164576000848401525b50505050565b600181811c9082168061217e57607f821691505b6020821081141561219f57634e487b7160e01b600052602260045260246000fd5b50919050565b634e487b7160e01b600052601160045260246000fd5b634e487b7160e01b600052604160045260246000fd5b80151581146121df57600080fd5b5056fea264697066735822122047eb9dbc89b72ba48be696a8fa78b886b9d8fbed2f9a7f33ae99f447e14a424e64736f6c63430008040033",
  "linkReferences": {},
  "deployedLinkReferences": {}
}