{
  "_format": "hh-sol-artifact-1",
  "contractName": "DaoVault",
  "sourceName": "contracts/src/DaoVault.sol",
  "abi": [
    {
      "inputs": [
        {
          "internalType": "address",
          "name": "_controller",
          "type": "address"
        },
        {
          "internalType": "contract ERC721",
          "name": "_NFT",
          "type": "address"
        },
        {
          "internalType": "contract ERC20",
          "name": "_vaultToken",
          "type": "address"
        }
      ],
      "stateMutability": "nonpayable",
      "type": "constructor"
    },
    {
      "inputs": [],
      "name": "NFT",
      "outputs": [
        {
          "internalType": "contract ERC721",
          "name": "",
          "type": "address"
        }
      ],
      "stateMutability": "view",
      "type": "function"
    },
    {
      "inputs": [],
      "name": "adjustYeild",
      "outputs": [],
      "stateMutability": "nonpayable",
      "type": "function"
    },
    {
      "inputs": [
        {
          "internalType": "uint256",
          "name": "id",
          "type": "uint256"
        }
      ],
      "name": "burn",
      "outputs": [],
      "stateMutability": "nonpayable",
      "type": "function"
    },
    {
      "inputs": [
        {
          "internalType": "uint256",
          "name": "amount",
          "type": "uint256"
        },
        {
          "internalType": "uint256",
          "name": "id",
          "type": "uint256"
        }
      ],
      "name": "depositToId",
      "outputs": [],
      "stateMutability": "nonpayable",
      "type": "function"
    },
    {
      "inputs": [],
      "name": "depositedToStrat",
      "outputs": [
        {
          "internalType": "uint256",
          "name": "",
          "type": "uint256"
        }
      ],
      "stateMutability": "view",
      "type": "function"
    },
    {
      "inputs": [
        {
          "internalType": "uint256",
          "name": "",
          "type": "uint256"
        }
      ],
      "name": "deposits",
      "outputs": [
        {
          "internalType": "uint256",
          "name": "amount",
          "type": "uint256"
        },
        {
          "internalType": "uint256",
          "name": "tracker",
          "type": "uint256"
        }
      ],
      "stateMutability": "view",
      "type": "function"
    },
    {
      "inputs": [],
      "name": "initStrat",
      "outputs": [],
      "stateMutability": "nonpayable",
      "type": "function"
    },
    {
      "inputs": [
        {
          "internalType": "uint256",
          "name": "amount",
          "type": "uint256"
        },
        {
          "internalType": "address",
          "name": "who",
          "type": "address"
        }
      ],
      "name": "manage",
      "outputs": [],
      "stateMutability": "nonpayable",
      "type": "function"
    },
    {
      "inputs": [
        {
          "internalType": "uint256",
          "name": "amount",
          "type": "uint256"
        }
      ],
      "name": "mintNewNFT",
      "outputs": [
        {
          "internalType": "uint256",
          "name": "",
          "type": "uint256"
        }
      ],
      "stateMutability": "nonpayable",
      "type": "function"
    },
    {
      "inputs": [
        {
          "internalType": "uint256",
          "name": "amount",
          "type": "uint256"
        }
      ],
      "name": "returnManagedFunds",
      "outputs": [],
      "stateMutability": "nonpayable",
      "type": "function"
    },
    {
      "inputs": [
        {
          "internalType": "address",
          "name": "addr",
          "type": "address"
        }
      ],
      "name": "setStrategy",
      "outputs": [],
      "stateMutability": "nonpayable",
      "type": "function"
    },
    {
      "inputs": [],
      "name": "totalDeposits",
      "outputs": [
        {
          "internalType": "uint256",
          "name": "",
          "type": "uint256"
        }
      ],
      "stateMutability": "view",
      "type": "function"
    },
    {
      "inputs": [
        {
          "internalType": "uint256",
          "name": "amount",
          "type": "uint256"
        },
        {
          "internalType": "uint256",
          "name": "id",
          "type": "uint256"
        }
      ],
      "name": "withdrawFromId",
      "outputs": [],
      "stateMutability": "nonpayable",
      "type": "function"
    },
    {
      "inputs": [
        {
          "internalType": "uint256",
          "name": "id",
          "type": "uint256"
        }
      ],
      "name": "withdrawableById",
      "outputs": [
        {
          "internalType": "uint256",
          "name": "",
          "type": "uint256"
        }
      ],
      "stateMutability": "view",
      "type": "function"
    },
    {
      "inputs": [],
      "name": "yeildPerDeposit",
      "outputs": [
        {
          "internalType": "uint256",
          "name": "",
          "type": "uint256"
        }
      ],
      "stateMutability": "view",
      "type": "function"
    }
  ],
  "bytecode": "0x60c06040526402540be40060035534801561001957600080fd5b506040516200125c3803806200125c83398101604081905261003a916100d4565b606083811b6001600160601b031990811660a052600580546001600160a01b0319166001600160a01b0386169081179091559183901b1660805260408051637c65f50360e01b81529051859285928592637c65f5039160048082019260009290919082900301818387803b1580156100b157600080fd5b505af11580156100c5573d6000803e3d6000fd5b50505050505050505050610138565b6000806000606084860312156100e8578283fd5b83516100f381610120565b602085015190935061010481610120565b604085015190925061011581610120565b809150509250925092565b6001600160a01b038116811461013557600080fd5b50565b60805160601c60a05160601c6110b9620001a360003960008181610244015261053b0152600081816102830152818161034d015281816104f9015281816105e401528181610745015281816108cc01528181610aa401528181610c7d0152610d8e01526110b96000f3fe608060405234801561001057600080fd5b50600436106100f55760003560e01c80636d43d9f111610097578063a2d6b25f11610066578063a2d6b25f146101d8578063b02c43d0146101e1578063c91b5dd21461021d578063eaaf1fca1461022657600080fd5b80636d43d9f11461016b5780637c0b8de2146101915780637d882097146101bc5780639b270da8146101c557600080fd5b806334d894c9116100d357806334d894c91461013557806342966c681461013d5780634fad28a7146101505780635239af4b1461016357600080fd5b806311e2564b146100fa578063159b49621461010f57806333a100ca14610122575b600080fd5b61010d610108366004610f97565b610239565b005b61010d61011d366004610fc6565b6103cf565b61010d610130366004610f0f565b610530565b61010d610587565b61010d61014b366004610f67565b6106c4565b61010d61015e366004610f67565b61070c565b61010d6107cd565b61017e610179366004610f67565b610893565b6040519081526020015b60405180910390f35b6005546101a4906001600160a01b031681565b6040516001600160a01b039091168152602001610188565b61017e60025481565b61017e6101d3366004610f67565b610999565b61017e60015481565b6102086101ef366004610f67565b6000602081905290815260409020805460019091015482565b60408051928352602083019190915201610188565b61017e60045481565b61010d610234366004610fc6565b610bb7565b336001600160a01b037f0000000000000000000000000000000000000000000000000000000000000000161461026e57600080fd5b6040516370a0823160e01b81523060048201527f00000000000000000000000000000000000000000000000000000000000000006001600160a01b0316906370a082319060240160206040518083038186803b1580156102cd57600080fd5b505afa1580156102e1573d6000803e3d6000fd5b505050506040513d601f19601f820116820180604052508101906103059190610f7f565b821061031057600080fd5b81600760008282546103229190610fe7565b909155505060405163a9059cbb60e01b81526001600160a01b038281166004830152602482018490527f0000000000000000000000000000000000000000000000000000000000000000169063a9059cbb906044015b602060405180830381600087803b15801561039257600080fd5b505af11580156103a6573d6000803e3d6000fd5b505050506040513d601f19601f820116820180604052508101906103ca9190610f47565b505050565b6005546040516331a9108f60e11b8152600481018390526001600160a01b0390911690636352211e9060240160206040518083038186803b15801561041357600080fd5b505afa158015610427573d6000803e3d6000fd5b505050506040513d601f19601f8201168201806040525081019061044b9190610f2b565b6001600160a01b0316336001600160a01b03161461046857600080fd5b60008181526020819052604081208054849290610486908490610fe7565b9091555050600154610498908361101f565b600082815260208190526040812060010180549091906104b9908490610fe7565b9250508190555081600260008282546104d29190610fe7565b90915550506040516323b872dd60e01b8152336004820152306024820152604481018390527f00000000000000000000000000000000000000000000000000000000000000006001600160a01b0316906323b872dd90606401610378565b336001600160a01b037f0000000000000000000000000000000000000000000000000000000000000000161461056557600080fd5b600680546001600160a01b0319166001600160a01b0392909216919091179055565b600061271060025461138861059c919061101f565b6105a69190610fff565b90506000600454826105b8919061103e565b60065460405163095ea7b360e01b81526001600160a01b039182166004820152602481018390529192507f0000000000000000000000000000000000000000000000000000000000000000169063095ea7b390604401602060405180830381600087803b15801561062857600080fd5b505af115801561063c573d6000803e3d6000fd5b505050506040513d601f19601f820116820180604052508101906106609190610f47565b5060065460405163b6b55f2560e01b8152600481018390526001600160a01b039091169063b6b55f25906024015b600060405180830381600087803b1580156106a857600080fd5b505af11580156106bc573d6000803e3d6000fd5b505050505050565b60006106cf82610893565b90506106db8183610bb7565b600554604051630852cd8d60e31b8152600481018490526001600160a01b03909116906342966c689060240161068e565b806007600082825461071e919061103e565b90915550506040516323b872dd60e01b8152336004820152306024820152604481018290527f00000000000000000000000000000000000000000000000000000000000000006001600160a01b0316906323b872dd90606401602060405180830381600087803b15801561079157600080fd5b505af11580156107a5573d6000803e3d6000fd5b505050506040513d601f19601f820116820180604052508101906107c99190610f47565b5050565b60065460408051632307fed760e11b815290516000926001600160a01b03169163460ffdae916004808301926020929190829003018186803b15801561081257600080fd5b505afa158015610826573d6000803e3d6000fd5b505050506040513d601f19601f8201168201806040525081019061084a9190610f7f565b905060006004548261085c919061103e565b90506002546003548261086f919061101f565b6108799190610fff565b6001600082825461088a9190610fe7565b90915550505050565b60008061089f83610e18565b600754600480546040516370a0823160e01b81523092810192909252929350600092906001600160a01b037f000000000000000000000000000000000000000000000000000000000000000016906370a082319060240160206040518083038186803b15801561090e57600080fd5b505afa158015610922573d6000803e3d6000fd5b505050506040513d601f19601f820116820180604052508101906109469190610f7f565b6109509190610fe7565b61095a919061103e565b6002546000868152602081905260408120549293509161097a908461101f565b6109849190610fff565b90506109908382610fe7565b95945050505050565b600080600560009054906101000a90046001600160a01b03166001600160a01b031663e00dd1616040518163ffffffff1660e01b815260040160206040518083038186803b1580156109ea57600080fd5b505afa1580156109fe573d6000803e3d6000fd5b505050506040513d601f19601f82011682018060405250810190610a229190610f7f565b6000818152602081905260409020849055600154909150610a43908461101f565b60008281526020819052604081206001018054909190610a64908490610fe7565b925050819055508260026000828254610a7d9190610fe7565b90915550506040516323b872dd60e01b8152336004820152306024820152604481018490527f00000000000000000000000000000000000000000000000000000000000000006001600160a01b0316906323b872dd90606401602060405180830381600087803b158015610af057600080fd5b505af1158015610b04573d6000803e3d6000fd5b505050506040513d601f19601f82011682018060405250810190610b289190610f47565b506005546040516335313c2160e11b81523360048201526001600160a01b0390911690636a62784290602401602060405180830381600087803b158015610b6e57600080fd5b505af1158015610b82573d6000803e3d6000fd5b505050506040513d601f19601f82011682018060405250810190610ba69190610f7f565b8114610bb157600080fd5b92915050565b6005546040516331a9108f60e11b8152600481018390526001600160a01b0390911690636352211e9060240160206040518083038186803b158015610bfb57600080fd5b505afa158015610c0f573d6000803e3d6000fd5b505050506040513d601f19601f82011682018060405250810190610c339190610f2b565b6001600160a01b0316336001600160a01b031614610c5057600080fd5b610c5981610893565b821115610c6557600080fd5b6040516370a0823160e01b81523060048201526000907f00000000000000000000000000000000000000000000000000000000000000006001600160a01b0316906370a082319060240160206040518083038186803b158015610cc757600080fd5b505afa158015610cdb573d6000803e3d6000fd5b505050506040513d601f19601f82011682018060405250810190610cff9190610f7f565b905080831115610d1c57610d1c610d16828561103e565b83610e79565b60008281526020819052604081208054859290610d3a90849061103e565b9091555050600154610d4c908461101f565b60008381526020819052604081206001018054909190610d6d90849061103e565b909155505060405163a9059cbb60e01b8152336004820152602481018490527f00000000000000000000000000000000000000000000000000000000000000006001600160a01b03169063a9059cbb90604401602060405180830381600087803b158015610dda57600080fd5b505af1158015610dee573d6000803e3d6000fd5b505050506040513d601f19601f82011682018060405250810190610e129190610f47565b50505050565b600354600154600083815260208190526040812054909283929091610e3d919061101f565b610e479190610fff565b600354600085815260208190526040902060010154919250610e6891610fff565b610e72908261103e565b9392505050565b6000610e8482610e18565b90506000610e92828561103e565b90508060046000828254610ea6919061103e565b9091555050600654604051631c8901bb60e31b8152600481018690526001600160a01b039091169063e4480dd890602401600060405180830381600087803b158015610ef157600080fd5b505af1158015610f05573d6000803e3d6000fd5b5050505050505050565b600060208284031215610f20578081fd5b8135610e728161106b565b600060208284031215610f3c578081fd5b8151610e728161106b565b600060208284031215610f58578081fd5b81518015158114610e72578182fd5b600060208284031215610f78578081fd5b5035919050565b600060208284031215610f90578081fd5b5051919050565b60008060408385031215610fa9578081fd5b823591506020830135610fbb8161106b565b809150509250929050565b60008060408385031215610fd8578182fd5b50508035926020909101359150565b60008219821115610ffa57610ffa611055565b500190565b60008261101a57634e487b7160e01b81526012600452602481fd5b500490565b600081600019048311821515161561103957611039611055565b500290565b60008282101561105057611050611055565b500390565b634e487b7160e01b600052601160045260246000fd5b6001600160a01b038116811461108057600080fd5b5056fea2646970667358221220e5a7f9c6273b37d2c945f478f90695e8b63c30c6cebce1b6447c45323729862d64736f6c63430008040033",
  "linkReferences": {},
  "deployedLinkReferences": {}
}