{
  "_format": "hh-sol-artifact-1",
  "contractName": "ERC721",
  "sourceName": "contracts/src/tokens/ERC721.sol",
  "abi": [
    {
      "inputs": [
        {
          "internalType": "string",
          "name": "_name",
          "type": "string"
        },
        {
          "internalType": "string",
          "name": "_symbol",
          "type": "string"
        }
      ],
      "stateMutability": "nonpayable",
      "type": "constructor"
    },
    {
      "anonymous": false,
      "inputs": [
        {
          "indexed": true,
          "internalType": "address",
          "name": "owner",
          "type": "address"
        },
        {
          "indexed": true,
          "internalType": "address",
          "name": "spender",
          "type": "address"
        },
        {
          "indexed": true,
          "internalType": "uint256",
          "name": "id",
          "type": "uint256"
        }
      ],
      "name": "Approval",
      "type": "event"
    },
    {
      "anonymous": false,
      "inputs": [
        {
          "indexed": true,
          "internalType": "address",
          "name": "owner",
          "type": "address"
        },
        {
          "indexed": true,
          "internalType": "address",
          "name": "operator",
          "type": "address"
        },
        {
          "indexed": false,
          "internalType": "bool",
          "name": "approved",
          "type": "bool"
        }
      ],
      "name": "ApprovalForAll",
      "type": "event"
    },
    {
      "anonymous": false,
      "inputs": [
        {
          "indexed": true,
          "internalType": "address",
          "name": "from",
          "type": "address"
        },
        {
          "indexed": true,
          "internalType": "address",
          "name": "to",
          "type": "address"
        },
        {
          "indexed": true,
          "internalType": "uint256",
          "name": "id",
          "type": "uint256"
        }
      ],
      "name": "Transfer",
      "type": "event"
    },
    {
      "inputs": [
        {
          "internalType": "address",
          "name": "spender",
          "type": "address"
        },
        {
          "internalType": "uint256",
          "name": "id",
          "type": "uint256"
        }
      ],
      "name": "approve",
      "outputs": [],
      "stateMutability": "nonpayable",
      "type": "function"
    },
    {
      "inputs": [
        {
          "internalType": "address",
          "name": "",
          "type": "address"
        }
      ],
      "name": "balanceOf",
      "outputs": [
        {
          "internalType": "uint256",
          "name": "",
          "type": "uint256"
        }
      ],
      "stateMutability": "view",
      "type": "function"
    },
    {
      "inputs": [
        {
          "internalType": "uint256",
          "name": "id",
          "type": "uint256"
        }
      ],
      "name": "burn",
      "outputs": [],
      "stateMutability": "nonpayable",
      "type": "function"
    },
    {
      "inputs": [],
      "name": "currentId",
      "outputs": [
        {
          "internalType": "uint256",
          "name": "",
          "type": "uint256"
        }
      ],
      "stateMutability": "view",
      "type": "function"
    },
    {
      "inputs": [
        {
          "internalType": "uint256",
          "name": "",
          "type": "uint256"
        }
      ],
      "name": "getApproved",
      "outputs": [
        {
          "internalType": "address",
          "name": "",
          "type": "address"
        }
      ],
      "stateMutability": "view",
      "type": "function"
    },
    {
      "inputs": [],
      "name": "initVault",
      "outputs": [],
      "stateMutability": "nonpayable",
      "type": "function"
    },
    {
      "inputs": [
        {
          "internalType": "address",
          "name": "",
          "type": "address"
        },
        {
          "internalType": "address",
          "name": "",
          "type": "address"
        }
      ],
      "name": "isApprovedForAll",
      "outputs": [
        {
          "internalType": "bool",
          "name": "",
          "type": "bool"
        }
      ],
      "stateMutability": "view",
      "type": "function"
    },
    {
      "inputs": [
        {
          "internalType": "address",
          "name": "to",
          "type": "address"
        }
      ],
      "name": "mint",
      "outputs": [
        {
          "internalType": "uint256",
          "name": "",
          "type": "uint256"
        }
      ],
      "stateMutability": "nonpayable",
      "type": "function"
    },
    {
      "inputs": [],
      "name": "name",
      "outputs": [
        {
          "internalType": "string",
          "name": "",
          "type": "string"
        }
      ],
      "stateMutability": "view",
      "type": "function"
    },
    {
      "inputs": [
        {
          "internalType": "uint256",
          "name": "",
          "type": "uint256"
        }
      ],
      "name": "ownerOf",
      "outputs": [
        {
          "internalType": "address",
          "name": "",
          "type": "address"
        }
      ],
      "stateMutability": "view",
      "type": "function"
    },
    {
      "inputs": [
        {
          "internalType": "address",
          "name": "from",
          "type": "address"
        },
        {
          "internalType": "address",
          "name": "to",
          "type": "address"
        },
        {
          "internalType": "uint256",
          "name": "id",
          "type": "uint256"
        }
      ],
      "name": "safeTransferFrom",
      "outputs": [],
      "stateMutability": "nonpayable",
      "type": "function"
    },
    {
      "inputs": [
        {
          "internalType": "address",
          "name": "from",
          "type": "address"
        },
        {
          "internalType": "address",
          "name": "to",
          "type": "address"
        },
        {
          "internalType": "uint256",
          "name": "id",
          "type": "uint256"
        },
        {
          "internalType": "bytes",
          "name": "data",
          "type": "bytes"
        }
      ],
      "name": "safeTransferFrom",
      "outputs": [],
      "stateMutability": "nonpayable",
      "type": "function"
    },
    {
      "inputs": [
        {
          "internalType": "address",
          "name": "operator",
          "type": "address"
        },
        {
          "internalType": "bool",
          "name": "approved",
          "type": "bool"
        }
      ],
      "name": "setApprovalForAll",
      "outputs": [],
      "stateMutability": "nonpayable",
      "type": "function"
    },
    {
      "inputs": [
        {
          "internalType": "bytes4",
          "name": "interfaceId",
          "type": "bytes4"
        }
      ],
      "name": "supportsInterface",
      "outputs": [
        {
          "internalType": "bool",
          "name": "",
          "type": "bool"
        }
      ],
      "stateMutability": "pure",
      "type": "function"
    },
    {
      "inputs": [],
      "name": "symbol",
      "outputs": [
        {
          "internalType": "string",
          "name": "",
          "type": "string"
        }
      ],
      "stateMutability": "view",
      "type": "function"
    },
    {
      "inputs": [
        {
          "internalType": "address",
          "name": "from",
          "type": "address"
        },
        {
          "internalType": "address",
          "name": "to",
          "type": "address"
        },
        {
          "internalType": "uint256",
          "name": "id",
          "type": "uint256"
        }
      ],
      "name": "transferFrom",
      "outputs": [],
      "stateMutability": "nonpayable",
      "type": "function"
    }
  ],
  "bytecode": "0x608060405260016003553480156200001657600080fd5b50604051620010fc380380620010fc8339810160408190526200003991620001c6565b81516200004e9060009060208501906200006d565b508051620000649060019060208401906200006d565b50505062000280565b8280546200007b906200022d565b90600052602060002090601f0160209004810192826200009f5760008555620000ea565b82601f10620000ba57805160ff1916838001178555620000ea565b82800160010185558215620000ea579182015b82811115620000ea578251825591602001919060010190620000cd565b50620000f8929150620000fc565b5090565b5b80821115620000f85760008155600101620000fd565b600082601f83011262000124578081fd5b81516001600160401b03808211156200014157620001416200026a565b604051601f8301601f19908116603f011681019082821181831017156200016c576200016c6200026a565b8160405283815260209250868385880101111562000188578485fd5b8491505b83821015620001ab57858201830151818301840152908201906200018c565b83821115620001bc57848385830101525b9695505050505050565b60008060408385031215620001d9578182fd5b82516001600160401b0380821115620001f0578384fd5b620001fe8683870162000113565b9350602085015191508082111562000214578283fd5b50620002238582860162000113565b9150509250929050565b600181811c908216806200024257607f821691505b602082108114156200026457634e487b7160e01b600052602260045260246000fd5b50919050565b634e487b7160e01b600052604160045260246000fd5b610e6c80620002906000396000f3fe608060405234801561001057600080fd5b50600436106101005760003560e01c80636a62784211610097578063a22cb46511610066578063a22cb4651461024b578063b88d4fde1461025e578063e00dd16114610271578063e985e9c51461027a57600080fd5b80636a627842146101fa57806370a082311461021b5780637c65f5031461023b57806395d89b411461024357600080fd5b806323b872dd116100d357806323b872dd1461019857806342842e0e146101ab57806342966c68146101be5780636352211e146101d157600080fd5b806301ffc9a71461010557806306fdde031461012d578063081812fc14610142578063095ea7b314610183575b600080fd5b610118610113366004610ce4565b6102a8565b60405190151581526020015b60405180910390f35b6101356102fa565b6040516101249190610dbc565b61016b610150366004610d1c565b6006602052600090815260409020546001600160a01b031681565b6040516001600160a01b039091168152602001610124565b610196610191366004610cbb565b610388565b005b6101966101a6366004610b71565b61046f565b6101966101b9366004610b71565b610636565b6101966101cc366004610d1c565b61073d565b61016b6101df366004610d1c565b6005602052600090815260409020546001600160a01b031681565b61020d610208366004610b1e565b610760565b604051908152602001610124565b61020d610229366004610b1e565b60046020526000908152604090205481565b610196610787565b6101356107b1565b610196610259366004610c81565b6107be565b61019661026c366004610bac565b61082a565b61020d60035481565b610118610288366004610b3f565b600760209081526000928352604080842090915290825290205460ff1681565b60006301ffc9a760e01b6001600160e01b0319831614806102d957506380ac58cd60e01b6001600160e01b03198316145b806102f45750635b5e139f60e01b6001600160e01b03198316145b92915050565b6000805461030790610dcf565b80601f016020809104026020016040519081016040528092919081815260200182805461033390610dcf565b80156103805780601f1061035557610100808354040283529160200191610380565b820191906000526020600020905b81548152906001019060200180831161036357829003601f168201915b505050505081565b6000818152600560205260409020546001600160a01b0316338114806103d157506001600160a01b038116600090815260076020908152604080832033845290915290205460ff165b6104135760405162461bcd60e51b815260206004820152600e60248201526d1393d517d055551213d49256915160921b60448201526064015b60405180910390fd5b60008281526006602052604080822080546001600160a01b0319166001600160a01b0387811691821790925591518593918516917f8c5be1e5ebec7d5bd14f71427d1e84f3dd0314c0f7b2291e5b200ac8c7c3b92591a4505050565b6000818152600560205260409020546001600160a01b038481169116146104c55760405162461bcd60e51b815260206004820152600a60248201526957524f4e475f46524f4d60b01b604482015260640161040a565b6001600160a01b03821661050f5760405162461bcd60e51b81526020600482015260116024820152701253959053125117d49150d25412515395607a1b604482015260640161040a565b336001600160a01b038416148061053c57506000818152600660205260409020546001600160a01b031633145b8061056a57506001600160a01b038316600090815260076020908152604080832033845290915290205460ff165b6105a75760405162461bcd60e51b815260206004820152600e60248201526d1393d517d055551213d49256915160921b604482015260640161040a565b6001600160a01b0380841660008181526004602090815260408083208054600019019055938616808352848320805460010190558583526005825284832080546001600160a01b03199081168317909155600690925284832080549092169091559251849392917fddf252ad1be2c89b69c2b068fc378daa952ba7f163c4a11628f55a4df523b3ef91a4505050565b61064183838361046f565b6001600160a01b0382163b15806106f95750604051630a85bd0160e11b8082523360048301526001600160a01b03858116602484015260448301849052608060648401526000608484015290919084169063150b7a029060a401602060405180830381600087803b1580156106b557600080fd5b505af11580156106c9573d6000803e3d6000fd5b505050506040513d601f19601f820116820180604052508101906106ed9190610d00565b6001600160e01b031916145b6107385760405162461bcd60e51b815260206004820152601060248201526f155394d0519157d49150d2541251539560821b604482015260640161040a565b505050565b6002546001600160a01b0316331461075457600080fd5b61075d8161091e565b50565b6002546000906001600160a01b0316331461077a57600080fd5b6003546102f483826109eb565b6002546001600160a01b03161561079d57600080fd5b600280546001600160a01b03191633179055565b6001805461030790610dcf565b3360008181526007602090815260408083206001600160a01b03871680855290835292819020805460ff191686151590811790915590519081529192917f17307eab39ab6107e8899845ad3d59bd9653f200f220920489ca2b5937696c31910160405180910390a35050565b61083584848461046f565b6001600160a01b0383163b15806108d95750604051630a85bd0160e11b808252906001600160a01b0385169063150b7a029061087b903390899088908890600401610d7f565b602060405180830381600087803b15801561089557600080fd5b505af11580156108a9573d6000803e3d6000fd5b505050506040513d601f19601f820116820180604052508101906108cd9190610d00565b6001600160e01b031916145b6109185760405162461bcd60e51b815260206004820152601060248201526f155394d0519157d49150d2541251539560821b604482015260640161040a565b50505050565b6000818152600560205260409020546001600160a01b0316806109705760405162461bcd60e51b815260206004820152600a6024820152691393d517d3525395115160b21b604482015260640161040a565b6001600160a01b038116600081815260046020908152604080832080546000190190558583526005825280832080546001600160a01b031990811690915560069092528083208054909216909155518492907fddf252ad1be2c89b69c2b068fc378daa952ba7f163c4a11628f55a4df523b3ef908390a45050565b6001600160a01b038216610a355760405162461bcd60e51b81526020600482015260116024820152701253959053125117d49150d25412515395607a1b604482015260640161040a565b6000818152600560205260409020546001600160a01b031615610a8b5760405162461bcd60e51b815260206004820152600e60248201526d1053149150511657d3525395115160921b604482015260640161040a565b6001600160a01b038216600081815260046020908152604080832080546001908101909155600380549091019055848352600590915280822080546001600160a01b0319168417905551839291907fddf252ad1be2c89b69c2b068fc378daa952ba7f163c4a11628f55a4df523b3ef908290a45050565b80356001600160a01b0381168114610b1957600080fd5b919050565b600060208284031215610b2f578081fd5b610b3882610b02565b9392505050565b60008060408385031215610b51578081fd5b610b5a83610b02565b9150610b6860208401610b02565b90509250929050565b600080600060608486031215610b85578081fd5b610b8e84610b02565b9250610b9c60208501610b02565b9150604084013590509250925092565b60008060008060808587031215610bc1578081fd5b610bca85610b02565b9350610bd860208601610b02565b925060408501359150606085013567ffffffffffffffff80821115610bfb578283fd5b818701915087601f830112610c0e578283fd5b813581811115610c2057610c20610e0a565b604051601f8201601f19908116603f01168101908382118183101715610c4857610c48610e0a565b816040528281528a6020848701011115610c60578586fd5b82602086016020830137918201602001949094529598949750929550505050565b60008060408385031215610c93578182fd5b610c9c83610b02565b915060208301358015158114610cb0578182fd5b809150509250929050565b60008060408385031215610ccd578182fd5b610cd683610b02565b946020939093013593505050565b600060208284031215610cf5578081fd5b8135610b3881610e20565b600060208284031215610d11578081fd5b8151610b3881610e20565b600060208284031215610d2d578081fd5b5035919050565b60008151808452815b81811015610d5957602081850181015186830182015201610d3d565b81811115610d6a5782602083870101525b50601f01601f19169290920160200192915050565b6001600160a01b0385811682528416602082015260408101839052608060608201819052600090610db290830184610d34565b9695505050505050565b602081526000610b386020830184610d34565b600181811c90821680610de357607f821691505b60208210811415610e0457634e487b7160e01b600052602260045260246000fd5b50919050565b634e487b7160e01b600052604160045260246000fd5b6001600160e01b03198116811461075d57600080fdfea26469706673582212202e2e91c5d467d17afdf39f4f59f2ceef3b213dce165d2edbfc2d12a8c731aa9a64736f6c63430008040033",
  "linkReferences": {},
  "deployedLinkReferences": {}
}