{
  "_format": "hh-sol-artifact-1",
  "contractName": "PDelegate",
  "sourceName": "contracts/src/controllers/PDelegateDAOController.sol",
  "abi": [
    {
      "inputs": [
        {
          "internalType": "address",
          "name": "_vaultToken",
          "type": "address"
        },
        {
          "internalType": "string",
          "name": "name",
          "type": "string"
        },
        {
          "internalType": "string",
          "name": "symbol",
          "type": "string"
        },
        {
          "internalType": "uint16",
          "name": "_quorom",
          "type": "uint16"
        }
      ],
      "stateMutability": "nonpayable",
      "type": "constructor"
    },
    {
      "anonymous": false,
      "inputs": [
        {
          "indexed": true,
          "internalType": "address",
          "name": "owner",
          "type": "address"
        },
        {
          "indexed": true,
          "internalType": "address",
          "name": "spender",
          "type": "address"
        },
        {
          "indexed": true,
          "internalType": "uint256",
          "name": "id",
          "type": "uint256"
        }
      ],
      "name": "Approval",
      "type": "event"
    },
    {
      "anonymous": false,
      "inputs": [
        {
          "indexed": true,
          "internalType": "address",
          "name": "owner",
          "type": "address"
        },
        {
          "indexed": true,
          "internalType": "address",
          "name": "operator",
          "type": "address"
        },
        {
          "indexed": false,
          "internalType": "bool",
          "name": "approved",
          "type": "bool"
        }
      ],
      "name": "ApprovalForAll",
      "type": "event"
    },
    {
      "anonymous": false,
      "inputs": [
        {
          "indexed": false,
          "internalType": "address",
          "name": "userAddress",
          "type": "address"
        },
        {
          "indexed": false,
          "internalType": "address payable",
          "name": "relayerAddress",
          "type": "address"
        },
        {
          "indexed": false,
          "internalType": "bytes",
          "name": "functionSignature",
          "type": "bytes"
        }
      ],
      "name": "MetaTransactionExecuted",
      "type": "event"
    },
    {
      "anonymous": false,
      "inputs": [
        {
          "indexed": true,
          "internalType": "address",
          "name": "from",
          "type": "address"
        },
        {
          "indexed": true,
          "internalType": "address",
          "name": "to",
          "type": "address"
        },
        {
          "indexed": true,
          "internalType": "uint256",
          "name": "id",
          "type": "uint256"
        }
      ],
      "name": "Transfer",
      "type": "event"
    },
    {
      "inputs": [
        {
          "internalType": "address",
          "name": "spender",
          "type": "address"
        },
        {
          "internalType": "uint256",
          "name": "id",
          "type": "uint256"
        }
      ],
      "name": "approve",
      "outputs": [],
      "stateMutability": "nonpayable",
      "type": "function"
    },
    {
      "inputs": [
        {
          "internalType": "address",
          "name": "",
          "type": "address"
        }
      ],
      "name": "balanceOf",
      "outputs": [
        {
          "internalType": "uint256",
          "name": "",
          "type": "uint256"
        }
      ],
      "stateMutability": "view",
      "type": "function"
    },
    {
      "inputs": [
        {
          "internalType": "uint256",
          "name": "id",
          "type": "uint256"
        }
      ],
      "name": "burnNFTAndWithdrawl",
      "outputs": [],
      "stateMutability": "nonpayable",
      "type": "function"
    },
    {
      "inputs": [
        {
          "internalType": "string",
          "name": "descriptor",
          "type": "string"
        },
        {
          "components": [
            {
              "internalType": "address",
              "name": "to",
              "type": "address"
            },
            {
              "internalType": "uint256",
              "name": "amount",
              "type": "uint256"
            }
          ],
          "internalType": "struct PDelegate.Manage[]",
          "name": "_recipients",
          "type": "tuple[]"
        },
        {
          "internalType": "uint256",
          "name": "time",
          "type": "uint256"
        }
      ],
      "name": "createProposal",
      "outputs": [
        {
          "internalType": "bytes32",
          "name": "",
          "type": "bytes32"
        }
      ],
      "stateMutability": "nonpayable",
      "type": "function"
    },
    {
      "inputs": [],
      "name": "ctx",
      "outputs": [
        {
          "internalType": "uint16",
          "name": "quorom",
          "type": "uint16"
        },
        {
          "internalType": "uint16",
          "name": "vaultType",
          "type": "uint16"
        }
      ],
      "stateMutability": "view",
      "type": "function"
    },
    {
      "inputs": [],
      "name": "currentId",
      "outputs": [
        {
          "internalType": "uint256",
          "name": "",
          "type": "uint256"
        }
      ],
      "stateMutability": "view",
      "type": "function"
    },
    {
      "inputs": [
        {
          "internalType": "uint256",
          "name": "fromId",
          "type": "uint256"
        },
        {
          "internalType": "uint256",
          "name": "toId",
          "type": "uint256"
        }
      ],
      "name": "delegateVotes",
      "outputs": [],
      "stateMutability": "nonpayable",
      "type": "function"
    },
    {
      "inputs": [
        {
          "internalType": "uint256",
          "name": "",
          "type": "uint256"
        }
      ],
      "name": "delegatedAmount",
      "outputs": [
        {
          "internalType": "uint256",
          "name": "",
          "type": "uint256"
        }
      ],
      "stateMutability": "view",
      "type": "function"
    },
    {
      "inputs": [
        {
          "internalType": "uint256",
          "name": "",
          "type": "uint256"
        }
      ],
      "name": "delegation",
      "outputs": [
        {
          "internalType": "uint256",
          "name": "delegatee",
          "type": "uint256"
        },
        {
          "internalType": "uint256",
          "name": "weight",
          "type": "uint256"
        }
      ],
      "stateMutability": "view",
      "type": "function"
    },
    {
      "inputs": [
        {
          "internalType": "uint256",
          "name": "amount",
          "type": "uint256"
        },
        {
          "internalType": "uint256",
          "name": "id",
          "type": "uint256"
        }
      ],
      "name": "depositToId",
      "outputs": [],
      "stateMutability": "nonpayable",
      "type": "function"
    },
    {
      "inputs": [
        {
          "internalType": "uint256",
          "name": "",
          "type": "uint256"
        }
      ],
      "name": "deposits",
      "outputs": [
        {
          "internalType": "uint256",
          "name": "amount",
          "type": "uint256"
        },
        {
          "internalType": "uint256",
          "name": "tracker",
          "type": "uint256"
        }
      ],
      "stateMutability": "view",
      "type": "function"
    },
    {
      "inputs": [],
      "name": "distributeYeild",
      "outputs": [],
      "stateMutability": "nonpayable",
      "type": "function"
    },
    {
      "inputs": [
        {
          "internalType": "address",
          "name": "userAddress",
          "type": "address"
        },
        {
          "internalType": "bytes",
          "name": "functionSignature",
          "type": "bytes"
        },
        {
          "internalType": "bytes32",
          "name": "sigR",
          "type": "bytes32"
        },
        {
          "internalType": "bytes32",
          "name": "sigS",
          "type": "bytes32"
        },
        {
          "internalType": "uint8",
          "name": "sigV",
          "type": "uint8"
        }
      ],
      "name": "executeMetaTransaction",
      "outputs": [
        {
          "internalType": "bytes",
          "name": "",
          "type": "bytes"
        }
      ],
      "stateMutability": "payable",
      "type": "function"
    },
    {
      "inputs": [
        {
          "internalType": "bytes32",
          "name": "descriptor",
          "type": "bytes32"
        }
      ],
      "name": "executeProposal",
      "outputs": [
        {
          "internalType": "bool",
          "name": "",
          "type": "bool"
        }
      ],
      "stateMutability": "nonpayable",
      "type": "function"
    },
    {
      "inputs": [
        {
          "internalType": "uint256",
          "name": "",
          "type": "uint256"
        }
      ],
      "name": "getApproved",
      "outputs": [
        {
          "internalType": "address",
          "name": "",
          "type": "address"
        }
      ],
      "stateMutability": "view",
      "type": "function"
    },
    {
      "inputs": [],
      "name": "getChainID",
      "outputs": [
        {
          "internalType": "uint256",
          "name": "",
          "type": "uint256"
        }
      ],
      "stateMutability": "view",
      "type": "function"
    },
    {
      "inputs": [
        {
          "internalType": "address",
          "name": "user",
          "type": "address"
        }
      ],
      "name": "getNonce",
      "outputs": [
        {
          "internalType": "uint256",
          "name": "nonce",
          "type": "uint256"
        }
      ],
      "stateMutability": "view",
      "type": "function"
    },
    {
      "inputs": [],
      "name": "initStrat",
      "outputs": [],
      "stateMutability": "nonpayable",
      "type": "function"
    },
    {
      "inputs": [
        {
          "internalType": "address",
          "name": "",
          "type": "address"
        },
        {
          "internalType": "address",
          "name": "",
          "type": "address"
        }
      ],
      "name": "isApprovedForAll",
      "outputs": [
        {
          "internalType": "bool",
          "name": "",
          "type": "bool"
        }
      ],
      "stateMutability": "view",
      "type": "function"
    },
    {
      "inputs": [
        {
          "internalType": "uint256",
          "name": "",
          "type": "uint256"
        }
      ],
      "name": "lockRedelgation",
      "outputs": [
        {
          "internalType": "uint256",
          "name": "",
          "type": "uint256"
        }
      ],
      "stateMutability": "view",
      "type": "function"
    },
    {
      "inputs": [
        {
          "internalType": "uint256",
          "name": "amount",
          "type": "uint256"
        }
      ],
      "name": "mintNewNft",
      "outputs": [
        {
          "internalType": "uint256",
          "name": "",
          "type": "uint256"
        }
      ],
      "stateMutability": "nonpayable",
      "type": "function"
    },
    {
      "inputs": [],
      "name": "name",
      "outputs": [
        {
          "internalType": "string",
          "name": "",
          "type": "string"
        }
      ],
      "stateMutability": "view",
      "type": "function"
    },
    {
      "inputs": [
        {
          "internalType": "uint256",
          "name": "",
          "type": "uint256"
        }
      ],
      "name": "ownerOf",
      "outputs": [
        {
          "internalType": "address",
          "name": "",
          "type": "address"
        }
      ],
      "stateMutability": "view",
      "type": "function"
    },
    {
      "inputs": [
        {
          "internalType": "bytes32",
          "name": "",
          "type": "bytes32"
        }
      ],
      "name": "proposals",
      "outputs": [
        {
          "internalType": "bytes32",
          "name": "key",
          "type": "bytes32"
        },
        {
          "internalType": "uint256",
          "name": "idSnapshot",
          "type": "uint256"
        },
        {
          "internalType": "uint256",
          "name": "recipientsLength",
          "type": "uint256"
        },
        {
          "internalType": "uint256",
          "name": "none",
          "type": "uint256"
        },
        {
          "internalType": "uint256",
          "name": "endTime",
          "type": "uint256"
        },
        {
          "internalType": "bool",
          "name": "executed",
          "type": "bool"
        }
      ],
      "stateMutability": "view",
      "type": "function"
    },
    {
      "inputs": [
        {
          "internalType": "uint256",
          "name": "id",
          "type": "uint256"
        }
      ],
      "name": "removeAllDelegation",
      "outputs": [],
      "stateMutability": "nonpayable",
      "type": "function"
    },
    {
      "inputs": [
        {
          "internalType": "uint256",
          "name": "amount",
          "type": "uint256"
        }
      ],
      "name": "returnManagedFunds",
      "outputs": [],
      "stateMutability": "nonpayable",
      "type": "function"
    },
    {
      "inputs": [
        {
          "internalType": "address",
          "name": "operator",
          "type": "address"
        },
        {
          "internalType": "bool",
          "name": "approved",
          "type": "bool"
        }
      ],
      "name": "setApprovalForAll",
      "outputs": [],
      "stateMutability": "nonpayable",
      "type": "function"
    },
    {
      "inputs": [
        {
          "internalType": "address",
          "name": "addr",
          "type": "address"
        }
      ],
      "name": "setStrat",
      "outputs": [],
      "stateMutability": "nonpayable",
      "type": "function"
    },
    {
      "inputs": [
        {
          "internalType": "bytes4",
          "name": "interfaceId",
          "type": "bytes4"
        }
      ],
      "name": "supportsInterface",
      "outputs": [
        {
          "internalType": "bool",
          "name": "",
          "type": "bool"
        }
      ],
      "stateMutability": "pure",
      "type": "function"
    },
    {
      "inputs": [],
      "name": "symbol",
      "outputs": [
        {
          "internalType": "string",
          "name": "",
          "type": "string"
        }
      ],
      "stateMutability": "view",
      "type": "function"
    },
    {
      "inputs": [
        {
          "internalType": "uint256",
          "name": "id",
          "type": "uint256"
        }
      ],
      "name": "tokenURI",
      "outputs": [
        {
          "components": [
            {
              "internalType": "string",
              "name": "name",
              "type": "string"
            },
            {
              "internalType": "address",
              "name": "vaultAddress",
              "type": "address"
            },
            {
              "internalType": "uint256",
              "name": "withdrawable",
              "type": "uint256"
            },
            {
              "internalType": "uint256",
              "name": "id",
              "type": "uint256"
            },
            {
              "internalType": "uint256",
              "name": "vaultType",
              "type": "uint256"
            }
          ],
          "internalType": "struct BaseVault.MetaData",
          "name": "",
          "type": "tuple"
        }
      ],
      "stateMutability": "view",
      "type": "function"
    },
    {
      "inputs": [],
      "name": "totalDeposits",
      "outputs": [
        {
          "internalType": "uint256",
          "name": "",
          "type": "uint256"
        }
      ],
      "stateMutability": "view",
      "type": "function"
    },
    {
      "inputs": [
        {
          "internalType": "address",
          "name": "from",
          "type": "address"
        },
        {
          "internalType": "address",
          "name": "to",
          "type": "address"
        },
        {
          "internalType": "uint256",
          "name": "id",
          "type": "uint256"
        }
      ],
      "name": "transferFrom",
      "outputs": [],
      "stateMutability": "nonpayable",
      "type": "function"
    },
    {
      "inputs": [
        {
          "internalType": "address",
          "name": "owner",
          "type": "address"
        },
        {
          "internalType": "uint256",
          "name": "nonce",
          "type": "uint256"
        },
        {
          "internalType": "uint256",
          "name": "chainID",
          "type": "uint256"
        },
        {
          "internalType": "bytes",
          "name": "functionSignature",
          "type": "bytes"
        },
        {
          "internalType": "bytes32",
          "name": "sigR",
          "type": "bytes32"
        },
        {
          "internalType": "bytes32",
          "name": "sigS",
          "type": "bytes32"
        },
        {
          "internalType": "uint8",
          "name": "sigV",
          "type": "uint8"
        }
      ],
      "name": "verify",
      "outputs": [
        {
          "internalType": "bool",
          "name": "",
          "type": "bool"
        }
      ],
      "stateMutability": "view",
      "type": "function"
    },
    {
      "inputs": [
        {
          "internalType": "uint256",
          "name": "id",
          "type": "uint256"
        },
        {
          "internalType": "uint256",
          "name": "key",
          "type": "uint256"
        },
        {
          "internalType": "bytes32",
          "name": "descriptor",
          "type": "bytes32"
        }
      ],
      "name": "vote",
      "outputs": [],
      "stateMutability": "nonpayable",
      "type": "function"
    },
    {
      "inputs": [
        {
          "internalType": "uint256",
          "name": "",
          "type": "uint256"
        },
        {
          "internalType": "bytes32",
          "name": "",
          "type": "bytes32"
        }
      ],
      "name": "voted",
      "outputs": [
        {
          "internalType": "bool",
          "name": "",
          "type": "bool"
        }
      ],
      "stateMutability": "view",
      "type": "function"
    },
    {
      "inputs": [
        {
          "internalType": "bytes32",
          "name": "",
          "type": "bytes32"
        },
        {
          "internalType": "uint256",
          "name": "",
          "type": "uint256"
        }
      ],
      "name": "votes",
      "outputs": [
        {
          "internalType": "uint256",
          "name": "",
          "type": "uint256"
        }
      ],
      "stateMutability": "view",
      "type": "function"
    },
    {
      "inputs": [
        {
          "internalType": "uint256",
          "name": "id",
          "type": "uint256"
        },
        {
          "internalType": "uint256",
          "name": "amount",
          "type": "uint256"
        }
      ],
      "name": "withdrawFromId",
      "outputs": [],
      "stateMutability": "nonpayable",
      "type": "function"
    },
    {
      "inputs": [
        {
          "internalType": "uint256",
          "name": "id",
          "type": "uint256"
        }
      ],
      "name": "withdrawableById",
      "outputs": [
        {
          "internalType": "uint256",
          "name": "",
          "type": "uint256"
        }
      ],
      "stateMutability": "view",
      "type": "function"
    },
    {
      "inputs": [],
      "name": "yeildPerDeposit",
      "outputs": [
        {
          "internalType": "uint256",
          "name": "",
          "type": "uint256"
        }
      ],
      "stateMutability": "view",
      "type": "function"
    },
    {
      "inputs": [
        {
          "internalType": "uint256",
          "name": "id",
          "type": "uint256"
        }
      ],
      "name": "yieldPerId",
      "outputs": [
        {
          "internalType": "uint256",
          "name": "",
          "type": "uint256"
        }
      ],
      "stateMutability": "view",
      "type": "function"
    }
  ],
  "bytecode": "0x60c060405260016003556402540be400600c553480156200001f57600080fd5b506040516200312038038062003120833981016040819052620000429162000242565b8383838282828181816000908051906020019062000062929190620000e9565b50805162000078906001906020840190620000e9565b5050506001600160601b0319606093841b16608052505033901b60a0525050506105dc61ffff82161015620000ac57600080fd5b6040805180820190915261ffff90911680825260016020909201919091526012805463ffffffff1916909117620100001790555062000335915050565b828054620000f790620002e2565b90600052602060002090601f0160209004810192826200011b576000855562000166565b82601f106200013657805160ff191683800117855562000166565b8280016001018555821562000166579182015b828111156200016657825182559160200191906001019062000149565b506200017492915062000178565b5090565b5b8082111562000174576000815560010162000179565b600082601f830112620001a0578081fd5b81516001600160401b0380821115620001bd57620001bd6200031f565b604051601f8301601f19908116603f01168101908282118183101715620001e857620001e86200031f565b8160405283815260209250868385880101111562000204578485fd5b8491505b8382101562000227578582018301518183018401529082019062000208565b838211156200023857848385830101525b9695505050505050565b6000806000806080858703121562000258578384fd5b84516001600160a01b03811681146200026f578485fd5b60208601519094506001600160401b03808211156200028c578485fd5b6200029a888389016200018f565b94506040870151915080821115620002b0578384fd5b50620002bf878288016200018f565b925050606085015161ffff81168114620002d7578182fd5b939692955090935050565b600181811c90821680620002f757607f821691505b602082108114156200031957634e487b7160e01b600052602260045260246000fd5b50919050565b634e487b7160e01b600052604160045260246000fd5b60805160601c60a05160601c612d87620003996000396000610d1901526000818161108d015281816111cb015281816119c701528181611d3b01528181611e9d01528181611fb601528181612150015281816122f001526123d30152612d876000f3fe6080604052600436106102465760003560e01c80636281133d11610139578063980ff6c6116100b6578063c87b56dd1161007a578063c87b56dd14610801578063ca1e3c831461082e578063cfa7b65f14610843578063e00dd16114610863578063e985e9c514610879578063eaaf1fca146108b457600080fd5b8063980ff6c61461072e578063a22cb4651461074e578063a2d6b25f1461076e578063b02c43d014610784578063b1a61dda146107cd57600080fd5b80637d882097116100fd5780637d882097146106965780637f4b4323146106ac57806389f3dd37146106d95780638c881eeb146106f957806395d89b411461071957600080fd5b80636281133d146105c65780636352211e146105e65780636d43d9f11461061c5780636e60ecb01461063c57806370a082311461066957600080fd5b80631ab2f6af116101c757806334d894c91161018b57806334d894c91461053e5780634b6d69d3146105535780634fad28a714610573578063564b81ef146105935780635ade4ad1146105a657600080fd5b80631ab2f6af1461040657806323b872dd14610426578063277838df146104465780632d0335ab1461048657806332ed5b12146104bc57600080fd5b8063095ea7b31161020e578063095ea7b3146103715780630c53c51c14610393578063159b4962146103a6578063169dd1d2146103c657806316cc3b07146103e657600080fd5b806301ffc9a71461024b57806302f99ae71461028057806306fdde03146102bb578063081812fc146102dd5780630847a4fb1461032b575b600080fd5b34801561025757600080fd5b5061026b6102663660046128ba565b6108d4565b60405190151581526020015b60405180910390f35b34801561028c57600080fd5b5061026b61029b366004612899565b601860209081526000928352604080842090915290825290205460ff1681565b3480156102c757600080fd5b506102d0610926565b6040516102779190612b5b565b3480156102e957600080fd5b506103136102f8366004612881565b6006602052600090815260409020546001600160a01b031681565b6040516001600160a01b039091168152602001610277565b34801561033757600080fd5b50610363610346366004612899565b601760209081526000928352604080842090915290825290205481565b604051908152602001610277565b34801561037d57600080fd5b5061039161038c3660046127b9565b6109b4565b005b6102d06103a1366004612749565b610a9b565b3480156103b257600080fd5b506103916103c1366004612899565b610c6a565b3480156103d257600080fd5b506103916103e1366004612881565b610c78565b3480156103f257600080fd5b5061039161040136600461268c565b610d0e565b34801561041257600080fd5b50610363610421366004612881565b610d7a565b34801561043257600080fd5b506103916104413660046126d8565b610ddb565b34801561045257600080fd5b5060125461046b9061ffff808216916201000090041682565b6040805161ffff938416815292909116602083015201610277565b34801561049257600080fd5b506103636104a136600461268c565b6001600160a01b031660009081526008602052604090205490565b3480156104c857600080fd5b5061050f6104d7366004612881565b601660205260009081526040902080546001820154600383015460048401546005850154600690950154939492939192909160ff1686565b6040805196875260208701959095529385019290925260608401526080830152151560a082015260c001610277565b34801561054a57600080fd5b50610391610fa2565b34801561055f57600080fd5b5061036361056e366004612881565b61116e565b34801561057f57600080fd5b5061039161058e366004612881565b611179565b34801561059f57600080fd5b5046610363565b3480156105b257600080fd5b506103636105c13660046128e2565b61124f565b3480156105d257600080fd5b5061026b6105e13660046127e2565b611371565b3480156105f257600080fd5b50610313610601366004612881565b6005602052600090815260409020546001600160a01b031681565b34801561062857600080fd5b50610363610637366004612881565b6114b9565b34801561064857600080fd5b50610363610657366004612881565b60196020526000908152604090205481565b34801561067557600080fd5b5061036361068436600461268c565b60046020526000908152604090205481565b3480156106a257600080fd5b50610363600b5481565b3480156106b857600080fd5b506103636106c7366004612881565b60156020526000908152604090205481565b3480156106e557600080fd5b506103916106f4366004612881565b61150e565b34801561070557600080fd5b50610391610714366004612a26565b61152e565b34801561072557600080fd5b506102d06116a4565b34801561073a57600080fd5b5061026b610749366004612881565b6116b1565b34801561075a57600080fd5b50610391610769366004612713565b61183a565b34801561077a57600080fd5b50610363600a5481565b34801561079057600080fd5b506107b861079f366004612881565b6009602052600090815260409020805460019091015482565b60408051928352602083019190915201610277565b3480156107d957600080fd5b506107b86107e8366004612881565b6014602052600090815260409020805460019091015482565b34801561080d57600080fd5b5061082161081c366004612881565b6118a6565b6040516102779190612b6e565b34801561083a57600080fd5b506103916119a3565b34801561084f57600080fd5b5061039161085e366004612899565b611b6f565b34801561086f57600080fd5b5061036360035481565b34801561088557600080fd5b5061026b6108943660046126a6565b600760209081526000928352604080842090915290825290205460ff1681565b3480156108c057600080fd5b506103916108cf366004612899565b611c58565b60006301ffc9a760e01b6001600160e01b03198316148061090557506380ac58cd60e01b6001600160e01b03198316145b806109205750635b5e139f60e01b6001600160e01b03198316145b92915050565b6000805461093390612cbe565b80601f016020809104026020016040519081016040528092919081815260200182805461095f90612cbe565b80156109ac5780601f10610981576101008083540402835291602001916109ac565b820191906000526020600020905b81548152906001019060200180831161098f57829003601f168201915b505050505081565b6000818152600560205260409020546001600160a01b0316338114806109fd57506001600160a01b038116600090815260076020908152604080832033845290915290205460ff165b610a3f5760405162461bcd60e51b815260206004820152600e60248201526d1393d517d055551213d49256915160921b60448201526064015b60405180910390fd5b60008281526006602052604080822080546001600160a01b0319166001600160a01b0387811691821790925591518593918516917f8c5be1e5ebec7d5bd14f71427d1e84f3dd0314c0f7b2291e5b200ac8c7c3b92591a4505050565b6001600160a01b038516600090815260086020526040902054606090610ac79087904688888888611371565b610b1d5760405162461bcd60e51b815260206004820152602160248201527f5369676e657220616e64207369676e617475726520646f206e6f74206d6174636044820152600d60fb1b6064820152608401610a36565b6001600160a01b038616600090815260086020526040902054610b41906001611c62565b6001600160a01b0387166000908152600860209081526040808320939093559151909182913091610b76918a918c9101612a99565b60408051601f1981840301815290829052610b9091612a7d565b6000604051808303816000865af19150503d8060008114610bcd576040519150601f19603f3d011682016040523d82523d6000602084013e610bd2565b606091505b509150915081610c245760405162461bcd60e51b815260206004820152601c60248201527f46756e6374696f6e2063616c6c206e6f74207375636365737366756c000000006044820152606401610a36565b7f5845892132946850460bff5a0083f71031bc5bf9aadcd40f1de79423eac9b10b883389604051610c5793929190612b26565b60405180910390a1979650505050505050565b610c748282611c6e565b5050565b6000818152601460209081526040808320546005909252909120546001600160a01b031633148015610cb857506000818152601960205260409020544210155b610cc157600080fd5b60008281526014602090815260408083206001015484845260159092528220805491929091610cf1908490612c77565b909155505050600090815260146020526040812081815560010155565b336001600160a01b037f000000000000000000000000000000000000000000000000000000000000000016148015610d4f57506010546001600160a01b0316155b610d5857600080fd5b601080546001600160a01b0319166001600160a01b0392909216919091179055565b600c54600a54600083815260096020526040812054909283929091610d9f9190612c58565b610da99190612c38565b600c54600085815260096020526040902060010154919250610dca91612c38565b610dd49082612c77565b9392505050565b6000818152600560205260409020546001600160a01b03848116911614610e315760405162461bcd60e51b815260206004820152600a60248201526957524f4e475f46524f4d60b01b6044820152606401610a36565b6001600160a01b038216610e7b5760405162461bcd60e51b81526020600482015260116024820152701253959053125117d49150d25412515395607a1b6044820152606401610a36565b336001600160a01b0384161480610ea857506000818152600660205260409020546001600160a01b031633145b80610ed657506001600160a01b038316600090815260076020908152604080832033845290915290205460ff165b610f135760405162461bcd60e51b815260206004820152600e60248201526d1393d517d055551213d49256915160921b6044820152606401610a36565b6001600160a01b0380841660008181526004602090815260408083208054600019019055938616808352848320805460010190558583526005825284832080546001600160a01b03199081168317909155600690925284832080549092169091559251849392917fddf252ad1be2c89b69c2b068fc378daa952ba7f163c4a11628f55a4df523b3ef91a4505050565b6010546001600160a01b0316610fe85760405162461bcd60e51b815260206004820152600b60248201526a4e6f20537472617465677960a81b6044820152606401610a36565b6000612710600b54611388610ffd9190612c58565b6110079190612c38565b90506000600f54826110199190612c77565b905080600f600082825461102d9190612c20565b9250508190555080600e60008282546110469190612c20565b9250508190555080600d600082825461105f9190612c77565b909155505060105460405163095ea7b360e01b81526001600160a01b039182166004820152602481018390527f00000000000000000000000000000000000000000000000000000000000000009091169063095ea7b390604401602060405180830381600087803b1580156110d357600080fd5b505af11580156110e7573d6000803e3d6000fd5b505050506040513d601f19601f8201168201806040525081019061110b9190612865565b5060105460405163b6b55f2560e01b8152600481018390526001600160a01b039091169063b6b55f2590602401600060405180830381600087803b15801561115257600080fd5b505af1158015611166573d6000803e3d6000fd5b505050505050565b600061092082611df4565b80600d600082825461118b9190612c20565b9250508190555080601160008282546111a49190612c77565b90915550506040516323b872dd60e01b8152336004820152306024820152604481018290527f00000000000000000000000000000000000000000000000000000000000000006001600160a01b0316906323b872dd90606401602060405180830381600087803b15801561121757600080fd5b505af115801561122b573d6000803e3d6000fd5b505050506040513d601f19601f82011682018060405250810190610c749190612865565b815160009062015180831080159061126a57506203f4808311155b8015611277575060038111155b61128057600080fd5b60008686604051602001611295929190612ad0565b60408051601f19818403018152918152815160209283012060138054600181019091557f66de8ffda797e3de9c05e8fc57b3bf0ec28a930d40b0d285d93c06501cf6a0900181905560008181526016909352908220909250905b838110156113645786818151811061131757634e487b7160e01b600052603260045260246000fd5b60209081029190910181015151600083815260028501909252604090912080546001600160a01b0319166001600160a01b039092169190911790558061135c81612cf9565b9150506112ef565b5090979650505050505050565b6000806113ee8830898960405160200161138e9493929190612ae0565b60408051601f1981840301815282825280516020918201207f19457468657265756d205369676e6564204d6573736167653a0a33320000000084830152603c8085019190915282518085039091018152605c909301909152815191012090565b6040805160008082526020820180845284905260ff87169282019290925260608101889052608081018790529192509060019060a0016020604051602081039080840390855afa158015611446573d6000803e3d6000fd5b5050604051601f1901519150506001600160a01b03811661149d5760405162461bcd60e51b8152602060048201526011602482015270496e76616c6964207369676e617475726560781b6044820152606401610a36565b6001600160a01b038a8116911614915050979650505050505050565b60006114c482610d7a565b600b54600084815260096020526040902054601154600f546114e69084612c20565b6114f09190612c77565b6114fa9190612c58565b6115049190612c38565b6109209190612c20565b6000611519826114b9565b90506115258183611f57565b610c748261220e565b6000818152601660205260409020600101548310801561156457506000838152600560205260409020546001600160a01b031633145b61156d57600080fd5b60008381526018602090815260408083208484528252808320805460ff191660011790556016909152902060030154821115611610576000838152601460209081526040808320600101546009909252909120546115cb9190612c77565b6000848152601560205260409020546115e49190612c20565b60008281526016602052604081206004018054909190611605908490612c20565b909155506116809050565b6000838152601460209081526040808320600101546009909252909120546116389190612c77565b6000848152601560205260409020546116519190612c20565b60008281526017602090815260408083208684529091528120805490919061167a908490612c20565b90915550505b61168d426203f480612c20565b600093845260196020526040909320929092555050565b6001805461093390612cbe565b6000818152601660205260408120600581015442108015906116d85750600681015460ff16155b6116e157600080fd5b6000838152601660205260408120600601805460ff1916600117905560038201549080805b8381101561176d5760008781526017602090815260408083208484529091529020546117328184612c20565b600089815260176020908152604080832088845290915290205490935081111561175a578193505b508061176581612cf9565b915050611706565b50600086815260176020908152604080832085845290915290205460048501541061179e5750600095945050505050565b601254600b54612710916117b89161ffff90911690612c58565b6117c29190612c38565b8110156118045760405162461bcd60e51b815260206004820152601060248201526f4e6f7420456e6f75676820566f74657360801b6044820152606401610a36565b600082815260028501602052604090206001810154905461182e91906001600160a01b03166122db565b50600195945050505050565b3360008181526007602090815260408083206001600160a01b03871680855290835292819020805460ff191686151590811790915590519081529192917f17307eab39ab6107e8899845ad3d59bd9653f200f220920489ca2b5937696c31910160405180910390a35050565b6118e16040518060a001604052806060815260200160006001600160a01b031681526020016000815260200160008152602001600081525090565b6040518060a00160405280600080546118f990612cbe565b80601f016020809104026020016040519081016040528092919081815260200182805461192590612cbe565b80156119725780601f1061194757610100808354040283529160200191611972565b820191906000526020600020905b81548152906001019060200180831161195557829003601f168201915b505050918352505030602082015260400161198c846114b9565b815260200183815260200160008152509050919050565b600d546040516370a0823160e01b8152306004820152600091906001600160a01b037f000000000000000000000000000000000000000000000000000000000000000016906370a082319060240160206040518083038186803b158015611a0957600080fd5b505afa158015611a1d573d6000803e3d6000fd5b505050506040513d601f19601f82011682018060405250810190611a419190612a0e565b611a4b9190612c77565b905080600d6000828254611a5f9190612c20565b90915550506010546000906001600160a01b0316611a7e576000611b11565b600e54601060009054906101000a90046001600160a01b03166001600160a01b031663460ffdae6040518163ffffffff1660e01b815260040160206040518083038186803b158015611acf57600080fd5b505afa158015611ae3573d6000803e3d6000fd5b505050506040513d601f19601f82011682018060405250810190611b079190612a0e565b611b119190612c77565b905080600e6000828254611b259190612c20565b9091555060009050611b378284612c20565b9050600b54600c5482611b4a9190612c58565b611b549190612c38565b600a6000828254611b659190612c20565b9091555050505050565b6000828152601460209081526040808320546005909252909120546001600160a01b031633148015611ba15750818314155b611baa57600080fd5b808214611bcc57600081815260196020526040902054421015611bcc57600080fd5b6000838152600960205260409020548115611c175760008481526014602090815260408083206001015485845260159092528220805491929091611c11908490612c77565b90915550505b60008381526015602052604081208054839290611c35908490612c20565b909155505060008481526014602052604090206001810191909155929092555050565b610c748183611f57565b6000610dd48284612c20565b6000818152600560205260409020546001600160a01b0316611c8e612402565b6001600160a01b031614611ca157600080fd5b611ca96119a3565b60008181526009602052604081208054849290611cc7908490612c20565b9091555050600a54611cd99083612c58565b60008281526009602052604081206001018054909190611cfa908490612c20565b9250508190555081600b6000828254611d139190612c20565b9250508190555081600d6000828254611d2c9190612c20565b90915550506001600160a01b037f0000000000000000000000000000000000000000000000000000000000000000166323b872dd611d68612402565b6040516001600160e01b031960e084901b1681526001600160a01b039091166004820152306024820152604481018590526064015b602060405180830381600087803b158015611db757600080fd5b505af1158015611dcb573d6000803e3d6000fd5b505050506040513d601f19601f82011682018060405250810190611def9190612865565b505050565b600080611e0a611e02612402565b600354612461565b600b5490915015611e1d57611e1d6119a3565b6000818152600960205260409020839055600a54611e3b9084612c58565b60008281526009602052604081206001018054909190611e5c908490612c20565b9250508190555082600b6000828254611e759190612c20565b9250508190555082600d6000828254611e8e9190612c20565b90915550506001600160a01b037f0000000000000000000000000000000000000000000000000000000000000000166323b872dd611eca612402565b6040516001600160e01b031960e084901b1681526001600160a01b03909116600482015230602482015260448101869052606401602060405180830381600087803b158015611f1857600080fd5b505af1158015611f2c573d6000803e3d6000fd5b505050506040513d601f19601f82011682018060405250810190611f509190612865565b5092915050565b6000818152600560205260409020546001600160a01b0316611f77612402565b6001600160a01b0316148015611f955750611f91816114b9565b8211155b611f9e57600080fd5b6040516370a0823160e01b81523060048201526000907f00000000000000000000000000000000000000000000000000000000000000006001600160a01b0316906370a082319060240160206040518083038186803b15801561200057600080fd5b505afa158015612014573d6000803e3d6000fd5b505050506040513d601f19601f820116820180604052508101906120389190612a0e565b905060006120446119a3565b600061204f84610d7a565b9050808511156120d7576120638186612c77565b600085815260096020526040812080549294508492909190612086908490612c77565b9250508190555081600b600082825461209f9190612c77565b9091555050600a546000858152600960205260409020546120c09190612c58565b60008581526009602052604090206001015561210b565b600c546120e49086612c58565b60008581526009602052604081206001018054909190612105908490612c20565b90915550505b600083861161211b576000612125565b6121258487612c77565b9050801561214e576121368161257c565b82600f60008282546121489190612c77565b90915550505b7f00000000000000000000000000000000000000000000000000000000000000006001600160a01b031663a9059cbb612185612402565b6040516001600160e01b031960e084901b1681526001600160a01b03909116600482015260248101899052604401602060405180830381600087803b1580156121cd57600080fd5b505af11580156121e1573d6000803e3d6000fd5b505050506040513d601f19601f820116820180604052508101906122059190612865565b50505050505050565b6000818152600560205260409020546001600160a01b0316806122605760405162461bcd60e51b815260206004820152600a6024820152691393d517d3525395115160b21b6044820152606401610a36565b6001600160a01b038116600081815260046020908152604080832080546000190190558583526005825280832080546001600160a01b031990811690915560069092528083208054909216909155518492907fddf252ad1be2c89b69c2b068fc378daa952ba7f163c4a11628f55a4df523b3ef908390a45050565b6040516370a0823160e01b81523060048201527f00000000000000000000000000000000000000000000000000000000000000006001600160a01b0316906370a082319060240160206040518083038186803b15801561233a57600080fd5b505afa15801561234e573d6000803e3d6000fd5b505050506040513d601f19601f820116820180604052508101906123729190612a0e565b821061237d57600080fd5b816011600082825461238f9190612c20565b9250508190555081600d60008282546123a89190612c77565b909155505060405163a9059cbb60e01b81526001600160a01b038281166004830152602482018490527f0000000000000000000000000000000000000000000000000000000000000000169063a9059cbb90604401611d9d565b60003330141561245957600080368080601f0160208091040260200160405190810160405280939291908181526020018383808284376000920191909152505050503601516001600160a01b0316915061245e9050565b503390565b90565b60006001600160a01b0383166124ad5760405162461bcd60e51b81526020600482015260116024820152701253959053125117d49150d25412515395607a1b6044820152606401610a36565b6000828152600560205260409020546001600160a01b0316156125035760405162461bcd60e51b815260206004820152600e60248201526d1053149150511657d3525395115160921b6044820152606401610a36565b6001600160a01b038316600081815260046020908152604080832080546001908101909155600380549091019055858352600590915280822080546001600160a01b0319168417905551849291907fddf252ad1be2c89b69c2b068fc378daa952ba7f163c4a11628f55a4df523b3ef908290a450919050565b601054604051631c8901bb60e31b8152600481018390526001600160a01b039091169063e4480dd890602401600060405180830381600087803b1580156125c257600080fd5b505af11580156125d6573d6000803e3d6000fd5b5050505080600e60008282546125ec9190612c77565b909155505050565b80356001600160a01b038116811461260b57600080fd5b919050565b600082601f830112612620578081fd5b813567ffffffffffffffff81111561263a5761263a612d2a565b61264d601f8201601f1916602001612bef565b818152846020838601011115612661578283fd5b816020850160208301379081016020019190915292915050565b803560ff8116811461260b57600080fd5b60006020828403121561269d578081fd5b610dd4826125f4565b600080604083850312156126b8578081fd5b6126c1836125f4565b91506126cf602084016125f4565b90509250929050565b6000806000606084860312156126ec578081fd5b6126f5846125f4565b9250612703602085016125f4565b9150604084013590509250925092565b60008060408385031215612725578182fd5b61272e836125f4565b9150602083013561273e81612d40565b809150509250929050565b600080600080600060a08688031215612760578081fd5b612769866125f4565b9450602086013567ffffffffffffffff811115612784578182fd5b61279088828901612610565b94505060408601359250606086013591506127ad6080870161267b565b90509295509295909350565b600080604083850312156127cb578182fd5b6127d4836125f4565b946020939093013593505050565b600080600080600080600060e0888a0312156127fc578182fd5b612805886125f4565b96506020880135955060408801359450606088013567ffffffffffffffff81111561282e578283fd5b61283a8a828b01612610565b9450506080880135925060a0880135915061285760c0890161267b565b905092959891949750929550565b600060208284031215612876578081fd5b8151610dd481612d40565b600060208284031215612892578081fd5b5035919050565b600080604083850312156128ab578182fd5b50508035926020909101359150565b6000602082840312156128cb578081fd5b81356001600160e01b031981168114610dd4578182fd5b600080600080606085870312156128f7578182fd5b843567ffffffffffffffff8082111561290e578384fd5b818701915087601f830112612921578384fd5b81358181111561292f578485fd5b60208981838601011115612941578586fd5b80840197508196508089013593508284111561295b578586fd5b838901935089601f85011261296e578586fd5b833591508282111561298257612982612d2a565b612990818360051b01612bef565b8281528181019350848201600684901b860183018c10156129af578788fd5b8795505b838610156129f957604080828e0312156129cb578889fd5b6129d3612bc6565b6129dc836125f4565b8152828501358582015286526001969096019594830194016129b3565b50979a96995096976040013596505050505050565b600060208284031215612a1f578081fd5b5051919050565b600080600060608486031215612a3a578081fd5b505081359360208301359350604090920135919050565b60008151808452612a69816020860160208601612c8e565b601f01601f19169290920160200192915050565b60008251612a8f818460208701612c8e565b9190910192915050565b60008351612aab818460208801612c8e565b60609390931b6bffffffffffffffffffffffff19169190920190815260140192915050565b8183823760009101908152919050565b8481526bffffffffffffffffffffffff198460601b16602082015282603482015260008251612b16816054850160208701612c8e565b9190910160540195945050505050565b6001600160a01b03848116825283166020820152606060408201819052600090612b5290830184612a51565b95945050505050565b602081526000610dd46020830184612a51565b602081526000825160a06020840152612b8a60c0840182612a51565b905060018060a01b0360208501511660408401526040840151606084015260608401516080840152608084015160a08401528091505092915050565b6040805190810167ffffffffffffffff81118282101715612be957612be9612d2a565b60405290565b604051601f8201601f1916810167ffffffffffffffff81118282101715612c1857612c18612d2a565b604052919050565b60008219821115612c3357612c33612d14565b500190565b600082612c5357634e487b7160e01b81526012600452602481fd5b500490565b6000816000190483118215151615612c7257612c72612d14565b500290565b600082821015612c8957612c89612d14565b500390565b60005b83811015612ca9578181015183820152602001612c91565b83811115612cb8576000848401525b50505050565b600181811c90821680612cd257607f821691505b60208210811415612cf357634e487b7160e01b600052602260045260246000fd5b50919050565b6000600019821415612d0d57612d0d612d14565b5060010190565b634e487b7160e01b600052601160045260246000fd5b634e487b7160e01b600052604160045260246000fd5b8015158114612d4e57600080fd5b5056fea2646970667358221220443b3b7a383b25e1cf613925b2079ae28bb3b4bb0f788d7265b6cf8eb7f30b3d64736f6c63430008040033",
  "linkReferences": {},
  "deployedLinkReferences": {}
}