{
  "_format": "hh-sol-artifact-1",
  "contractName": "PDelegate",
  "sourceName": "contracts/src/controllers/PDelegateDAOController.sol",
  "abi": [
    {
      "inputs": [
        {
          "internalType": "address",
          "name": "_vaultToken",
          "type": "address"
        },
        {
          "internalType": "string",
          "name": "name",
          "type": "string"
        },
        {
          "internalType": "string",
          "name": "symbol",
          "type": "string"
        },
        {
          "internalType": "uint16",
          "name": "_quorom",
          "type": "uint16"
        }
      ],
      "stateMutability": "nonpayable",
      "type": "constructor"
    },
    {
      "anonymous": false,
      "inputs": [
        {
          "indexed": true,
          "internalType": "address",
          "name": "owner",
          "type": "address"
        },
        {
          "indexed": true,
          "internalType": "address",
          "name": "spender",
          "type": "address"
        },
        {
          "indexed": true,
          "internalType": "uint256",
          "name": "id",
          "type": "uint256"
        }
      ],
      "name": "Approval",
      "type": "event"
    },
    {
      "anonymous": false,
      "inputs": [
        {
          "indexed": true,
          "internalType": "address",
          "name": "owner",
          "type": "address"
        },
        {
          "indexed": true,
          "internalType": "address",
          "name": "operator",
          "type": "address"
        },
        {
          "indexed": false,
          "internalType": "bool",
          "name": "approved",
          "type": "bool"
        }
      ],
      "name": "ApprovalForAll",
      "type": "event"
    },
    {
      "anonymous": false,
      "inputs": [
        {
          "indexed": false,
          "internalType": "address",
          "name": "userAddress",
          "type": "address"
        },
        {
          "indexed": false,
          "internalType": "address payable",
          "name": "relayerAddress",
          "type": "address"
        },
        {
          "indexed": false,
          "internalType": "bytes",
          "name": "functionSignature",
          "type": "bytes"
        }
      ],
      "name": "MetaTransactionExecuted",
      "type": "event"
    },
    {
      "anonymous": false,
      "inputs": [
        {
          "indexed": true,
          "internalType": "address",
          "name": "from",
          "type": "address"
        },
        {
          "indexed": true,
          "internalType": "address",
          "name": "to",
          "type": "address"
        },
        {
          "indexed": true,
          "internalType": "uint256",
          "name": "id",
          "type": "uint256"
        }
      ],
      "name": "Transfer",
      "type": "event"
    },
    {
      "inputs": [
        {
          "internalType": "address",
          "name": "spender",
          "type": "address"
        },
        {
          "internalType": "uint256",
          "name": "id",
          "type": "uint256"
        }
      ],
      "name": "approve",
      "outputs": [],
      "stateMutability": "nonpayable",
      "type": "function"
    },
    {
      "inputs": [
        {
          "internalType": "address",
          "name": "",
          "type": "address"
        }
      ],
      "name": "balanceOf",
      "outputs": [
        {
          "internalType": "uint256",
          "name": "",
          "type": "uint256"
        }
      ],
      "stateMutability": "view",
      "type": "function"
    },
    {
      "inputs": [
        {
          "internalType": "uint256",
          "name": "id",
          "type": "uint256"
        }
      ],
      "name": "burnNFTAndWithdrawl",
      "outputs": [],
      "stateMutability": "nonpayable",
      "type": "function"
    },
    {
      "inputs": [
        {
          "internalType": "string",
          "name": "descriptor",
          "type": "string"
        },
        {
          "components": [
            {
              "internalType": "address",
              "name": "to",
              "type": "address"
            },
            {
              "internalType": "uint256",
              "name": "amount",
              "type": "uint256"
            }
          ],
          "internalType": "struct PDelegate.Manage[]",
          "name": "_recipients",
          "type": "tuple[]"
        },
        {
          "internalType": "uint256",
          "name": "time",
          "type": "uint256"
        }
      ],
      "name": "createProposal",
      "outputs": [
        {
          "internalType": "bytes32",
          "name": "",
          "type": "bytes32"
        }
      ],
      "stateMutability": "nonpayable",
      "type": "function"
    },
    {
      "inputs": [],
      "name": "ctx",
      "outputs": [
        {
          "internalType": "uint16",
          "name": "quorom",
          "type": "uint16"
        },
        {
          "internalType": "uint16",
          "name": "vaultType",
          "type": "uint16"
        }
      ],
      "stateMutability": "view",
      "type": "function"
    },
    {
      "inputs": [],
      "name": "currentId",
      "outputs": [
        {
          "internalType": "uint256",
          "name": "",
          "type": "uint256"
        }
      ],
      "stateMutability": "view",
      "type": "function"
    },
    {
      "inputs": [
        {
          "internalType": "uint256",
          "name": "fromId",
          "type": "uint256"
        },
        {
          "internalType": "uint256",
          "name": "toId",
          "type": "uint256"
        }
      ],
      "name": "delegateVotes",
      "outputs": [],
      "stateMutability": "nonpayable",
      "type": "function"
    },
    {
      "inputs": [
        {
          "internalType": "uint256",
          "name": "",
          "type": "uint256"
        }
      ],
      "name": "delegatedAmount",
      "outputs": [
        {
          "internalType": "uint256",
          "name": "",
          "type": "uint256"
        }
      ],
      "stateMutability": "view",
      "type": "function"
    },
    {
      "inputs": [
        {
          "internalType": "uint256",
          "name": "",
          "type": "uint256"
        }
      ],
      "name": "delegation",
      "outputs": [
        {
          "internalType": "uint256",
          "name": "delegatee",
          "type": "uint256"
        },
        {
          "internalType": "uint256",
          "name": "weight",
          "type": "uint256"
        }
      ],
      "stateMutability": "view",
      "type": "function"
    },
    {
      "inputs": [
        {
          "internalType": "uint256",
          "name": "amount",
          "type": "uint256"
        },
        {
          "internalType": "uint256",
          "name": "id",
          "type": "uint256"
        }
      ],
      "name": "depositToId",
      "outputs": [],
      "stateMutability": "nonpayable",
      "type": "function"
    },
    {
      "inputs": [
        {
          "internalType": "uint256",
          "name": "",
          "type": "uint256"
        }
      ],
      "name": "deposits",
      "outputs": [
        {
          "internalType": "uint256",
          "name": "amount",
          "type": "uint256"
        },
        {
          "internalType": "uint256",
          "name": "tracker",
          "type": "uint256"
        }
      ],
      "stateMutability": "view",
      "type": "function"
    },
    {
      "inputs": [],
      "name": "distributeYeild",
      "outputs": [],
      "stateMutability": "nonpayable",
      "type": "function"
    },
    {
      "inputs": [
        {
          "internalType": "address",
          "name": "userAddress",
          "type": "address"
        },
        {
          "internalType": "bytes",
          "name": "functionSignature",
          "type": "bytes"
        },
        {
          "internalType": "bytes32",
          "name": "sigR",
          "type": "bytes32"
        },
        {
          "internalType": "bytes32",
          "name": "sigS",
          "type": "bytes32"
        },
        {
          "internalType": "uint8",
          "name": "sigV",
          "type": "uint8"
        }
      ],
      "name": "executeMetaTransaction",
      "outputs": [
        {
          "internalType": "bytes",
          "name": "",
          "type": "bytes"
        }
      ],
      "stateMutability": "payable",
      "type": "function"
    },
    {
      "inputs": [
        {
          "internalType": "bytes32",
          "name": "descriptor",
          "type": "bytes32"
        }
      ],
      "name": "executeProposal",
      "outputs": [
        {
          "internalType": "bool",
          "name": "",
          "type": "bool"
        }
      ],
      "stateMutability": "nonpayable",
      "type": "function"
    },
    {
      "inputs": [
        {
          "internalType": "uint256",
          "name": "",
          "type": "uint256"
        }
      ],
      "name": "getApproved",
      "outputs": [
        {
          "internalType": "address",
          "name": "",
          "type": "address"
        }
      ],
      "stateMutability": "view",
      "type": "function"
    },
    {
      "inputs": [],
      "name": "getChainID",
      "outputs": [
        {
          "internalType": "uint256",
          "name": "",
          "type": "uint256"
        }
      ],
      "stateMutability": "view",
      "type": "function"
    },
    {
      "inputs": [
        {
          "internalType": "address",
          "name": "user",
          "type": "address"
        }
      ],
      "name": "getNonce",
      "outputs": [
        {
          "internalType": "uint256",
          "name": "nonce",
          "type": "uint256"
        }
      ],
      "stateMutability": "view",
      "type": "function"
    },
    {
      "inputs": [],
      "name": "initStrat",
      "outputs": [],
      "stateMutability": "nonpayable",
      "type": "function"
    },
    {
      "inputs": [
        {
          "internalType": "address",
          "name": "",
          "type": "address"
        },
        {
          "internalType": "address",
          "name": "",
          "type": "address"
        }
      ],
      "name": "isApprovedForAll",
      "outputs": [
        {
          "internalType": "bool",
          "name": "",
          "type": "bool"
        }
      ],
      "stateMutability": "view",
      "type": "function"
    },
    {
      "inputs": [
        {
          "internalType": "uint256",
          "name": "",
          "type": "uint256"
        }
      ],
      "name": "lockRedelgation",
      "outputs": [
        {
          "internalType": "uint256",
          "name": "",
          "type": "uint256"
        }
      ],
      "stateMutability": "view",
      "type": "function"
    },
    {
      "inputs": [
        {
          "internalType": "uint256",
          "name": "amount",
          "type": "uint256"
        }
      ],
      "name": "mintNewNft",
      "outputs": [
        {
          "internalType": "uint256",
          "name": "",
          "type": "uint256"
        }
      ],
      "stateMutability": "nonpayable",
      "type": "function"
    },
    {
      "inputs": [],
      "name": "name",
      "outputs": [
        {
          "internalType": "string",
          "name": "",
          "type": "string"
        }
      ],
      "stateMutability": "view",
      "type": "function"
    },
    {
      "inputs": [
        {
          "internalType": "uint256",
          "name": "",
          "type": "uint256"
        }
      ],
      "name": "ownerOf",
      "outputs": [
        {
          "internalType": "address",
          "name": "",
          "type": "address"
        }
      ],
      "stateMutability": "view",
      "type": "function"
    },
    {
      "inputs": [
        {
          "internalType": "bytes32",
          "name": "",
          "type": "bytes32"
        }
      ],
      "name": "proposals",
      "outputs": [
        {
          "internalType": "bytes32",
          "name": "key",
          "type": "bytes32"
        },
        {
          "internalType": "uint256",
          "name": "idSnapshot",
          "type": "uint256"
        },
        {
          "internalType": "uint256",
          "name": "recipientsLength",
          "type": "uint256"
        },
        {
          "internalType": "uint256",
          "name": "none",
          "type": "uint256"
        },
        {
          "internalType": "uint256",
          "name": "endTime",
          "type": "uint256"
        },
        {
          "internalType": "bool",
          "name": "executed",
          "type": "bool"
        }
      ],
      "stateMutability": "view",
      "type": "function"
    },
    {
      "inputs": [
        {
          "internalType": "uint256",
          "name": "id",
          "type": "uint256"
        }
      ],
      "name": "removeAllDelegation",
      "outputs": [],
      "stateMutability": "nonpayable",
      "type": "function"
    },
    {
      "inputs": [
        {
          "internalType": "uint256",
          "name": "amount",
          "type": "uint256"
        }
      ],
      "name": "returnManagedFunds",
      "outputs": [],
      "stateMutability": "nonpayable",
      "type": "function"
    },
    {
      "inputs": [
        {
          "internalType": "address",
          "name": "operator",
          "type": "address"
        },
        {
          "internalType": "bool",
          "name": "approved",
          "type": "bool"
        }
      ],
      "name": "setApprovalForAll",
      "outputs": [],
      "stateMutability": "nonpayable",
      "type": "function"
    },
    {
      "inputs": [
        {
          "internalType": "address",
          "name": "addr",
          "type": "address"
        }
      ],
      "name": "setStrat",
      "outputs": [],
      "stateMutability": "nonpayable",
      "type": "function"
    },
    {
      "inputs": [
        {
          "internalType": "bytes4",
          "name": "interfaceId",
          "type": "bytes4"
        }
      ],
      "name": "supportsInterface",
      "outputs": [
        {
          "internalType": "bool",
          "name": "",
          "type": "bool"
        }
      ],
      "stateMutability": "pure",
      "type": "function"
    },
    {
      "inputs": [],
      "name": "symbol",
      "outputs": [
        {
          "internalType": "string",
          "name": "",
          "type": "string"
        }
      ],
      "stateMutability": "view",
      "type": "function"
    },
    {
      "inputs": [
        {
          "internalType": "uint256",
          "name": "id",
          "type": "uint256"
        }
      ],
      "name": "tokenURI",
      "outputs": [
        {
          "components": [
            {
              "internalType": "string",
              "name": "name",
              "type": "string"
            },
            {
              "internalType": "address",
              "name": "vaultAddress",
              "type": "address"
            },
            {
              "internalType": "uint256",
              "name": "withdrawable",
              "type": "uint256"
            },
            {
              "internalType": "uint256",
              "name": "id",
              "type": "uint256"
            },
            {
              "internalType": "uint256",
              "name": "vaultType",
              "type": "uint256"
            }
          ],
          "internalType": "struct BaseVault.MetaData",
          "name": "",
          "type": "tuple"
        }
      ],
      "stateMutability": "view",
      "type": "function"
    },
    {
      "inputs": [],
      "name": "totalDeposits",
      "outputs": [
        {
          "internalType": "uint256",
          "name": "",
          "type": "uint256"
        }
      ],
      "stateMutability": "view",
      "type": "function"
    },
    {
      "inputs": [
        {
          "internalType": "address",
          "name": "from",
          "type": "address"
        },
        {
          "internalType": "address",
          "name": "to",
          "type": "address"
        },
        {
          "internalType": "uint256",
          "name": "id",
          "type": "uint256"
        }
      ],
      "name": "transferFrom",
      "outputs": [],
      "stateMutability": "nonpayable",
      "type": "function"
    },
    {
      "inputs": [
        {
          "internalType": "address",
          "name": "owner",
          "type": "address"
        },
        {
          "internalType": "uint256",
          "name": "nonce",
          "type": "uint256"
        },
        {
          "internalType": "uint256",
          "name": "chainID",
          "type": "uint256"
        },
        {
          "internalType": "bytes",
          "name": "functionSignature",
          "type": "bytes"
        },
        {
          "internalType": "bytes32",
          "name": "sigR",
          "type": "bytes32"
        },
        {
          "internalType": "bytes32",
          "name": "sigS",
          "type": "bytes32"
        },
        {
          "internalType": "uint8",
          "name": "sigV",
          "type": "uint8"
        }
      ],
      "name": "verify",
      "outputs": [
        {
          "internalType": "bool",
          "name": "",
          "type": "bool"
        }
      ],
      "stateMutability": "view",
      "type": "function"
    },
    {
      "inputs": [
        {
          "internalType": "uint256",
          "name": "id",
          "type": "uint256"
        },
        {
          "internalType": "uint256",
          "name": "key",
          "type": "uint256"
        },
        {
          "internalType": "bytes32",
          "name": "descriptor",
          "type": "bytes32"
        }
      ],
      "name": "vote",
      "outputs": [],
      "stateMutability": "nonpayable",
      "type": "function"
    },
    {
      "inputs": [
        {
          "internalType": "uint256",
          "name": "",
          "type": "uint256"
        },
        {
          "internalType": "bytes32",
          "name": "",
          "type": "bytes32"
        }
      ],
      "name": "voted",
      "outputs": [
        {
          "internalType": "bool",
          "name": "",
          "type": "bool"
        }
      ],
      "stateMutability": "view",
      "type": "function"
    },
    {
      "inputs": [
        {
          "internalType": "bytes32",
          "name": "",
          "type": "bytes32"
        },
        {
          "internalType": "uint256",
          "name": "",
          "type": "uint256"
        }
      ],
      "name": "votes",
      "outputs": [
        {
          "internalType": "uint256",
          "name": "",
          "type": "uint256"
        }
      ],
      "stateMutability": "view",
      "type": "function"
    },
    {
      "inputs": [
        {
          "internalType": "uint256",
          "name": "id",
          "type": "uint256"
        },
        {
          "internalType": "uint256",
          "name": "amount",
          "type": "uint256"
        }
      ],
      "name": "withdrawFromId",
      "outputs": [],
      "stateMutability": "nonpayable",
      "type": "function"
    },
    {
      "inputs": [
        {
          "internalType": "uint256",
          "name": "id",
          "type": "uint256"
        }
      ],
      "name": "withdrawableById",
      "outputs": [
        {
          "internalType": "uint256",
          "name": "",
          "type": "uint256"
        }
      ],
      "stateMutability": "view",
      "type": "function"
    },
    {
      "inputs": [],
      "name": "yeildPerDeposit",
      "outputs": [
        {
          "internalType": "uint256",
          "name": "",
          "type": "uint256"
        }
      ],
      "stateMutability": "view",
      "type": "function"
    },
    {
      "inputs": [
        {
          "internalType": "uint256",
          "name": "id",
          "type": "uint256"
        }
      ],
      "name": "yieldPerId",
      "outputs": [
        {
          "internalType": "uint256",
          "name": "",
          "type": "uint256"
        }
      ],
      "stateMutability": "view",
      "type": "function"
    }
  ],
  "bytecode": "0x60c060405260016003556402540be400600c553480156200001f57600080fd5b506040516200310838038062003108833981016040819052620000429162000242565b8383838282828181816000908051906020019062000062929190620000e9565b50805162000078906001906020840190620000e9565b5050506001600160601b0319606093841b16608052505033901b60a0525050506105dc61ffff82161015620000ac57600080fd5b6040805180820190915261ffff90911680825260016020909201919091526012805463ffffffff1916909117620100001790555062000335915050565b828054620000f790620002e2565b90600052602060002090601f0160209004810192826200011b576000855562000166565b82601f106200013657805160ff191683800117855562000166565b8280016001018555821562000166579182015b828111156200016657825182559160200191906001019062000149565b506200017492915062000178565b5090565b5b8082111562000174576000815560010162000179565b600082601f830112620001a0578081fd5b81516001600160401b0380821115620001bd57620001bd6200031f565b604051601f8301601f19908116603f01168101908282118183101715620001e857620001e86200031f565b8160405283815260209250868385880101111562000204578485fd5b8491505b8382101562000227578582018301518183018401529082019062000208565b838211156200023857848385830101525b9695505050505050565b6000806000806080858703121562000258578384fd5b84516001600160a01b03811681146200026f578485fd5b60208601519094506001600160401b03808211156200028c578485fd5b6200029a888389016200018f565b94506040870151915080821115620002b0578384fd5b50620002bf878288016200018f565b925050606085015161ffff81168114620002d7578182fd5b939692955090935050565b600181811c90821680620002f757607f821691505b602082108114156200031957634e487b7160e01b600052602260045260246000fd5b50919050565b634e487b7160e01b600052604160045260246000fd5b60805160601c60a05160601c612d6f620003996000396000610d1901526000818161108d015281816111b2015281816119ae01528181611d2201528181611e8401528181611f9e01528181612138015281816122d801526123bb0152612d6f6000f3fe6080604052600436106102465760003560e01c80636281133d11610139578063980ff6c6116100b6578063c87b56dd1161007a578063c87b56dd14610801578063ca1e3c831461082e578063cfa7b65f14610843578063e00dd16114610863578063e985e9c514610879578063eaaf1fca146108b457600080fd5b8063980ff6c61461072e578063a22cb4651461074e578063a2d6b25f1461076e578063b02c43d014610784578063b1a61dda146107cd57600080fd5b80637d882097116100fd5780637d882097146106965780637f4b4323146106ac57806389f3dd37146106d95780638c881eeb146106f957806395d89b411461071957600080fd5b80636281133d146105c65780636352211e146105e65780636d43d9f11461061c5780636e60ecb01461063c57806370a082311461066957600080fd5b80631ab2f6af116101c757806334d894c91161018b57806334d894c91461053e5780634b6d69d3146105535780634fad28a714610573578063564b81ef146105935780635ade4ad1146105a657600080fd5b80631ab2f6af1461040657806323b872dd14610426578063277838df146104465780632d0335ab1461048657806332ed5b12146104bc57600080fd5b8063095ea7b31161020e578063095ea7b3146103715780630c53c51c14610393578063159b4962146103a6578063169dd1d2146103c657806316cc3b07146103e657600080fd5b806301ffc9a71461024b57806302f99ae71461028057806306fdde03146102bb578063081812fc146102dd5780630847a4fb1461032b575b600080fd5b34801561025757600080fd5b5061026b6102663660046128a2565b6108d4565b60405190151581526020015b60405180910390f35b34801561028c57600080fd5b5061026b61029b366004612881565b601860209081526000928352604080842090915290825290205460ff1681565b3480156102c757600080fd5b506102d0610926565b6040516102779190612b43565b3480156102e957600080fd5b506103136102f8366004612869565b6006602052600090815260409020546001600160a01b031681565b6040516001600160a01b039091168152602001610277565b34801561033757600080fd5b50610363610346366004612881565b601760209081526000928352604080842090915290825290205481565b604051908152602001610277565b34801561037d57600080fd5b5061039161038c3660046127a1565b6109b4565b005b6102d06103a1366004612731565b610a9b565b3480156103b257600080fd5b506103916103c1366004612881565b610c6a565b3480156103d257600080fd5b506103916103e1366004612869565b610c78565b3480156103f257600080fd5b50610391610401366004612674565b610d0e565b34801561041257600080fd5b50610363610421366004612869565b610d7a565b34801561043257600080fd5b506103916104413660046126c0565b610ddb565b34801561045257600080fd5b5060125461046b9061ffff808216916201000090041682565b6040805161ffff938416815292909116602083015201610277565b34801561049257600080fd5b506103636104a1366004612674565b6001600160a01b031660009081526008602052604090205490565b3480156104c857600080fd5b5061050f6104d7366004612869565b601660205260009081526040902080546001820154600383015460048401546005850154600690950154939492939192909160ff1686565b6040805196875260208701959095529385019290925260608401526080830152151560a082015260c001610277565b34801561054a57600080fd5b50610391610fa2565b34801561055f57600080fd5b5061036361056e366004612869565b61116e565b34801561057f57600080fd5b5061039161058e366004612869565b611179565b34801561059f57600080fd5b5046610363565b3480156105b257600080fd5b506103636105c13660046128ca565b611236565b3480156105d257600080fd5b5061026b6105e13660046127ca565b611358565b3480156105f257600080fd5b50610313610601366004612869565b6005602052600090815260409020546001600160a01b031681565b34801561062857600080fd5b50610363610637366004612869565b6114a0565b34801561064857600080fd5b50610363610657366004612869565b60196020526000908152604090205481565b34801561067557600080fd5b50610363610684366004612674565b60046020526000908152604090205481565b3480156106a257600080fd5b50610363600b5481565b3480156106b857600080fd5b506103636106c7366004612869565b60156020526000908152604090205481565b3480156106e557600080fd5b506103916106f4366004612869565b6114f5565b34801561070557600080fd5b50610391610714366004612a0e565b611515565b34801561072557600080fd5b506102d061168b565b34801561073a57600080fd5b5061026b610749366004612869565b611698565b34801561075a57600080fd5b506103916107693660046126fb565b611821565b34801561077a57600080fd5b50610363600a5481565b34801561079057600080fd5b506107b861079f366004612869565b6009602052600090815260409020805460019091015482565b60408051928352602083019190915201610277565b3480156107d957600080fd5b506107b86107e8366004612869565b6014602052600090815260409020805460019091015482565b34801561080d57600080fd5b5061082161081c366004612869565b61188d565b6040516102779190612b56565b34801561083a57600080fd5b5061039161198a565b34801561084f57600080fd5b5061039161085e366004612881565b611b56565b34801561086f57600080fd5b5061036360035481565b34801561088557600080fd5b5061026b61089436600461268e565b600760209081526000928352604080842090915290825290205460ff1681565b3480156108c057600080fd5b506103916108cf366004612881565b611c3f565b60006301ffc9a760e01b6001600160e01b03198316148061090557506380ac58cd60e01b6001600160e01b03198316145b806109205750635b5e139f60e01b6001600160e01b03198316145b92915050565b6000805461093390612ca6565b80601f016020809104026020016040519081016040528092919081815260200182805461095f90612ca6565b80156109ac5780601f10610981576101008083540402835291602001916109ac565b820191906000526020600020905b81548152906001019060200180831161098f57829003601f168201915b505050505081565b6000818152600560205260409020546001600160a01b0316338114806109fd57506001600160a01b038116600090815260076020908152604080832033845290915290205460ff165b610a3f5760405162461bcd60e51b815260206004820152600e60248201526d1393d517d055551213d49256915160921b60448201526064015b60405180910390fd5b60008281526006602052604080822080546001600160a01b0319166001600160a01b0387811691821790925591518593918516917f8c5be1e5ebec7d5bd14f71427d1e84f3dd0314c0f7b2291e5b200ac8c7c3b92591a4505050565b6001600160a01b038516600090815260086020526040902054606090610ac79087904688888888611358565b610b1d5760405162461bcd60e51b815260206004820152602160248201527f5369676e657220616e64207369676e617475726520646f206e6f74206d6174636044820152600d60fb1b6064820152608401610a36565b6001600160a01b038616600090815260086020526040902054610b41906001611c49565b6001600160a01b0387166000908152600860209081526040808320939093559151909182913091610b76918a918c9101612a81565b60408051601f1981840301815290829052610b9091612a65565b6000604051808303816000865af19150503d8060008114610bcd576040519150601f19603f3d011682016040523d82523d6000602084013e610bd2565b606091505b509150915081610c245760405162461bcd60e51b815260206004820152601c60248201527f46756e6374696f6e2063616c6c206e6f74207375636365737366756c000000006044820152606401610a36565b7f5845892132946850460bff5a0083f71031bc5bf9aadcd40f1de79423eac9b10b883389604051610c5793929190612b0e565b60405180910390a1979650505050505050565b610c748282611c55565b5050565b6000818152601460209081526040808320546005909252909120546001600160a01b031633148015610cb857506000818152601960205260409020544210155b610cc157600080fd5b60008281526014602090815260408083206001015484845260159092528220805491929091610cf1908490612c5f565b909155505050600090815260146020526040812081815560010155565b336001600160a01b037f000000000000000000000000000000000000000000000000000000000000000016148015610d4f57506010546001600160a01b0316155b610d5857600080fd5b601080546001600160a01b0319166001600160a01b0392909216919091179055565b600c54600a54600083815260096020526040812054909283929091610d9f9190612c40565b610da99190612c20565b600c54600085815260096020526040902060010154919250610dca91612c20565b610dd49082612c5f565b9392505050565b6000818152600560205260409020546001600160a01b03848116911614610e315760405162461bcd60e51b815260206004820152600a60248201526957524f4e475f46524f4d60b01b6044820152606401610a36565b6001600160a01b038216610e7b5760405162461bcd60e51b81526020600482015260116024820152701253959053125117d49150d25412515395607a1b6044820152606401610a36565b336001600160a01b0384161480610ea857506000818152600660205260409020546001600160a01b031633145b80610ed657506001600160a01b038316600090815260076020908152604080832033845290915290205460ff165b610f135760405162461bcd60e51b815260206004820152600e60248201526d1393d517d055551213d49256915160921b6044820152606401610a36565b6001600160a01b0380841660008181526004602090815260408083208054600019019055938616808352848320805460010190558583526005825284832080546001600160a01b03199081168317909155600690925284832080549092169091559251849392917fddf252ad1be2c89b69c2b068fc378daa952ba7f163c4a11628f55a4df523b3ef91a4505050565b6010546001600160a01b0316610fe85760405162461bcd60e51b815260206004820152600b60248201526a4e6f20537472617465677960a81b6044820152606401610a36565b6000612710600b54611388610ffd9190612c40565b6110079190612c20565b90506000600f54826110199190612c5f565b905080600f600082825461102d9190612c08565b9250508190555080600e60008282546110469190612c08565b9250508190555080600d600082825461105f9190612c5f565b909155505060105460405163095ea7b360e01b81526001600160a01b039182166004820152602481018390527f00000000000000000000000000000000000000000000000000000000000000009091169063095ea7b390604401602060405180830381600087803b1580156110d357600080fd5b505af11580156110e7573d6000803e3d6000fd5b505050506040513d601f19601f8201168201806040525081019061110b919061284d565b5060105460405163b6b55f2560e01b8152600481018390526001600160a01b039091169063b6b55f2590602401600060405180830381600087803b15801561115257600080fd5b505af1158015611166573d6000803e3d6000fd5b505050505050565b600061092082611ddb565b80600d600082825461118b9190612c5f565b90915550506040516323b872dd60e01b8152336004820152306024820152604481018290527f00000000000000000000000000000000000000000000000000000000000000006001600160a01b0316906323b872dd90606401602060405180830381600087803b1580156111fe57600080fd5b505af1158015611212573d6000803e3d6000fd5b505050506040513d601f19601f82011682018060405250810190610c74919061284d565b815160009062015180831080159061125157506203f4808311155b801561125e575060038111155b61126757600080fd5b6000868660405160200161127c929190612ab8565b60408051601f19818403018152918152815160209283012060138054600181019091557f66de8ffda797e3de9c05e8fc57b3bf0ec28a930d40b0d285d93c06501cf6a0900181905560008181526016909352908220909250905b8381101561134b578681815181106112fe57634e487b7160e01b600052603260045260246000fd5b60209081029190910181015151600083815260028501909252604090912080546001600160a01b0319166001600160a01b039092169190911790558061134381612ce1565b9150506112d6565b5090979650505050505050565b6000806113d5883089896040516020016113759493929190612ac8565b60408051601f1981840301815282825280516020918201207f19457468657265756d205369676e6564204d6573736167653a0a33320000000084830152603c8085019190915282518085039091018152605c909301909152815191012090565b6040805160008082526020820180845284905260ff87169282019290925260608101889052608081018790529192509060019060a0016020604051602081039080840390855afa15801561142d573d6000803e3d6000fd5b5050604051601f1901519150506001600160a01b0381166114845760405162461bcd60e51b8152602060048201526011602482015270496e76616c6964207369676e617475726560781b6044820152606401610a36565b6001600160a01b038a8116911614915050979650505050505050565b60006114ab82610d7a565b600b54600084815260096020526040902054601154600f546114cd9084612c08565b6114d79190612c5f565b6114e19190612c40565b6114eb9190612c20565b6109209190612c08565b6000611500826114a0565b905061150c8183611f3e565b610c74826121f6565b6000818152601660205260409020600101548310801561154b57506000838152600560205260409020546001600160a01b031633145b61155457600080fd5b60008381526018602090815260408083208484528252808320805460ff1916600117905560169091529020600301548211156115f7576000838152601460209081526040808320600101546009909252909120546115b29190612c5f565b6000848152601560205260409020546115cb9190612c08565b600082815260166020526040812060040180549091906115ec908490612c08565b909155506116679050565b60008381526014602090815260408083206001015460099092529091205461161f9190612c5f565b6000848152601560205260409020546116389190612c08565b600082815260176020908152604080832086845290915281208054909190611661908490612c08565b90915550505b611674426203f480612c08565b600093845260196020526040909320929092555050565b6001805461093390612ca6565b6000818152601660205260408120600581015442108015906116bf5750600681015460ff16155b6116c857600080fd5b6000838152601660205260408120600601805460ff1916600117905560038201549080805b838110156117545760008781526017602090815260408083208484529091529020546117198184612c08565b6000898152601760209081526040808320888452909152902054909350811115611741578193505b508061174c81612ce1565b9150506116ed565b5060008681526017602090815260408083208584529091529020546004850154106117855750600095945050505050565b601254600b546127109161179f9161ffff90911690612c40565b6117a99190612c20565b8110156117eb5760405162461bcd60e51b815260206004820152601060248201526f4e6f7420456e6f75676820566f74657360801b6044820152606401610a36565b600082815260028501602052604090206001810154905461181591906001600160a01b03166122c3565b50600195945050505050565b3360008181526007602090815260408083206001600160a01b03871680855290835292819020805460ff191686151590811790915590519081529192917f17307eab39ab6107e8899845ad3d59bd9653f200f220920489ca2b5937696c31910160405180910390a35050565b6118c86040518060a001604052806060815260200160006001600160a01b031681526020016000815260200160008152602001600081525090565b6040518060a00160405280600080546118e090612ca6565b80601f016020809104026020016040519081016040528092919081815260200182805461190c90612ca6565b80156119595780601f1061192e57610100808354040283529160200191611959565b820191906000526020600020905b81548152906001019060200180831161193c57829003601f168201915b5050509183525050306020820152604001611973846114a0565b815260200183815260200160008152509050919050565b600d546040516370a0823160e01b8152306004820152600091906001600160a01b037f000000000000000000000000000000000000000000000000000000000000000016906370a082319060240160206040518083038186803b1580156119f057600080fd5b505afa158015611a04573d6000803e3d6000fd5b505050506040513d601f19601f82011682018060405250810190611a2891906129f6565b611a329190612c5f565b905080600d6000828254611a469190612c08565b90915550506010546000906001600160a01b0316611a65576000611af8565b600e54601060009054906101000a90046001600160a01b03166001600160a01b031663460ffdae6040518163ffffffff1660e01b815260040160206040518083038186803b158015611ab657600080fd5b505afa158015611aca573d6000803e3d6000fd5b505050506040513d601f19601f82011682018060405250810190611aee91906129f6565b611af89190612c5f565b905080600e6000828254611b0c9190612c08565b9091555060009050611b1e8284612c08565b9050600b54600c5482611b319190612c40565b611b3b9190612c20565b600a6000828254611b4c9190612c08565b9091555050505050565b6000828152601460209081526040808320546005909252909120546001600160a01b031633148015611b885750818314155b611b9157600080fd5b808214611bb357600081815260196020526040902054421015611bb357600080fd5b6000838152600960205260409020548115611bfe5760008481526014602090815260408083206001015485845260159092528220805491929091611bf8908490612c5f565b90915550505b60008381526015602052604081208054839290611c1c908490612c08565b909155505060008481526014602052604090206001810191909155929092555050565b610c748183611f3e565b6000610dd48284612c08565b6000818152600560205260409020546001600160a01b0316611c756123ea565b6001600160a01b031614611c8857600080fd5b611c9061198a565b60008181526009602052604081208054849290611cae908490612c08565b9091555050600a54611cc09083612c40565b60008281526009602052604081206001018054909190611ce1908490612c08565b9250508190555081600b6000828254611cfa9190612c08565b9250508190555081600d6000828254611d139190612c08565b90915550506001600160a01b037f0000000000000000000000000000000000000000000000000000000000000000166323b872dd611d4f6123ea565b6040516001600160e01b031960e084901b1681526001600160a01b039091166004820152306024820152604481018590526064015b602060405180830381600087803b158015611d9e57600080fd5b505af1158015611db2573d6000803e3d6000fd5b505050506040513d601f19601f82011682018060405250810190611dd6919061284d565b505050565b600080611df1611de96123ea565b600354612449565b600b5490915015611e0457611e0461198a565b6000818152600960205260409020839055600a54611e229084612c40565b60008281526009602052604081206001018054909190611e43908490612c08565b9250508190555082600b6000828254611e5c9190612c08565b9250508190555082600d6000828254611e759190612c08565b90915550506001600160a01b037f0000000000000000000000000000000000000000000000000000000000000000166323b872dd611eb16123ea565b6040516001600160e01b031960e084901b1681526001600160a01b03909116600482015230602482015260448101869052606401602060405180830381600087803b158015611eff57600080fd5b505af1158015611f13573d6000803e3d6000fd5b505050506040513d601f19601f82011682018060405250810190611f37919061284d565b5092915050565b6000818152600560205260409020546001600160a01b0316611f5e6123ea565b6001600160a01b031614611f7157600080fd5b611f7a816114a0565b821115611f8657600080fd5b6040516370a0823160e01b81523060048201526000907f00000000000000000000000000000000000000000000000000000000000000006001600160a01b0316906370a082319060240160206040518083038186803b158015611fe857600080fd5b505afa158015611ffc573d6000803e3d6000fd5b505050506040513d601f19601f8201168201806040525081019061202091906129f6565b9050600061202c61198a565b600061203784610d7a565b9050808511156120bf5761204b8186612c5f565b60008581526009602052604081208054929450849290919061206e908490612c5f565b9250508190555081600b60008282546120879190612c5f565b9091555050600a546000858152600960205260409020546120a89190612c40565b6000858152600960205260409020600101556120f3565b600c546120cc9086612c40565b600085815260096020526040812060010180549091906120ed908490612c08565b90915550505b600083861161210357600061210d565b61210d8487612c5f565b905080156121365761211e81612564565b82600f60008282546121309190612c5f565b90915550505b7f00000000000000000000000000000000000000000000000000000000000000006001600160a01b031663a9059cbb61216d6123ea565b6040516001600160e01b031960e084901b1681526001600160a01b03909116600482015260248101899052604401602060405180830381600087803b1580156121b557600080fd5b505af11580156121c9573d6000803e3d6000fd5b505050506040513d601f19601f820116820180604052508101906121ed919061284d565b50505050505050565b6000818152600560205260409020546001600160a01b0316806122485760405162461bcd60e51b815260206004820152600a6024820152691393d517d3525395115160b21b6044820152606401610a36565b6001600160a01b038116600081815260046020908152604080832080546000190190558583526005825280832080546001600160a01b031990811690915560069092528083208054909216909155518492907fddf252ad1be2c89b69c2b068fc378daa952ba7f163c4a11628f55a4df523b3ef908390a45050565b6040516370a0823160e01b81523060048201527f00000000000000000000000000000000000000000000000000000000000000006001600160a01b0316906370a082319060240160206040518083038186803b15801561232257600080fd5b505afa158015612336573d6000803e3d6000fd5b505050506040513d601f19601f8201168201806040525081019061235a91906129f6565b821061236557600080fd5b81601160008282546123779190612c08565b9250508190555081600d60008282546123909190612c5f565b909155505060405163a9059cbb60e01b81526001600160a01b038281166004830152602482018490527f0000000000000000000000000000000000000000000000000000000000000000169063a9059cbb90604401611d84565b60003330141561244157600080368080601f0160208091040260200160405190810160405280939291908181526020018383808284376000920191909152505050503601516001600160a01b031691506124469050565b503390565b90565b60006001600160a01b0383166124955760405162461bcd60e51b81526020600482015260116024820152701253959053125117d49150d25412515395607a1b6044820152606401610a36565b6000828152600560205260409020546001600160a01b0316156124eb5760405162461bcd60e51b815260206004820152600e60248201526d1053149150511657d3525395115160921b6044820152606401610a36565b6001600160a01b038316600081815260046020908152604080832080546001908101909155600380549091019055858352600590915280822080546001600160a01b0319168417905551849291907fddf252ad1be2c89b69c2b068fc378daa952ba7f163c4a11628f55a4df523b3ef908290a450919050565b601054604051631c8901bb60e31b8152600481018390526001600160a01b039091169063e4480dd890602401600060405180830381600087803b1580156125aa57600080fd5b505af11580156125be573d6000803e3d6000fd5b5050505080600e60008282546125d49190612c5f565b909155505050565b80356001600160a01b03811681146125f357600080fd5b919050565b600082601f830112612608578081fd5b813567ffffffffffffffff81111561262257612622612d12565b612635601f8201601f1916602001612bd7565b818152846020838601011115612649578283fd5b816020850160208301379081016020019190915292915050565b803560ff811681146125f357600080fd5b600060208284031215612685578081fd5b610dd4826125dc565b600080604083850312156126a0578081fd5b6126a9836125dc565b91506126b7602084016125dc565b90509250929050565b6000806000606084860312156126d4578081fd5b6126dd846125dc565b92506126eb602085016125dc565b9150604084013590509250925092565b6000806040838503121561270d578182fd5b612716836125dc565b9150602083013561272681612d28565b809150509250929050565b600080600080600060a08688031215612748578081fd5b612751866125dc565b9450602086013567ffffffffffffffff81111561276c578182fd5b612778888289016125f8565b945050604086013592506060860135915061279560808701612663565b90509295509295909350565b600080604083850312156127b3578182fd5b6127bc836125dc565b946020939093013593505050565b600080600080600080600060e0888a0312156127e4578182fd5b6127ed886125dc565b96506020880135955060408801359450606088013567ffffffffffffffff811115612816578283fd5b6128228a828b016125f8565b9450506080880135925060a0880135915061283f60c08901612663565b905092959891949750929550565b60006020828403121561285e578081fd5b8151610dd481612d28565b60006020828403121561287a578081fd5b5035919050565b60008060408385031215612893578182fd5b50508035926020909101359150565b6000602082840312156128b3578081fd5b81356001600160e01b031981168114610dd4578182fd5b600080600080606085870312156128df578182fd5b843567ffffffffffffffff808211156128f6578384fd5b818701915087601f830112612909578384fd5b813581811115612917578485fd5b60208981838601011115612929578586fd5b808401975081965080890135935082841115612943578586fd5b838901935089601f850112612956578586fd5b833591508282111561296a5761296a612d12565b612978818360051b01612bd7565b8281528181019350848201600684901b860183018c1015612997578788fd5b8795505b838610156129e157604080828e0312156129b3578889fd5b6129bb612bae565b6129c4836125dc565b81528285013585820152865260019690960195948301940161299b565b50979a96995096976040013596505050505050565b600060208284031215612a07578081fd5b5051919050565b600080600060608486031215612a22578081fd5b505081359360208301359350604090920135919050565b60008151808452612a51816020860160208601612c76565b601f01601f19169290920160200192915050565b60008251612a77818460208701612c76565b9190910192915050565b60008351612a93818460208801612c76565b60609390931b6bffffffffffffffffffffffff19169190920190815260140192915050565b8183823760009101908152919050565b8481526bffffffffffffffffffffffff198460601b16602082015282603482015260008251612afe816054850160208701612c76565b9190910160540195945050505050565b6001600160a01b03848116825283166020820152606060408201819052600090612b3a90830184612a39565b95945050505050565b602081526000610dd46020830184612a39565b602081526000825160a06020840152612b7260c0840182612a39565b905060018060a01b0360208501511660408401526040840151606084015260608401516080840152608084015160a08401528091505092915050565b6040805190810167ffffffffffffffff81118282101715612bd157612bd1612d12565b60405290565b604051601f8201601f1916810167ffffffffffffffff81118282101715612c0057612c00612d12565b604052919050565b60008219821115612c1b57612c1b612cfc565b500190565b600082612c3b57634e487b7160e01b81526012600452602481fd5b500490565b6000816000190483118215151615612c5a57612c5a612cfc565b500290565b600082821015612c7157612c71612cfc565b500390565b60005b83811015612c91578181015183820152602001612c79565b83811115612ca0576000848401525b50505050565b600181811c90821680612cba57607f821691505b60208210811415612cdb57634e487b7160e01b600052602260045260246000fd5b50919050565b6000600019821415612cf557612cf5612cfc565b5060010190565b634e487b7160e01b600052601160045260246000fd5b634e487b7160e01b600052604160045260246000fd5b8015158114612d3657600080fd5b5056fea264697066735822122007119e6b88fdc531e15b04a11529ec9bde4166efa0754b8343aa4b6b7af2bc4964736f6c63430008040033",
  "linkReferences": {},
  "deployedLinkReferences": {}
}