{
  "abi": [
    {
      "anonymous": false,
      "inputs": [
        {
          "indexed": false,
          "internalType": "address",
          "name": "userAddress",
          "type": "address"
        },
        {
          "indexed": false,
          "internalType": "address payable",
          "name": "relayerAddress",
          "type": "address"
        },
        {
          "indexed": false,
          "internalType": "bytes",
          "name": "functionSignature",
          "type": "bytes"
        }
      ],
      "name": "MetaTransactionExecuted",
      "type": "event"
    },
    {
      "inputs": [
        {
          "internalType": "address",
          "name": "userAddress",
          "type": "address"
        },
        {
          "internalType": "bytes",
          "name": "functionSignature",
          "type": "bytes"
        },
        {
          "internalType": "bytes32",
          "name": "sigR",
          "type": "bytes32"
        },
        {
          "internalType": "bytes32",
          "name": "sigS",
          "type": "bytes32"
        },
        {
          "internalType": "uint8",
          "name": "sigV",
          "type": "uint8"
        }
      ],
      "name": "executeMetaTransaction",
      "outputs": [
        {
          "internalType": "bytes",
          "name": "",
          "type": "bytes"
        }
      ],
      "stateMutability": "payable",
      "type": "function"
    },
    {
      "inputs": [],
      "name": "getChainID",
      "outputs": [
        {
          "internalType": "uint256",
          "name": "",
          "type": "uint256"
        }
      ],
      "stateMutability": "view",
      "type": "function"
    },
    {
      "inputs": [
        {
          "internalType": "address",
          "name": "user",
          "type": "address"
        }
      ],
      "name": "getNonce",
      "outputs": [
        {
          "internalType": "uint256",
          "name": "nonce",
          "type": "uint256"
        }
      ],
      "stateMutability": "view",
      "type": "function"
    },
    {
      "inputs": [
        {
          "internalType": "address",
          "name": "owner",
          "type": "address"
        },
        {
          "internalType": "uint256",
          "name": "nonce",
          "type": "uint256"
        },
        {
          "internalType": "uint256",
          "name": "chainID",
          "type": "uint256"
        },
        {
          "internalType": "bytes",
          "name": "functionSignature",
          "type": "bytes"
        },
        {
          "internalType": "bytes32",
          "name": "sigR",
          "type": "bytes32"
        },
        {
          "internalType": "bytes32",
          "name": "sigS",
          "type": "bytes32"
        },
        {
          "internalType": "uint8",
          "name": "sigV",
          "type": "uint8"
        }
      ],
      "name": "verify",
      "outputs": [
        {
          "internalType": "bool",
          "name": "",
          "type": "bool"
        }
      ],
      "stateMutability": "view",
      "type": "function"
    }
  ],
  "bytecode": {
    "object": "0x608060405234801561001057600080fd5b50610746806100206000396000f3fe60806040526004361061003f5760003560e01c80630c53c51c146100445780632d0335ab1461006d578063564b81ef146100b15780636281133d146100c4575b600080fd5b6100576100523660046104ba565b6100f4565b6040516100649190610588565b60405180910390f35b34801561007957600080fd5b506100a36100883660046105a2565b6001600160a01b031660009081526020819052604090205490565b604051908152602001610064565b3480156100bd57600080fd5b50466100a3565b3480156100d057600080fd5b506100e46100df3660046105bd565b6102a2565b6040519015158152602001610064565b6001600160a01b03851660009081526020819052604090205460609061012090879046888888886102a2565b61017b5760405162461bcd60e51b815260206004820152602160248201527f5369676e657220616e64207369676e617475726520646f206e6f74206d6174636044820152600d60fb1b60648201526084015b60405180910390fd5b6001600160a01b0386166000908152602081815260408083208054600101905551829130916101ae918a918c9101610642565b60408051601f19818403018152908290526101c891610679565b6000604051808303816000865af19150503d8060008114610205576040519150601f19603f3d011682016040523d82523d6000602084013e61020a565b606091505b50915091508161025c5760405162461bcd60e51b815260206004820152601c60248201527f46756e6374696f6e2063616c6c206e6f74207375636365737366756c000000006044820152606401610172565b7f5845892132946850460bff5a0083f71031bc5bf9aadcd40f1de79423eac9b10b88338960405161028f93929190610695565b60405180910390a1979650505050505050565b60008061031f883089896040516020016102bf94939291906106ca565b60408051601f1981840301815282825280516020918201207f19457468657265756d205369676e6564204d6573736167653a0a33320000000084830152603c8085019190915282518085039091018152605c909301909152815191012090565b6040805160008082526020820180845284905260ff87169282019290925260608101889052608081018790529192509060019060a0016020604051602081039080840390855afa158015610377573d6000803e3d6000fd5b5050604051601f1901519150506001600160a01b0381166103ce5760405162461bcd60e51b8152602060048201526011602482015270496e76616c6964207369676e617475726560781b6044820152606401610172565b6001600160a01b038a8116911614915050979650505050505050565b80356001600160a01b038116811461040157600080fd5b919050565b634e487b7160e01b600052604160045260246000fd5b600082601f83011261042d57600080fd5b813567ffffffffffffffff8082111561044857610448610406565b604051601f8301601f19908116603f0116810190828211818310171561047057610470610406565b8160405283815286602085880101111561048957600080fd5b836020870160208301376000602085830101528094505050505092915050565b803560ff8116811461040157600080fd5b600080600080600060a086880312156104d257600080fd5b6104db866103ea565b9450602086013567ffffffffffffffff8111156104f757600080fd5b6105038882890161041c565b9450506040860135925060608601359150610520608087016104a9565b90509295509295909350565b60005b8381101561054757818101518382015260200161052f565b83811115610556576000848401525b50505050565b6000815180845261057481602086016020860161052c565b601f01601f19169290920160200192915050565b60208152600061059b602083018461055c565b9392505050565b6000602082840312156105b457600080fd5b61059b826103ea565b600080600080600080600060e0888a0312156105d857600080fd5b6105e1886103ea565b96506020880135955060408801359450606088013567ffffffffffffffff81111561060b57600080fd5b6106178a828b0161041c565b9450506080880135925060a0880135915061063460c089016104a9565b905092959891949750929550565b6000835161065481846020880161052c565b60609390931b6bffffffffffffffffffffffff19169190920190815260140192915050565b6000825161068b81846020870161052c565b9190910192915050565b6001600160a01b038481168252831660208201526060604082018190526000906106c19083018461055c565b95945050505050565b8481526bffffffffffffffffffffffff198460601b1660208201528260348201526000825161070081605485016020870161052c565b919091016054019594505050505056fea26469706673582212205184253e22455ac7ec912a088db5d8eb0fafe032f35999e01fc92ca449726e4364736f6c634300080a0033",
    "linkReferences": {}
  }
}