{
  "_format": "hh-sol-artifact-1",
  "contractName": "CharityVault",
  "sourceName": "contracts/src/CharityVault.sol",
  "abi": [
    {
      "inputs": [
        {
          "internalType": "address",
          "name": "_vaultToken",
          "type": "address"
        },
        {
          "internalType": "address",
          "name": "_recipient",
          "type": "address"
        },
        {
          "internalType": "uint16",
          "name": "_tokenPercent",
          "type": "uint16"
        },
        {
          "internalType": "string",
          "name": "name",
          "type": "string"
        },
        {
          "internalType": "string",
          "name": "symbol",
          "type": "string"
        }
      ],
      "stateMutability": "nonpayable",
      "type": "constructor"
    },
    {
      "anonymous": false,
      "inputs": [
        {
          "indexed": true,
          "internalType": "address",
          "name": "owner",
          "type": "address"
        },
        {
          "indexed": true,
          "internalType": "address",
          "name": "spender",
          "type": "address"
        },
        {
          "indexed": true,
          "internalType": "uint256",
          "name": "id",
          "type": "uint256"
        }
      ],
      "name": "Approval",
      "type": "event"
    },
    {
      "anonymous": false,
      "inputs": [
        {
          "indexed": true,
          "internalType": "address",
          "name": "owner",
          "type": "address"
        },
        {
          "indexed": true,
          "internalType": "address",
          "name": "operator",
          "type": "address"
        },
        {
          "indexed": false,
          "internalType": "bool",
          "name": "approved",
          "type": "bool"
        }
      ],
      "name": "ApprovalForAll",
      "type": "event"
    },
    {
      "anonymous": false,
      "inputs": [
        {
          "indexed": false,
          "internalType": "address",
          "name": "userAddress",
          "type": "address"
        },
        {
          "indexed": false,
          "internalType": "address payable",
          "name": "relayerAddress",
          "type": "address"
        },
        {
          "indexed": false,
          "internalType": "bytes",
          "name": "functionSignature",
          "type": "bytes"
        }
      ],
      "name": "MetaTransactionExecuted",
      "type": "event"
    },
    {
      "anonymous": false,
      "inputs": [
        {
          "indexed": true,
          "internalType": "address",
          "name": "from",
          "type": "address"
        },
        {
          "indexed": true,
          "internalType": "address",
          "name": "to",
          "type": "address"
        },
        {
          "indexed": true,
          "internalType": "uint256",
          "name": "id",
          "type": "uint256"
        }
      ],
      "name": "Transfer",
      "type": "event"
    },
    {
      "inputs": [
        {
          "internalType": "address",
          "name": "spender",
          "type": "address"
        },
        {
          "internalType": "uint256",
          "name": "id",
          "type": "uint256"
        }
      ],
      "name": "approve",
      "outputs": [],
      "stateMutability": "nonpayable",
      "type": "function"
    },
    {
      "inputs": [
        {
          "internalType": "address",
          "name": "",
          "type": "address"
        }
      ],
      "name": "balanceOf",
      "outputs": [
        {
          "internalType": "uint256",
          "name": "",
          "type": "uint256"
        }
      ],
      "stateMutability": "view",
      "type": "function"
    },
    {
      "inputs": [
        {
          "internalType": "uint256",
          "name": "id",
          "type": "uint256"
        }
      ],
      "name": "burnNFTAndWithdrawl",
      "outputs": [],
      "stateMutability": "nonpayable",
      "type": "function"
    },
    {
      "inputs": [],
      "name": "currentId",
      "outputs": [
        {
          "internalType": "uint256",
          "name": "",
          "type": "uint256"
        }
      ],
      "stateMutability": "view",
      "type": "function"
    },
    {
      "inputs": [
        {
          "internalType": "uint256",
          "name": "amount",
          "type": "uint256"
        },
        {
          "internalType": "uint256",
          "name": "id",
          "type": "uint256"
        }
      ],
      "name": "depositToId",
      "outputs": [],
      "stateMutability": "nonpayable",
      "type": "function"
    },
    {
      "inputs": [
        {
          "internalType": "uint256",
          "name": "",
          "type": "uint256"
        }
      ],
      "name": "deposits",
      "outputs": [
        {
          "internalType": "uint256",
          "name": "amount",
          "type": "uint256"
        },
        {
          "internalType": "uint256",
          "name": "tracker",
          "type": "uint256"
        }
      ],
      "stateMutability": "view",
      "type": "function"
    },
    {
      "inputs": [],
      "name": "distributeYeild",
      "outputs": [],
      "stateMutability": "nonpayable",
      "type": "function"
    },
    {
      "inputs": [
        {
          "internalType": "address",
          "name": "userAddress",
          "type": "address"
        },
        {
          "internalType": "bytes",
          "name": "functionSignature",
          "type": "bytes"
        },
        {
          "internalType": "bytes32",
          "name": "sigR",
          "type": "bytes32"
        },
        {
          "internalType": "bytes32",
          "name": "sigS",
          "type": "bytes32"
        },
        {
          "internalType": "uint8",
          "name": "sigV",
          "type": "uint8"
        }
      ],
      "name": "executeMetaTransaction",
      "outputs": [
        {
          "internalType": "bytes",
          "name": "",
          "type": "bytes"
        }
      ],
      "stateMutability": "payable",
      "type": "function"
    },
    {
      "inputs": [
        {
          "internalType": "uint256",
          "name": "",
          "type": "uint256"
        }
      ],
      "name": "getApproved",
      "outputs": [
        {
          "internalType": "address",
          "name": "",
          "type": "address"
        }
      ],
      "stateMutability": "view",
      "type": "function"
    },
    {
      "inputs": [],
      "name": "getChainID",
      "outputs": [
        {
          "internalType": "uint256",
          "name": "",
          "type": "uint256"
        }
      ],
      "stateMutability": "view",
      "type": "function"
    },
    {
      "inputs": [
        {
          "internalType": "address",
          "name": "user",
          "type": "address"
        }
      ],
      "name": "getNonce",
      "outputs": [
        {
          "internalType": "uint256",
          "name": "nonce",
          "type": "uint256"
        }
      ],
      "stateMutability": "view",
      "type": "function"
    },
    {
      "inputs": [],
      "name": "initStrat",
      "outputs": [],
      "stateMutability": "nonpayable",
      "type": "function"
    },
    {
      "inputs": [
        {
          "internalType": "address",
          "name": "",
          "type": "address"
        },
        {
          "internalType": "address",
          "name": "",
          "type": "address"
        }
      ],
      "name": "isApprovedForAll",
      "outputs": [
        {
          "internalType": "bool",
          "name": "",
          "type": "bool"
        }
      ],
      "stateMutability": "view",
      "type": "function"
    },
    {
      "inputs": [
        {
          "internalType": "uint256",
          "name": "amount",
          "type": "uint256"
        }
      ],
      "name": "mintNewNft",
      "outputs": [
        {
          "internalType": "uint256",
          "name": "",
          "type": "uint256"
        }
      ],
      "stateMutability": "nonpayable",
      "type": "function"
    },
    {
      "inputs": [],
      "name": "name",
      "outputs": [
        {
          "internalType": "string",
          "name": "",
          "type": "string"
        }
      ],
      "stateMutability": "view",
      "type": "function"
    },
    {
      "inputs": [
        {
          "internalType": "uint256",
          "name": "",
          "type": "uint256"
        }
      ],
      "name": "ownerOf",
      "outputs": [
        {
          "internalType": "address",
          "name": "",
          "type": "address"
        }
      ],
      "stateMutability": "view",
      "type": "function"
    },
    {
      "inputs": [
        {
          "internalType": "address",
          "name": "operator",
          "type": "address"
        },
        {
          "internalType": "bool",
          "name": "approved",
          "type": "bool"
        }
      ],
      "name": "setApprovalForAll",
      "outputs": [],
      "stateMutability": "nonpayable",
      "type": "function"
    },
    {
      "inputs": [
        {
          "internalType": "address",
          "name": "addr",
          "type": "address"
        }
      ],
      "name": "setStrat",
      "outputs": [],
      "stateMutability": "nonpayable",
      "type": "function"
    },
    {
      "inputs": [
        {
          "internalType": "bytes4",
          "name": "interfaceId",
          "type": "bytes4"
        }
      ],
      "name": "supportsInterface",
      "outputs": [
        {
          "internalType": "bool",
          "name": "",
          "type": "bool"
        }
      ],
      "stateMutability": "pure",
      "type": "function"
    },
    {
      "inputs": [],
      "name": "symbol",
      "outputs": [
        {
          "internalType": "string",
          "name": "",
          "type": "string"
        }
      ],
      "stateMutability": "view",
      "type": "function"
    },
    {
      "inputs": [
        {
          "internalType": "uint256",
          "name": "id",
          "type": "uint256"
        }
      ],
      "name": "tokenURI",
      "outputs": [
        {
          "components": [
            {
              "internalType": "string",
              "name": "name",
              "type": "string"
            },
            {
              "internalType": "address",
              "name": "vaultAddress",
              "type": "address"
            },
            {
              "internalType": "uint256",
              "name": "withdrawable",
              "type": "uint256"
            },
            {
              "internalType": "uint256",
              "name": "id",
              "type": "uint256"
            },
            {
              "internalType": "uint256",
              "name": "vaultType",
              "type": "uint256"
            }
          ],
          "internalType": "struct BaseVault.MetaData",
          "name": "",
          "type": "tuple"
        }
      ],
      "stateMutability": "view",
      "type": "function"
    },
    {
      "inputs": [],
      "name": "totalDeposits",
      "outputs": [
        {
          "internalType": "uint256",
          "name": "",
          "type": "uint256"
        }
      ],
      "stateMutability": "view",
      "type": "function"
    },
    {
      "inputs": [
        {
          "internalType": "address",
          "name": "from",
          "type": "address"
        },
        {
          "internalType": "address",
          "name": "to",
          "type": "address"
        },
        {
          "internalType": "uint256",
          "name": "id",
          "type": "uint256"
        }
      ],
      "name": "transferFrom",
      "outputs": [],
      "stateMutability": "nonpayable",
      "type": "function"
    },
    {
      "inputs": [
        {
          "internalType": "address",
          "name": "owner",
          "type": "address"
        },
        {
          "internalType": "uint256",
          "name": "nonce",
          "type": "uint256"
        },
        {
          "internalType": "uint256",
          "name": "chainID",
          "type": "uint256"
        },
        {
          "internalType": "bytes",
          "name": "functionSignature",
          "type": "bytes"
        },
        {
          "internalType": "bytes32",
          "name": "sigR",
          "type": "bytes32"
        },
        {
          "internalType": "bytes32",
          "name": "sigS",
          "type": "bytes32"
        },
        {
          "internalType": "uint8",
          "name": "sigV",
          "type": "uint8"
        }
      ],
      "name": "verify",
      "outputs": [
        {
          "internalType": "bool",
          "name": "",
          "type": "bool"
        }
      ],
      "stateMutability": "view",
      "type": "function"
    },
    {
      "inputs": [
        {
          "internalType": "uint256",
          "name": "id",
          "type": "uint256"
        },
        {
          "internalType": "uint256",
          "name": "amount",
          "type": "uint256"
        }
      ],
      "name": "withdrawFromId",
      "outputs": [],
      "stateMutability": "nonpayable",
      "type": "function"
    },
    {
      "inputs": [
        {
          "internalType": "uint256",
          "name": "id",
          "type": "uint256"
        }
      ],
      "name": "withdrawableById",
      "outputs": [
        {
          "internalType": "uint256",
          "name": "claimId",
          "type": "uint256"
        }
      ],
      "stateMutability": "view",
      "type": "function"
    },
    {
      "inputs": [],
      "name": "withdrawlToRecipient",
      "outputs": [],
      "stateMutability": "nonpayable",
      "type": "function"
    },
    {
      "inputs": [],
      "name": "yeildPerDeposit",
      "outputs": [
        {
          "internalType": "uint256",
          "name": "",
          "type": "uint256"
        }
      ],
      "stateMutability": "view",
      "type": "function"
    },
    {
      "inputs": [],
      "name": "yieldForRecipient",
      "outputs": [
        {
          "internalType": "uint256",
          "name": "",
          "type": "uint256"
        }
      ],
      "stateMutability": "view",
      "type": "function"
    },
    {
      "inputs": [
        {
          "internalType": "uint256",
          "name": "id",
          "type": "uint256"
        }
      ],
      "name": "yieldPerId",
      "outputs": [
        {
          "internalType": "uint256",
          "name": "",
          "type": "uint256"
        }
      ],
      "stateMutability": "view",
      "type": "function"
    }
  ],
  "bytecode": "0x60c060405260016003556402540be400600c553480156200001f57600080fd5b50604051620025dd380380620025dd833981016040819052620000429162000268565b848282818181600090805190602001906200005f929190620000f2565b50805162000075906001906020840190620000f2565b5050505050606090811b6001600160601b03191660805233811b60a05260408051918201815261ffff94909416808252600360208301526001600160a01b0395909516930183905250506011805463ffffffff19169092176203000017600160201b600160c01b0319166401000000009091021790555062000362565b82805462000100906200030f565b90600052602060002090601f0160209004810192826200012457600085556200016f565b82601f106200013f57805160ff19168380011785556200016f565b828001600101855582156200016f579182015b828111156200016f57825182559160200191906001019062000152565b506200017d92915062000181565b5090565b5b808211156200017d576000815560010162000182565b80516001600160a01b0381168114620001b057600080fd5b919050565b600082601f830112620001c6578081fd5b81516001600160401b0380821115620001e357620001e36200034c565b604051601f8301601f19908116603f011681019082821181831017156200020e576200020e6200034c565b816040528381526020925086838588010111156200022a578485fd5b8491505b838210156200024d57858201830151818301840152908201906200022e565b838211156200025e57848385830101525b9695505050505050565b600080600080600060a0868803121562000280578081fd5b6200028b8662000198565b94506200029b6020870162000198565b9350604086015161ffff81168114620002b2578182fd5b60608701519093506001600160401b0380821115620002cf578283fd5b620002dd89838a01620001b5565b93506080880151915080821115620002f3578283fd5b506200030288828901620001b5565b9150509295509295909350565b600181811c908216806200032457607f821691505b602082108114156200034657634e487b7160e01b600052602260045260246000fd5b50919050565b634e487b7160e01b600052604160045260246000fd5b60805160601c60a05160601c612225620003b860003960006109b2015260008181610d260152818161104d015281816111ed015281816114c3015281816116240152818161173e01526118d801526122256000f3fe6080604052600436106101cd5760003560e01c80636d43d9f1116100f7578063af6b091811610095578063ca1e3c8311610064578063ca1e3c831461057d578063e00dd16114610592578063e985e9c5146105a8578063eaaf1fca146105e357600080fd5b8063af6b0918146104dc578063b02c43d0146104f1578063c16845e71461053a578063c87b56dd1461055057600080fd5b806389f3dd37116100d157806389f3dd371461047157806395d89b4114610491578063a22cb465146104a6578063a2d6b25f146104c657600080fd5b80636d43d9f11461040e57806370a082311461042e5780637d8820971461045b57600080fd5b80631ab2f6af1161016f5780634b6d69d31161013e5780634b6d69d314610385578063564b81ef146103a55780636281133d146103b85780636352211e146103d857600080fd5b80631ab2f6af146102ec57806323b872dd1461031a5780632d0335ab1461033a57806334d894c91461037057600080fd5b8063095ea7b3116101ab578063095ea7b3146102775780630c53c51c14610299578063159b4962146102ac57806316cc3b07146102cc57600080fd5b806301ffc9a7146101d257806306fdde0314610207578063081812fc14610229575b600080fd5b3480156101de57600080fd5b506101f26101ed366004611efe565b610603565b60405190151581526020015b60405180910390f35b34801561021357600080fd5b5061021c610655565b6040516101fe9190612071565b34801561023557600080fd5b5061025f610244366004611f26565b6006602052600090815260409020546001600160a01b031681565b6040516001600160a01b0390911681526020016101fe565b34801561028357600080fd5b50610297610292366004611e36565b6106e3565b005b61021c6102a7366004611dc6565b6107ca565b3480156102b857600080fd5b506102976102c7366004611f56565b610999565b3480156102d857600080fd5b506102976102e7366004611d09565b6109a7565b3480156102f857600080fd5b5061030c610307366004611f26565b610a13565b6040519081526020016101fe565b34801561032657600080fd5b50610297610335366004611d55565b610a74565b34801561034657600080fd5b5061030c610355366004611d09565b6001600160a01b031660009081526008602052604090205490565b34801561037c57600080fd5b50610297610c3b565b34801561039157600080fd5b5061030c6103a0366004611f26565b610e07565b3480156103b157600080fd5b504661030c565b3480156103c457600080fd5b506101f26103d3366004611e5f565b610e12565b3480156103e457600080fd5b5061025f6103f3366004611f26565b6005602052600090815260409020546001600160a01b031681565b34801561041a57600080fd5b5061030c610429366004611f26565b610f5a565b34801561043a57600080fd5b5061030c610449366004611d09565b60046020526000908152604090205481565b34801561046757600080fd5b5061030c600b5481565b34801561047d57600080fd5b5061029761048c366004611f26565b610f7e565b34801561049d57600080fd5b5061021c610f9e565b3480156104b257600080fd5b506102976104c1366004611d90565b610fab565b3480156104d257600080fd5b5061030c600a5481565b3480156104e857600080fd5b50610297611017565b3480156104fd57600080fd5b5061052561050c366004611f26565b6009602052600090815260409020805460019091015482565b604080519283526020830191909152016101fe565b34801561054657600080fd5b5061030c60125481565b34801561055c57600080fd5b5061057061056b366004611f26565b6110cc565b6040516101fe9190612084565b34801561058957600080fd5b506102976111c9565b34801561059e57600080fd5b5061030c60035481565b3480156105b457600080fd5b506101f26105c3366004611d23565b600760209081526000928352604080842090915290825290205460ff1681565b3480156105ef57600080fd5b506102976105fe366004611f56565b6113e0565b60006301ffc9a760e01b6001600160e01b03198316148061063457506380ac58cd60e01b6001600160e01b03198316145b8061064f5750635b5e139f60e01b6001600160e01b03198316145b92915050565b600080546106629061217a565b80601f016020809104026020016040519081016040528092919081815260200182805461068e9061217a565b80156106db5780601f106106b0576101008083540402835291602001916106db565b820191906000526020600020905b8154815290600101906020018083116106be57829003601f168201915b505050505081565b6000818152600560205260409020546001600160a01b03163381148061072c57506001600160a01b038116600090815260076020908152604080832033845290915290205460ff165b61076e5760405162461bcd60e51b815260206004820152600e60248201526d1393d517d055551213d49256915160921b60448201526064015b60405180910390fd5b60008281526006602052604080822080546001600160a01b0319166001600160a01b0387811691821790925591518593918516917f8c5be1e5ebec7d5bd14f71427d1e84f3dd0314c0f7b2291e5b200ac8c7c3b92591a4505050565b6001600160a01b0385166000908152600860205260409020546060906107f69087904688888888610e12565b61084c5760405162461bcd60e51b815260206004820152602160248201527f5369676e657220616e64207369676e617475726520646f206e6f74206d6174636044820152600d60fb1b6064820152608401610765565b6001600160a01b0386166000908152600860205260409020546108709060016113ea565b6001600160a01b03871660009081526008602090815260408083209390935591519091829130916108a5918a918c9101611fbf565b60408051601f19818403018152908290526108bf91611fa3565b6000604051808303816000865af19150503d80600081146108fc576040519150601f19603f3d011682016040523d82523d6000602084013e610901565b606091505b5091509150816109535760405162461bcd60e51b815260206004820152601c60248201527f46756e6374696f6e2063616c6c206e6f74207375636365737366756c000000006044820152606401610765565b7f5845892132946850460bff5a0083f71031bc5bf9aadcd40f1de79423eac9b10b8833896040516109869392919061203c565b60405180910390a1979650505050505050565b6109a382826113f6565b5050565b336001600160a01b037f0000000000000000000000000000000000000000000000000000000000000000161480156109e857506010546001600160a01b0316155b6109f157600080fd5b601080546001600160a01b0319166001600160a01b0392909216919091179055565b600c54600a54600083815260096020526040812054909283929091610a389190612114565b610a4291906120f4565b600c54600085815260096020526040902060010154919250610a63916120f4565b610a6d9082612133565b9392505050565b6000818152600560205260409020546001600160a01b03848116911614610aca5760405162461bcd60e51b815260206004820152600a60248201526957524f4e475f46524f4d60b01b6044820152606401610765565b6001600160a01b038216610b145760405162461bcd60e51b81526020600482015260116024820152701253959053125117d49150d25412515395607a1b6044820152606401610765565b336001600160a01b0384161480610b4157506000818152600660205260409020546001600160a01b031633145b80610b6f57506001600160a01b038316600090815260076020908152604080832033845290915290205460ff165b610bac5760405162461bcd60e51b815260206004820152600e60248201526d1393d517d055551213d49256915160921b6044820152606401610765565b6001600160a01b0380841660008181526004602090815260408083208054600019019055938616808352848320805460010190558583526005825284832080546001600160a01b03199081168317909155600690925284832080549092169091559251849392917fddf252ad1be2c89b69c2b068fc378daa952ba7f163c4a11628f55a4df523b3ef91a4505050565b6010546001600160a01b0316610c815760405162461bcd60e51b815260206004820152600b60248201526a4e6f20537472617465677960a81b6044820152606401610765565b6000612710600b54611388610c969190612114565b610ca091906120f4565b90506000600f5482610cb29190612133565b905080600f6000828254610cc691906120dc565b9250508190555080600e6000828254610cdf91906120dc565b9250508190555080600d6000828254610cf89190612133565b909155505060105460405163095ea7b360e01b81526001600160a01b039182166004820152602481018390527f00000000000000000000000000000000000000000000000000000000000000009091169063095ea7b390604401602060405180830381600087803b158015610d6c57600080fd5b505af1158015610d80573d6000803e3d6000fd5b505050506040513d601f19601f82011682018060405250810190610da49190611ee2565b5060105460405163b6b55f2560e01b8152600481018390526001600160a01b039091169063b6b55f2590602401600060405180830381600087803b158015610deb57600080fd5b505af1158015610dff573d6000803e3d6000fd5b505050505050565b600061064f8261157b565b600080610e8f88308989604051602001610e2f9493929190611ff6565b60408051601f1981840301815282825280516020918201207f19457468657265756d205369676e6564204d6573736167653a0a33320000000084830152603c8085019190915282518085039091018152605c909301909152815191012090565b6040805160008082526020820180845284905260ff87169282019290925260608101889052608081018790529192509060019060a0016020604051602081039080840390855afa158015610ee7573d6000803e3d6000fd5b5050604051601f1901519150506001600160a01b038116610f3e5760405162461bcd60e51b8152602060048201526011602482015270496e76616c6964207369676e617475726560781b6044820152606401610765565b6001600160a01b038a8116911614915050979650505050505050565b6000610f6582610a13565b60008381526009602052604090205461064f91906120dc565b6000610f8982610f5a565b9050610f9581836116de565b6109a382611996565b600180546106629061217a565b3360008181526007602090815260408083206001600160a01b03871680855290835292819020805460ff191686151590811790915590519081529192917f17307eab39ab6107e8899845ad3d59bd9653f200f220920489ca2b5937696c31910160405180910390a35050565b60115460125460405163a9059cbb60e01b81526401000000009092046001600160a01b03908116600484015260248301919091527f0000000000000000000000000000000000000000000000000000000000000000169063a9059cbb90604401602060405180830381600087803b15801561109157600080fd5b505af11580156110a5573d6000803e3d6000fd5b505050506040513d601f19601f820116820180604052508101906110c99190611ee2565b50565b6111076040518060a001604052806060815260200160006001600160a01b031681526020016000815260200160008152602001600081525090565b6040518060a001604052806000805461111f9061217a565b80601f016020809104026020016040519081016040528092919081815260200182805461114b9061217a565b80156111985780601f1061116d57610100808354040283529160200191611198565b820191906000526020600020905b81548152906001019060200180831161117b57829003601f168201915b50505091835250503060208201526040016111b284610f5a565b815260200183815260200160008152509050919050565b600d546040516370a0823160e01b8152306004820152600091906001600160a01b037f000000000000000000000000000000000000000000000000000000000000000016906370a082319060240160206040518083038186803b15801561122f57600080fd5b505afa158015611243573d6000803e3d6000fd5b505050506040513d601f19601f820116820180604052508101906112679190611f3e565b6112719190612133565b905080600d600082825461128591906120dc565b90915550506010546000906001600160a01b03166112a4576000611337565b600e54601060009054906101000a90046001600160a01b03166001600160a01b031663460ffdae6040518163ffffffff1660e01b815260040160206040518083038186803b1580156112f557600080fd5b505afa158015611309573d6000803e3d6000fd5b505050506040513d601f19601f8201168201806040525081019061132d9190611f3e565b6113379190612133565b905080600e600082825461134b91906120dc565b909155506000905061135d82846120dc565b601154909150600090612710906113789061ffff1684612114565b61138291906120f4565b905060006113908284612133565b905081601260008282546113a491906120dc565b9091555050600b54600c546113b99083612114565b6113c391906120f4565b600a60008282546113d491906120dc565b90915550505050505050565b6109a381836116de565b6000610a6d82846120dc565b6000818152600560205260409020546001600160a01b0316611416611a63565b6001600160a01b03161461142957600080fd5b6114316111c9565b6000818152600960205260408120805484929061144f9084906120dc565b9091555050600a546114619083612114565b600082815260096020526040812060010180549091906114829084906120dc565b9250508190555081600b600082825461149b91906120dc565b9250508190555081600d60008282546114b491906120dc565b90915550506001600160a01b037f0000000000000000000000000000000000000000000000000000000000000000166323b872dd6114f0611a63565b6040516001600160e01b031960e084901b1681526001600160a01b03909116600482015230602482015260448101859052606401602060405180830381600087803b15801561153e57600080fd5b505af1158015611552573d6000803e3d6000fd5b505050506040513d601f19601f820116820180604052508101906115769190611ee2565b505050565b600080611591611589611a63565b600354611ac2565b600b54909150156115a4576115a46111c9565b6000818152600960205260409020839055600a546115c29084612114565b600082815260096020526040812060010180549091906115e39084906120dc565b9250508190555082600b60008282546115fc91906120dc565b9250508190555082600d600082825461161591906120dc565b90915550506001600160a01b037f0000000000000000000000000000000000000000000000000000000000000000166323b872dd611651611a63565b6040516001600160e01b031960e084901b1681526001600160a01b03909116600482015230602482015260448101869052606401602060405180830381600087803b15801561169f57600080fd5b505af11580156116b3573d6000803e3d6000fd5b505050506040513d601f19601f820116820180604052508101906116d79190611ee2565b5092915050565b6000818152600560205260409020546001600160a01b03166116fe611a63565b6001600160a01b03161461171157600080fd5b61171a81610f5a565b82111561172657600080fd5b6040516370a0823160e01b81523060048201526000907f00000000000000000000000000000000000000000000000000000000000000006001600160a01b0316906370a082319060240160206040518083038186803b15801561178857600080fd5b505afa15801561179c573d6000803e3d6000fd5b505050506040513d601f19601f820116820180604052508101906117c09190611f3e565b905060006117cc6111c9565b60006117d784610a13565b90508085111561185f576117eb8186612133565b60008581526009602052604081208054929450849290919061180e908490612133565b9250508190555081600b60008282546118279190612133565b9091555050600a546000858152600960205260409020546118489190612114565b600085815260096020526040902060010155611893565b600c5461186c9086612114565b6000858152600960205260408120600101805490919061188d9084906120dc565b90915550505b60008386116118a35760006118ad565b6118ad8487612133565b905080156118d6576118be81611bdd565b82600f60008282546118d09190612133565b90915550505b7f00000000000000000000000000000000000000000000000000000000000000006001600160a01b031663a9059cbb61190d611a63565b6040516001600160e01b031960e084901b1681526001600160a01b03909116600482015260248101899052604401602060405180830381600087803b15801561195557600080fd5b505af1158015611969573d6000803e3d6000fd5b505050506040513d601f19601f8201168201806040525081019061198d9190611ee2565b50505050505050565b6000818152600560205260409020546001600160a01b0316806119e85760405162461bcd60e51b815260206004820152600a6024820152691393d517d3525395115160b21b6044820152606401610765565b6001600160a01b038116600081815260046020908152604080832080546000190190558583526005825280832080546001600160a01b031990811690915560069092528083208054909216909155518492907fddf252ad1be2c89b69c2b068fc378daa952ba7f163c4a11628f55a4df523b3ef908390a45050565b600033301415611aba57600080368080601f0160208091040260200160405190810160405280939291908181526020018383808284376000920191909152505050503601516001600160a01b03169150611abf9050565b503390565b90565b60006001600160a01b038316611b0e5760405162461bcd60e51b81526020600482015260116024820152701253959053125117d49150d25412515395607a1b6044820152606401610765565b6000828152600560205260409020546001600160a01b031615611b645760405162461bcd60e51b815260206004820152600e60248201526d1053149150511657d3525395115160921b6044820152606401610765565b6001600160a01b038316600081815260046020908152604080832080546001908101909155600380549091019055858352600590915280822080546001600160a01b0319168417905551849291907fddf252ad1be2c89b69c2b068fc378daa952ba7f163c4a11628f55a4df523b3ef908290a450919050565b601054604051631c8901bb60e31b8152600481018390526001600160a01b039091169063e4480dd890602401600060405180830381600087803b158015611c2357600080fd5b505af1158015611c37573d6000803e3d6000fd5b5050505080600e6000828254611c4d9190612133565b909155505050565b80356001600160a01b0381168114611c6c57600080fd5b919050565b600082601f830112611c81578081fd5b813567ffffffffffffffff80821115611c9c57611c9c6121cb565b604051601f8301601f19908116603f01168101908282118183101715611cc457611cc46121cb565b81604052838152866020858801011115611cdc578485fd5b8360208701602083013792830160200193909352509392505050565b803560ff81168114611c6c57600080fd5b600060208284031215611d1a578081fd5b610a6d82611c55565b60008060408385031215611d35578081fd5b611d3e83611c55565b9150611d4c60208401611c55565b90509250929050565b600080600060608486031215611d69578081fd5b611d7284611c55565b9250611d8060208501611c55565b9150604084013590509250925092565b60008060408385031215611da2578182fd5b611dab83611c55565b91506020830135611dbb816121e1565b809150509250929050565b600080600080600060a08688031215611ddd578081fd5b611de686611c55565b9450602086013567ffffffffffffffff811115611e01578182fd5b611e0d88828901611c71565b9450506040860135925060608601359150611e2a60808701611cf8565b90509295509295909350565b60008060408385031215611e48578182fd5b611e5183611c55565b946020939093013593505050565b600080600080600080600060e0888a031215611e79578182fd5b611e8288611c55565b96506020880135955060408801359450606088013567ffffffffffffffff811115611eab578283fd5b611eb78a828b01611c71565b9450506080880135925060a08801359150611ed460c08901611cf8565b905092959891949750929550565b600060208284031215611ef3578081fd5b8151610a6d816121e1565b600060208284031215611f0f578081fd5b81356001600160e01b031981168114610a6d578182fd5b600060208284031215611f37578081fd5b5035919050565b600060208284031215611f4f578081fd5b5051919050565b60008060408385031215611f68578182fd5b50508035926020909101359150565b60008151808452611f8f81602086016020860161214a565b601f01601f19169290920160200192915050565b60008251611fb581846020870161214a565b9190910192915050565b60008351611fd181846020880161214a565b60609390931b6bffffffffffffffffffffffff19169190920190815260140192915050565b8481526bffffffffffffffffffffffff198460601b1660208201528260348201526000825161202c81605485016020870161214a565b9190910160540195945050505050565b6001600160a01b0384811682528316602082015260606040820181905260009061206890830184611f77565b95945050505050565b602081526000610a6d6020830184611f77565b602081526000825160a060208401526120a060c0840182611f77565b905060018060a01b0360208501511660408401526040840151606084015260608401516080840152608084015160a08401528091505092915050565b600082198211156120ef576120ef6121b5565b500190565b60008261210f57634e487b7160e01b81526012600452602481fd5b500490565b600081600019048311821515161561212e5761212e6121b5565b500290565b600082821015612145576121456121b5565b500390565b60005b8381101561216557818101518382015260200161214d565b83811115612174576000848401525b50505050565b600181811c9082168061218e57607f821691505b602082108114156121af57634e487b7160e01b600052602260045260246000fd5b50919050565b634e487b7160e01b600052601160045260246000fd5b634e487b7160e01b600052604160045260246000fd5b80151581146110c957600080fdfea26469706673582212201bf33dbfc9839641c92fc7e4d66620f4480ae727062d06f048640f46749f270e64736f6c63430008040033",
  "linkReferences": {},
  "deployedLinkReferences": {}
}