{
  "_format": "hh-sol-artifact-1",
  "contractName": "DAOMultsig",
  "sourceName": "contracts/src/controllers/DAOMultisig.sol",
  "abi": [
    {
      "inputs": [
        {
          "internalType": "address",
          "name": "_vaultToken",
          "type": "address"
        },
        {
          "internalType": "string",
          "name": "name",
          "type": "string"
        },
        {
          "internalType": "string",
          "name": "symbol",
          "type": "string"
        },
        {
          "internalType": "address[]",
          "name": "_signer",
          "type": "address[]"
        },
        {
          "internalType": "uint16",
          "name": "_signersNeeded",
          "type": "uint16"
        }
      ],
      "stateMutability": "nonpayable",
      "type": "constructor"
    },
    {
      "anonymous": false,
      "inputs": [
        {
          "indexed": true,
          "internalType": "address",
          "name": "owner",
          "type": "address"
        },
        {
          "indexed": true,
          "internalType": "address",
          "name": "spender",
          "type": "address"
        },
        {
          "indexed": true,
          "internalType": "uint256",
          "name": "id",
          "type": "uint256"
        }
      ],
      "name": "Approval",
      "type": "event"
    },
    {
      "anonymous": false,
      "inputs": [
        {
          "indexed": true,
          "internalType": "address",
          "name": "owner",
          "type": "address"
        },
        {
          "indexed": true,
          "internalType": "address",
          "name": "operator",
          "type": "address"
        },
        {
          "indexed": false,
          "internalType": "bool",
          "name": "approved",
          "type": "bool"
        }
      ],
      "name": "ApprovalForAll",
      "type": "event"
    },
    {
      "anonymous": false,
      "inputs": [
        {
          "indexed": false,
          "internalType": "address",
          "name": "userAddress",
          "type": "address"
        },
        {
          "indexed": false,
          "internalType": "address payable",
          "name": "relayerAddress",
          "type": "address"
        },
        {
          "indexed": false,
          "internalType": "bytes",
          "name": "functionSignature",
          "type": "bytes"
        }
      ],
      "name": "MetaTransactionExecuted",
      "type": "event"
    },
    {
      "anonymous": false,
      "inputs": [
        {
          "indexed": true,
          "internalType": "address",
          "name": "from",
          "type": "address"
        },
        {
          "indexed": true,
          "internalType": "address",
          "name": "to",
          "type": "address"
        },
        {
          "indexed": true,
          "internalType": "uint256",
          "name": "id",
          "type": "uint256"
        }
      ],
      "name": "Transfer",
      "type": "event"
    },
    {
      "inputs": [
        {
          "internalType": "address",
          "name": "spender",
          "type": "address"
        },
        {
          "internalType": "uint256",
          "name": "id",
          "type": "uint256"
        }
      ],
      "name": "approve",
      "outputs": [],
      "stateMutability": "nonpayable",
      "type": "function"
    },
    {
      "inputs": [
        {
          "internalType": "address",
          "name": "",
          "type": "address"
        }
      ],
      "name": "balanceOf",
      "outputs": [
        {
          "internalType": "uint256",
          "name": "",
          "type": "uint256"
        }
      ],
      "stateMutability": "view",
      "type": "function"
    },
    {
      "inputs": [
        {
          "internalType": "uint256",
          "name": "id",
          "type": "uint256"
        }
      ],
      "name": "burnNFTAndWithdrawl",
      "outputs": [],
      "stateMutability": "nonpayable",
      "type": "function"
    },
    {
      "inputs": [],
      "name": "ctx",
      "outputs": [
        {
          "internalType": "uint16",
          "name": "signersNeeded",
          "type": "uint16"
        },
        {
          "internalType": "uint16",
          "name": "vaultType",
          "type": "uint16"
        }
      ],
      "stateMutability": "view",
      "type": "function"
    },
    {
      "inputs": [],
      "name": "currentId",
      "outputs": [
        {
          "internalType": "uint256",
          "name": "",
          "type": "uint256"
        }
      ],
      "stateMutability": "view",
      "type": "function"
    },
    {
      "inputs": [
        {
          "internalType": "uint256",
          "name": "amount",
          "type": "uint256"
        },
        {
          "internalType": "uint256",
          "name": "id",
          "type": "uint256"
        }
      ],
      "name": "depositToId",
      "outputs": [],
      "stateMutability": "nonpayable",
      "type": "function"
    },
    {
      "inputs": [
        {
          "internalType": "uint256",
          "name": "",
          "type": "uint256"
        }
      ],
      "name": "deposits",
      "outputs": [
        {
          "internalType": "uint256",
          "name": "amount",
          "type": "uint256"
        },
        {
          "internalType": "uint256",
          "name": "tracker",
          "type": "uint256"
        }
      ],
      "stateMutability": "view",
      "type": "function"
    },
    {
      "inputs": [],
      "name": "distributeYeild",
      "outputs": [],
      "stateMutability": "nonpayable",
      "type": "function"
    },
    {
      "inputs": [
        {
          "internalType": "address",
          "name": "userAddress",
          "type": "address"
        },
        {
          "internalType": "bytes",
          "name": "functionSignature",
          "type": "bytes"
        },
        {
          "internalType": "bytes32",
          "name": "sigR",
          "type": "bytes32"
        },
        {
          "internalType": "bytes32",
          "name": "sigS",
          "type": "bytes32"
        },
        {
          "internalType": "uint8",
          "name": "sigV",
          "type": "uint8"
        }
      ],
      "name": "executeMetaTransaction",
      "outputs": [
        {
          "internalType": "bytes",
          "name": "",
          "type": "bytes"
        }
      ],
      "stateMutability": "payable",
      "type": "function"
    },
    {
      "inputs": [
        {
          "internalType": "uint256",
          "name": "",
          "type": "uint256"
        }
      ],
      "name": "getApproved",
      "outputs": [
        {
          "internalType": "address",
          "name": "",
          "type": "address"
        }
      ],
      "stateMutability": "view",
      "type": "function"
    },
    {
      "inputs": [],
      "name": "getChainID",
      "outputs": [
        {
          "internalType": "uint256",
          "name": "",
          "type": "uint256"
        }
      ],
      "stateMutability": "view",
      "type": "function"
    },
    {
      "inputs": [
        {
          "internalType": "address",
          "name": "user",
          "type": "address"
        }
      ],
      "name": "getNonce",
      "outputs": [
        {
          "internalType": "uint256",
          "name": "nonce",
          "type": "uint256"
        }
      ],
      "stateMutability": "view",
      "type": "function"
    },
    {
      "inputs": [],
      "name": "initStrat",
      "outputs": [],
      "stateMutability": "nonpayable",
      "type": "function"
    },
    {
      "inputs": [
        {
          "internalType": "bool",
          "name": "manage",
          "type": "bool"
        },
        {
          "internalType": "uint256",
          "name": "key",
          "type": "uint256"
        }
      ],
      "name": "internalCall",
      "outputs": [
        {
          "internalType": "bool",
          "name": "",
          "type": "bool"
        }
      ],
      "stateMutability": "nonpayable",
      "type": "function"
    },
    {
      "inputs": [
        {
          "internalType": "address",
          "name": "",
          "type": "address"
        },
        {
          "internalType": "address",
          "name": "",
          "type": "address"
        }
      ],
      "name": "isApprovedForAll",
      "outputs": [
        {
          "internalType": "bool",
          "name": "",
          "type": "bool"
        }
      ],
      "stateMutability": "view",
      "type": "function"
    },
    {
      "inputs": [
        {
          "internalType": "address",
          "name": "",
          "type": "address"
        }
      ],
      "name": "isSigner",
      "outputs": [
        {
          "internalType": "bool",
          "name": "",
          "type": "bool"
        }
      ],
      "stateMutability": "view",
      "type": "function"
    },
    {
      "inputs": [
        {
          "internalType": "uint256",
          "name": "amount",
          "type": "uint256"
        }
      ],
      "name": "mintNewNft",
      "outputs": [
        {
          "internalType": "uint256",
          "name": "",
          "type": "uint256"
        }
      ],
      "stateMutability": "nonpayable",
      "type": "function"
    },
    {
      "inputs": [],
      "name": "name",
      "outputs": [
        {
          "internalType": "string",
          "name": "",
          "type": "string"
        }
      ],
      "stateMutability": "view",
      "type": "function"
    },
    {
      "inputs": [
        {
          "internalType": "uint256",
          "name": "",
          "type": "uint256"
        }
      ],
      "name": "ownerOf",
      "outputs": [
        {
          "internalType": "address",
          "name": "",
          "type": "address"
        }
      ],
      "stateMutability": "view",
      "type": "function"
    },
    {
      "inputs": [
        {
          "internalType": "address",
          "name": "to",
          "type": "address"
        },
        {
          "internalType": "uint256",
          "name": "amount",
          "type": "uint256"
        }
      ],
      "name": "proposeManage",
      "outputs": [
        {
          "internalType": "uint256",
          "name": "",
          "type": "uint256"
        }
      ],
      "stateMutability": "nonpayable",
      "type": "function"
    },
    {
      "inputs": [
        {
          "internalType": "address",
          "name": "signer",
          "type": "address"
        },
        {
          "internalType": "uint16",
          "name": "sigsNeeded",
          "type": "uint16"
        },
        {
          "internalType": "bool",
          "name": "add",
          "type": "bool"
        }
      ],
      "name": "proposeSignerAdjustment",
      "outputs": [
        {
          "internalType": "uint256",
          "name": "",
          "type": "uint256"
        }
      ],
      "stateMutability": "nonpayable",
      "type": "function"
    },
    {
      "inputs": [
        {
          "internalType": "uint256",
          "name": "amount",
          "type": "uint256"
        }
      ],
      "name": "returnManagedFunds",
      "outputs": [],
      "stateMutability": "nonpayable",
      "type": "function"
    },
    {
      "inputs": [
        {
          "internalType": "address",
          "name": "operator",
          "type": "address"
        },
        {
          "internalType": "bool",
          "name": "approved",
          "type": "bool"
        }
      ],
      "name": "setApprovalForAll",
      "outputs": [],
      "stateMutability": "nonpayable",
      "type": "function"
    },
    {
      "inputs": [
        {
          "internalType": "address",
          "name": "addr",
          "type": "address"
        }
      ],
      "name": "setStrat",
      "outputs": [],
      "stateMutability": "nonpayable",
      "type": "function"
    },
    {
      "inputs": [
        {
          "internalType": "uint256",
          "name": "",
          "type": "uint256"
        }
      ],
      "name": "signers",
      "outputs": [
        {
          "internalType": "address",
          "name": "",
          "type": "address"
        }
      ],
      "stateMutability": "view",
      "type": "function"
    },
    {
      "inputs": [
        {
          "internalType": "bytes4",
          "name": "interfaceId",
          "type": "bytes4"
        }
      ],
      "name": "supportsInterface",
      "outputs": [
        {
          "internalType": "bool",
          "name": "",
          "type": "bool"
        }
      ],
      "stateMutability": "pure",
      "type": "function"
    },
    {
      "inputs": [],
      "name": "symbol",
      "outputs": [
        {
          "internalType": "string",
          "name": "",
          "type": "string"
        }
      ],
      "stateMutability": "view",
      "type": "function"
    },
    {
      "inputs": [
        {
          "internalType": "uint256",
          "name": "",
          "type": "uint256"
        }
      ],
      "name": "toAdjust",
      "outputs": [
        {
          "internalType": "address",
          "name": "signer",
          "type": "address"
        },
        {
          "internalType": "uint256",
          "name": "deadline",
          "type": "uint256"
        },
        {
          "internalType": "uint16",
          "name": "sigsNeeded",
          "type": "uint16"
        },
        {
          "internalType": "bool",
          "name": "add",
          "type": "bool"
        },
        {
          "internalType": "bool",
          "name": "executed",
          "type": "bool"
        }
      ],
      "stateMutability": "view",
      "type": "function"
    },
    {
      "inputs": [
        {
          "internalType": "uint256",
          "name": "",
          "type": "uint256"
        }
      ],
      "name": "toManage",
      "outputs": [
        {
          "internalType": "address",
          "name": "to",
          "type": "address"
        },
        {
          "internalType": "uint256",
          "name": "amount",
          "type": "uint256"
        },
        {
          "internalType": "uint256",
          "name": "deadline",
          "type": "uint256"
        },
        {
          "internalType": "bool",
          "name": "executed",
          "type": "bool"
        }
      ],
      "stateMutability": "view",
      "type": "function"
    },
    {
      "inputs": [
        {
          "internalType": "uint256",
          "name": "id",
          "type": "uint256"
        }
      ],
      "name": "tokenURI",
      "outputs": [
        {
          "components": [
            {
              "internalType": "string",
              "name": "name",
              "type": "string"
            },
            {
              "internalType": "address",
              "name": "vaultAddress",
              "type": "address"
            },
            {
              "internalType": "uint256",
              "name": "withdrawable",
              "type": "uint256"
            },
            {
              "internalType": "uint256",
              "name": "id",
              "type": "uint256"
            },
            {
              "internalType": "uint256",
              "name": "vaultType",
              "type": "uint256"
            }
          ],
          "internalType": "struct BaseVault.MetaData",
          "name": "",
          "type": "tuple"
        }
      ],
      "stateMutability": "view",
      "type": "function"
    },
    {
      "inputs": [],
      "name": "totalDeposits",
      "outputs": [
        {
          "internalType": "uint256",
          "name": "",
          "type": "uint256"
        }
      ],
      "stateMutability": "view",
      "type": "function"
    },
    {
      "inputs": [
        {
          "internalType": "address",
          "name": "from",
          "type": "address"
        },
        {
          "internalType": "address",
          "name": "to",
          "type": "address"
        },
        {
          "internalType": "uint256",
          "name": "id",
          "type": "uint256"
        }
      ],
      "name": "transferFrom",
      "outputs": [],
      "stateMutability": "nonpayable",
      "type": "function"
    },
    {
      "inputs": [
        {
          "internalType": "address",
          "name": "owner",
          "type": "address"
        },
        {
          "internalType": "uint256",
          "name": "nonce",
          "type": "uint256"
        },
        {
          "internalType": "uint256",
          "name": "chainID",
          "type": "uint256"
        },
        {
          "internalType": "bytes",
          "name": "functionSignature",
          "type": "bytes"
        },
        {
          "internalType": "bytes32",
          "name": "sigR",
          "type": "bytes32"
        },
        {
          "internalType": "bytes32",
          "name": "sigS",
          "type": "bytes32"
        },
        {
          "internalType": "uint8",
          "name": "sigV",
          "type": "uint8"
        }
      ],
      "name": "verify",
      "outputs": [
        {
          "internalType": "bool",
          "name": "",
          "type": "bool"
        }
      ],
      "stateMutability": "view",
      "type": "function"
    },
    {
      "inputs": [
        {
          "internalType": "uint256",
          "name": "key",
          "type": "uint256"
        },
        {
          "internalType": "bool",
          "name": "flag",
          "type": "bool"
        }
      ],
      "name": "vote",
      "outputs": [],
      "stateMutability": "nonpayable",
      "type": "function"
    },
    {
      "inputs": [
        {
          "internalType": "uint256",
          "name": "id",
          "type": "uint256"
        },
        {
          "internalType": "uint256",
          "name": "amount",
          "type": "uint256"
        }
      ],
      "name": "withdrawFromId",
      "outputs": [],
      "stateMutability": "nonpayable",
      "type": "function"
    },
    {
      "inputs": [
        {
          "internalType": "uint256",
          "name": "id",
          "type": "uint256"
        }
      ],
      "name": "withdrawableById",
      "outputs": [
        {
          "internalType": "uint256",
          "name": "",
          "type": "uint256"
        }
      ],
      "stateMutability": "view",
      "type": "function"
    },
    {
      "inputs": [],
      "name": "yeildPerDeposit",
      "outputs": [
        {
          "internalType": "uint256",
          "name": "",
          "type": "uint256"
        }
      ],
      "stateMutability": "view",
      "type": "function"
    },
    {
      "inputs": [
        {
          "internalType": "uint256",
          "name": "id",
          "type": "uint256"
        }
      ],
      "name": "yieldPerId",
      "outputs": [
        {
          "internalType": "uint256",
          "name": "",
          "type": "uint256"
        }
      ],
      "stateMutability": "view",
      "type": "function"
    }
  ],
  "bytecode": "0x60c060405260016003556402540be400600c553480156200001f57600080fd5b50604051620033db380380620033db833981016040819052620000429162000334565b848484828282818181600090805190602001906200006292919062000175565b5080516200007890600190602084019062000175565b5050505050606090811b6001600160601b03191660805233901b60a05250506040805180820190915261ffff831680825260026020909201919091526014805463ffffffff19169091176202000017905550815160005b8161ffff168161ffff1610156200015257600160126000868461ffff16815181106200010b57634e487b7160e01b600052603260045260246000fd5b6020908102919091018101516001600160a01b03168252810191909152604001600020805460ff1916911515919091179055806200014981620004d6565b915050620000cf565b5082516200016890601390602086019062000204565b505050505050506200051b565b828054620001839062000499565b90600052602060002090601f016020900481019282620001a75760008555620001f2565b82601f10620001c257805160ff1916838001178555620001f2565b82800160010185558215620001f2579182015b82811115620001f2578251825591602001919060010190620001d5565b50620002009291506200025c565b5090565b828054828255906000526020600020908101928215620001f2579160200282015b82811115620001f257825182546001600160a01b0319166001600160a01b0390911617825560209092019160019091019062000225565b5b808211156200020057600081556001016200025d565b80516001600160a01b03811681146200028b57600080fd5b919050565b600082601f830112620002a1578081fd5b81516001600160401b03811115620002bd57620002bd62000505565b6020620002d3601f8301601f1916820162000466565b8281528582848701011115620002e7578384fd5b835b8381101562000306578581018301518282018401528201620002e9565b838111156200031757848385840101525b5095945050505050565b805161ffff811681146200028b57600080fd5b600080600080600060a086880312156200034c578081fd5b620003578662000273565b602087810151919650906001600160401b038082111562000376578384fd5b620003848a838b0162000290565b965060408901519150808211156200039a578384fd5b620003a88a838b0162000290565b95506060890151915080821115620003be578384fd5b818901915089601f830112620003d2578384fd5b815181811115620003e757620003e762000505565b8060051b9150620003fa84830162000466565b8181528481019084860184860187018e101562000415578788fd5b8795505b8386101562000442576200042d8162000273565b83526001959095019491860191860162000419565b508097505050505050506200045a6080870162000321565b90509295509295909350565b604051601f8201601f191681016001600160401b038111828210171562000491576200049162000505565b604052919050565b600181811c90821680620004ae57607f821691505b60208210811415620004d057634e487b7160e01b600052602260045260246000fd5b50919050565b600061ffff80831681811415620004fb57634e487b7160e01b83526011600452602483fd5b6001019392505050565b634e487b7160e01b600052604160045260246000fd5b60805160601c60a05160601c612e5c6200057f6000396000610bb80152600081816113610152818161148601528181611abc01528181611f2701528181611ff5015281816120d8015281816121b0015281816122ca01526124640152612e5c6000f3fe6080604052600436106102255760003560e01c80636352211e11610123578063a2d6b25f116100ab578063ddc05c0a1161006f578063ddc05c0a1461071b578063e00dd16114610778578063e985e9c51461078e578063eaaf1fca146107c9578063f2a09537146107e957600080fd5b8063a2d6b25f1461065a578063b02c43d014610670578063c87b56dd146106b9578063c9d27afe146106e6578063ca1e3c831461070657600080fd5b80637d882097116100f25780637d882097146105bf5780637df73e27146105d557806389f3dd371461060557806395d89b4114610625578063a22cb4651461063a57600080fd5b80636352211e1461051c57806368a8d052146105525780636d43d9f11461057257806370a082311461059257600080fd5b80632079fb9a116101b157806334d894c91161017557806334d894c9146104945780634b6d69d3146104a95780634fad28a7146104c9578063564b81ef146104e95780636281133d146104fc57600080fd5b80632079fb9a146103be57806323b872dd146103de578063277838df146103fe578063285934881461043e5780632d0335ab1461045e57600080fd5b80630c53c51c116101f85780630c53c51c146102f1578063159b49621461030457806316cc3b07146103245780631ab2f6af146103445780631b7f511d1461037257600080fd5b806301ffc9a71461022a57806306fdde031461025f578063081812fc14610281578063095ea7b3146102cf575b600080fd5b34801561023657600080fd5b5061024a610245366004612af5565b610809565b60405190151581526020015b60405180910390f35b34801561026b57600080fd5b5061027461085b565b6040516102569190612c83565b34801561028d57600080fd5b506102b761029c366004612b1d565b6006602052600090815260409020546001600160a01b031681565b6040516001600160a01b039091168152602001610256565b3480156102db57600080fd5b506102ef6102ea366004612a10565b6108e9565b005b6102746102ff366004612952565b6109d0565b34801561031057600080fd5b506102ef61031f366004612b71565b610b9f565b34801561033057600080fd5b506102ef61033f366004612895565b610bad565b34801561035057600080fd5b5061036461035f366004612b1d565b610c19565b604051908152602001610256565b34801561037e57600080fd5b5061039261038d366004612b1d565b610c7a565b604080516001600160a01b03909516855260208501939093529183015215156060820152608001610256565b3480156103ca57600080fd5b506102b76103d9366004612b1d565b610cc1565b3480156103ea57600080fd5b506102ef6103f93660046128e1565b610ceb565b34801561040a57600080fd5b506014546104239061ffff808216916201000090041682565b6040805161ffff938416815292909116602083015201610256565b34801561044a57600080fd5b5061024a610459366004612ad8565b610eb2565b34801561046a57600080fd5b50610364610479366004612895565b6001600160a01b031660009081526008602052604090205490565b3480156104a057600080fd5b506102ef611276565b3480156104b557600080fd5b506103646104c4366004612b1d565b611442565b3480156104d557600080fd5b506102ef6104e4366004612b1d565b61144d565b3480156104f557600080fd5b5046610364565b34801561050857600080fd5b5061024a610517366004612a39565b61150a565b34801561052857600080fd5b506102b7610537366004612b1d565b6005602052600090815260409020546001600160a01b031681565b34801561055e57600080fd5b5061036461056d366004612a10565b611652565b34801561057e57600080fd5b5061036461058d366004612b1d565b6117a2565b34801561059e57600080fd5b506103646105ad366004612895565b60046020526000908152604090205481565b3480156105cb57600080fd5b50610364600b5481565b3480156105e157600080fd5b5061024a6105f0366004612895565b60126020526000908152604090205460ff1681565b34801561061157600080fd5b506102ef610620366004612b1d565b6117f7565b34801561063157600080fd5b50610274611817565b34801561064657600080fd5b506102ef61065536600461291c565b611824565b34801561066657600080fd5b50610364600a5481565b34801561067c57600080fd5b506106a461068b366004612b1d565b6009602052600090815260409020805460019091015482565b60408051928352602083019190915201610256565b3480156106c557600080fd5b506106d96106d4366004612b1d565b611890565b6040516102569190612c96565b3480156106f257600080fd5b506102ef610701366004612b4d565b61198d565b34801561071257600080fd5b506102ef611a98565b34801561072757600080fd5b5061073b610736366004612b1d565b611c64565b604080516001600160a01b039096168652602086019490945261ffff9092169284019290925290151560608301521515608082015260a001610256565b34801561078457600080fd5b5061036460035481565b34801561079a57600080fd5b5061024a6107a93660046128af565b600760209081526000928352604080842090915290825290205460ff1681565b3480156107d557600080fd5b506102ef6107e4366004612b71565b611cba565b3480156107f557600080fd5b506103646108043660046129c2565b611cc4565b60006301ffc9a760e01b6001600160e01b03198316148061083a57506380ac58cd60e01b6001600160e01b03198316145b806108555750635b5e139f60e01b6001600160e01b03198316145b92915050565b6000805461086890612d8c565b80601f016020809104026020016040519081016040528092919081815260200182805461089490612d8c565b80156108e15780601f106108b6576101008083540402835291602001916108e1565b820191906000526020600020905b8154815290600101906020018083116108c457829003601f168201915b505050505081565b6000818152600560205260409020546001600160a01b03163381148061093257506001600160a01b038116600090815260076020908152604080832033845290915290205460ff165b6109745760405162461bcd60e51b815260206004820152600e60248201526d1393d517d055551213d49256915160921b60448201526064015b60405180910390fd5b60008281526006602052604080822080546001600160a01b0319166001600160a01b0387811691821790925591518593918516917f8c5be1e5ebec7d5bd14f71427d1e84f3dd0314c0f7b2291e5b200ac8c7c3b92591a4505050565b6001600160a01b0385166000908152600860205260409020546060906109fc908790468888888861150a565b610a525760405162461bcd60e51b815260206004820152602160248201527f5369676e657220616e64207369676e617475726520646f206e6f74206d6174636044820152600d60fb1b606482015260840161096b565b6001600160a01b038616600090815260086020526040902054610a76906001611e4e565b6001600160a01b0387166000908152600860209081526040808320939093559151909182913091610aab918a918c9101612bda565b60408051601f1981840301815290829052610ac591612bbe565b6000604051808303816000865af19150503d8060008114610b02576040519150601f19603f3d011682016040523d82523d6000602084013e610b07565b606091505b509150915081610b595760405162461bcd60e51b815260206004820152601c60248201527f46756e6374696f6e2063616c6c206e6f74207375636365737366756c00000000604482015260640161096b565b7f5845892132946850460bff5a0083f71031bc5bf9aadcd40f1de79423eac9b10b883389604051610b8c93929190612c57565b60405180910390a1979650505050505050565b610ba98282611e5a565b5050565b336001600160a01b037f000000000000000000000000000000000000000000000000000000000000000016148015610bee57506010546001600160a01b0316155b610bf757600080fd5b601080546001600160a01b0319166001600160a01b0392909216919091179055565b600c54600a54600083815260096020526040812054909283929091610c3e9190612d26565b610c489190612d06565b600c54600085815260096020526040902060010154919250610c6991612d06565b610c739082612d45565b9392505050565b60158181548110610c8a57600080fd5b600091825260209091206004909102018054600182015460028301546003909301546001600160a01b039092169350919060ff1684565b60138181548110610cd157600080fd5b6000918252602090912001546001600160a01b0316905081565b6000818152600560205260409020546001600160a01b03848116911614610d415760405162461bcd60e51b815260206004820152600a60248201526957524f4e475f46524f4d60b01b604482015260640161096b565b6001600160a01b038216610d8b5760405162461bcd60e51b81526020600482015260116024820152701253959053125117d49150d25412515395607a1b604482015260640161096b565b336001600160a01b0384161480610db857506000818152600660205260409020546001600160a01b031633145b80610de657506001600160a01b038316600090815260076020908152604080832033845290915290205460ff165b610e235760405162461bcd60e51b815260206004820152600e60248201526d1393d517d055551213d49256915160921b604482015260640161096b565b6001600160a01b0380841660008181526004602090815260408083208054600019019055938616808352848320805460010190558583526005825284832080546001600160a01b03199081168317909155600690925284832080549092169091559251849392917fddf252ad1be2c89b69c2b068fc378daa952ba7f163c4a11628f55a4df523b3ef91a4505050565b600082156110245760158281548110610edb57634e487b7160e01b600052603260045260246000fd5b600091825260209091206003600490920201015460ff16158015610f17575060145460008381526016602052604090205461ffff918216911610155b8015610f5557504260158381548110610f4057634e487b7160e01b600052603260045260246000fd5b90600052602060002090600402016002015411155b610f5e57600080fd5b600160158381548110610f8157634e487b7160e01b600052603260045260246000fd5b906000526020600020906004020160030160006101000a81548160ff02191690831515021790555061101f60158381548110610fcd57634e487b7160e01b600052603260045260246000fd5b9060005260206000209060040201600101546015848154811061100057634e487b7160e01b600052603260045260246000fd5b60009182526020909120600490910201546001600160a01b0316611fe0565b610855565b6018828154811061104557634e487b7160e01b600052603260045260246000fd5b906000526020600020906003020160020160039054906101000a900460ff16158015611089575060145460008381526019602052604090205461ffff918216911610155b80156110c7575042601883815481106110b257634e487b7160e01b600052603260045260246000fd5b90600052602060002090600302016001015411155b6110d057600080fd5b6001601883815481106110f357634e487b7160e01b600052603260045260246000fd5b906000526020600020906003020160020160036101000a81548160ff0219169083151502179055506018828154811061113c57634e487b7160e01b600052603260045260246000fd5b906000526020600020906003020160020160029054906101000a900460ff16156111c5576001601260006018858154811061118757634e487b7160e01b600052603260045260246000fd5b60009182526020808320600392909202909101546001600160a01b031683528201929092526040019020805460ff1916911515919091179055611226565b600060126000601885815481106111ec57634e487b7160e01b600052603260045260246000fd5b60009182526020808320600392909202909101546001600160a01b031683528201929092526040019020805460ff19169115159190911790555b6018828154811061124757634e487b7160e01b600052603260045260246000fd5b60009182526020909120600260039092020101546014805461ffff191661ffff90921691909117905592915050565b6010546001600160a01b03166112bc5760405162461bcd60e51b815260206004820152600b60248201526a4e6f20537472617465677960a81b604482015260640161096b565b6000612710600b546113886112d19190612d26565b6112db9190612d06565b90506000600f54826112ed9190612d45565b905080600f60008282546113019190612cee565b9250508190555080600e600082825461131a9190612cee565b9250508190555080600d60008282546113339190612d45565b909155505060105460405163095ea7b360e01b81526001600160a01b039182166004820152602481018390527f00000000000000000000000000000000000000000000000000000000000000009091169063095ea7b390604401602060405180830381600087803b1580156113a757600080fd5b505af11580156113bb573d6000803e3d6000fd5b505050506040513d601f19601f820116820180604052508101906113df9190612abc565b5060105460405163b6b55f2560e01b8152600481018390526001600160a01b039091169063b6b55f2590602401600060405180830381600087803b15801561142657600080fd5b505af115801561143a573d6000803e3d6000fd5b505050505050565b600061085582612107565b80600d600082825461145f9190612d45565b90915550506040516323b872dd60e01b8152336004820152306024820152604481018290527f00000000000000000000000000000000000000000000000000000000000000006001600160a01b0316906323b872dd90606401602060405180830381600087803b1580156114d257600080fd5b505af11580156114e6573d6000803e3d6000fd5b505050506040513d601f19601f82011682018060405250810190610ba99190612abc565b600080611587883089896040516020016115279493929190612c11565b60408051601f1981840301815282825280516020918201207f19457468657265756d205369676e6564204d6573736167653a0a33320000000084830152603c8085019190915282518085039091018152605c909301909152815191012090565b6040805160008082526020820180845284905260ff87169282019290925260608101889052608081018790529192509060019060a0016020604051602081039080840390855afa1580156115df573d6000803e3d6000fd5b5050604051601f1901519150506001600160a01b0381166116365760405162461bcd60e51b8152602060048201526011602482015270496e76616c6964207369676e617475726560781b604482015260640161096b565b6001600160a01b038a8116911614915050979650505050505050565b3360009081526012602052604081205460ff1661166e57600080fd5b60006040518060800160405280856001600160a01b03168152602001848152602001426203f48061169f9190612cee565b81526000602091820181905260158054600180820183559282905284517f55f448fdea98c4d29eb340757ef0a66cd03dbb9538908a6a81d96026b71ec475600490920291820180546001600160a01b0319166001600160a01b03909216919091179055928401517f55f448fdea98c4d29eb340757ef0a66cd03dbb9538908a6a81d96026b71ec47684015560408401517f55f448fdea98c4d29eb340757ef0a66cd03dbb9538908a6a81d96026b71ec47784015560608401517f55f448fdea98c4d29eb340757ef0a66cd03dbb9538908a6a81d96026b71ec478909301805460ff191693151593909317909255905491925061179a91612d45565b949350505050565b60006117ad82610c19565b600b54600084815260096020526040902054601154600f546117cf9084612cee565b6117d99190612d45565b6117e39190612d26565b6117ed9190612d06565b6108559190612cee565b6000611802826117a2565b905061180e818361226a565b610ba982612522565b6001805461086890612d8c565b3360008181526007602090815260408083206001600160a01b03871680855290835292819020805460ff191686151590811790915590519081529192917f17307eab39ab6107e8899845ad3d59bd9653f200f220920489ca2b5937696c31910160405180910390a35050565b6118cb6040518060a001604052806060815260200160006001600160a01b031681526020016000815260200160008152602001600081525090565b6040518060a00160405280600080546118e390612d8c565b80601f016020809104026020016040519081016040528092919081815260200182805461190f90612d8c565b801561195c5780601f106119315761010080835404028352916020019161195c565b820191906000526020600020905b81548152906001019060200180831161193f57829003601f168201915b5050509183525050306020820152604001611976846117a2565b815260200183815260200160008152509050919050565b3360009081526012602052604090205460ff166119a957600080fd5b8015611a3357600082815260176020908152604080832033845290915290205460ff16156119d657600080fd5b60008281526017602090815260408083203384528252808320805460ff1916600117905584835260169091528120805461ffff1691611a1483612dc7565b91906101000a81548161ffff021916908361ffff160217905550505050565b6000828152601a6020908152604080832033845290915290205460ff1615611a5a57600080fd5b6000828152601a602090815260408083203384528252808320805460ff1916600117905584835260199091528120805461ffff1691611a1483612dc7565b600d546040516370a0823160e01b8152306004820152600091906001600160a01b037f000000000000000000000000000000000000000000000000000000000000000016906370a082319060240160206040518083038186803b158015611afe57600080fd5b505afa158015611b12573d6000803e3d6000fd5b505050506040513d601f19601f82011682018060405250810190611b369190612b35565b611b409190612d45565b905080600d6000828254611b549190612cee565b90915550506010546000906001600160a01b0316611b73576000611c06565b600e54601060009054906101000a90046001600160a01b03166001600160a01b031663460ffdae6040518163ffffffff1660e01b815260040160206040518083038186803b158015611bc457600080fd5b505afa158015611bd8573d6000803e3d6000fd5b505050506040513d601f19601f82011682018060405250810190611bfc9190612b35565b611c069190612d45565b905080600e6000828254611c1a9190612cee565b9091555060009050611c2c8284612cee565b9050600b54600c5482611c3f9190612d26565b611c499190612d06565b600a6000828254611c5a9190612cee565b9091555050505050565b60188181548110611c7457600080fd5b60009182526020909120600390910201805460018201546002909201546001600160a01b03909116925061ffff81169060ff620100008204811691630100000090041685565b610ba9818361226a565b3360009081526012602052604081205460ff168015611cf45750601354611cec906001612cee565b8361ffff1611155b611cfd57600080fd5b60006040518060a00160405280866001600160a01b03168152602001426203f480611d289190612cee565b815261ffff80871660208084019190915286151560408085019190915260006060948501819052601880546001818101835592829052875160039091027fb13d2d76d1f4b7be834882e410b3e3a8afaf69f83600ae24db354391d2378d2e810180546001600160a01b039093166001600160a01b031990931692909217909155938701517fb13d2d76d1f4b7be834882e410b3e3a8afaf69f83600ae24db354391d2378d2f850155918601517fb13d2d76d1f4b7be834882e410b3e3a8afaf69f83600ae24db354391d2378d309093018054958701516080880151151563010000000263ff00000019911515620100000262ffffff19909816959096169490941795909517929092169290921790925554919250611e4591612d45565b95945050505050565b6000610c738284612cee565b6000818152600560205260409020546001600160a01b0316611e7a6125ef565b6001600160a01b031614611e8d57600080fd5b611e95611a98565b60008181526009602052604081208054849290611eb3908490612cee565b9091555050600a54611ec59083612d26565b60008281526009602052604081206001018054909190611ee6908490612cee565b9250508190555081600b6000828254611eff9190612cee565b9250508190555081600d6000828254611f189190612cee565b90915550506001600160a01b037f0000000000000000000000000000000000000000000000000000000000000000166323b872dd611f546125ef565b6040516001600160e01b031960e084901b1681526001600160a01b039091166004820152306024820152604481018590526064015b602060405180830381600087803b158015611fa357600080fd5b505af1158015611fb7573d6000803e3d6000fd5b505050506040513d601f19601f82011682018060405250810190611fdb9190612abc565b505050565b6040516370a0823160e01b81523060048201527f00000000000000000000000000000000000000000000000000000000000000006001600160a01b0316906370a082319060240160206040518083038186803b15801561203f57600080fd5b505afa158015612053573d6000803e3d6000fd5b505050506040513d601f19601f820116820180604052508101906120779190612b35565b821061208257600080fd5b81601160008282546120949190612cee565b9250508190555081600d60008282546120ad9190612d45565b909155505060405163a9059cbb60e01b81526001600160a01b038281166004830152602482018490527f0000000000000000000000000000000000000000000000000000000000000000169063a9059cbb90604401611f89565b60008061211d6121156125ef565b60035461264e565b600b549091501561213057612130611a98565b6000818152600960205260409020839055600a5461214e9084612d26565b6000828152600960205260408120600101805490919061216f908490612cee565b9250508190555082600b60008282546121889190612cee565b9250508190555082600d60008282546121a19190612cee565b90915550506001600160a01b037f0000000000000000000000000000000000000000000000000000000000000000166323b872dd6121dd6125ef565b6040516001600160e01b031960e084901b1681526001600160a01b03909116600482015230602482015260448101869052606401602060405180830381600087803b15801561222b57600080fd5b505af115801561223f573d6000803e3d6000fd5b505050506040513d601f19601f820116820180604052508101906122639190612abc565b5092915050565b6000818152600560205260409020546001600160a01b031661228a6125ef565b6001600160a01b03161461229d57600080fd5b6122a6816117a2565b8211156122b257600080fd5b6040516370a0823160e01b81523060048201526000907f00000000000000000000000000000000000000000000000000000000000000006001600160a01b0316906370a082319060240160206040518083038186803b15801561231457600080fd5b505afa158015612328573d6000803e3d6000fd5b505050506040513d601f19601f8201168201806040525081019061234c9190612b35565b90506000612358611a98565b600061236384610c19565b9050808511156123eb576123778186612d45565b60008581526009602052604081208054929450849290919061239a908490612d45565b9250508190555081600b60008282546123b39190612d45565b9091555050600a546000858152600960205260409020546123d49190612d26565b60008581526009602052604090206001015561241f565b600c546123f89086612d26565b60008581526009602052604081206001018054909190612419908490612cee565b90915550505b600083861161242f576000612439565b6124398487612d45565b905080156124625761244a81612769565b82600f600082825461245c9190612d45565b90915550505b7f00000000000000000000000000000000000000000000000000000000000000006001600160a01b031663a9059cbb6124996125ef565b6040516001600160e01b031960e084901b1681526001600160a01b03909116600482015260248101899052604401602060405180830381600087803b1580156124e157600080fd5b505af11580156124f5573d6000803e3d6000fd5b505050506040513d601f19601f820116820180604052508101906125199190612abc565b50505050505050565b6000818152600560205260409020546001600160a01b0316806125745760405162461bcd60e51b815260206004820152600a6024820152691393d517d3525395115160b21b604482015260640161096b565b6001600160a01b038116600081815260046020908152604080832080546000190190558583526005825280832080546001600160a01b031990811690915560069092528083208054909216909155518492907fddf252ad1be2c89b69c2b068fc378daa952ba7f163c4a11628f55a4df523b3ef908390a45050565b60003330141561264657600080368080601f0160208091040260200160405190810160405280939291908181526020018383808284376000920191909152505050503601516001600160a01b0316915061264b9050565b503390565b90565b60006001600160a01b03831661269a5760405162461bcd60e51b81526020600482015260116024820152701253959053125117d49150d25412515395607a1b604482015260640161096b565b6000828152600560205260409020546001600160a01b0316156126f05760405162461bcd60e51b815260206004820152600e60248201526d1053149150511657d3525395115160921b604482015260640161096b565b6001600160a01b038316600081815260046020908152604080832080546001908101909155600380549091019055858352600590915280822080546001600160a01b0319168417905551849291907fddf252ad1be2c89b69c2b068fc378daa952ba7f163c4a11628f55a4df523b3ef908290a450919050565b601054604051631c8901bb60e31b8152600481018390526001600160a01b039091169063e4480dd890602401600060405180830381600087803b1580156127af57600080fd5b505af11580156127c3573d6000803e3d6000fd5b5050505080600e60008282546127d99190612d45565b909155505050565b80356001600160a01b03811681146127f857600080fd5b919050565b600082601f83011261280d578081fd5b813567ffffffffffffffff8082111561282857612828612dff565b604051601f8301601f19908116603f0116810190828211818310171561285057612850612dff565b81604052838152866020858801011115612868578485fd5b8360208701602083013792830160200193909352509392505050565b803560ff811681146127f857600080fd5b6000602082840312156128a6578081fd5b610c73826127e1565b600080604083850312156128c1578081fd5b6128ca836127e1565b91506128d8602084016127e1565b90509250929050565b6000806000606084860312156128f5578081fd5b6128fe846127e1565b925061290c602085016127e1565b9150604084013590509250925092565b6000806040838503121561292e578182fd5b612937836127e1565b9150602083013561294781612e15565b809150509250929050565b600080600080600060a08688031215612969578081fd5b612972866127e1565b9450602086013567ffffffffffffffff81111561298d578182fd5b612999888289016127fd565b94505060408601359250606086013591506129b660808701612884565b90509295509295909350565b6000806000606084860312156129d6578283fd5b6129df846127e1565b9250602084013561ffff811681146129f5578283fd5b91506040840135612a0581612e15565b809150509250925092565b60008060408385031215612a22578182fd5b612a2b836127e1565b946020939093013593505050565b600080600080600080600060e0888a031215612a53578182fd5b612a5c886127e1565b96506020880135955060408801359450606088013567ffffffffffffffff811115612a85578283fd5b612a918a828b016127fd565b9450506080880135925060a08801359150612aae60c08901612884565b905092959891949750929550565b600060208284031215612acd578081fd5b8151610c7381612e15565b60008060408385031215612aea578182fd5b8235612a2b81612e15565b600060208284031215612b06578081fd5b81356001600160e01b031981168114610c73578182fd5b600060208284031215612b2e578081fd5b5035919050565b600060208284031215612b46578081fd5b5051919050565b60008060408385031215612b5f578182fd5b82359150602083013561294781612e15565b60008060408385031215612b83578182fd5b50508035926020909101359150565b60008151808452612baa816020860160208601612d5c565b601f01601f19169290920160200192915050565b60008251612bd0818460208701612d5c565b9190910192915050565b60008351612bec818460208801612d5c565b60609390931b6bffffffffffffffffffffffff19169190920190815260140192915050565b8481526bffffffffffffffffffffffff198460601b16602082015282603482015260008251612c47816054850160208701612d5c565b9190910160540195945050505050565b6001600160a01b03848116825283166020820152606060408201819052600090611e4590830184612b92565b602081526000610c736020830184612b92565b602081526000825160a06020840152612cb260c0840182612b92565b905060018060a01b0360208501511660408401526040840151606084015260608401516080840152608084015160a08401528091505092915050565b60008219821115612d0157612d01612de9565b500190565b600082612d2157634e487b7160e01b81526012600452602481fd5b500490565b6000816000190483118215151615612d4057612d40612de9565b500290565b600082821015612d5757612d57612de9565b500390565b60005b83811015612d77578181015183820152602001612d5f565b83811115612d86576000848401525b50505050565b600181811c90821680612da057607f821691505b60208210811415612dc157634e487b7160e01b600052602260045260246000fd5b50919050565b600061ffff80831681811415612ddf57612ddf612de9565b6001019392505050565b634e487b7160e01b600052601160045260246000fd5b634e487b7160e01b600052604160045260246000fd5b8015158114612e2357600080fd5b5056fea26469706673582212202d154b529754fc93cf2ee3860304f5d8b0e761487b123e47f0beed335453a34564736f6c63430008040033",
  "linkReferences": {},
  "deployedLinkReferences": {}
}