{
  "abi": [
    {
      "inputs": [],
      "stateMutability": "nonpayable",
      "type": "constructor"
    },
    {
      "anonymous": false,
      "inputs": [
        {
          "indexed": false,
          "internalType": "uint256",
          "name": "_index",
          "type": "uint256"
        },
        {
          "indexed": false,
          "internalType": "address",
          "name": "_impl",
          "type": "address"
        }
      ],
      "name": "NewStrat",
      "type": "event"
    },
    {
      "anonymous": false,
      "inputs": [
        {
          "indexed": false,
          "internalType": "uint256",
          "name": "_index",
          "type": "uint256"
        },
        {
          "indexed": false,
          "internalType": "address",
          "name": "_impl",
          "type": "address"
        }
      ],
      "name": "NewVault",
      "type": "event"
    },
    {
      "inputs": [],
      "name": "admin",
      "outputs": [
        {
          "internalType": "address",
          "name": "",
          "type": "address"
        }
      ],
      "stateMutability": "view",
      "type": "function"
    },
    {
      "inputs": [
        {
          "internalType": "uint256",
          "name": "vKey",
          "type": "uint256"
        },
        {
          "internalType": "bytes32",
          "name": "id",
          "type": "bytes32"
        }
      ],
      "name": "createVault",
      "outputs": [
        {
          "internalType": "address",
          "name": "vault",
          "type": "address"
        }
      ],
      "stateMutability": "nonpayable",
      "type": "function"
    },
    {
      "inputs": [
        {
          "internalType": "uint256",
          "name": "",
          "type": "uint256"
        }
      ],
      "name": "keys",
      "outputs": [
        {
          "internalType": "bytes32",
          "name": "",
          "type": "bytes32"
        }
      ],
      "stateMutability": "view",
      "type": "function"
    },
    {
      "inputs": [
        {
          "internalType": "uint256",
          "name": "",
          "type": "uint256"
        }
      ],
      "name": "sImpl",
      "outputs": [
        {
          "internalType": "address",
          "name": "",
          "type": "address"
        }
      ],
      "stateMutability": "view",
      "type": "function"
    },
    {
      "inputs": [
        {
          "internalType": "uint256",
          "name": "_index",
          "type": "uint256"
        },
        {
          "internalType": "address",
          "name": "_impl",
          "type": "address"
        }
      ],
      "name": "setSImpl",
      "outputs": [],
      "stateMutability": "nonpayable",
      "type": "function"
    },
    {
      "inputs": [
        {
          "internalType": "uint256",
          "name": "_index",
          "type": "uint256"
        },
        {
          "internalType": "address",
          "name": "_token",
          "type": "address"
        },
        {
          "internalType": "address",
          "name": "_underlying",
          "type": "address"
        }
      ],
      "name": "setUnderlying",
      "outputs": [],
      "stateMutability": "nonpayable",
      "type": "function"
    },
    {
      "inputs": [
        {
          "internalType": "uint256",
          "name": "_index",
          "type": "uint256"
        },
        {
          "internalType": "address",
          "name": "_impl",
          "type": "address"
        }
      ],
      "name": "setVImpl",
      "outputs": [],
      "stateMutability": "nonpayable",
      "type": "function"
    },
    {
      "inputs": [
        {
          "internalType": "uint256",
          "name": "",
          "type": "uint256"
        }
      ],
      "name": "vImpl",
      "outputs": [
        {
          "internalType": "address",
          "name": "",
          "type": "address"
        }
      ],
      "stateMutability": "view",
      "type": "function"
    },
    {
      "inputs": [
        {
          "internalType": "bytes32",
          "name": "",
          "type": "bytes32"
        }
      ],
      "name": "vaults",
      "outputs": [
        {
          "internalType": "address",
          "name": "",
          "type": "address"
        }
      ],
      "stateMutability": "view",
      "type": "function"
    }
  ],
  "bytecode": {
    "object": "0x608060405234801561001057600080fd5b50600580546001600160a01b03191633179055610549806100326000396000f3fe608060405234801561001057600080fd5b50600436106100935760003560e01c8063cca23bf211610066578063cca23bf21461013d578063d95147ef14610166578063e2a356a514610179578063e5c16bc51461018c578063f851a4401461019f57600080fd5b80630cb6aaf11461009857806329d263cc146100be57806386ffe4ee146100d3578063ca22a6e114610114575b600080fd5b6100ab6100a6366004610459565b6101b2565b6040519081526020015b60405180910390f35b6100d16100cc366004610489565b6101d3565b005b6100fc6100e1366004610459565b6001602052600090815260409020546001600160a01b031681565b6040516001600160a01b0390911681526020016100b5565b6100fc610122366004610459565b6000602081905290815260409020546001600160a01b031681565b6100fc61014b366004610459565b6004602052600090815260409020546001600160a01b031681565b6100fc6101743660046104c5565b610225565b6100d16101873660046104e7565b6102c6565b6100d161019a3660046104e7565b610342565b6005546100fc906001600160a01b031681565b600381815481106101c257600080fd5b600091825260209091200154905081565b6005546001600160a01b031633146101ea57600080fd5b60009283526002602090815260408085206001600160a01b0394851686529091529092208054919092166001600160a01b0319909116179055565b6000818152600460205260408120546001600160a01b03161561024757600080fd5b600083815260208190526040902054610268906001600160a01b03166103b8565b60038054600181019091557fc2575a0e9e593c00f959f8c92f12db2869c3395a3b0502d05e2516446f71f85b0183905560009283526004602052604090922080546001600160a01b0319166001600160a01b03841617905550919050565b6005546001600160a01b031633146102dd57600080fd5b6000828152602081815260409182902080546001600160a01b0319166001600160a01b0385169081179091558251858152918201527fc117b81c381b8c8066e461527733c2f11b87ebf36631b006cb5a74e3c0388b1391015b60405180910390a15050565b6005546001600160a01b0316331461035957600080fd5b60008281526001602090815260409182902080546001600160a01b0319166001600160a01b0385169081179091558251858152918201527f7db4106e64eb535cdc28ec9c40f88069b966623d027fb00f51344f67031f9b989101610336565b6000604051733d602d80600a3d3981f3363d3d373d3d3d363d7360601b81528260601b60148201526e5af43d82803e903d91602b57fd5bf360881b60288201526037816000f09150506001600160a01b0381166104545760405162461bcd60e51b8152602060048201526016602482015275115490cc4c4d8dce8818dc99585d194819985a5b195960521b604482015260640160405180910390fd5b919050565b60006020828403121561046b57600080fd5b5035919050565b80356001600160a01b038116811461045457600080fd5b60008060006060848603121561049e57600080fd5b833592506104ae60208501610472565b91506104bc60408501610472565b90509250925092565b600080604083850312156104d857600080fd5b50508035926020909101359150565b600080604083850312156104fa57600080fd5b8235915061050a60208401610472565b9050925092905056fea2646970667358221220989afac13a78e7e070f2e9884f7dd5e4861e6272df19f22e6194a164905ce8d764736f6c634300080a0033",
    "linkReferences": {}
  }
}