{
  "_format": "hh-sol-artifact-1",
  "contractName": "DAOFactory",
  "sourceName": "contracts/src/VaultFactory.sol",
  "abi": [
    {
      "inputs": [
        {
          "internalType": "uint8",
          "name": "daoType",
          "type": "uint8"
        }
      ],
      "name": "createDaoVault",
      "outputs": [
        {
          "internalType": "address",
          "name": "controller",
          "type": "address"
        },
        {
          "internalType": "address",
          "name": "NFT",
          "type": "address"
        },
        {
          "internalType": "address",
          "name": "vault",
          "type": "address"
        }
      ],
      "stateMutability": "nonpayable",
      "type": "function"
    },
    {
      "inputs": [
        {
          "internalType": "uint8",
          "name": "daoType",
          "type": "uint8"
        }
      ],
      "name": "createDegenVault",
      "outputs": [
        {
          "internalType": "address",
          "name": "controller",
          "type": "address"
        },
        {
          "internalType": "address",
          "name": "NFT",
          "type": "address"
        },
        {
          "internalType": "address",
          "name": "vault",
          "type": "address"
        }
      ],
      "stateMutability": "nonpayable",
      "type": "function"
    }
  ],
  "bytecode": "0x608060405234801561001057600080fd5b5060d38061001f6000396000f3fe6080604052348015600f57600080fd5b506004361060325760003560e01c80634b21b27e146037578063e7f4eae9146037575b600080fd5b604c60423660046077565b5060009081908190565b604080516001600160a01b039485168152928416602084015292168183015290519081900360600190f35b6000602082840312156087578081fd5b813560ff811681146096578182fd5b939250505056fea26469706673582212201c80033c033e407740b796649d7d4d4f7e25c0d5eaf24e3108adde68f2fa184664736f6c63430008040033",
  "linkReferences": {},
  "deployedLinkReferences": {}
}