{
  "_format": "hh-sol-artifact-1",
  "contractName": "VaultFactory",
  "sourceName": "contracts/src/VaultFactory.sol",
  "abi": [
    {
      "inputs": [
        {
          "internalType": "bytes",
          "name": "vaultCreationCode",
          "type": "bytes"
        },
        {
          "internalType": "bytes",
          "name": "strategyCreationCode",
          "type": "bytes"
        },
        {
          "internalType": "address",
          "name": "vaultToken",
          "type": "address"
        },
        {
          "internalType": "address",
          "name": "yieldVault",
          "type": "address"
        },
        {
          "internalType": "bytes",
          "name": "_constructor",
          "type": "bytes"
        }
      ],
      "name": "createVault",
      "outputs": [
        {
          "internalType": "address",
          "name": "vault",
          "type": "address"
        }
      ],
      "stateMutability": "nonpayable",
      "type": "function"
    },
    {
      "inputs": [
        {
          "internalType": "uint256",
          "name": "",
          "type": "uint256"
        }
      ],
      "name": "vaults",
      "outputs": [
        {
          "internalType": "address",
          "name": "",
          "type": "address"
        }
      ],
      "stateMutability": "view",
      "type": "function"
    }
  ],
  "bytecode": "0x608060405234801561001057600080fd5b50610412806100206000396000f3fe608060405234801561001057600080fd5b50600436106100365760003560e01c80637fa59fc01461003b5780638c64ea4a1461006a575b600080fd5b61004e6100493660046102a9565b61007d565b6040516001600160a01b03909116815260200160405180910390f35b61004e610078366004610363565b61021c565b60008089898585604051602001610097949392919061037b565b60408051808303601f190181528282526001600160a01b0388811660208501528916838301528151808403830181526060840190925292506000916100e3918b918b9190608001610399565b604051602081830303815290604052905060008151602083016000f090508251602084016000f06040516316cc3b0760e01b81526001600160a01b038381166004830152919550908516906316cc3b0790602401600060405180830381600087803b15801561015157600080fd5b505af1158015610165573d6000803e3d6000fd5b5050604051632ebe3fbb60e01b81526001600160a01b03878116600483015284169250632ebe3fbb9150602401600060405180830381600087803b1580156101ac57600080fd5b505af11580156101c0573d6000803e3d6000fd5b5050600080546001810182559080527f290decd9548b62a8d60345a988386fc84ba6bc95484008f6362f93160ef3e5630180546001600160a01b0319166001600160a01b03881617905550939c9b505050505050505050505050565b6000818154811061022c57600080fd5b6000918252602090912001546001600160a01b0316905081565b80356001600160a01b038116811461025d57600080fd5b919050565b60008083601f840112610273578182fd5b50813567ffffffffffffffff81111561028a578182fd5b6020830191508360208285010111156102a257600080fd5b9250929050565b60008060008060008060008060a0898b0312156102c4578384fd5b883567ffffffffffffffff808211156102db578586fd5b6102e78c838d01610262565b909a50985060208b01359150808211156102ff578586fd5b61030b8c838d01610262565b909850965086915061031f60408c01610246565b955061032d60608c01610246565b945060808b0135915080821115610342578384fd5b5061034f8b828c01610262565b999c989b5096995094979396929594505050565b600060208284031215610374578081fd5b5035919050565b83858237600084820181815283858237909201918252509392505050565b8284823760008382018181528351825b818110156103c357602081870181015184830152016103a9565b818111156103d15783828401525b50019594505050505056fea2646970667358221220e181b8852fd077e117255fdaf2c991bd4c00de7848f2666a315d6a1facd2212e64736f6c63430008040033",
  "linkReferences": {},
  "deployedLinkReferences": {}
}