{
  "abi": [
    {
      "anonymous": false,
      "inputs": [
        {
          "indexed": true,
          "internalType": "address",
          "name": "owner",
          "type": "address"
        },
        {
          "indexed": true,
          "internalType": "address",
          "name": "spender",
          "type": "address"
        },
        {
          "indexed": true,
          "internalType": "uint256",
          "name": "id",
          "type": "uint256"
        }
      ],
      "name": "Approval",
      "type": "event"
    },
    {
      "anonymous": false,
      "inputs": [
        {
          "indexed": true,
          "internalType": "address",
          "name": "owner",
          "type": "address"
        },
        {
          "indexed": true,
          "internalType": "address",
          "name": "operator",
          "type": "address"
        },
        {
          "indexed": false,
          "internalType": "bool",
          "name": "approved",
          "type": "bool"
        }
      ],
      "name": "ApprovalForAll",
      "type": "event"
    },
    {
      "anonymous": false,
      "inputs": [
        {
          "indexed": false,
          "internalType": "address",
          "name": "userAddress",
          "type": "address"
        },
        {
          "indexed": false,
          "internalType": "address payable",
          "name": "relayerAddress",
          "type": "address"
        },
        {
          "indexed": false,
          "internalType": "bytes",
          "name": "functionSignature",
          "type": "bytes"
        }
      ],
      "name": "MetaTransactionExecuted",
      "type": "event"
    },
    {
      "anonymous": false,
      "inputs": [
        {
          "indexed": true,
          "internalType": "address",
          "name": "from",
          "type": "address"
        },
        {
          "indexed": true,
          "internalType": "address",
          "name": "to",
          "type": "address"
        },
        {
          "indexed": true,
          "internalType": "uint256",
          "name": "id",
          "type": "uint256"
        }
      ],
      "name": "Transfer",
      "type": "event"
    },
    {
      "inputs": [
        {
          "internalType": "address",
          "name": "spender",
          "type": "address"
        },
        {
          "internalType": "uint256",
          "name": "id",
          "type": "uint256"
        }
      ],
      "name": "approve",
      "outputs": [],
      "stateMutability": "nonpayable",
      "type": "function"
    },
    {
      "inputs": [
        {
          "internalType": "address",
          "name": "",
          "type": "address"
        }
      ],
      "name": "balanceOf",
      "outputs": [
        {
          "internalType": "uint256",
          "name": "",
          "type": "uint256"
        }
      ],
      "stateMutability": "view",
      "type": "function"
    },
    {
      "inputs": [
        {
          "internalType": "string",
          "name": "_name",
          "type": "string"
        },
        {
          "internalType": "string",
          "name": "_symbol",
          "type": "string"
        },
        {
          "internalType": "address",
          "name": "_token",
          "type": "address"
        },
        {
          "internalType": "address",
          "name": "strategy",
          "type": "address"
        }
      ],
      "name": "baseInit",
      "outputs": [],
      "stateMutability": "nonpayable",
      "type": "function"
    },
    {
      "inputs": [
        {
          "internalType": "uint256",
          "name": "id",
          "type": "uint256"
        }
      ],
      "name": "burnNFTAndWithdraw",
      "outputs": [],
      "stateMutability": "nonpayable",
      "type": "function"
    },
    {
      "inputs": [],
      "name": "currentId",
      "outputs": [
        {
          "internalType": "uint256",
          "name": "",
          "type": "uint256"
        }
      ],
      "stateMutability": "view",
      "type": "function"
    },
    {
      "inputs": [
        {
          "internalType": "uint256",
          "name": "amount",
          "type": "uint256"
        },
        {
          "internalType": "uint256",
          "name": "id",
          "type": "uint256"
        }
      ],
      "name": "depositToId",
      "outputs": [],
      "stateMutability": "nonpayable",
      "type": "function"
    },
    {
      "inputs": [
        {
          "internalType": "uint256",
          "name": "",
          "type": "uint256"
        }
      ],
      "name": "deposits",
      "outputs": [
        {
          "internalType": "uint256",
          "name": "amount",
          "type": "uint256"
        },
        {
          "internalType": "uint256",
          "name": "tracker",
          "type": "uint256"
        }
      ],
      "stateMutability": "view",
      "type": "function"
    },
    {
      "inputs": [],
      "name": "distributeYield",
      "outputs": [],
      "stateMutability": "nonpayable",
      "type": "function"
    },
    {
      "inputs": [
        {
          "internalType": "address",
          "name": "userAddress",
          "type": "address"
        },
        {
          "internalType": "bytes",
          "name": "functionSignature",
          "type": "bytes"
        },
        {
          "internalType": "bytes32",
          "name": "sigR",
          "type": "bytes32"
        },
        {
          "internalType": "bytes32",
          "name": "sigS",
          "type": "bytes32"
        },
        {
          "internalType": "uint8",
          "name": "sigV",
          "type": "uint8"
        }
      ],
      "name": "executeMetaTransaction",
      "outputs": [
        {
          "internalType": "bytes",
          "name": "",
          "type": "bytes"
        }
      ],
      "stateMutability": "payable",
      "type": "function"
    },
    {
      "inputs": [
        {
          "internalType": "uint256",
          "name": "",
          "type": "uint256"
        }
      ],
      "name": "getApproved",
      "outputs": [
        {
          "internalType": "address",
          "name": "",
          "type": "address"
        }
      ],
      "stateMutability": "view",
      "type": "function"
    },
    {
      "inputs": [],
      "name": "getChainID",
      "outputs": [
        {
          "internalType": "uint256",
          "name": "",
          "type": "uint256"
        }
      ],
      "stateMutability": "view",
      "type": "function"
    },
    {
      "inputs": [
        {
          "internalType": "address",
          "name": "user",
          "type": "address"
        }
      ],
      "name": "getNonce",
      "outputs": [
        {
          "internalType": "uint256",
          "name": "nonce",
          "type": "uint256"
        }
      ],
      "stateMutability": "view",
      "type": "function"
    },
    {
      "inputs": [
        {
          "internalType": "string",
          "name": "_name",
          "type": "string"
        },
        {
          "internalType": "string",
          "name": "_symbol",
          "type": "string"
        },
        {
          "internalType": "address",
          "name": "_token",
          "type": "address"
        },
        {
          "internalType": "address",
          "name": "strategy",
          "type": "address"
        },
        {
          "internalType": "uint16",
          "name": "_tokenPercent",
          "type": "uint16"
        },
        {
          "internalType": "address",
          "name": "_recipient",
          "type": "address"
        }
      ],
      "name": "init",
      "outputs": [],
      "stateMutability": "nonpayable",
      "type": "function"
    },
    {
      "inputs": [],
      "name": "initStrat",
      "outputs": [],
      "stateMutability": "nonpayable",
      "type": "function"
    },
    {
      "inputs": [
        {
          "internalType": "address",
          "name": "",
          "type": "address"
        },
        {
          "internalType": "address",
          "name": "",
          "type": "address"
        }
      ],
      "name": "isApprovedForAll",
      "outputs": [
        {
          "internalType": "bool",
          "name": "",
          "type": "bool"
        }
      ],
      "stateMutability": "view",
      "type": "function"
    },
    {
      "inputs": [
        {
          "internalType": "uint256",
          "name": "amount",
          "type": "uint256"
        }
      ],
      "name": "mintNewNft",
      "outputs": [
        {
          "internalType": "uint256",
          "name": "",
          "type": "uint256"
        }
      ],
      "stateMutability": "nonpayable",
      "type": "function"
    },
    {
      "inputs": [],
      "name": "name",
      "outputs": [
        {
          "internalType": "string",
          "name": "",
          "type": "string"
        }
      ],
      "stateMutability": "view",
      "type": "function"
    },
    {
      "inputs": [
        {
          "internalType": "uint256",
          "name": "",
          "type": "uint256"
        }
      ],
      "name": "ownerOf",
      "outputs": [
        {
          "internalType": "address",
          "name": "",
          "type": "address"
        }
      ],
      "stateMutability": "view",
      "type": "function"
    },
    {
      "inputs": [
        {
          "internalType": "address",
          "name": "operator",
          "type": "address"
        },
        {
          "internalType": "bool",
          "name": "approved",
          "type": "bool"
        }
      ],
      "name": "setApprovalForAll",
      "outputs": [],
      "stateMutability": "nonpayable",
      "type": "function"
    },
    {
      "inputs": [],
      "name": "strat",
      "outputs": [
        {
          "internalType": "contract IStrategy",
          "name": "",
          "type": "address"
        }
      ],
      "stateMutability": "view",
      "type": "function"
    },
    {
      "inputs": [
        {
          "internalType": "bytes4",
          "name": "interfaceId",
          "type": "bytes4"
        }
      ],
      "name": "supportsInterface",
      "outputs": [
        {
          "internalType": "bool",
          "name": "",
          "type": "bool"
        }
      ],
      "stateMutability": "pure",
      "type": "function"
    },
    {
      "inputs": [],
      "name": "symbol",
      "outputs": [
        {
          "internalType": "string",
          "name": "",
          "type": "string"
        }
      ],
      "stateMutability": "view",
      "type": "function"
    },
    {
      "inputs": [
        {
          "internalType": "uint256",
          "name": "id",
          "type": "uint256"
        }
      ],
      "name": "tokenURI",
      "outputs": [
        {
          "components": [
            {
              "internalType": "string",
              "name": "name",
              "type": "string"
            },
            {
              "internalType": "address",
              "name": "vaultAddress",
              "type": "address"
            },
            {
              "internalType": "uint256",
              "name": "withdrawable",
              "type": "uint256"
            },
            {
              "internalType": "uint256",
              "name": "id",
              "type": "uint256"
            },
            {
              "internalType": "uint256",
              "name": "vaultType",
              "type": "uint256"
            }
          ],
          "internalType": "struct BaseVault.MetaData",
          "name": "",
          "type": "tuple"
        }
      ],
      "stateMutability": "view",
      "type": "function"
    },
    {
      "inputs": [],
      "name": "totalDeposits",
      "outputs": [
        {
          "internalType": "uint256",
          "name": "",
          "type": "uint256"
        }
      ],
      "stateMutability": "view",
      "type": "function"
    },
    {
      "inputs": [
        {
          "internalType": "address",
          "name": "from",
          "type": "address"
        },
        {
          "internalType": "address",
          "name": "to",
          "type": "address"
        },
        {
          "internalType": "uint256",
          "name": "id",
          "type": "uint256"
        }
      ],
      "name": "transferFrom",
      "outputs": [],
      "stateMutability": "nonpayable",
      "type": "function"
    },
    {
      "inputs": [],
      "name": "vaultToken",
      "outputs": [
        {
          "internalType": "contract ERC20",
          "name": "",
          "type": "address"
        }
      ],
      "stateMutability": "view",
      "type": "function"
    },
    {
      "inputs": [
        {
          "internalType": "address",
          "name": "owner",
          "type": "address"
        },
        {
          "internalType": "uint256",
          "name": "nonce",
          "type": "uint256"
        },
        {
          "internalType": "uint256",
          "name": "chainID",
          "type": "uint256"
        },
        {
          "internalType": "bytes",
          "name": "functionSignature",
          "type": "bytes"
        },
        {
          "internalType": "bytes32",
          "name": "sigR",
          "type": "bytes32"
        },
        {
          "internalType": "bytes32",
          "name": "sigS",
          "type": "bytes32"
        },
        {
          "internalType": "uint8",
          "name": "sigV",
          "type": "uint8"
        }
      ],
      "name": "verify",
      "outputs": [
        {
          "internalType": "bool",
          "name": "",
          "type": "bool"
        }
      ],
      "stateMutability": "view",
      "type": "function"
    },
    {
      "inputs": [
        {
          "internalType": "uint256",
          "name": "id",
          "type": "uint256"
        },
        {
          "internalType": "uint256",
          "name": "amount",
          "type": "uint256"
        }
      ],
      "name": "withdrawFromId",
      "outputs": [],
      "stateMutability": "nonpayable",
      "type": "function"
    },
    {
      "inputs": [],
      "name": "withdrawToRecipient",
      "outputs": [],
      "stateMutability": "nonpayable",
      "type": "function"
    },
    {
      "inputs": [
        {
          "internalType": "uint256",
          "name": "id",
          "type": "uint256"
        }
      ],
      "name": "withdrawableById",
      "outputs": [
        {
          "internalType": "uint256",
          "name": "claimId",
          "type": "uint256"
        }
      ],
      "stateMutability": "view",
      "type": "function"
    },
    {
      "inputs": [],
      "name": "yieldForRecipient",
      "outputs": [
        {
          "internalType": "uint256",
          "name": "",
          "type": "uint256"
        }
      ],
      "stateMutability": "view",
      "type": "function"
    },
    {
      "inputs": [],
      "name": "yieldPerDeposit",
      "outputs": [
        {
          "internalType": "uint256",
          "name": "",
          "type": "uint256"
        }
      ],
      "stateMutability": "view",
      "type": "function"
    },
    {
      "inputs": [
        {
          "internalType": "uint256",
          "name": "id",
          "type": "uint256"
        }
      ],
      "name": "yieldPerId",
      "outputs": [
        {
          "internalType": "uint256",
          "name": "",
          "type": "uint256"
        }
      ],
      "stateMutability": "view",
      "type": "function"
    }
  ],
  "bytecode": {
    "object": "0x6080604052600160035534801561001557600080fd5b506123db806100256000396000f3fe6080604052600436106101ee5760003560e01c80636352211e1161010d578063a22cb465116100a0578063e00dd1611161006f578063e00dd161146105e8578063e985e9c5146105fe578063eaaf1fca14610639578063f60fabe514610659578063f74d4ef81461066f57600080fd5b8063a22cb4651461053c578063b02c43d01461055c578063c16845e7146105a5578063c87b56dd146105bb57600080fd5b806370a08231116100dc57806370a08231146104cf5780637d882097146104fc5780638a570a121461051257806395d89b411461052757600080fd5b80636352211e146104395780636c9980e11461046f5780636d43d9f11461048f578063703bafd5146104af57600080fd5b806323b872dd116101855780634b6d69d3116101545780634b6d69d3146103c657806353914b57146103e6578063564b81ef146104065780636281133d1461041957600080fd5b806323b872dd1461033b5780632d0335ab1461035b57806334d894c91461039157806340229cbb146103a657600080fd5b8063095ea7b3116101c1578063095ea7b3146102b85780630c53c51c146102da578063159b4962146102ed5780631ab2f6af1461030d57600080fd5b806301ffc9a7146101f3578063059b2a101461022857806306fdde0314610260578063081812fc14610282575b600080fd5b3480156101ff57600080fd5b5061021361020e366004611cc1565b610684565b60405190151581526020015b60405180910390f35b34801561023457600080fd5b50601154610248906001600160a01b031681565b6040516001600160a01b03909116815260200161021f565b34801561026c57600080fd5b506102756106d6565b60405161021f9190611d47565b34801561028e57600080fd5b5061024861029d366004611d5a565b6006602052600090815260409020546001600160a01b031681565b3480156102c457600080fd5b506102d86102d3366004611d8f565b610764565b005b6102756102e8366004611e6d565b61084b565b3480156102f957600080fd5b506102d8610308366004611edf565b6109f6565b34801561031957600080fd5b5061032d610328366004611d5a565b610a04565b60405190815260200161021f565b34801561034757600080fd5b506102d8610356366004611f01565b610a6a565b34801561036757600080fd5b5061032d610376366004611f3d565b6001600160a01b031660009081526008602052604090205490565b34801561039d57600080fd5b506102d8610c31565b3480156103b257600080fd5b506102d86103c1366004611d5a565b610dcf565b3480156103d257600080fd5b5061032d6103e1366004611d5a565b610def565b3480156103f257600080fd5b506102d8610401366004611f58565b610dfa565b34801561041257600080fd5b504661032d565b34801561042557600080fd5b50610213610434366004612006565b610e75565b34801561044557600080fd5b50610248610454366004611d5a565b6005602052600090815260409020546001600160a01b031681565b34801561047b57600080fd5b506102d861048a36600461208b565b610fbd565b34801561049b57600080fd5b5061032d6104aa366004611d5a565b61104a565b3480156104bb57600080fd5b50600f54610248906001600160a01b031681565b3480156104db57600080fd5b5061032d6104ea366004611f3d565b60046020526000908152604090205481565b34801561050857600080fd5b5061032d600b5481565b34801561051e57600080fd5b506102d861106e565b34801561053357600080fd5b50610275611246565b34801561054857600080fd5b506102d861055736600461211e565b611253565b34801561056857600080fd5b50610590610577366004611d5a565b6009602052600090815260409020805460019091015482565b6040805192835260208301919091520161021f565b3480156105b157600080fd5b5061032d60135481565b3480156105c757600080fd5b506105db6105d6366004611d5a565b6112bf565b60405161021f9190612155565b3480156105f457600080fd5b5061032d60035481565b34801561060a57600080fd5b506102136106193660046121ad565b600760209081526000928352604080842090915290825290205460ff1681565b34801561064557600080fd5b506102d8610654366004611edf565b6113bc565b34801561066557600080fd5b5061032d600a5481565b34801561067b57600080fd5b506102d86113c6565b60006301ffc9a760e01b6001600160e01b0319831614806106b557506380ac58cd60e01b6001600160e01b03198316145b806106d05750635b5e139f60e01b6001600160e01b03198316145b92915050565b600080546106e3906121e0565b80601f016020809104026020016040519081016040528092919081815260200182805461070f906121e0565b801561075c5780601f106107315761010080835404028352916020019161075c565b820191906000526020600020905b81548152906001019060200180831161073f57829003601f168201915b505050505081565b6000818152600560205260409020546001600160a01b0316338114806107ad57506001600160a01b038116600090815260076020908152604080832033845290915290205460ff165b6107ef5760405162461bcd60e51b815260206004820152600e60248201526d1393d517d055551213d49256915160921b60448201526064015b60405180910390fd5b60008281526006602052604080822080546001600160a01b0319166001600160a01b0387811691821790925591518593918516917f8c5be1e5ebec7d5bd14f71427d1e84f3dd0314c0f7b2291e5b200ac8c7c3b92591a4505050565b6001600160a01b0385166000908152600860205260409020546060906108779087904688888888610e75565b6108cd5760405162461bcd60e51b815260206004820152602160248201527f5369676e657220616e64207369676e617475726520646f206e6f74206d6174636044820152600d60fb1b60648201526084016107e6565b6001600160a01b0386166000908152600860209081526040808320805460010190555182913091610902918a918c910161221b565b60408051601f198184030181529082905261091c91612252565b6000604051808303816000865af19150503d8060008114610959576040519150601f19603f3d011682016040523d82523d6000602084013e61095e565b606091505b5091509150816109b05760405162461bcd60e51b815260206004820152601c60248201527f46756e6374696f6e2063616c6c206e6f74207375636365737366756c0000000060448201526064016107e6565b7f5845892132946850460bff5a0083f71031bc5bf9aadcd40f1de79423eac9b10b8833896040516109e39392919061226e565b60405180910390a1979650505050505050565b610a00828261144e565b5050565b600a54600082815260096020526040812054909182916402540be40091610a2a916122b9565b610a3491906122d8565b600084815260096020526040902060010154909150610a59906402540be400906122d8565b610a6390826122fa565b9392505050565b6000818152600560205260409020546001600160a01b03848116911614610ac05760405162461bcd60e51b815260206004820152600a60248201526957524f4e475f46524f4d60b01b60448201526064016107e6565b6001600160a01b038216610b0a5760405162461bcd60e51b81526020600482015260116024820152701253959053125117d49150d25412515395607a1b60448201526064016107e6565b336001600160a01b0384161480610b3757506000818152600660205260409020546001600160a01b031633145b80610b6557506001600160a01b038316600090815260076020908152604080832033845290915290205460ff165b610ba25760405162461bcd60e51b815260206004820152600e60248201526d1393d517d055551213d49256915160921b60448201526064016107e6565b6001600160a01b0380841660008181526004602090815260408083208054600019019055938616808352848320805460010190558583526005825284832080546001600160a01b03199081168317909155600690925284832080549092169091559251849392917fddf252ad1be2c89b69c2b068fc378daa952ba7f163c4a11628f55a4df523b3ef91a4505050565b6011546001600160a01b0316610c775760405162461bcd60e51b815260206004820152600b60248201526a4e6f20537472617465677960a81b60448201526064016107e6565b6000612710600b54611388610c8c91906122b9565b610c9691906122d8565b90506000600e5482610ca891906122fa565b905080600e6000828254610cbc9190612311565b9250508190555080600d6000828254610cd59190612311565b9250508190555080600c6000828254610cee91906122fa565b9091555050600f5460115460405163095ea7b360e01b81526001600160a01b0391821660048201526024810184905291169063095ea7b3906044016020604051808303816000875af1158015610d48573d6000803e3d6000fd5b505050506040513d601f19601f82011682018060405250810190610d6c9190612329565b5060115460405163b6b55f2560e01b8152600481018390526001600160a01b039091169063b6b55f2590602401600060405180830381600087803b158015610db357600080fd5b505af1158015610dc7573d6000803e3d6000fd5b505050505050565b6000610dda8261104a565b9050610de681836115ae565b610a008261180c565b60006106d0826118d9565b60105415610e0757600080fd5b610e1386868686610fbd565b6040805160608101825261ffff93909316808452600360208501526001600160a01b039290921692018290526012805463ffffffff19169091176203000017640100000000600160c01b03191664010000000090920291909117905550505050565b600080610ef288308989604051602001610e929493929190612346565b60408051601f1981840301815282825280516020918201207f19457468657265756d205369676e6564204d6573736167653a0a33320000000084830152603c8085019190915282518085039091018152605c909301909152815191012090565b6040805160008082526020820180845284905260ff87169282019290925260608101889052608081018790529192509060019060a0016020604051602081039080840390855afa158015610f4a573d6000803e3d6000fd5b5050604051601f1901519150506001600160a01b038116610fa15760405162461bcd60e51b8152602060048201526011602482015270496e76616c6964207369676e617475726560781b60448201526064016107e6565b6001600160a01b038a8116911614915050979650505050505050565b601054156110035760405162461bcd60e51b8152602060048201526013602482015272105b1c9958591e48125b9a5d1a585b1a5e9959606a1b60448201526064016107e6565b61100d8484611a0f565b601180546001600160a01b039283166001600160a01b031991821617909155600f8054939092169216919091179055505060016003819055601055565b600061105582610a04565b6000838152600960205260409020546106d09190612311565b600c54600f546040516370a0823160e01b8152306004820152600092916001600160a01b0316906370a0823190602401602060405180830381865afa1580156110bb573d6000803e3d6000fd5b505050506040513d601f19601f820116820180604052508101906110df919061238c565b6110e991906122fa565b905080600c60008282546110fd9190612311565b90915550506011546000906001600160a01b031661111c5760006111a0565b600d54601160009054906101000a90046001600160a01b03166001600160a01b031663192366376040518163ffffffff1660e01b8152600401602060405180830381865afa158015611172573d6000803e3d6000fd5b505050506040513d601f19601f82011682018060405250810190611196919061238c565b6111a091906122fa565b905080600d60008282546111b49190612311565b90915550600090506111c68284612311565b601254909150600090612710906111e19061ffff16846122b9565b6111eb91906122d8565b905080601360008282546111ff9190612311565b9091555050600b5461121182846122fa565b611220906402540be4006122b9565b61122a91906122d8565b600a600082825461123b9190612311565b909155505050505050565b600180546106e3906121e0565b3360008181526007602090815260408083206001600160a01b03871680855290835292819020805460ff191686151590811790915590519081529192917f17307eab39ab6107e8899845ad3d59bd9653f200f220920489ca2b5937696c31910160405180910390a35050565b6112fa6040518060a001604052806060815260200160006001600160a01b031681526020016000815260200160008152602001600081525090565b6040518060a0016040528060008054611312906121e0565b80601f016020809104026020016040519081016040528092919081815260200182805461133e906121e0565b801561138b5780601f106113605761010080835404028352916020019161138b565b820191906000526020600020905b81548152906001019060200180831161136e57829003601f168201915b50505091835250503060208201526040016113a58461104a565b815260200183815260200160008152509050919050565b610a0081836115ae565b600f5460125460135460405163a9059cbb60e01b81526001600160a01b0364010000000090930483166004820152602481019190915291169063a9059cbb906044016020604051808303816000875af1158015611427573d6000803e3d6000fd5b505050506040513d601f19601f8201168201806040525081019061144b9190612329565b50565b6000818152600560205260409020546001600160a01b031661146e611a36565b6001600160a01b03161461148157600080fd5b600b54156114915761149161106e565b600081815260096020526040812080548492906114af908490612311565b9091555050600a546114c190836122b9565b600082815260096020526040812060010180549091906114e2908490612311565b9250508190555081600b60008282546114fb9190612311565b9250508190555081600c60008282546115149190612311565b9091555050600f546001600160a01b03166323b872dd611532611a36565b6040516001600160e01b031960e084901b1681526001600160a01b039091166004820152306024820152604481018590526064016020604051808303816000875af1158015611585573d6000803e3d6000fd5b505050506040513d601f19601f820116820180604052508101906115a99190612329565b505050565b6115b661106e565b6000818152600560205260409020546001600160a01b03166115d6611a36565b6001600160a01b03161480156115f457506115f08161104a565b8211155b6115fd57600080fd5b600f546040516370a0823160e01b81523060048201526000916001600160a01b0316906370a0823190602401602060405180830381865afa158015611646573d6000803e3d6000fd5b505050506040513d601f19601f8201168201806040525081019061166a919061238c565b905060008061167884610a04565b9050808511156117005761168c81866122fa565b6000858152600960205260408120805492945084929091906116af9084906122fa565b9250508190555081600b60008282546116c891906122fa565b9091555050600a546000858152600960205260409020546116e991906122b9565b600085815260096020526040902060010155611736565b61170f856402540be4006122b9565b60008581526009602052604081206001018054909190611730908490612311565b90915550505b6000838611611746576000611750565b61175084876122fa565b905080156117795761176181611a95565b82600e600082825461177391906122fa565b90915550505b600f546001600160a01b031663a9059cbb611792611a36565b6040516001600160e01b031960e084901b1681526001600160a01b039091166004820152602481018990526044016020604051808303816000875af11580156117df573d6000803e3d6000fd5b505050506040513d601f19601f820116820180604052508101906118039190612329565b50505050505050565b6000818152600560205260409020546001600160a01b03168061185e5760405162461bcd60e51b815260206004820152600a6024820152691393d517d3525395115160b21b60448201526064016107e6565b6001600160a01b038116600081815260046020908152604080832080546000190190558583526005825280832080546001600160a01b031990811690915560069092528083208054909216909155518492907fddf252ad1be2c89b69c2b068fc378daa952ba7f163c4a11628f55a4df523b3ef908390a45050565b6000806118ef6118e7611a36565b600354611b0d565b600b54909150156119025761190261106e565b6000818152600960205260409020839055600a5461192090846122b9565b60008281526009602052604081206001018054909190611941908490612311565b9250508190555082600b600082825461195a9190612311565b9250508190555082600c60008282546119739190612311565b9091555050600f546001600160a01b03166323b872dd611991611a36565b6040516001600160e01b031960e084901b1681526001600160a01b039091166004820152306024820152604481018690526064016020604051808303816000875af11580156119e4573d6000803e3d6000fd5b505050506040513d601f19601f82011682018060405250810190611a089190612329565b5092915050565b8051611a22906001906020840190611c28565b5081516115a9906000906020850190611c28565b600033301415611a8d57600080368080601f0160208091040260200160405190810160405280939291908181526020018383808284376000920191909152505050503601516001600160a01b03169150611a929050565b503390565b90565b601154604051632e1a7d4d60e01b8152600481018390526001600160a01b0390911690632e1a7d4d90602401600060405180830381600087803b158015611adb57600080fd5b505af1158015611aef573d6000803e3d6000fd5b5050505080600d6000828254611b0591906122fa565b909155505050565b60006001600160a01b038316611b595760405162461bcd60e51b81526020600482015260116024820152701253959053125117d49150d25412515395607a1b60448201526064016107e6565b6000828152600560205260409020546001600160a01b031615611baf5760405162461bcd60e51b815260206004820152600e60248201526d1053149150511657d3525395115160921b60448201526064016107e6565b6001600160a01b038316600081815260046020908152604080832080546001908101909155600380549091019055858352600590915280822080546001600160a01b0319168417905551849291907fddf252ad1be2c89b69c2b068fc378daa952ba7f163c4a11628f55a4df523b3ef908290a450919050565b828054611c34906121e0565b90600052602060002090601f016020900481019282611c565760008555611c9c565b82601f10611c6f57805160ff1916838001178555611c9c565b82800160010185558215611c9c579182015b82811115611c9c578251825591602001919060010190611c81565b50611ca8929150611cac565b5090565b5b80821115611ca85760008155600101611cad565b600060208284031215611cd357600080fd5b81356001600160e01b031981168114610a6357600080fd5b60005b83811015611d06578181015183820152602001611cee565b83811115611d15576000848401525b50505050565b60008151808452611d33816020860160208601611ceb565b601f01601f19169290920160200192915050565b602081526000610a636020830184611d1b565b600060208284031215611d6c57600080fd5b5035919050565b80356001600160a01b0381168114611d8a57600080fd5b919050565b60008060408385031215611da257600080fd5b611dab83611d73565b946020939093013593505050565b634e487b7160e01b600052604160045260246000fd5b600082601f830112611de057600080fd5b813567ffffffffffffffff80821115611dfb57611dfb611db9565b604051601f8301601f19908116603f01168101908282118183101715611e2357611e23611db9565b81604052838152866020858801011115611e3c57600080fd5b836020870160208301376000602085830101528094505050505092915050565b803560ff81168114611d8a57600080fd5b600080600080600060a08688031215611e8557600080fd5b611e8e86611d73565b9450602086013567ffffffffffffffff811115611eaa57600080fd5b611eb688828901611dcf565b9450506040860135925060608601359150611ed360808701611e5c565b90509295509295909350565b60008060408385031215611ef257600080fd5b50508035926020909101359150565b600080600060608486031215611f1657600080fd5b611f1f84611d73565b9250611f2d60208501611d73565b9150604084013590509250925092565b600060208284031215611f4f57600080fd5b610a6382611d73565b60008060008060008060c08789031215611f7157600080fd5b863567ffffffffffffffff80821115611f8957600080fd5b611f958a838b01611dcf565b97506020890135915080821115611fab57600080fd5b50611fb889828a01611dcf565b955050611fc760408801611d73565b9350611fd560608801611d73565b9250608087013561ffff81168114611fec57600080fd5b9150611ffa60a08801611d73565b90509295509295509295565b600080600080600080600060e0888a03121561202157600080fd5b61202a88611d73565b96506020880135955060408801359450606088013567ffffffffffffffff81111561205457600080fd5b6120608a828b01611dcf565b9450506080880135925060a0880135915061207d60c08901611e5c565b905092959891949750929550565b600080600080608085870312156120a157600080fd5b843567ffffffffffffffff808211156120b957600080fd5b6120c588838901611dcf565b955060208701359150808211156120db57600080fd5b506120e887828801611dcf565b9350506120f760408601611d73565b915061210560608601611d73565b905092959194509250565b801515811461144b57600080fd5b6000806040838503121561213157600080fd5b61213a83611d73565b9150602083013561214a81612110565b809150509250929050565b602081526000825160a0602084015261217160c0840182611d1b565b905060018060a01b0360208501511660408401526040840151606084015260608401516080840152608084015160a08401528091505092915050565b600080604083850312156121c057600080fd5b6121c983611d73565b91506121d760208401611d73565b90509250929050565b600181811c908216806121f457607f821691505b6020821081141561221557634e487b7160e01b600052602260045260246000fd5b50919050565b6000835161222d818460208801611ceb565b60609390931b6bffffffffffffffffffffffff19169190920190815260140192915050565b60008251612264818460208701611ceb565b9190910192915050565b6001600160a01b0384811682528316602082015260606040820181905260009061229a90830184611d1b565b95945050505050565b634e487b7160e01b600052601160045260246000fd5b60008160001904831182151516156122d3576122d36122a3565b500290565b6000826122f557634e487b7160e01b600052601260045260246000fd5b500490565b60008282101561230c5761230c6122a3565b500390565b60008219821115612324576123246122a3565b500190565b60006020828403121561233b57600080fd5b8151610a6381612110565b8481526bffffffffffffffffffffffff198460601b1660208201528260348201526000825161237c816054850160208701611ceb565b9190910160540195945050505050565b60006020828403121561239e57600080fd5b505191905056fea2646970667358221220f8a1ab825c1bddedc1e984d93cc19f2a02d5c92ca8b09821ba72f0fc3c6b637d64736f6c634300080a0033",
    "linkReferences": {}
  }
}