{
  "_format": "hh-sol-artifact-1",
  "contractName": "DegenVault",
  "sourceName": "contracts/src/DegenVault.sol",
  "abi": [
    {
      "inputs": [
        {
          "internalType": "address",
          "name": "_controller",
          "type": "address"
        },
        {
          "internalType": "contract ERC721",
          "name": "_NFT",
          "type": "address"
        },
        {
          "internalType": "contract ERC20",
          "name": "_vaultToken",
          "type": "address"
        },
        {
          "internalType": "uint16",
          "name": "_jackpotBP",
          "type": "uint16"
        },
        {
          "internalType": "uint16",
          "name": "_dividendsBP",
          "type": "uint16"
        },
        {
          "internalType": "uint16",
          "name": "devFee",
          "type": "uint16"
        },
        {
          "internalType": "uint256",
          "name": "_minimumPrice",
          "type": "uint256"
        },
        {
          "internalType": "uint256",
          "name": "initialDeadlineSeconds",
          "type": "uint256"
        }
      ],
      "stateMutability": "nonpayable",
      "type": "constructor"
    },
    {
      "inputs": [],
      "name": "NFT",
      "outputs": [
        {
          "internalType": "contract ERC721",
          "name": "",
          "type": "address"
        }
      ],
      "stateMutability": "view",
      "type": "function"
    },
    {
      "inputs": [],
      "name": "adjustYeild",
      "outputs": [],
      "stateMutability": "nonpayable",
      "type": "function"
    },
    {
      "inputs": [],
      "name": "adminFeesAccumulated",
      "outputs": [
        {
          "internalType": "uint256",
          "name": "",
          "type": "uint256"
        }
      ],
      "stateMutability": "view",
      "type": "function"
    },
    {
      "inputs": [
        {
          "internalType": "uint256",
          "name": "id",
          "type": "uint256"
        }
      ],
      "name": "burn",
      "outputs": [],
      "stateMutability": "nonpayable",
      "type": "function"
    },
    {
      "inputs": [],
      "name": "claimJackpot",
      "outputs": [],
      "stateMutability": "nonpayable",
      "type": "function"
    },
    {
      "inputs": [],
      "name": "ctx",
      "outputs": [
        {
          "internalType": "uint16",
          "name": "jackpotBP",
          "type": "uint16"
        },
        {
          "internalType": "uint16",
          "name": "dividendsBP",
          "type": "uint16"
        },
        {
          "internalType": "uint16",
          "name": "devFee",
          "type": "uint16"
        }
      ],
      "stateMutability": "view",
      "type": "function"
    },
    {
      "inputs": [],
      "name": "deadline",
      "outputs": [
        {
          "internalType": "uint256",
          "name": "",
          "type": "uint256"
        }
      ],
      "stateMutability": "view",
      "type": "function"
    },
    {
      "inputs": [
        {
          "internalType": "uint256",
          "name": "amount",
          "type": "uint256"
        },
        {
          "internalType": "uint256",
          "name": "id",
          "type": "uint256"
        }
      ],
      "name": "depositToId",
      "outputs": [],
      "stateMutability": "nonpayable",
      "type": "function"
    },
    {
      "inputs": [],
      "name": "depositedToStrat",
      "outputs": [
        {
          "internalType": "uint256",
          "name": "",
          "type": "uint256"
        }
      ],
      "stateMutability": "view",
      "type": "function"
    },
    {
      "inputs": [
        {
          "internalType": "uint256",
          "name": "",
          "type": "uint256"
        }
      ],
      "name": "deposits",
      "outputs": [
        {
          "internalType": "uint256",
          "name": "amount",
          "type": "uint256"
        },
        {
          "internalType": "uint256",
          "name": "tracker",
          "type": "uint256"
        }
      ],
      "stateMutability": "view",
      "type": "function"
    },
    {
      "inputs": [],
      "name": "initStrat",
      "outputs": [],
      "stateMutability": "nonpayable",
      "type": "function"
    },
    {
      "inputs": [],
      "name": "jackpot",
      "outputs": [
        {
          "internalType": "uint256",
          "name": "",
          "type": "uint256"
        }
      ],
      "stateMutability": "view",
      "type": "function"
    },
    {
      "inputs": [],
      "name": "lastDepositer",
      "outputs": [
        {
          "internalType": "address",
          "name": "",
          "type": "address"
        }
      ],
      "stateMutability": "view",
      "type": "function"
    },
    {
      "inputs": [],
      "name": "minimumPrice",
      "outputs": [
        {
          "internalType": "uint256",
          "name": "",
          "type": "uint256"
        }
      ],
      "stateMutability": "view",
      "type": "function"
    },
    {
      "inputs": [
        {
          "internalType": "uint256",
          "name": "amount",
          "type": "uint256"
        }
      ],
      "name": "mintNewNFT",
      "outputs": [
        {
          "internalType": "uint256",
          "name": "",
          "type": "uint256"
        }
      ],
      "stateMutability": "nonpayable",
      "type": "function"
    },
    {
      "inputs": [
        {
          "internalType": "address",
          "name": "addr",
          "type": "address"
        }
      ],
      "name": "setStrategy",
      "outputs": [],
      "stateMutability": "nonpayable",
      "type": "function"
    },
    {
      "inputs": [],
      "name": "totalDeposits",
      "outputs": [
        {
          "internalType": "uint256",
          "name": "",
          "type": "uint256"
        }
      ],
      "stateMutability": "view",
      "type": "function"
    },
    {
      "inputs": [
        {
          "internalType": "uint256",
          "name": "amount",
          "type": "uint256"
        },
        {
          "internalType": "uint256",
          "name": "id",
          "type": "uint256"
        }
      ],
      "name": "withdrawFromId",
      "outputs": [],
      "stateMutability": "nonpayable",
      "type": "function"
    },
    {
      "inputs": [
        {
          "internalType": "uint256",
          "name": "id",
          "type": "uint256"
        }
      ],
      "name": "withdrawableById",
      "outputs": [
        {
          "internalType": "uint256",
          "name": "",
          "type": "uint256"
        }
      ],
      "stateMutability": "view",
      "type": "function"
    },
    {
      "inputs": [],
      "name": "yeildPerDeposit",
      "outputs": [
        {
          "internalType": "uint256",
          "name": "",
          "type": "uint256"
        }
      ],
      "stateMutability": "view",
      "type": "function"
    }
  ],
  "bytecode": "0x60c06040526402540be4006003553480156200001a57600080fd5b5060405162001577380380620015778339810160408190526200003d916200018b565b606088811b6001600160601b031990811660a052600580546001600160a01b0319166001600160a01b038b169081179091559188901b1660805260408051637c65f50360e01b815290518a928a928a92637c65f5039160048082019260009290919082900301818387803b158015620000b557600080fd5b505af1158015620000ca573d6000803e3d6000fd5b50505050505050612710838587620000e3919062000227565b620000ef919062000227565b61ffff161115620000ff57600080fd5b6040805160608101825261ffff87811680835287821660208401819052918716929093018290526007805463ffffffff1916909317620100009091021761ffff60201b1916640100000000909102179055600882905562000161814262000250565b600955506200029a9650505050505050565b805161ffff811681146200018657600080fd5b919050565b600080600080600080600080610100898b031215620001a8578384fd5b8851620001b58162000281565b60208a0151909850620001c88162000281565b60408a0151909750620001db8162000281565b9550620001eb60608a0162000173565b9450620001fb60808a0162000173565b93506200020b60a08a0162000173565b60c08a015160e0909a0151989b979a5095989497939692505050565b600061ffff8083168185168083038211156200024757620002476200026b565b01949350505050565b600082198211156200026657620002666200026b565b500190565b634e487b7160e01b600052601160045260246000fd5b6001600160a01b03811681146200029757600080fd5b50565b60805160601c60a05160601c61128e620002e960003960006105dd0152600081816105460152818161068601528181610bcd01528181610c9401528181610e080152610f20015261128e6000f3fe608060405234801561001057600080fd5b506004361061012c5760003560e01c80636d43d9f1116100ad578063a2d6b25f11610071578063a2d6b25f14610269578063b02c43d014610272578063c91b5dd2146102ae578063e288ea64146102b7578063eaaf1fca146102bf57600080fd5b80636d43d9f11461021e5780637c0b8de2146102315780637d882097146102445780637f386b6c1461024d5780639b270da81461025657600080fd5b806333a100ca116100f457806333a100ca146101df57806334d894c9146101f257806342966c68146101fa5780635239af4b1461020d5780636b31ee011461021557600080fd5b8063159b4962146101315780631e86a9dc1461014657806323a5a01914610176578063277838df1461018d57806329dcb0cf146101d6575b600080fd5b61014461013f366004611155565b6102d2565b005b600c54610159906001600160a01b031681565b6040516001600160a01b0390911681526020015b60405180910390f35b61017f600b5481565b60405190815260200161016d565b6007546101b19061ffff808216916201000081048216916401000000009091041683565b6040805161ffff9485168152928416602084015292169181019190915260600161016d565b61017f60095481565b6101446101ed3660046110cd565b6105d2565b610144610629565b610144610208366004611125565b61075e565b6101446107a6565b61017f600a5481565b61017f61022c366004611125565b61086c565b600554610159906001600160a01b031681565b61017f60025481565b61017f60085481565b61017f610264366004611125565b61089c565b61017f60015481565b610299610280366004611125565b6000602081905290815260409020805460019091015482565b6040805192835260208301919091520161016d565b61017f60045481565b610144610c59565b6101446102cd366004611155565b610d15565b6005546040516331a9108f60e11b8152600481018390526001600160a01b0390911690636352211e9060240160206040518083038186803b15801561031657600080fd5b505afa15801561032a573d6000803e3d6000fd5b505050506040513d601f19601f8201168201806040525081019061034e91906110e9565b6001600160a01b0316336001600160a01b031614801561037057506008548210155b801561037e57506009544211155b61038757600080fd5b6040805160608101825260075461ffff80821680845262010000830482166020850152640100000000909204169282019290925290612710906103ca90856111d4565b6103d491906111b4565b600a60008282546103e5919061119c565b90915550506040810151612710906104019061ffff16856111d4565b61040b91906111b4565b600b600082825461041c919061119c565b90915550506020810151815160408301516000929161043a91611176565b6104449190611176565b610450906127106111f3565b61ffff169050600061271061046583876111d4565b61046f91906111b4565b60008581526020819052604081208054929350839290919061049290849061119c565b9250508190555080600260008282546104ab919061119c565b909155505060208301516104da90612710906104cb9061ffff16886111d4565b6104d591906111b4565b610faa565b6001546104e790826111d4565b6000858152602081905260408120600101805490919061050890849061119c565b9091555050600c80546001600160a01b031916339081179091556040516323b872dd60e01b81526004810191909152306024820152604481018690527f00000000000000000000000000000000000000000000000000000000000000006001600160a01b0316906323b872dd90606401602060405180830381600087803b15801561059257600080fd5b505af11580156105a6573d6000803e3d6000fd5b505050506040513d601f19601f820116820180604052508101906105ca9190611105565b505050505050565b336001600160a01b037f0000000000000000000000000000000000000000000000000000000000000000161461060757600080fd5b600680546001600160a01b0319166001600160a01b0392909216919091179055565b600061271060025461138861063e91906111d4565b61064891906111b4565b905060006004548261065a9190611216565b60065460405163095ea7b360e01b81526001600160a01b039182166004820152602481018390529192507f0000000000000000000000000000000000000000000000000000000000000000169063095ea7b390604401602060405180830381600087803b1580156106ca57600080fd5b505af11580156106de573d6000803e3d6000fd5b505050506040513d601f19601f820116820180604052508101906107029190611105565b5060065460405163b6b55f2560e01b8152600481018390526001600160a01b039091169063b6b55f25906024015b600060405180830381600087803b15801561074a57600080fd5b505af11580156105ca573d6000803e3d6000fd5b60006107698261086c565b90506107758183610d15565b600554604051630852cd8d60e31b8152600481018490526001600160a01b03909116906342966c6890602401610730565b60065460408051632307fed760e11b815290516000926001600160a01b03169163460ffdae916004808301926020929190829003018186803b1580156107eb57600080fd5b505afa1580156107ff573d6000803e3d6000fd5b505050506040513d601f19601f82011682018060405250810190610823919061113d565b90506000600454826108359190611216565b90506002546003548261084891906111d4565b61085291906111b4565b60016000828254610863919061119c565b90915550505050565b60008061087883610fdd565b60008481526020819052604090205490915061089590829061119c565b9392505050565b600060085482101580156108b257506009544211155b6109035760405162461bcd60e51b815260206004820152601b60248201527f556e646572706169642c206f72207061737420646561646c696e65000000000060448201526064015b60405180910390fd5b6040805160608101825260075461ffff808216835262010000820481166020840152640100000000909104168183015260055491516335313c2160e11b815233600482015290916000916001600160a01b0390911690636a62784290602401602060405180830381600087803b15801561097c57600080fd5b505af1158015610990573d6000803e3d6000fd5b505050506040513d601f19601f820116820180604052508101906109b4919061113d565b90506001811115610ae7578151612710906109d39061ffff16866111d4565b6109dd91906111b4565b600a60008282546109ee919061119c565b9091555050604082015161271090610a0a9061ffff16866111d4565b610a1491906111b4565b600b6000828254610a25919061119c565b909155505060208201518251604084015160009291610a4391611176565b610a4d9190611176565b610a59906127106111f3565b90506000612710610a6e61ffff8416886111d4565b610a7891906111b4565b6000848152602081905260408120829055600280549293508392909190610aa090849061119c565b90915550506020840151610ac090612710906104cb9061ffff16896111d4565b600154610acd90826111d4565b60008481526020819052604090206001015550610b949050565b6020820151825161271091610afb91611176565b610b099061ffff16866111d4565b610b1391906111b4565b600a5560208201518251604084015160009291610b2f91611176565b610b399190611176565b610b45906127106111f3565b61ffff1690506000612710610b5a83886111d4565b610b6491906111b4565b6000848152602081905260408120829055600280549293508392909190610b8c90849061119c565b909155505050505b600c80546001600160a01b031916339081179091556040516323b872dd60e01b81526004810191909152306024820152604481018590527f00000000000000000000000000000000000000000000000000000000000000006001600160a01b0316906323b872dd90606401602060405180830381600087803b158015610c1957600080fd5b505af1158015610c2d573d6000803e3d6000fd5b505050506040513d601f19601f82011682018060405250810190610c519190611105565b509392505050565b6009544211610c6757600080fd5b600c54600a5460405163a9059cbb60e01b81526001600160a01b03928316600482015260248101919091527f00000000000000000000000000000000000000000000000000000000000000009091169063a9059cbb90604401602060405180830381600087803b158015610cda57600080fd5b505af1158015610cee573d6000803e3d6000fd5b505050506040513d601f19601f82011682018060405250810190610d129190611105565b50565b6005546040516331a9108f60e11b8152600481018390526001600160a01b0390911690636352211e9060240160206040518083038186803b158015610d5957600080fd5b505afa158015610d6d573d6000803e3d6000fd5b505050506040513d601f19601f82011682018060405250810190610d9191906110e9565b6001600160a01b0316336001600160a01b031614610dae57600080fd5b610db78161086c565b8214610df05760405162461bcd60e51b81526020600482015260086024820152672aa9a290212aa92760c11b60448201526064016108fa565b6040516370a0823160e01b81523060048201526000907f00000000000000000000000000000000000000000000000000000000000000006001600160a01b0316906370a082319060240160206040518083038186803b158015610e5257600080fd5b505afa158015610e66573d6000803e3d6000fd5b505050506040513d601f19601f82011682018060405250810190610e8a919061113d565b905080831115610eae576000610ea08285611216565b9050610eac8184611037565b505b60008281526020819052604081208054859290610ecc908490611216565b9091555050600154610ede90846111d4565b60008381526020819052604081206001018054909190610eff908490611216565b909155505060405163a9059cbb60e01b8152336004820152602481018490527f00000000000000000000000000000000000000000000000000000000000000006001600160a01b03169063a9059cbb90604401602060405180830381600087803b158015610f6c57600080fd5b505af1158015610f80573d6000803e3d6000fd5b505050506040513d601f19601f82011682018060405250810190610fa49190611105565b50505050565b600254600354610fba90836111d4565b610fc491906111b4565b60016000828254610fd5919061119c565b909155505050565b60035460015460008381526020819052604081205490928392909161100291906111d4565b61100c91906111b4565b60035460008581526020819052604090206001015491925061102d916111b4565b6108959082611216565b600061104282610fdd565b905060006110508285611216565b905080600460008282546110649190611216565b9091555050600654604051631c8901bb60e31b8152600481018690526001600160a01b039091169063e4480dd890602401600060405180830381600087803b1580156110af57600080fd5b505af11580156110c3573d6000803e3d6000fd5b5050505050505050565b6000602082840312156110de578081fd5b813561089581611243565b6000602082840312156110fa578081fd5b815161089581611243565b600060208284031215611116578081fd5b81518015158114610895578182fd5b600060208284031215611136578081fd5b5035919050565b60006020828403121561114e578081fd5b5051919050565b60008060408385031215611167578081fd5b50508035926020909101359150565b600061ffff8083168185168083038211156111935761119361122d565b01949350505050565b600082198211156111af576111af61122d565b500190565b6000826111cf57634e487b7160e01b81526012600452602481fd5b500490565b60008160001904831182151516156111ee576111ee61122d565b500290565b600061ffff8381169083168181101561120e5761120e61122d565b039392505050565b6000828210156112285761122861122d565b500390565b634e487b7160e01b600052601160045260246000fd5b6001600160a01b0381168114610d1257600080fdfea26469706673582212203ba7c7faae17a201e22cf19e9441b4cca25ed9cf95a132548174fad3366d2dfc64736f6c63430008040033",
  "linkReferences": {},
  "deployedLinkReferences": {}
}