{
  "_format": "hh-sol-artifact-1",
  "contractName": "DegenVault",
  "sourceName": "contracts/src/DegenVault.sol",
  "abi": [
    {
      "inputs": [
        {
          "internalType": "address",
          "name": "_vaultToken",
          "type": "address"
        },
        {
          "internalType": "uint16",
          "name": "_jackpotBP",
          "type": "uint16"
        },
        {
          "internalType": "uint16",
          "name": "_dividendsBP",
          "type": "uint16"
        },
        {
          "internalType": "uint256",
          "name": "_minimumPrice",
          "type": "uint256"
        },
        {
          "internalType": "uint256",
          "name": "_intialTimeSeconds",
          "type": "uint256"
        },
        {
          "internalType": "uint16",
          "name": "_timeDecay",
          "type": "uint16"
        },
        {
          "internalType": "uint16",
          "name": "_growthFactor",
          "type": "uint16"
        },
        {
          "internalType": "string",
          "name": "name",
          "type": "string"
        },
        {
          "internalType": "string",
          "name": "symbol",
          "type": "string"
        }
      ],
      "stateMutability": "nonpayable",
      "type": "constructor"
    },
    {
      "anonymous": false,
      "inputs": [
        {
          "indexed": true,
          "internalType": "address",
          "name": "owner",
          "type": "address"
        },
        {
          "indexed": true,
          "internalType": "address",
          "name": "spender",
          "type": "address"
        },
        {
          "indexed": true,
          "internalType": "uint256",
          "name": "id",
          "type": "uint256"
        }
      ],
      "name": "Approval",
      "type": "event"
    },
    {
      "anonymous": false,
      "inputs": [
        {
          "indexed": true,
          "internalType": "address",
          "name": "owner",
          "type": "address"
        },
        {
          "indexed": true,
          "internalType": "address",
          "name": "operator",
          "type": "address"
        },
        {
          "indexed": false,
          "internalType": "bool",
          "name": "approved",
          "type": "bool"
        }
      ],
      "name": "ApprovalForAll",
      "type": "event"
    },
    {
      "anonymous": false,
      "inputs": [
        {
          "indexed": false,
          "internalType": "address",
          "name": "userAddress",
          "type": "address"
        },
        {
          "indexed": false,
          "internalType": "address payable",
          "name": "relayerAddress",
          "type": "address"
        },
        {
          "indexed": false,
          "internalType": "bytes",
          "name": "functionSignature",
          "type": "bytes"
        }
      ],
      "name": "MetaTransactionExecuted",
      "type": "event"
    },
    {
      "anonymous": false,
      "inputs": [
        {
          "indexed": true,
          "internalType": "address",
          "name": "from",
          "type": "address"
        },
        {
          "indexed": true,
          "internalType": "address",
          "name": "to",
          "type": "address"
        },
        {
          "indexed": true,
          "internalType": "uint256",
          "name": "id",
          "type": "uint256"
        }
      ],
      "name": "Transfer",
      "type": "event"
    },
    {
      "inputs": [
        {
          "internalType": "address",
          "name": "spender",
          "type": "address"
        },
        {
          "internalType": "uint256",
          "name": "id",
          "type": "uint256"
        }
      ],
      "name": "approve",
      "outputs": [],
      "stateMutability": "nonpayable",
      "type": "function"
    },
    {
      "inputs": [
        {
          "internalType": "address",
          "name": "",
          "type": "address"
        }
      ],
      "name": "balanceOf",
      "outputs": [
        {
          "internalType": "uint256",
          "name": "",
          "type": "uint256"
        }
      ],
      "stateMutability": "view",
      "type": "function"
    },
    {
      "inputs": [
        {
          "internalType": "uint256",
          "name": "id",
          "type": "uint256"
        }
      ],
      "name": "burnNFTAndWithdrawl",
      "outputs": [],
      "stateMutability": "nonpayable",
      "type": "function"
    },
    {
      "inputs": [],
      "name": "claimJackpot",
      "outputs": [],
      "stateMutability": "nonpayable",
      "type": "function"
    },
    {
      "inputs": [],
      "name": "ctx",
      "outputs": [
        {
          "internalType": "uint16",
          "name": "jackpotBP",
          "type": "uint16"
        },
        {
          "internalType": "uint16",
          "name": "dividendsBP",
          "type": "uint16"
        },
        {
          "internalType": "uint16",
          "name": "timeDecay",
          "type": "uint16"
        },
        {
          "internalType": "uint16",
          "name": "growthFactor",
          "type": "uint16"
        },
        {
          "internalType": "uint16",
          "name": "vaultType",
          "type": "uint16"
        }
      ],
      "stateMutability": "view",
      "type": "function"
    },
    {
      "inputs": [],
      "name": "currentId",
      "outputs": [
        {
          "internalType": "uint256",
          "name": "",
          "type": "uint256"
        }
      ],
      "stateMutability": "view",
      "type": "function"
    },
    {
      "inputs": [],
      "name": "deadline",
      "outputs": [
        {
          "internalType": "uint256",
          "name": "",
          "type": "uint256"
        }
      ],
      "stateMutability": "view",
      "type": "function"
    },
    {
      "inputs": [
        {
          "internalType": "uint256",
          "name": "amount",
          "type": "uint256"
        },
        {
          "internalType": "uint256",
          "name": "id",
          "type": "uint256"
        }
      ],
      "name": "depositToId",
      "outputs": [],
      "stateMutability": "nonpayable",
      "type": "function"
    },
    {
      "inputs": [
        {
          "internalType": "uint256",
          "name": "",
          "type": "uint256"
        }
      ],
      "name": "deposits",
      "outputs": [
        {
          "internalType": "uint256",
          "name": "amount",
          "type": "uint256"
        },
        {
          "internalType": "uint256",
          "name": "tracker",
          "type": "uint256"
        }
      ],
      "stateMutability": "view",
      "type": "function"
    },
    {
      "inputs": [],
      "name": "distributeYeild",
      "outputs": [],
      "stateMutability": "nonpayable",
      "type": "function"
    },
    {
      "inputs": [
        {
          "internalType": "address",
          "name": "userAddress",
          "type": "address"
        },
        {
          "internalType": "bytes",
          "name": "functionSignature",
          "type": "bytes"
        },
        {
          "internalType": "bytes32",
          "name": "sigR",
          "type": "bytes32"
        },
        {
          "internalType": "bytes32",
          "name": "sigS",
          "type": "bytes32"
        },
        {
          "internalType": "uint8",
          "name": "sigV",
          "type": "uint8"
        }
      ],
      "name": "executeMetaTransaction",
      "outputs": [
        {
          "internalType": "bytes",
          "name": "",
          "type": "bytes"
        }
      ],
      "stateMutability": "payable",
      "type": "function"
    },
    {
      "inputs": [
        {
          "internalType": "uint256",
          "name": "",
          "type": "uint256"
        }
      ],
      "name": "getApproved",
      "outputs": [
        {
          "internalType": "address",
          "name": "",
          "type": "address"
        }
      ],
      "stateMutability": "view",
      "type": "function"
    },
    {
      "inputs": [],
      "name": "getChainID",
      "outputs": [
        {
          "internalType": "uint256",
          "name": "",
          "type": "uint256"
        }
      ],
      "stateMutability": "view",
      "type": "function"
    },
    {
      "inputs": [
        {
          "internalType": "address",
          "name": "user",
          "type": "address"
        }
      ],
      "name": "getNonce",
      "outputs": [
        {
          "internalType": "uint256",
          "name": "nonce",
          "type": "uint256"
        }
      ],
      "stateMutability": "view",
      "type": "function"
    },
    {
      "inputs": [],
      "name": "initStrat",
      "outputs": [],
      "stateMutability": "nonpayable",
      "type": "function"
    },
    {
      "inputs": [
        {
          "internalType": "address",
          "name": "",
          "type": "address"
        },
        {
          "internalType": "address",
          "name": "",
          "type": "address"
        }
      ],
      "name": "isApprovedForAll",
      "outputs": [
        {
          "internalType": "bool",
          "name": "",
          "type": "bool"
        }
      ],
      "stateMutability": "view",
      "type": "function"
    },
    {
      "inputs": [],
      "name": "jackpot",
      "outputs": [
        {
          "internalType": "uint256",
          "name": "",
          "type": "uint256"
        }
      ],
      "stateMutability": "view",
      "type": "function"
    },
    {
      "inputs": [],
      "name": "lastDepositer",
      "outputs": [
        {
          "internalType": "address",
          "name": "",
          "type": "address"
        }
      ],
      "stateMutability": "view",
      "type": "function"
    },
    {
      "inputs": [],
      "name": "minimumPrice",
      "outputs": [
        {
          "internalType": "uint256",
          "name": "",
          "type": "uint256"
        }
      ],
      "stateMutability": "view",
      "type": "function"
    },
    {
      "inputs": [
        {
          "internalType": "uint256",
          "name": "amount",
          "type": "uint256"
        }
      ],
      "name": "mintNewNft",
      "outputs": [
        {
          "internalType": "uint256",
          "name": "",
          "type": "uint256"
        }
      ],
      "stateMutability": "nonpayable",
      "type": "function"
    },
    {
      "inputs": [],
      "name": "name",
      "outputs": [
        {
          "internalType": "string",
          "name": "",
          "type": "string"
        }
      ],
      "stateMutability": "view",
      "type": "function"
    },
    {
      "inputs": [
        {
          "internalType": "uint256",
          "name": "",
          "type": "uint256"
        }
      ],
      "name": "ownerOf",
      "outputs": [
        {
          "internalType": "address",
          "name": "",
          "type": "address"
        }
      ],
      "stateMutability": "view",
      "type": "function"
    },
    {
      "inputs": [
        {
          "internalType": "address",
          "name": "operator",
          "type": "address"
        },
        {
          "internalType": "bool",
          "name": "approved",
          "type": "bool"
        }
      ],
      "name": "setApprovalForAll",
      "outputs": [],
      "stateMutability": "nonpayable",
      "type": "function"
    },
    {
      "inputs": [
        {
          "internalType": "address",
          "name": "addr",
          "type": "address"
        }
      ],
      "name": "setStrat",
      "outputs": [],
      "stateMutability": "nonpayable",
      "type": "function"
    },
    {
      "inputs": [
        {
          "internalType": "bytes4",
          "name": "interfaceId",
          "type": "bytes4"
        }
      ],
      "name": "supportsInterface",
      "outputs": [
        {
          "internalType": "bool",
          "name": "",
          "type": "bool"
        }
      ],
      "stateMutability": "pure",
      "type": "function"
    },
    {
      "inputs": [],
      "name": "symbol",
      "outputs": [
        {
          "internalType": "string",
          "name": "",
          "type": "string"
        }
      ],
      "stateMutability": "view",
      "type": "function"
    },
    {
      "inputs": [
        {
          "internalType": "uint256",
          "name": "id",
          "type": "uint256"
        }
      ],
      "name": "tokenURI",
      "outputs": [
        {
          "components": [
            {
              "internalType": "string",
              "name": "name",
              "type": "string"
            },
            {
              "internalType": "address",
              "name": "vaultAddress",
              "type": "address"
            },
            {
              "internalType": "uint256",
              "name": "withdrawable",
              "type": "uint256"
            },
            {
              "internalType": "uint256",
              "name": "id",
              "type": "uint256"
            },
            {
              "internalType": "uint256",
              "name": "vaultType",
              "type": "uint256"
            }
          ],
          "internalType": "struct BaseVault.MetaData",
          "name": "",
          "type": "tuple"
        }
      ],
      "stateMutability": "view",
      "type": "function"
    },
    {
      "inputs": [],
      "name": "totalDeposits",
      "outputs": [
        {
          "internalType": "uint256",
          "name": "",
          "type": "uint256"
        }
      ],
      "stateMutability": "view",
      "type": "function"
    },
    {
      "inputs": [
        {
          "internalType": "address",
          "name": "from",
          "type": "address"
        },
        {
          "internalType": "address",
          "name": "to",
          "type": "address"
        },
        {
          "internalType": "uint256",
          "name": "id",
          "type": "uint256"
        }
      ],
      "name": "transferFrom",
      "outputs": [],
      "stateMutability": "nonpayable",
      "type": "function"
    },
    {
      "inputs": [
        {
          "internalType": "address",
          "name": "owner",
          "type": "address"
        },
        {
          "internalType": "uint256",
          "name": "nonce",
          "type": "uint256"
        },
        {
          "internalType": "uint256",
          "name": "chainID",
          "type": "uint256"
        },
        {
          "internalType": "bytes",
          "name": "functionSignature",
          "type": "bytes"
        },
        {
          "internalType": "bytes32",
          "name": "sigR",
          "type": "bytes32"
        },
        {
          "internalType": "bytes32",
          "name": "sigS",
          "type": "bytes32"
        },
        {
          "internalType": "uint8",
          "name": "sigV",
          "type": "uint8"
        }
      ],
      "name": "verify",
      "outputs": [
        {
          "internalType": "bool",
          "name": "",
          "type": "bool"
        }
      ],
      "stateMutability": "view",
      "type": "function"
    },
    {
      "inputs": [
        {
          "internalType": "uint256",
          "name": "amount",
          "type": "uint256"
        },
        {
          "internalType": "uint256",
          "name": "id",
          "type": "uint256"
        }
      ],
      "name": "withdrawFromId",
      "outputs": [],
      "stateMutability": "nonpayable",
      "type": "function"
    },
    {
      "inputs": [
        {
          "internalType": "uint256",
          "name": "id",
          "type": "uint256"
        }
      ],
      "name": "withdrawableById",
      "outputs": [
        {
          "internalType": "uint256",
          "name": "claimId",
          "type": "uint256"
        }
      ],
      "stateMutability": "view",
      "type": "function"
    },
    {
      "inputs": [],
      "name": "yeildPerDeposit",
      "outputs": [
        {
          "internalType": "uint256",
          "name": "",
          "type": "uint256"
        }
      ],
      "stateMutability": "view",
      "type": "function"
    },
    {
      "inputs": [
        {
          "internalType": "uint256",
          "name": "id",
          "type": "uint256"
        }
      ],
      "name": "yieldPerId",
      "outputs": [
        {
          "internalType": "uint256",
          "name": "",
          "type": "uint256"
        }
      ],
      "stateMutability": "view",
      "type": "function"
    }
  ],
  "bytecode": "0x60c060405260016003556402540be400600c553480156200001f57600080fd5b5060405162002bbd38038062002bbd8339810160408190526200004291620002df565b888282818181600090805190602001906200005f9291906200016e565b508051620000759060019060208401906200016e565b5050506001600160601b0319606093841b16608052505033901b60a052612710620000a1888a620003c4565b61ffff161115620000b157600080fd5b6040805160a08101825261ffff8a81168083528a8216602084018190528883169484018590529187166060840181905260046080909401939093526011805463ffffffff1916909117620100009092029190911763ffffffff60201b191664010000000090930261ffff60301b19169290921766010000000000009091021761ffff60401b191668040000000000000000179055601286905560158590556200015b8542620003ed565b6013555062000471975050505050505050565b8280546200017c9062000408565b90600052602060002090601f016020900481019282620001a05760008555620001eb565b82601f10620001bb57805160ff1916838001178555620001eb565b82800160010185558215620001eb579182015b82811115620001eb578251825591602001919060010190620001ce565b50620001f9929150620001fd565b5090565b5b80821115620001f95760008155600101620001fe565b600082601f83011262000225578081fd5b81516001600160401b03808211156200024257620002426200045b565b604051601f8301601f19908116603f011681019082821181831017156200026d576200026d6200045b565b8160405283815260209250868385880101111562000289578485fd5b8491505b83821015620002ac57858201830151818301840152908201906200028d565b83821115620002bd57848385830101525b9695505050505050565b805161ffff81168114620002da57600080fd5b919050565b60008060008060008060008060006101208a8c031215620002fe578485fd5b89516001600160a01b038116811462000315578586fd5b98506200032560208b01620002c7565b97506200033560408b01620002c7565b965060608a0151955060808a015194506200035360a08b01620002c7565b93506200036360c08b01620002c7565b60e08b01519093506001600160401b038082111562000380578384fd5b6200038e8d838e0162000214565b93506101008c0151915080821115620003a5578283fd5b50620003b48c828d0162000214565b9150509295985092959850929598565b600061ffff808316818516808303821115620003e457620003e462000445565b01949350505050565b6000821982111562000403576200040362000445565b500190565b600181811c908216806200041d57607f821691505b602082108114156200043f57634e487b7160e01b600052602260045260246000fd5b50919050565b634e487b7160e01b600052601160045260246000fd5b634e487b7160e01b600052604160045260246000fd5b60805160601c60a05160601c6126f6620004c76000396000610bd5015260008181610f49015281816114ff015281816116e20152818161196101528181611abd01528181611bd70152611d7101526126f66000f3fe6080604052600436106101f95760003560e01c80636352211e1161010d578063a22cb465116100a0578063ca1e3c831161006f578063ca1e3c831461065a578063e00dd1611461066f578063e288ea6414610685578063e985e9c51461069a578063eaaf1fca146106d557600080fd5b8063a22cb465146105ae578063a2d6b25f146105ce578063b02c43d0146105e4578063c87b56dd1461062d57600080fd5b80637d882097116100dc5780637d8820971461054d5780637f386b6c1461056357806389f3dd371461057957806395d89b411461059957600080fd5b80636352211e146104b45780636b31ee01146104ea5780636d43d9f11461050057806370a082311461052057600080fd5b80631e86a9dc116101905780632d0335ab1161015f5780632d0335ab1461041657806334d894c91461044c5780634b6d69d314610461578063564b81ef146104815780636281133d1461049457600080fd5b80631e86a9dc1461034657806323b872dd14610366578063277838df1461038657806329dcb0cf1461040057600080fd5b80630c53c51c116101cc5780630c53c51c146102c5578063159b4962146102d857806316cc3b07146102f85780631ab2f6af1461031857600080fd5b806301ffc9a7146101fe57806306fdde0314610233578063081812fc14610255578063095ea7b3146102a3575b600080fd5b34801561020a57600080fd5b5061021e61021936600461238f565b6106f5565b60405190151581526020015b60405180910390f35b34801561023f57600080fd5b50610248610747565b60405161022a91906124f9565b34801561026157600080fd5b5061028b6102703660046123b7565b6006602052600090815260409020546001600160a01b031681565b6040516001600160a01b03909116815260200161022a565b3480156102af57600080fd5b506102c36102be3660046122c7565b6107d5565b005b6102486102d3366004612257565b6108bc565b3480156102e457600080fd5b506102c36102f33660046123e7565b610a8b565b34801561030457600080fd5b506102c361031336600461219a565b610bca565b34801561032457600080fd5b506103386103333660046123b7565b610c36565b60405190815260200161022a565b34801561035257600080fd5b5060165461028b906001600160a01b031681565b34801561037257600080fd5b506102c36103813660046121e6565b610c97565b34801561039257600080fd5b506011546103cb9061ffff808216916201000081048216916401000000008204811691600160301b8104821691600160401b9091041685565b6040805161ffff968716815294861660208601529285169284019290925283166060830152909116608082015260a00161022a565b34801561040c57600080fd5b5061033860135481565b34801561042257600080fd5b5061033861043136600461219a565b6001600160a01b031660009081526008602052604090205490565b34801561045857600080fd5b506102c3610e5e565b34801561046d57600080fd5b5061033861047c3660046123b7565b61102a565b34801561048d57600080fd5b5046610338565b3480156104a057600080fd5b5061021e6104af3660046122f0565b6111d5565b3480156104c057600080fd5b5061028b6104cf3660046123b7565b6005602052600090815260409020546001600160a01b031681565b3480156104f657600080fd5b5061033860145481565b34801561050c57600080fd5b5061033861051b3660046123b7565b61131d565b34801561052c57600080fd5b5061033861053b36600461219a565b60046020526000908152604090205481565b34801561055957600080fd5b50610338600b5481565b34801561056f57600080fd5b5061033860125481565b34801561058557600080fd5b506102c36105943660046123b7565b611341565b3480156105a557600080fd5b50610248611365565b3480156105ba57600080fd5b506102c36105c9366004612221565b611372565b3480156105da57600080fd5b50610338600a5481565b3480156105f057600080fd5b506106186105ff3660046123b7565b6009602052600090815260409020805460019091015482565b6040805192835260208301919091520161022a565b34801561063957600080fd5b5061064d6106483660046123b7565b6113de565b60405161022a919061250c565b34801561066657600080fd5b506102c36114db565b34801561067b57600080fd5b5061033860035481565b34801561069157600080fd5b506102c36116a7565b3480156106a657600080fd5b5061021e6106b53660046121b4565b600760209081526000928352604080842090915290825290205460ff1681565b3480156106e157600080fd5b506102c36106f03660046123e7565b611763565b60006301ffc9a760e01b6001600160e01b03198316148061072657506380ac58cd60e01b6001600160e01b03198316145b806107415750635b5e139f60e01b6001600160e01b03198316145b92915050565b600080546107549061264b565b80601f01602080910402602001604051908101604052809291908181526020018280546107809061264b565b80156107cd5780601f106107a2576101008083540402835291602001916107cd565b820191906000526020600020905b8154815290600101906020018083116107b057829003601f168201915b505050505081565b6000818152600560205260409020546001600160a01b03163381148061081e57506001600160a01b038116600090815260076020908152604080832033845290915290205460ff165b6108605760405162461bcd60e51b815260206004820152600e60248201526d1393d517d055551213d49256915160921b60448201526064015b60405180910390fd5b60008281526006602052604080822080546001600160a01b0319166001600160a01b0387811691821790925591518593918516917f8c5be1e5ebec7d5bd14f71427d1e84f3dd0314c0f7b2291e5b200ac8c7c3b92591a4505050565b6001600160a01b0385166000908152600860205260409020546060906108e890879046888888886111d5565b61093e5760405162461bcd60e51b815260206004820152602160248201527f5369676e657220616e64207369676e617475726520646f206e6f74206d6174636044820152600d60fb1b6064820152608401610857565b6001600160a01b0386166000908152600860205260409020546109629060016117b8565b6001600160a01b0387166000908152600860209081526040808320939093559151909182913091610997918a918c9101612450565b60408051601f19818403018152908290526109b191612434565b6000604051808303816000865af19150503d80600081146109ee576040519150601f19603f3d011682016040523d82523d6000602084013e6109f3565b606091505b509150915081610a455760405162461bcd60e51b815260206004820152601c60248201527f46756e6374696f6e2063616c6c206e6f74207375636365737366756c000000006044820152606401610857565b7f5845892132946850460bff5a0083f71031bc5bf9aadcd40f1de79423eac9b10b883389604051610a78939291906124cd565b60405180910390a1979650505050505050565b6000818152600560205260409020546001600160a01b031633148015610ab357506012548210155b8015610ac157506013544211155b610aca57600080fd5b6040805160a08101825260115461ffff80821683526201000082048116602084018190526401000000008304821694840194909452600160301b820481166060840152600160401b90910416608082015290610b3d9061271090610b2e90866125c2565b610b3891906125a2565b6117c4565b805161271090610b519061ffff16856125c2565b610b5b91906125a2565b60146000828254610b6c919061258a565b909155505060208101518151600091610b8491612564565b610b90906127106125e1565b61ffff1690506000612710610ba583876125c2565b610baf91906125a2565b9050610bb96117f7565b610bc38185611894565b5050505050565b336001600160a01b037f000000000000000000000000000000000000000000000000000000000000000016148015610c0b57506010546001600160a01b0316155b610c1457600080fd5b601080546001600160a01b0319166001600160a01b0392909216919091179055565b600c54600a54600083815260096020526040812054909283929091610c5b91906125c2565b610c6591906125a2565b600c54600085815260096020526040902060010154919250610c86916125a2565b610c909082612604565b9392505050565b6000818152600560205260409020546001600160a01b03848116911614610ced5760405162461bcd60e51b815260206004820152600a60248201526957524f4e475f46524f4d60b01b6044820152606401610857565b6001600160a01b038216610d375760405162461bcd60e51b81526020600482015260116024820152701253959053125117d49150d25412515395607a1b6044820152606401610857565b336001600160a01b0384161480610d6457506000818152600660205260409020546001600160a01b031633145b80610d9257506001600160a01b038316600090815260076020908152604080832033845290915290205460ff165b610dcf5760405162461bcd60e51b815260206004820152600e60248201526d1393d517d055551213d49256915160921b6044820152606401610857565b6001600160a01b0380841660008181526004602090815260408083208054600019019055938616808352848320805460010190558583526005825284832080546001600160a01b03199081168317909155600690925284832080549092169091559251849392917fddf252ad1be2c89b69c2b068fc378daa952ba7f163c4a11628f55a4df523b3ef91a4505050565b6010546001600160a01b0316610ea45760405162461bcd60e51b815260206004820152600b60248201526a4e6f20537472617465677960a81b6044820152606401610857565b6000612710600b54611388610eb991906125c2565b610ec391906125a2565b90506000600f5482610ed59190612604565b905080600f6000828254610ee9919061258a565b9250508190555080600e6000828254610f02919061258a565b9250508190555080600d6000828254610f1b9190612604565b909155505060105460405163095ea7b360e01b81526001600160a01b039182166004820152602481018390527f00000000000000000000000000000000000000000000000000000000000000009091169063095ea7b390604401602060405180830381600087803b158015610f8f57600080fd5b505af1158015610fa3573d6000803e3d6000fd5b505050506040513d601f19601f82011682018060405250810190610fc79190612373565b5060105460405163b6b55f2560e01b8152600481018390526001600160a01b039091169063b6b55f2590602401600060405180830381600087803b15801561100e57600080fd5b505af1158015611022573d6000803e3d6000fd5b505050505050565b6000601254821015801561104057506013544211155b61108c5760405162461bcd60e51b815260206004820152601b60248201527f556e646572706169642c206f72207061737420646561646c696e6500000000006044820152606401610857565b6040805160a08101825260115461ffff8082168084526201000083048216602085018190526401000000008404831695850195909552600160301b830482166060850152600160401b90920416608083015290916000916110ed9190612564565b6110f9906127106125e1565b61ffff169050600061271061110e83876125c2565b61111891906125a2565b9050600160035411156111795761113f612710846020015161ffff1687610b2e91906125c2565b8251612710906111539061ffff16876125c2565b61115d91906125a2565b6014600082825461116e919061258a565b909155506111a99050565b602083015183516127109161118d91612564565b61119b9061ffff16876125c2565b6111a591906125a2565b6014555b601680546001600160a01b031916331790556111c36117f7565b6111cc81611a14565b95945050505050565b600080611252883089896040516020016111f29493929190612487565b60408051601f1981840301815282825280516020918201207f19457468657265756d205369676e6564204d6573736167653a0a33320000000084830152603c8085019190915282518085039091018152605c909301909152815191012090565b6040805160008082526020820180845284905260ff87169282019290925260608101889052608081018790529192509060019060a0016020604051602081039080840390855afa1580156112aa573d6000803e3d6000fd5b5050604051601f1901519150506001600160a01b0381166113015760405162461bcd60e51b8152602060048201526011602482015270496e76616c6964207369676e617475726560781b6044820152606401610857565b6001600160a01b038a8116911614915050979650505050505050565b600061132882610c36565b600083815260096020526040902054610741919061258a565b600061134c8261131d565b90506113588183611b77565b61136182611e2f565b5050565b600180546107549061264b565b3360008181526007602090815260408083206001600160a01b03871680855290835292819020805460ff191686151590811790915590519081529192917f17307eab39ab6107e8899845ad3d59bd9653f200f220920489ca2b5937696c31910160405180910390a35050565b6114196040518060a001604052806060815260200160006001600160a01b031681526020016000815260200160008152602001600081525090565b6040518060a00160405280600080546114319061264b565b80601f016020809104026020016040519081016040528092919081815260200182805461145d9061264b565b80156114aa5780601f1061147f576101008083540402835291602001916114aa565b820191906000526020600020905b81548152906001019060200180831161148d57829003601f168201915b50505091835250503060208201526040016114c48461131d565b815260200183815260200160008152509050919050565b600d546040516370a0823160e01b8152306004820152600091906001600160a01b037f000000000000000000000000000000000000000000000000000000000000000016906370a082319060240160206040518083038186803b15801561154157600080fd5b505afa158015611555573d6000803e3d6000fd5b505050506040513d601f19601f8201168201806040525081019061157991906123cf565b6115839190612604565b905080600d6000828254611597919061258a565b90915550506010546000906001600160a01b03166115b6576000611649565b600e54601060009054906101000a90046001600160a01b03166001600160a01b031663460ffdae6040518163ffffffff1660e01b815260040160206040518083038186803b15801561160757600080fd5b505afa15801561161b573d6000803e3d6000fd5b505050506040513d601f19601f8201168201806040525081019061163f91906123cf565b6116499190612604565b905080600e600082825461165d919061258a565b909155506000905061166f828461258a565b9050600b54600c548261168291906125c2565b61168c91906125a2565b600a600082825461169d919061258a565b9091555050505050565b60135442116116b557600080fd5b60165460145460405163a9059cbb60e01b81526001600160a01b03928316600482015260248101919091527f00000000000000000000000000000000000000000000000000000000000000009091169063a9059cbb90604401602060405180830381600087803b15801561172857600080fd5b505af115801561173c573d6000803e3d6000fd5b505050506040513d601f19601f820116820180604052508101906117609190612373565b50565b600061176e8261131d565b90508083146117aa5760405162461bcd60e51b81526020600482015260086024820152672ab9b290313ab93760c11b6044820152606401610857565b6117b382611341565b505050565b6000610c90828461258a565b600b54600c546117d490836125c2565b6117de91906125a2565b600a60008282546117ef919061258a565b909155505050565b601154601554612710916118189164010000000090910461ffff16906125c2565b61182291906125a2565b601560008282546118339190612604565b90915550506015546013805460009061184d90849061258a565b90915550506011546012546127109161187291600160301b90910461ffff16906125c2565b61187c91906125a2565b6012600082825461188d919061258a565b9091555050565b6000818152600560205260409020546001600160a01b03166118b4611efc565b6001600160a01b0316146118c757600080fd5b6118cf6114db565b600081815260096020526040812080548492906118ed90849061258a565b9091555050600a546118ff90836125c2565b6000828152600960205260408120600101805490919061192090849061258a565b9250508190555081600b6000828254611939919061258a565b9250508190555081600d6000828254611952919061258a565b90915550506001600160a01b037f0000000000000000000000000000000000000000000000000000000000000000166323b872dd61198e611efc565b6040516001600160e01b031960e084901b1681526001600160a01b03909116600482015230602482015260448101859052606401602060405180830381600087803b1580156119dc57600080fd5b505af11580156119f0573d6000803e3d6000fd5b505050506040513d601f19601f820116820180604052508101906117b39190612373565b600080611a2a611a22611efc565b600354611f5b565b600b5490915015611a3d57611a3d6114db565b6000818152600960205260409020839055600a54611a5b90846125c2565b60008281526009602052604081206001018054909190611a7c90849061258a565b9250508190555082600b6000828254611a95919061258a565b9250508190555082600d6000828254611aae919061258a565b90915550506001600160a01b037f0000000000000000000000000000000000000000000000000000000000000000166323b872dd611aea611efc565b6040516001600160e01b031960e084901b1681526001600160a01b03909116600482015230602482015260448101869052606401602060405180830381600087803b158015611b3857600080fd5b505af1158015611b4c573d6000803e3d6000fd5b505050506040513d601f19601f82011682018060405250810190611b709190612373565b5092915050565b6000818152600560205260409020546001600160a01b0316611b97611efc565b6001600160a01b031614611baa57600080fd5b611bb38161131d565b821115611bbf57600080fd5b6040516370a0823160e01b81523060048201526000907f00000000000000000000000000000000000000000000000000000000000000006001600160a01b0316906370a082319060240160206040518083038186803b158015611c2157600080fd5b505afa158015611c35573d6000803e3d6000fd5b505050506040513d601f19601f82011682018060405250810190611c5991906123cf565b90506000611c656114db565b6000611c7084610c36565b905080851115611cf857611c848186612604565b600085815260096020526040812080549294508492909190611ca7908490612604565b9250508190555081600b6000828254611cc09190612604565b9091555050600a54600085815260096020526040902054611ce191906125c2565b600085815260096020526040902060010155611d2c565b600c54611d0590866125c2565b60008581526009602052604081206001018054909190611d2690849061258a565b90915550505b6000838611611d3c576000611d46565b611d468487612604565b90508015611d6f57611d5781612076565b82600f6000828254611d699190612604565b90915550505b7f00000000000000000000000000000000000000000000000000000000000000006001600160a01b031663a9059cbb611da6611efc565b6040516001600160e01b031960e084901b1681526001600160a01b03909116600482015260248101899052604401602060405180830381600087803b158015611dee57600080fd5b505af1158015611e02573d6000803e3d6000fd5b505050506040513d601f19601f82011682018060405250810190611e269190612373565b50505050505050565b6000818152600560205260409020546001600160a01b031680611e815760405162461bcd60e51b815260206004820152600a6024820152691393d517d3525395115160b21b6044820152606401610857565b6001600160a01b038116600081815260046020908152604080832080546000190190558583526005825280832080546001600160a01b031990811690915560069092528083208054909216909155518492907fddf252ad1be2c89b69c2b068fc378daa952ba7f163c4a11628f55a4df523b3ef908390a45050565b600033301415611f5357600080368080601f0160208091040260200160405190810160405280939291908181526020018383808284376000920191909152505050503601516001600160a01b03169150611f589050565b503390565b90565b60006001600160a01b038316611fa75760405162461bcd60e51b81526020600482015260116024820152701253959053125117d49150d25412515395607a1b6044820152606401610857565b6000828152600560205260409020546001600160a01b031615611ffd5760405162461bcd60e51b815260206004820152600e60248201526d1053149150511657d3525395115160921b6044820152606401610857565b6001600160a01b038316600081815260046020908152604080832080546001908101909155600380549091019055858352600590915280822080546001600160a01b0319168417905551849291907fddf252ad1be2c89b69c2b068fc378daa952ba7f163c4a11628f55a4df523b3ef908290a450919050565b601054604051631c8901bb60e31b8152600481018390526001600160a01b039091169063e4480dd890602401600060405180830381600087803b1580156120bc57600080fd5b505af11580156120d0573d6000803e3d6000fd5b5050505080600e60008282546117ef9190612604565b80356001600160a01b03811681146120fd57600080fd5b919050565b600082601f830112612112578081fd5b813567ffffffffffffffff8082111561212d5761212d61269c565b604051601f8301601f19908116603f011681019082821181831017156121555761215561269c565b8160405283815286602085880101111561216d578485fd5b8360208701602083013792830160200193909352509392505050565b803560ff811681146120fd57600080fd5b6000602082840312156121ab578081fd5b610c90826120e6565b600080604083850312156121c6578081fd5b6121cf836120e6565b91506121dd602084016120e6565b90509250929050565b6000806000606084860312156121fa578081fd5b612203846120e6565b9250612211602085016120e6565b9150604084013590509250925092565b60008060408385031215612233578182fd5b61223c836120e6565b9150602083013561224c816126b2565b809150509250929050565b600080600080600060a0868803121561226e578081fd5b612277866120e6565b9450602086013567ffffffffffffffff811115612292578182fd5b61229e88828901612102565b94505060408601359250606086013591506122bb60808701612189565b90509295509295909350565b600080604083850312156122d9578182fd5b6122e2836120e6565b946020939093013593505050565b600080600080600080600060e0888a03121561230a578182fd5b612313886120e6565b96506020880135955060408801359450606088013567ffffffffffffffff81111561233c578283fd5b6123488a828b01612102565b9450506080880135925060a0880135915061236560c08901612189565b905092959891949750929550565b600060208284031215612384578081fd5b8151610c90816126b2565b6000602082840312156123a0578081fd5b81356001600160e01b031981168114610c90578182fd5b6000602082840312156123c8578081fd5b5035919050565b6000602082840312156123e0578081fd5b5051919050565b600080604083850312156123f9578182fd5b50508035926020909101359150565b6000815180845261242081602086016020860161261b565b601f01601f19169290920160200192915050565b6000825161244681846020870161261b565b9190910192915050565b6000835161246281846020880161261b565b60609390931b6bffffffffffffffffffffffff19169190920190815260140192915050565b8481526bffffffffffffffffffffffff198460601b166020820152826034820152600082516124bd81605485016020870161261b565b9190910160540195945050505050565b6001600160a01b038481168252831660208201526060604082018190526000906111cc90830184612408565b602081526000610c906020830184612408565b602081526000825160a0602084015261252860c0840182612408565b905060018060a01b0360208501511660408401526040840151606084015260608401516080840152608084015160a08401528091505092915050565b600061ffff80831681851680830382111561258157612581612686565b01949350505050565b6000821982111561259d5761259d612686565b500190565b6000826125bd57634e487b7160e01b81526012600452602481fd5b500490565b60008160001904831182151516156125dc576125dc612686565b500290565b600061ffff838116908316818110156125fc576125fc612686565b039392505050565b60008282101561261657612616612686565b500390565b60005b8381101561263657818101518382015260200161261e565b83811115612645576000848401525b50505050565b600181811c9082168061265f57607f821691505b6020821081141561268057634e487b7160e01b600052602260045260246000fd5b50919050565b634e487b7160e01b600052601160045260246000fd5b634e487b7160e01b600052604160045260246000fd5b801515811461176057600080fdfea26469706673582212203cbf78edd5de38b58187620cb165ff26e00c0033b72a9e25da0476a11e19c5e564736f6c63430008040033",
  "linkReferences": {},
  "deployedLinkReferences": {}
}