{
  "abi": [
    {
      "inputs": [
        {
          "internalType": "address",
          "name": "strategy",
          "type": "address"
        }
      ],
      "stateMutability": "nonpayable",
      "type": "constructor"
    },
    {
      "inputs": [
        {
          "internalType": "address",
          "name": "who",
          "type": "address"
        }
      ],
      "name": "balanceOf",
      "outputs": [
        {
          "internalType": "uint256",
          "name": "",
          "type": "uint256"
        }
      ],
      "stateMutability": "pure",
      "type": "function"
    },
    {
      "inputs": [
        {
          "internalType": "uint256",
          "name": "_amount",
          "type": "uint256"
        }
      ],
      "name": "deposit",
      "outputs": [],
      "stateMutability": "nonpayable",
      "type": "function"
    },
    {
      "inputs": [],
      "name": "getPricePerFullShare",
      "outputs": [
        {
          "internalType": "uint256",
          "name": "",
          "type": "uint256"
        }
      ],
      "stateMutability": "pure",
      "type": "function"
    },
    {
      "inputs": [
        {
          "internalType": "uint256",
          "name": "amount",
          "type": "uint256"
        }
      ],
      "name": "withdraw",
      "outputs": [],
      "stateMutability": "nonpayable",
      "type": "function"
    }
  ],
  "bytecode": {
    "object": "0x608060405234801561001057600080fd5b5060405161017438038061017483398101604081905261002f91610035565b50610065565b60006020828403121561004757600080fd5b81516001600160a01b038116811461005e57600080fd5b9392505050565b610100806100746000396000f3fe6080604052348015600f57600080fd5b506004361060465760003560e01c80632e1a7d4d14604b57806370a0823114605b57806377c7b8fc14607e578063b6b55f2514604b575b600080fd5b605960563660046084565b50565b005b606c6066366004609c565b50600190565b60405190815260200160405180910390f35b6001606c565b600060208284031215609557600080fd5b5035919050565b60006020828403121560ad57600080fd5b81356001600160a01b038116811460c357600080fd5b939250505056fea2646970667358221220401ae16156b9f023c4220a161460a37fe2ca5024c3a7cd0d946286bb9b06834364736f6c634300080a0033",
    "linkReferences": {}
  }
}