{
  "abi": [
    {
      "anonymous": false,
      "inputs": [
        {
          "indexed": true,
          "internalType": "address",
          "name": "owner",
          "type": "address"
        },
        {
          "indexed": true,
          "internalType": "address",
          "name": "spender",
          "type": "address"
        },
        {
          "indexed": true,
          "internalType": "uint256",
          "name": "id",
          "type": "uint256"
        }
      ],
      "name": "Approval",
      "type": "event"
    },
    {
      "anonymous": false,
      "inputs": [
        {
          "indexed": true,
          "internalType": "address",
          "name": "owner",
          "type": "address"
        },
        {
          "indexed": true,
          "internalType": "address",
          "name": "operator",
          "type": "address"
        },
        {
          "indexed": false,
          "internalType": "bool",
          "name": "approved",
          "type": "bool"
        }
      ],
      "name": "ApprovalForAll",
      "type": "event"
    },
    {
      "anonymous": false,
      "inputs": [
        {
          "indexed": false,
          "internalType": "address",
          "name": "userAddress",
          "type": "address"
        },
        {
          "indexed": false,
          "internalType": "address payable",
          "name": "relayerAddress",
          "type": "address"
        },
        {
          "indexed": false,
          "internalType": "bytes",
          "name": "functionSignature",
          "type": "bytes"
        }
      ],
      "name": "MetaTransactionExecuted",
      "type": "event"
    },
    {
      "anonymous": false,
      "inputs": [
        {
          "indexed": true,
          "internalType": "address",
          "name": "from",
          "type": "address"
        },
        {
          "indexed": true,
          "internalType": "address",
          "name": "to",
          "type": "address"
        },
        {
          "indexed": true,
          "internalType": "uint256",
          "name": "id",
          "type": "uint256"
        }
      ],
      "name": "Transfer",
      "type": "event"
    },
    {
      "inputs": [
        {
          "internalType": "address",
          "name": "spender",
          "type": "address"
        },
        {
          "internalType": "uint256",
          "name": "id",
          "type": "uint256"
        }
      ],
      "name": "approve",
      "outputs": [],
      "stateMutability": "nonpayable",
      "type": "function"
    },
    {
      "inputs": [
        {
          "internalType": "address",
          "name": "",
          "type": "address"
        }
      ],
      "name": "balanceOf",
      "outputs": [
        {
          "internalType": "uint256",
          "name": "",
          "type": "uint256"
        }
      ],
      "stateMutability": "view",
      "type": "function"
    },
    {
      "inputs": [
        {
          "internalType": "string",
          "name": "_name",
          "type": "string"
        },
        {
          "internalType": "string",
          "name": "_symbol",
          "type": "string"
        },
        {
          "internalType": "address",
          "name": "_token",
          "type": "address"
        },
        {
          "internalType": "address",
          "name": "strategy",
          "type": "address"
        }
      ],
      "name": "baseInit",
      "outputs": [],
      "stateMutability": "nonpayable",
      "type": "function"
    },
    {
      "inputs": [
        {
          "internalType": "uint256",
          "name": "id",
          "type": "uint256"
        }
      ],
      "name": "burnNFTAndWithdraw",
      "outputs": [],
      "stateMutability": "nonpayable",
      "type": "function"
    },
    {
      "inputs": [],
      "name": "claimJackpot",
      "outputs": [],
      "stateMutability": "nonpayable",
      "type": "function"
    },
    {
      "inputs": [],
      "name": "ctx",
      "outputs": [
        {
          "internalType": "uint16",
          "name": "jackpotBP",
          "type": "uint16"
        },
        {
          "internalType": "uint16",
          "name": "dividendsBP",
          "type": "uint16"
        },
        {
          "internalType": "uint16",
          "name": "timeDecay",
          "type": "uint16"
        },
        {
          "internalType": "uint16",
          "name": "growthFactor",
          "type": "uint16"
        },
        {
          "internalType": "uint16",
          "name": "vaultType",
          "type": "uint16"
        }
      ],
      "stateMutability": "view",
      "type": "function"
    },
    {
      "inputs": [],
      "name": "currentId",
      "outputs": [
        {
          "internalType": "uint256",
          "name": "",
          "type": "uint256"
        }
      ],
      "stateMutability": "view",
      "type": "function"
    },
    {
      "inputs": [],
      "name": "deadline",
      "outputs": [
        {
          "internalType": "uint256",
          "name": "",
          "type": "uint256"
        }
      ],
      "stateMutability": "view",
      "type": "function"
    },
    {
      "inputs": [
        {
          "internalType": "uint256",
          "name": "amount",
          "type": "uint256"
        },
        {
          "internalType": "uint256",
          "name": "id",
          "type": "uint256"
        }
      ],
      "name": "depositToId",
      "outputs": [],
      "stateMutability": "nonpayable",
      "type": "function"
    },
    {
      "inputs": [
        {
          "internalType": "uint256",
          "name": "",
          "type": "uint256"
        }
      ],
      "name": "deposits",
      "outputs": [
        {
          "internalType": "uint256",
          "name": "amount",
          "type": "uint256"
        },
        {
          "internalType": "uint256",
          "name": "tracker",
          "type": "uint256"
        }
      ],
      "stateMutability": "view",
      "type": "function"
    },
    {
      "inputs": [],
      "name": "distributeYield",
      "outputs": [],
      "stateMutability": "nonpayable",
      "type": "function"
    },
    {
      "inputs": [
        {
          "internalType": "address",
          "name": "userAddress",
          "type": "address"
        },
        {
          "internalType": "bytes",
          "name": "functionSignature",
          "type": "bytes"
        },
        {
          "internalType": "bytes32",
          "name": "sigR",
          "type": "bytes32"
        },
        {
          "internalType": "bytes32",
          "name": "sigS",
          "type": "bytes32"
        },
        {
          "internalType": "uint8",
          "name": "sigV",
          "type": "uint8"
        }
      ],
      "name": "executeMetaTransaction",
      "outputs": [
        {
          "internalType": "bytes",
          "name": "",
          "type": "bytes"
        }
      ],
      "stateMutability": "payable",
      "type": "function"
    },
    {
      "inputs": [
        {
          "internalType": "uint256",
          "name": "",
          "type": "uint256"
        }
      ],
      "name": "getApproved",
      "outputs": [
        {
          "internalType": "address",
          "name": "",
          "type": "address"
        }
      ],
      "stateMutability": "view",
      "type": "function"
    },
    {
      "inputs": [],
      "name": "getChainID",
      "outputs": [
        {
          "internalType": "uint256",
          "name": "",
          "type": "uint256"
        }
      ],
      "stateMutability": "view",
      "type": "function"
    },
    {
      "inputs": [
        {
          "internalType": "address",
          "name": "user",
          "type": "address"
        }
      ],
      "name": "getNonce",
      "outputs": [
        {
          "internalType": "uint256",
          "name": "nonce",
          "type": "uint256"
        }
      ],
      "stateMutability": "view",
      "type": "function"
    },
    {
      "inputs": [
        {
          "internalType": "address",
          "name": "_vaultToken",
          "type": "address"
        },
        {
          "internalType": "address",
          "name": "_strategy",
          "type": "address"
        },
        {
          "internalType": "uint16",
          "name": "_jackpotBP",
          "type": "uint16"
        },
        {
          "internalType": "uint16",
          "name": "_dividendsBP",
          "type": "uint16"
        },
        {
          "internalType": "uint256",
          "name": "_minimumPrice",
          "type": "uint256"
        },
        {
          "internalType": "uint256",
          "name": "_intialTimeSeconds",
          "type": "uint256"
        },
        {
          "internalType": "uint16",
          "name": "_timeDecay",
          "type": "uint16"
        },
        {
          "internalType": "uint16",
          "name": "_growthFactor",
          "type": "uint16"
        },
        {
          "internalType": "string",
          "name": "_name",
          "type": "string"
        },
        {
          "internalType": "string",
          "name": "_symbol",
          "type": "string"
        }
      ],
      "name": "init",
      "outputs": [],
      "stateMutability": "nonpayable",
      "type": "function"
    },
    {
      "inputs": [],
      "name": "initStrat",
      "outputs": [],
      "stateMutability": "nonpayable",
      "type": "function"
    },
    {
      "inputs": [
        {
          "internalType": "address",
          "name": "",
          "type": "address"
        },
        {
          "internalType": "address",
          "name": "",
          "type": "address"
        }
      ],
      "name": "isApprovedForAll",
      "outputs": [
        {
          "internalType": "bool",
          "name": "",
          "type": "bool"
        }
      ],
      "stateMutability": "view",
      "type": "function"
    },
    {
      "inputs": [],
      "name": "jackpot",
      "outputs": [
        {
          "internalType": "uint256",
          "name": "",
          "type": "uint256"
        }
      ],
      "stateMutability": "view",
      "type": "function"
    },
    {
      "inputs": [],
      "name": "lastDepositer",
      "outputs": [
        {
          "internalType": "address",
          "name": "",
          "type": "address"
        }
      ],
      "stateMutability": "view",
      "type": "function"
    },
    {
      "inputs": [],
      "name": "minimumPrice",
      "outputs": [
        {
          "internalType": "uint256",
          "name": "",
          "type": "uint256"
        }
      ],
      "stateMutability": "view",
      "type": "function"
    },
    {
      "inputs": [
        {
          "internalType": "uint256",
          "name": "amount",
          "type": "uint256"
        }
      ],
      "name": "mintNewNft",
      "outputs": [
        {
          "internalType": "uint256",
          "name": "",
          "type": "uint256"
        }
      ],
      "stateMutability": "nonpayable",
      "type": "function"
    },
    {
      "inputs": [],
      "name": "name",
      "outputs": [
        {
          "internalType": "string",
          "name": "",
          "type": "string"
        }
      ],
      "stateMutability": "view",
      "type": "function"
    },
    {
      "inputs": [
        {
          "internalType": "uint256",
          "name": "",
          "type": "uint256"
        }
      ],
      "name": "ownerOf",
      "outputs": [
        {
          "internalType": "address",
          "name": "",
          "type": "address"
        }
      ],
      "stateMutability": "view",
      "type": "function"
    },
    {
      "inputs": [
        {
          "internalType": "address",
          "name": "operator",
          "type": "address"
        },
        {
          "internalType": "bool",
          "name": "approved",
          "type": "bool"
        }
      ],
      "name": "setApprovalForAll",
      "outputs": [],
      "stateMutability": "nonpayable",
      "type": "function"
    },
    {
      "inputs": [],
      "name": "strat",
      "outputs": [
        {
          "internalType": "contract IStrategy",
          "name": "",
          "type": "address"
        }
      ],
      "stateMutability": "view",
      "type": "function"
    },
    {
      "inputs": [
        {
          "internalType": "bytes4",
          "name": "interfaceId",
          "type": "bytes4"
        }
      ],
      "name": "supportsInterface",
      "outputs": [
        {
          "internalType": "bool",
          "name": "",
          "type": "bool"
        }
      ],
      "stateMutability": "pure",
      "type": "function"
    },
    {
      "inputs": [],
      "name": "symbol",
      "outputs": [
        {
          "internalType": "string",
          "name": "",
          "type": "string"
        }
      ],
      "stateMutability": "view",
      "type": "function"
    },
    {
      "inputs": [
        {
          "internalType": "uint256",
          "name": "id",
          "type": "uint256"
        }
      ],
      "name": "tokenURI",
      "outputs": [
        {
          "components": [
            {
              "internalType": "string",
              "name": "name",
              "type": "string"
            },
            {
              "internalType": "address",
              "name": "vaultAddress",
              "type": "address"
            },
            {
              "internalType": "uint256",
              "name": "withdrawable",
              "type": "uint256"
            },
            {
              "internalType": "uint256",
              "name": "id",
              "type": "uint256"
            },
            {
              "internalType": "uint256",
              "name": "vaultType",
              "type": "uint256"
            }
          ],
          "internalType": "struct BaseVault.MetaData",
          "name": "",
          "type": "tuple"
        }
      ],
      "stateMutability": "view",
      "type": "function"
    },
    {
      "inputs": [],
      "name": "totalDeposits",
      "outputs": [
        {
          "internalType": "uint256",
          "name": "",
          "type": "uint256"
        }
      ],
      "stateMutability": "view",
      "type": "function"
    },
    {
      "inputs": [
        {
          "internalType": "address",
          "name": "from",
          "type": "address"
        },
        {
          "internalType": "address",
          "name": "to",
          "type": "address"
        },
        {
          "internalType": "uint256",
          "name": "id",
          "type": "uint256"
        }
      ],
      "name": "transferFrom",
      "outputs": [],
      "stateMutability": "nonpayable",
      "type": "function"
    },
    {
      "inputs": [],
      "name": "vaultToken",
      "outputs": [
        {
          "internalType": "contract ERC20",
          "name": "",
          "type": "address"
        }
      ],
      "stateMutability": "view",
      "type": "function"
    },
    {
      "inputs": [
        {
          "internalType": "address",
          "name": "owner",
          "type": "address"
        },
        {
          "internalType": "uint256",
          "name": "nonce",
          "type": "uint256"
        },
        {
          "internalType": "uint256",
          "name": "chainID",
          "type": "uint256"
        },
        {
          "internalType": "bytes",
          "name": "functionSignature",
          "type": "bytes"
        },
        {
          "internalType": "bytes32",
          "name": "sigR",
          "type": "bytes32"
        },
        {
          "internalType": "bytes32",
          "name": "sigS",
          "type": "bytes32"
        },
        {
          "internalType": "uint8",
          "name": "sigV",
          "type": "uint8"
        }
      ],
      "name": "verify",
      "outputs": [
        {
          "internalType": "bool",
          "name": "",
          "type": "bool"
        }
      ],
      "stateMutability": "view",
      "type": "function"
    },
    {
      "inputs": [
        {
          "internalType": "uint256",
          "name": "amount",
          "type": "uint256"
        },
        {
          "internalType": "uint256",
          "name": "id",
          "type": "uint256"
        }
      ],
      "name": "withdrawFromId",
      "outputs": [],
      "stateMutability": "nonpayable",
      "type": "function"
    },
    {
      "inputs": [
        {
          "internalType": "uint256",
          "name": "id",
          "type": "uint256"
        }
      ],
      "name": "withdrawableById",
      "outputs": [
        {
          "internalType": "uint256",
          "name": "claimId",
          "type": "uint256"
        }
      ],
      "stateMutability": "view",
      "type": "function"
    },
    {
      "inputs": [],
      "name": "yieldPerDeposit",
      "outputs": [
        {
          "internalType": "uint256",
          "name": "",
          "type": "uint256"
        }
      ],
      "stateMutability": "view",
      "type": "function"
    },
    {
      "inputs": [
        {
          "internalType": "uint256",
          "name": "id",
          "type": "uint256"
        }
      ],
      "name": "yieldPerId",
      "outputs": [
        {
          "internalType": "uint256",
          "name": "",
          "type": "uint256"
        }
      ],
      "stateMutability": "view",
      "type": "function"
    }
  ],
  "bytecode": {
    "object": "0x6080604052600160035534801561001557600080fd5b50612956806100256000396000f3fe60806040526004361061021a5760003560e01c80636281133d116101235780638a570a12116100ab578063e00dd1611161006f578063e00dd161146106da578063e288ea64146106f0578063e985e9c514610705578063eaaf1fca14610740578063f60fabe51461076057600080fd5b80638a570a121461061a57806395d89b411461062f578063a22cb46514610644578063b02c43d014610664578063c87b56dd146106ad57600080fd5b80636d43d9f1116100f25780636d43d9f114610581578063703bafd5146105a157806370a08231146105c15780637d882097146105ee5780637f386b6c1461060457600080fd5b80636281133d146104f55780636352211e146105155780636b31ee011461054b5780636c9980e11461056157600080fd5b806323b872dd116101a65780632d0335ab116101755780632d0335ab1461045757806334d894c91461048d57806340229cbb146104a25780634b6d69d3146104c2578063564b81ef146104e257600080fd5b806323b872dd1461038757806323edc94d146103a7578063277838df146103c757806329dcb0cf1461044157600080fd5b8063095ea7b3116101ed578063095ea7b3146102e45780630c53c51c14610306578063159b4962146103195780631ab2f6af146103395780631e86a9dc1461036757600080fd5b806301ffc9a71461021f578063059b2a101461025457806306fdde031461028c578063081812fc146102ae575b600080fd5b34801561022b57600080fd5b5061023f61023a3660046121bb565b610776565b60405190151581526020015b60405180910390f35b34801561026057600080fd5b50601154610274906001600160a01b031681565b6040516001600160a01b03909116815260200161024b565b34801561029857600080fd5b506102a16107c8565b60405161024b9190612241565b3480156102ba57600080fd5b506102746102c9366004612254565b6006602052600090815260409020546001600160a01b031681565b3480156102f057600080fd5b506103046102ff366004612289565b610856565b005b6102a1610314366004612367565b61093d565b34801561032557600080fd5b506103046103343660046123d9565b610ae8565b34801561034557600080fd5b50610359610354366004612254565b610c27565b60405190815260200161024b565b34801561037357600080fd5b50601754610274906001600160a01b031681565b34801561039357600080fd5b506103046103a23660046123fb565b610c8d565b3480156103b357600080fd5b506103046103c2366004612449565b610e54565b3480156103d357600080fd5b5060125461040c9061ffff808216916201000081048216916401000000008204811691600160301b8104821691600160401b9091041685565b6040805161ffff968716815294861660208601529285169284019290925283166060830152909116608082015260a00161024b565b34801561044d57600080fd5b5061035960145481565b34801561046357600080fd5b50610359610472366004612526565b6001600160a01b031660009081526008602052604090205490565b34801561049957600080fd5b50610304610f39565b3480156104ae57600080fd5b506103046104bd366004612254565b6110d7565b3480156104ce57600080fd5b506103596104dd366004612254565b6110fb565b3480156104ee57600080fd5b5046610359565b34801561050157600080fd5b5061023f610510366004612541565b6112a6565b34801561052157600080fd5b50610274610530366004612254565b6005602052600090815260409020546001600160a01b031681565b34801561055757600080fd5b5061035960155481565b34801561056d57600080fd5b5061030461057c3660046125c6565b6113ee565b34801561058d57600080fd5b5061035961059c366004612254565b61147b565b3480156105ad57600080fd5b50600f54610274906001600160a01b031681565b3480156105cd57600080fd5b506103596105dc366004612526565b60046020526000908152604090205481565b3480156105fa57600080fd5b50610359600b5481565b34801561061057600080fd5b5061035960135481565b34801561062657600080fd5b5061030461149f565b34801561063b57600080fd5b506102a161162a565b34801561065057600080fd5b5061030461065f366004612659565b611637565b34801561067057600080fd5b5061069861067f366004612254565b6009602052600090815260409020805460019091015482565b6040805192835260208301919091520161024b565b3480156106b957600080fd5b506106cd6106c8366004612254565b6116a3565b60405161024b9190612690565b3480156106e657600080fd5b5061035960035481565b3480156106fc57600080fd5b506103046117a0565b34801561071157600080fd5b5061023f6107203660046126e8565b600760209081526000928352604080842090915290825290205460ff1681565b34801561074c57600080fd5b5061030461075b3660046123d9565b61182e565b34801561076c57600080fd5b50610359600a5481565b60006301ffc9a760e01b6001600160e01b0319831614806107a757506380ac58cd60e01b6001600160e01b03198316145b806107c25750635b5e139f60e01b6001600160e01b03198316145b92915050565b600080546107d59061271b565b80601f01602080910402602001604051908101604052809291908181526020018280546108019061271b565b801561084e5780601f106108235761010080835404028352916020019161084e565b820191906000526020600020905b81548152906001019060200180831161083157829003601f168201915b505050505081565b6000818152600560205260409020546001600160a01b03163381148061089f57506001600160a01b038116600090815260076020908152604080832033845290915290205460ff165b6108e15760405162461bcd60e51b815260206004820152600e60248201526d1393d517d055551213d49256915160921b60448201526064015b60405180910390fd5b60008281526006602052604080822080546001600160a01b0319166001600160a01b0387811691821790925591518593918516917f8c5be1e5ebec7d5bd14f71427d1e84f3dd0314c0f7b2291e5b200ac8c7c3b92591a4505050565b6001600160a01b03851660009081526008602052604090205460609061096990879046888888886112a6565b6109bf5760405162461bcd60e51b815260206004820152602160248201527f5369676e657220616e64207369676e617475726520646f206e6f74206d6174636044820152600d60fb1b60648201526084016108d8565b6001600160a01b03861660009081526008602090815260408083208054600101905551829130916109f4918a918c9101612756565b60408051601f1981840301815290829052610a0e9161278d565b6000604051808303816000865af19150503d8060008114610a4b576040519150601f19603f3d011682016040523d82523d6000602084013e610a50565b606091505b509150915081610aa25760405162461bcd60e51b815260206004820152601c60248201527f46756e6374696f6e2063616c6c206e6f74207375636365737366756c0000000060448201526064016108d8565b7f5845892132946850460bff5a0083f71031bc5bf9aadcd40f1de79423eac9b10b883389604051610ad5939291906127a9565b60405180910390a1979650505050505050565b6000818152600560205260409020546001600160a01b031633148015610b1057506013548210155b8015610b1e57506014544211155b610b2757600080fd5b6040805160a08101825260125461ffff80821683526201000082048116602084018190526401000000008304821694840194909452600160301b820481166060840152600160401b90910416608082015290610b9a9061271090610b8b90866127eb565b610b95919061280a565b611883565b805161271090610bae9061ffff16856127eb565b610bb8919061280a565b60156000828254610bc9919061282c565b909155505060208101518151600091610be191612844565b610bed9061271061286a565b61ffff1690506000612710610c0283876127eb565b610c0c919061280a565b9050610c166118b8565b610c208185611955565b5050505050565b600a54600082815260096020526040812054909182916402540be40091610c4d916127eb565b610c57919061280a565b600084815260096020526040902060010154909150610c7c906402540be4009061280a565b610c86908261288d565b9392505050565b6000818152600560205260409020546001600160a01b03848116911614610ce35760405162461bcd60e51b815260206004820152600a60248201526957524f4e475f46524f4d60b01b60448201526064016108d8565b6001600160a01b038216610d2d5760405162461bcd60e51b81526020600482015260116024820152701253959053125117d49150d25412515395607a1b60448201526064016108d8565b336001600160a01b0384161480610d5a57506000818152600660205260409020546001600160a01b031633145b80610d8857506001600160a01b038316600090815260076020908152604080832033845290915290205460ff165b610dc55760405162461bcd60e51b815260206004820152600e60248201526d1393d517d055551213d49256915160921b60448201526064016108d8565b6001600160a01b0380841660008181526004602090815260408083208054600019019055938616808352848320805460010190558583526005825284832080546001600160a01b03199081168317909155600690925284832080549092169091559251849392917fddf252ad1be2c89b69c2b068fc378daa952ba7f163c4a11628f55a4df523b3ef91a4505050565b612710610e61888a612844565b61ffff161115610e7057600080fd5b610e7c82828c8c6113ee565b6040805160a08101825261ffff8a81168083528a8216602084018190528883169484018590529187166060840181905260046080909401939093526012805463ffffffff1916909117620100009092029190911767ffffffff00000000191664010000000090930267ffff000000000000191692909217600160301b9091021769ffff000000000000000019166804000000000000000017905560138690556016859055610f2a854261282c565b60145550505050505050505050565b6011546001600160a01b0316610f7f5760405162461bcd60e51b815260206004820152600b60248201526a4e6f20537472617465677960a81b60448201526064016108d8565b6000612710600b54611388610f9491906127eb565b610f9e919061280a565b90506000600e5482610fb0919061288d565b905080600e6000828254610fc4919061282c565b9250508190555080600d6000828254610fdd919061282c565b9250508190555080600c6000828254610ff6919061288d565b9091555050600f5460115460405163095ea7b360e01b81526001600160a01b0391821660048201526024810184905291169063095ea7b3906044016020604051808303816000875af1158015611050573d6000803e3d6000fd5b505050506040513d601f19601f8201168201806040525081019061107491906128a4565b5060115460405163b6b55f2560e01b8152600481018390526001600160a01b039091169063b6b55f2590602401600060405180830381600087803b1580156110bb57600080fd5b505af11580156110cf573d6000803e3d6000fd5b505050505050565b60006110e28261147b565b90506110ee8183611ab0565b6110f782611d0e565b5050565b6000601354821015801561111157506014544211155b61115d5760405162461bcd60e51b815260206004820152601b60248201527f556e646572706169642c206f72207061737420646561646c696e65000000000060448201526064016108d8565b6040805160a08101825260125461ffff8082168084526201000083048216602085018190526401000000008404831695850195909552600160301b830482166060850152600160401b90920416608083015290916000916111be9190612844565b6111ca9061271061286a565b61ffff16905060006127106111df83876127eb565b6111e9919061280a565b90506001600354111561124a57611210612710846020015161ffff1687610b8b91906127eb565b8251612710906112249061ffff16876127eb565b61122e919061280a565b6015600082825461123f919061282c565b9091555061127a9050565b602083015183516127109161125e91612844565b61126c9061ffff16876127eb565b611276919061280a565b6015555b601780546001600160a01b031916331790556112946118b8565b61129d81611ddb565b95945050505050565b600080611323883089896040516020016112c394939291906128c1565b60408051601f1981840301815282825280516020918201207f19457468657265756d205369676e6564204d6573736167653a0a33320000000084830152603c8085019190915282518085039091018152605c909301909152815191012090565b6040805160008082526020820180845284905260ff87169282019290925260608101889052608081018790529192509060019060a0016020604051602081039080840390855afa15801561137b573d6000803e3d6000fd5b5050604051601f1901519150506001600160a01b0381166113d25760405162461bcd60e51b8152602060048201526011602482015270496e76616c6964207369676e617475726560781b60448201526064016108d8565b6001600160a01b038a8116911614915050979650505050505050565b601054156114345760405162461bcd60e51b8152602060048201526013602482015272105b1c9958591e48125b9a5d1a585b1a5e9959606a1b60448201526064016108d8565b61143e8484611f11565b601180546001600160a01b039283166001600160a01b031991821617909155600f8054939092169216919091179055505060016003819055601055565b600061148682610c27565b6000838152600960205260409020546107c2919061282c565b600c54600f546040516370a0823160e01b8152306004820152600092916001600160a01b0316906370a0823190602401602060405180830381865afa1580156114ec573d6000803e3d6000fd5b505050506040513d601f19601f820116820180604052508101906115109190612907565b61151a919061288d565b905080600c600082825461152e919061282c565b90915550506011546000906001600160a01b031661154d5760006115d1565b600d54601160009054906101000a90046001600160a01b03166001600160a01b031663192366376040518163ffffffff1660e01b8152600401602060405180830381865afa1580156115a3573d6000803e3d6000fd5b505050506040513d601f19601f820116820180604052508101906115c79190612907565b6115d1919061288d565b905080600d60008282546115e5919061282c565b9091555050600b546115f7828461282c565b611606906402540be4006127eb565b611610919061280a565b600a6000828254611621919061282c565b90915550505050565b600180546107d59061271b565b3360008181526007602090815260408083206001600160a01b03871680855290835292819020805460ff191686151590811790915590519081529192917f17307eab39ab6107e8899845ad3d59bd9653f200f220920489ca2b5937696c31910160405180910390a35050565b6116de6040518060a001604052806060815260200160006001600160a01b031681526020016000815260200160008152602001600081525090565b6040518060a00160405280600080546116f69061271b565b80601f01602080910402602001604051908101604052809291908181526020018280546117229061271b565b801561176f5780601f106117445761010080835404028352916020019161176f565b820191906000526020600020905b81548152906001019060200180831161175257829003601f168201915b50505091835250503060208201526040016117898461147b565b815260200183815260200160008152509050919050565b60145442116117ae57600080fd5b600f5460175460155460405163a9059cbb60e01b81526001600160a01b039283166004820152602481019190915291169063a9059cbb906044016020604051808303816000875af1158015611807573d6000803e3d6000fd5b505050506040513d601f19601f8201168201806040525081019061182b91906128a4565b50565b60006118398261147b565b90508083146118755760405162461bcd60e51b81526020600482015260086024820152672ab9b290313ab93760c11b60448201526064016108d8565b61187e826110d7565b505050565b600b54611895826402540be4006127eb565b61189f919061280a565b600a60008282546118b0919061282c565b909155505050565b601254601654612710916118d99164010000000090910461ffff16906127eb565b6118e3919061280a565b601660008282546118f4919061288d565b90915550506016546014805460009061190e90849061282c565b90915550506012546013546127109161193391600160301b90910461ffff16906127eb565b61193d919061280a565b6013600082825461194e919061282c565b9091555050565b6000818152600560205260409020546001600160a01b0316611975611f38565b6001600160a01b03161461198857600080fd5b600b54156119985761199861149f565b600081815260096020526040812080548492906119b690849061282c565b9091555050600a546119c890836127eb565b600082815260096020526040812060010180549091906119e990849061282c565b9250508190555081600b6000828254611a02919061282c565b9250508190555081600c6000828254611a1b919061282c565b9091555050600f546001600160a01b03166323b872dd611a39611f38565b6040516001600160e01b031960e084901b1681526001600160a01b039091166004820152306024820152604481018590526064016020604051808303816000875af1158015611a8c573d6000803e3d6000fd5b505050506040513d601f19601f8201168201806040525081019061187e91906128a4565b611ab861149f565b6000818152600560205260409020546001600160a01b0316611ad8611f38565b6001600160a01b0316148015611af65750611af28161147b565b8211155b611aff57600080fd5b600f546040516370a0823160e01b81523060048201526000916001600160a01b0316906370a0823190602401602060405180830381865afa158015611b48573d6000803e3d6000fd5b505050506040513d601f19601f82011682018060405250810190611b6c9190612907565b9050600080611b7a84610c27565b905080851115611c0257611b8e818661288d565b600085815260096020526040812080549294508492909190611bb190849061288d565b9250508190555081600b6000828254611bca919061288d565b9091555050600a54600085815260096020526040902054611beb91906127eb565b600085815260096020526040902060010155611c38565b611c11856402540be4006127eb565b60008581526009602052604081206001018054909190611c3290849061282c565b90915550505b6000838611611c48576000611c52565b611c52848761288d565b90508015611c7b57611c6381611f97565b82600e6000828254611c75919061288d565b90915550505b600f546001600160a01b031663a9059cbb611c94611f38565b6040516001600160e01b031960e084901b1681526001600160a01b039091166004820152602481018990526044016020604051808303816000875af1158015611ce1573d6000803e3d6000fd5b505050506040513d601f19601f82011682018060405250810190611d0591906128a4565b50505050505050565b6000818152600560205260409020546001600160a01b031680611d605760405162461bcd60e51b815260206004820152600a6024820152691393d517d3525395115160b21b60448201526064016108d8565b6001600160a01b038116600081815260046020908152604080832080546000190190558583526005825280832080546001600160a01b031990811690915560069092528083208054909216909155518492907fddf252ad1be2c89b69c2b068fc378daa952ba7f163c4a11628f55a4df523b3ef908390a45050565b600080611df1611de9611f38565b600354612007565b600b5490915015611e0457611e0461149f565b6000818152600960205260409020839055600a54611e2290846127eb565b60008281526009602052604081206001018054909190611e4390849061282c565b9250508190555082600b6000828254611e5c919061282c565b9250508190555082600c6000828254611e75919061282c565b9091555050600f546001600160a01b03166323b872dd611e93611f38565b6040516001600160e01b031960e084901b1681526001600160a01b039091166004820152306024820152604481018690526064016020604051808303816000875af1158015611ee6573d6000803e3d6000fd5b505050506040513d601f19601f82011682018060405250810190611f0a91906128a4565b5092915050565b8051611f24906001906020840190612122565b50815161187e906000906020850190612122565b600033301415611f8f57600080368080601f0160208091040260200160405190810160405280939291908181526020018383808284376000920191909152505050503601516001600160a01b03169150611f949050565b503390565b90565b601154604051632e1a7d4d60e01b8152600481018390526001600160a01b0390911690632e1a7d4d90602401600060405180830381600087803b158015611fdd57600080fd5b505af1158015611ff1573d6000803e3d6000fd5b5050505080600d60008282546118b0919061288d565b60006001600160a01b0383166120535760405162461bcd60e51b81526020600482015260116024820152701253959053125117d49150d25412515395607a1b60448201526064016108d8565b6000828152600560205260409020546001600160a01b0316156120a95760405162461bcd60e51b815260206004820152600e60248201526d1053149150511657d3525395115160921b60448201526064016108d8565b6001600160a01b038316600081815260046020908152604080832080546001908101909155600380549091019055858352600590915280822080546001600160a01b0319168417905551849291907fddf252ad1be2c89b69c2b068fc378daa952ba7f163c4a11628f55a4df523b3ef908290a450919050565b82805461212e9061271b565b90600052602060002090601f0160209004810192826121505760008555612196565b82601f1061216957805160ff1916838001178555612196565b82800160010185558215612196579182015b8281111561219657825182559160200191906001019061217b565b506121a29291506121a6565b5090565b5b808211156121a257600081556001016121a7565b6000602082840312156121cd57600080fd5b81356001600160e01b031981168114610c8657600080fd5b60005b838110156122005781810151838201526020016121e8565b8381111561220f576000848401525b50505050565b6000815180845261222d8160208601602086016121e5565b601f01601f19169290920160200192915050565b602081526000610c866020830184612215565b60006020828403121561226657600080fd5b5035919050565b80356001600160a01b038116811461228457600080fd5b919050565b6000806040838503121561229c57600080fd5b6122a58361226d565b946020939093013593505050565b634e487b7160e01b600052604160045260246000fd5b600082601f8301126122da57600080fd5b813567ffffffffffffffff808211156122f5576122f56122b3565b604051601f8301601f19908116603f0116810190828211818310171561231d5761231d6122b3565b8160405283815286602085880101111561233657600080fd5b836020870160208301376000602085830101528094505050505092915050565b803560ff8116811461228457600080fd5b600080600080600060a0868803121561237f57600080fd5b6123888661226d565b9450602086013567ffffffffffffffff8111156123a457600080fd5b6123b0888289016122c9565b94505060408601359250606086013591506123cd60808701612356565b90509295509295909350565b600080604083850312156123ec57600080fd5b50508035926020909101359150565b60008060006060848603121561241057600080fd5b6124198461226d565b92506124276020850161226d565b9150604084013590509250925092565b803561ffff8116811461228457600080fd5b6000806000806000806000806000806101408b8d03121561246957600080fd5b6124728b61226d565b995061248060208c0161226d565b985061248e60408c01612437565b975061249c60608c01612437565b965060808b0135955060a08b013594506124b860c08c01612437565b93506124c660e08c01612437565b92506101008b013567ffffffffffffffff808211156124e457600080fd5b6124f08e838f016122c9565b93506101208d013591508082111561250757600080fd5b506125148d828e016122c9565b9150509295989b9194979a5092959850565b60006020828403121561253857600080fd5b610c868261226d565b600080600080600080600060e0888a03121561255c57600080fd5b6125658861226d565b96506020880135955060408801359450606088013567ffffffffffffffff81111561258f57600080fd5b61259b8a828b016122c9565b9450506080880135925060a088013591506125b860c08901612356565b905092959891949750929550565b600080600080608085870312156125dc57600080fd5b843567ffffffffffffffff808211156125f457600080fd5b612600888389016122c9565b9550602087013591508082111561261657600080fd5b50612623878288016122c9565b9350506126326040860161226d565b91506126406060860161226d565b905092959194509250565b801515811461182b57600080fd5b6000806040838503121561266c57600080fd5b6126758361226d565b915060208301356126858161264b565b809150509250929050565b602081526000825160a060208401526126ac60c0840182612215565b905060018060a01b0360208501511660408401526040840151606084015260608401516080840152608084015160a08401528091505092915050565b600080604083850312156126fb57600080fd5b6127048361226d565b91506127126020840161226d565b90509250929050565b600181811c9082168061272f57607f821691505b6020821081141561275057634e487b7160e01b600052602260045260246000fd5b50919050565b600083516127688184602088016121e5565b60609390931b6bffffffffffffffffffffffff19169190920190815260140192915050565b6000825161279f8184602087016121e5565b9190910192915050565b6001600160a01b0384811682528316602082015260606040820181905260009061129d90830184612215565b634e487b7160e01b600052601160045260246000fd5b6000816000190483118215151615612805576128056127d5565b500290565b60008261282757634e487b7160e01b600052601260045260246000fd5b500490565b6000821982111561283f5761283f6127d5565b500190565b600061ffff808316818516808303821115612861576128616127d5565b01949350505050565b600061ffff83811690831681811015612885576128856127d5565b039392505050565b60008282101561289f5761289f6127d5565b500390565b6000602082840312156128b657600080fd5b8151610c868161264b565b8481526bffffffffffffffffffffffff198460601b166020820152826034820152600082516128f78160548501602087016121e5565b9190910160540195945050505050565b60006020828403121561291957600080fd5b505191905056fea26469706673582212205191e6a5932b84c928d9143ba6a380bdd5bfb82cde719726685d4a2b2984b7e364736f6c634300080a0033",
    "linkReferences": {}
  }
}