{
  "_format": "hh-sol-artifact-1",
  "contractName": "YearnStrategy",
  "sourceName": "contracts/src/strategies/ExampleYearnStrat.sol",
  "abi": [
    {
      "inputs": [
        {
          "internalType": "address",
          "name": "_yVault",
          "type": "address"
        },
        {
          "internalType": "address",
          "name": "_token",
          "type": "address"
        }
      ],
      "stateMutability": "nonpayable",
      "type": "constructor"
    },
    {
      "inputs": [
        {
          "internalType": "uint256",
          "name": "amount",
          "type": "uint256"
        }
      ],
      "name": "deposit",
      "outputs": [],
      "stateMutability": "nonpayable",
      "type": "function"
    },
    {
      "inputs": [
        {
          "internalType": "address",
          "name": "_vault",
          "type": "address"
        }
      ],
      "name": "initVault",
      "outputs": [],
      "stateMutability": "nonpayable",
      "type": "function"
    },
    {
      "inputs": [
        {
          "internalType": "uint256",
          "name": "tokenAmount",
          "type": "uint256"
        }
      ],
      "name": "withdrawl",
      "outputs": [],
      "stateMutability": "nonpayable",
      "type": "function"
    },
    {
      "inputs": [],
      "name": "withdrawlableVaultToken",
      "outputs": [
        {
          "internalType": "uint256",
          "name": "",
          "type": "uint256"
        }
      ],
      "stateMutability": "view",
      "type": "function"
    }
  ],
  "bytecode": "0x60a060405234801561001057600080fd5b5060405161077338038061077383398101604081905261002f91610083565b600080546001600160a01b039384166001600160a01b031991821617909155600180549290931691161790553360601b6080526100b5565b80516001600160a01b038116811461007e57600080fd5b919050565b60008060408385031215610095578182fd5b61009e83610067565b91506100ac60208401610067565b90509250929050565b60805160601c6106a16100d2600039600060b101526106a16000f3fe608060405234801561001057600080fd5b506004361061004c5760003560e01c80632ebe3fbb14610051578063460ffdae14610066578063b6b55f2514610080578063e4480dd814610093575b600080fd5b61006461005f3660046105a2565b6100a6565b005b61006e610112565b60405190815260200160405180910390f35b61006461008e3660046105f0565b61021f565b6100646100a13660046105f0565b61035d565b336001600160a01b037f0000000000000000000000000000000000000000000000000000000000000000161480156100e757506002546001600160a01b0316155b6100f057600080fd5b600280546001600160a01b0319166001600160a01b0392909216919091179055565b6000805460408051631df1ee3f60e21b8152905183926001600160a01b0316916377c7b8fc916004808301926020929190829003018186803b15801561015757600080fd5b505afa15801561016b573d6000803e3d6000fd5b505050506040513d601f19601f8201168201806040525081019061018f9190610608565b6000546040516370a0823160e01b815230600482015291925082916001600160a01b03909116906370a082319060240160206040518083038186803b1580156101d757600080fd5b505afa1580156101eb573d6000803e3d6000fd5b505050506040513d601f19601f8201168201806040525081019061020f9190610608565b6102199190610640565b91505090565b6002546001600160a01b0316331461026d5760405162461bcd60e51b815260206004820152600c60248201526b155b985d5d1a1bdc9a5e995960a21b60448201526064015b60405180910390fd5b6001546002546040516323b872dd60e01b81526001600160a01b039182166004820152306024820152604481018490529116906323b872dd90606401602060405180830381600087803b1580156102c357600080fd5b505af11580156102d7573d6000803e3d6000fd5b505050506040513d601f19601f820116820180604052508101906102fb91906105d0565b5060005460405163b6b55f2560e01b8152600481018390526001600160a01b039091169063b6b55f2590602401600060405180830381600087803b15801561034257600080fd5b505af1158015610356573d6000803e3d6000fd5b5050505050565b6002546001600160a01b031633146103a65760405162461bcd60e51b815260206004820152600c60248201526b155b985d5d1a1bdc9a5e995960a21b6044820152606401610264565b60008060009054906101000a90046001600160a01b03166001600160a01b03166377c7b8fc6040518163ffffffff1660e01b815260040160206040518083038186803b1580156103f557600080fd5b505afa158015610409573d6000803e3d6000fd5b505050506040513d601f19601f8201168201806040525081019061042d9190610608565b9050600061043b8284610620565b600054604051632e1a7d4d60e01b8152600481018390529192506001600160a01b031690632e1a7d4d90602401600060405180830381600087803b15801561048257600080fd5b505af1158015610496573d6000803e3d6000fd5b50506001546040516370a0823160e01b8152306004820152600093506001600160a01b0390911691506370a082319060240160206040518083038186803b1580156104e057600080fd5b505afa1580156104f4573d6000803e3d6000fd5b505050506040513d601f19601f820116820180604052508101906105189190610608565b60015460025460405163a9059cbb60e01b81526001600160a01b03918216600482015260248101849052929350169063a9059cbb90604401602060405180830381600087803b15801561056a57600080fd5b505af115801561057e573d6000803e3d6000fd5b505050506040513d601f19601f8201168201806040525081019061035691906105d0565b6000602082840312156105b3578081fd5b81356001600160a01b03811681146105c9578182fd5b9392505050565b6000602082840312156105e1578081fd5b815180151581146105c9578182fd5b600060208284031215610601578081fd5b5035919050565b600060208284031215610619578081fd5b5051919050565b60008261063b57634e487b7160e01b81526012600452602481fd5b500490565b600081600019048311821515161561066657634e487b7160e01b81526011600452602481fd5b50029056fea26469706673582212207a9f9ae5293bf4ede6fc53fdda219249b98cbd0d2f09c3b1efba3d446323e11d64736f6c63430008040033",
  "linkReferences": {},
  "deployedLinkReferences": {}
}