{
  "_format": "hh-sol-artifact-1",
  "contractName": "YearnStrategy",
  "sourceName": "contracts/src/strategies/ExampleYearnStrat.sol",
  "abi": [
    {
      "inputs": [
        {
          "internalType": "contract yVault",
          "name": "_yvault",
          "type": "address"
        },
        {
          "internalType": "contract ERC20",
          "name": "_token",
          "type": "address"
        },
        {
          "internalType": "address",
          "name": "_vault",
          "type": "address"
        }
      ],
      "stateMutability": "nonpayable",
      "type": "constructor"
    },
    {
      "inputs": [
        {
          "internalType": "uint256",
          "name": "amount",
          "type": "uint256"
        }
      ],
      "name": "deposit",
      "outputs": [],
      "stateMutability": "nonpayable",
      "type": "function"
    },
    {
      "inputs": [
        {
          "internalType": "uint256",
          "name": "tokenAmount",
          "type": "uint256"
        }
      ],
      "name": "withdrawl",
      "outputs": [],
      "stateMutability": "nonpayable",
      "type": "function"
    },
    {
      "inputs": [],
      "name": "withdrawlableVaultToken",
      "outputs": [
        {
          "internalType": "uint256",
          "name": "",
          "type": "uint256"
        }
      ],
      "stateMutability": "view",
      "type": "function"
    }
  ],
  "bytecode": "0x60a060405234801561001057600080fd5b506040516106b43803806106b483398101604081905261002f91610075565b600080546001600160a01b03199081166001600160a01b039586161790915560018054909116929093169190911790915560601b6001600160601b0319166080526100d9565b600080600060608486031215610089578283fd5b8351610094816100c1565b60208501519093506100a5816100c1565b60408501519092506100b6816100c1565b809150509250925092565b6001600160a01b03811681146100d657600080fd5b50565b60805160601c6105b66100fe600039600081816101a001526102c101526105b66000f3fe608060405234801561001057600080fd5b50600436106100415760003560e01c8063460ffdae14610046578063b6b55f2514610060578063e4480dd814610075575b600080fd5b61004e610088565b60405190815260200160405180910390f35b61007361006e366004610505565b610195565b005b610073610083366004610505565b6102b6565b6000805460408051631df1ee3f60e21b8152905183926001600160a01b0316916377c7b8fc916004808301926020929190829003018186803b1580156100cd57600080fd5b505afa1580156100e1573d6000803e3d6000fd5b505050506040513d601f19601f82011682018060405250810190610105919061051d565b6000546040516370a0823160e01b815230600482015291925082916001600160a01b03909116906370a082319060240160206040518083038186803b15801561014d57600080fd5b505afa158015610161573d6000803e3d6000fd5b505050506040513d601f19601f82011682018060405250810190610185919061051d565b61018f9190610555565b91505090565b336001600160a01b037f000000000000000000000000000000000000000000000000000000000000000016146101ca57600080fd5b6001546040516323b872dd60e01b8152336004820152306024820152604481018390526001600160a01b03909116906323b872dd90606401602060405180830381600087803b15801561021c57600080fd5b505af1158015610230573d6000803e3d6000fd5b505050506040513d601f19601f8201168201806040525081019061025491906104de565b5060005460405163b6b55f2560e01b8152600481018390526001600160a01b039091169063b6b55f2590602401600060405180830381600087803b15801561029b57600080fd5b505af11580156102af573d6000803e3d6000fd5b5050505050565b336001600160a01b037f000000000000000000000000000000000000000000000000000000000000000016146102eb57600080fd5b60008060009054906101000a90046001600160a01b03166001600160a01b03166377c7b8fc6040518163ffffffff1660e01b815260040160206040518083038186803b15801561033a57600080fd5b505afa15801561034e573d6000803e3d6000fd5b505050506040513d601f19601f82011682018060405250810190610372919061051d565b905060006103808284610535565b600054604051632e1a7d4d60e01b8152600481018390529192506001600160a01b031690632e1a7d4d90602401600060405180830381600087803b1580156103c757600080fd5b505af11580156103db573d6000803e3d6000fd5b50506001546040516370a0823160e01b8152306004820152600093506001600160a01b0390911691506370a082319060240160206040518083038186803b15801561042557600080fd5b505afa158015610439573d6000803e3d6000fd5b505050506040513d601f19601f8201168201806040525081019061045d919061051d565b60015460405163a9059cbb60e01b8152336004820152602481018390529192506001600160a01b03169063a9059cbb90604401602060405180830381600087803b1580156104aa57600080fd5b505af11580156104be573d6000803e3d6000fd5b505050506040513d601f19601f820116820180604052508101906102af91905b6000602082840312156104ef578081fd5b815180151581146104fe578182fd5b9392505050565b600060208284031215610516578081fd5b5035919050565b60006020828403121561052e578081fd5b5051919050565b60008261055057634e487b7160e01b81526012600452602481fd5b500490565b600081600019048311821515161561057b57634e487b7160e01b81526011600452602481fd5b50029056fea26469706673582212200823a9a3b8575014636e76f08da3a95497f20b1a382d214ad16d15f027fd2d4c64736f6c63430008040033",
  "linkReferences": {},
  "deployedLinkReferences": {}
}