{
  "_format": "hh-sol-artifact-1",
  "contractName": "DegenVault",
  "sourceName": "contracts/examples/DegenVault.sol",
  "abi": [
    {
      "anonymous": false,
      "inputs": [
        {
          "indexed": true,
          "internalType": "address",
          "name": "owner",
          "type": "address"
        },
        {
          "indexed": true,
          "internalType": "address",
          "name": "spender",
          "type": "address"
        },
        {
          "indexed": true,
          "internalType": "uint256",
          "name": "id",
          "type": "uint256"
        }
      ],
      "name": "Approval",
      "type": "event"
    },
    {
      "anonymous": false,
      "inputs": [
        {
          "indexed": true,
          "internalType": "address",
          "name": "owner",
          "type": "address"
        },
        {
          "indexed": true,
          "internalType": "address",
          "name": "operator",
          "type": "address"
        },
        {
          "indexed": false,
          "internalType": "bool",
          "name": "approved",
          "type": "bool"
        }
      ],
      "name": "ApprovalForAll",
      "type": "event"
    },
    {
      "anonymous": false,
      "inputs": [
        {
          "indexed": false,
          "internalType": "address",
          "name": "userAddress",
          "type": "address"
        },
        {
          "indexed": false,
          "internalType": "address payable",
          "name": "relayerAddress",
          "type": "address"
        },
        {
          "indexed": false,
          "internalType": "bytes",
          "name": "functionSignature",
          "type": "bytes"
        }
      ],
      "name": "MetaTransactionExecuted",
      "type": "event"
    },
    {
      "anonymous": false,
      "inputs": [
        {
          "indexed": true,
          "internalType": "address",
          "name": "from",
          "type": "address"
        },
        {
          "indexed": true,
          "internalType": "address",
          "name": "to",
          "type": "address"
        },
        {
          "indexed": true,
          "internalType": "uint256",
          "name": "id",
          "type": "uint256"
        }
      ],
      "name": "Transfer",
      "type": "event"
    },
    {
      "inputs": [
        {
          "internalType": "address",
          "name": "spender",
          "type": "address"
        },
        {
          "internalType": "uint256",
          "name": "id",
          "type": "uint256"
        }
      ],
      "name": "approve",
      "outputs": [],
      "stateMutability": "nonpayable",
      "type": "function"
    },
    {
      "inputs": [
        {
          "internalType": "address",
          "name": "",
          "type": "address"
        }
      ],
      "name": "balanceOf",
      "outputs": [
        {
          "internalType": "uint256",
          "name": "",
          "type": "uint256"
        }
      ],
      "stateMutability": "view",
      "type": "function"
    },
    {
      "inputs": [
        {
          "internalType": "string",
          "name": "_name",
          "type": "string"
        },
        {
          "internalType": "string",
          "name": "_symbol",
          "type": "string"
        },
        {
          "internalType": "address",
          "name": "_token",
          "type": "address"
        },
        {
          "internalType": "address",
          "name": "strategy",
          "type": "address"
        }
      ],
      "name": "baseInit",
      "outputs": [],
      "stateMutability": "nonpayable",
      "type": "function"
    },
    {
      "inputs": [
        {
          "internalType": "uint256",
          "name": "id",
          "type": "uint256"
        }
      ],
      "name": "burnNFTAndWithdraw",
      "outputs": [],
      "stateMutability": "nonpayable",
      "type": "function"
    },
    {
      "inputs": [],
      "name": "claimJackpot",
      "outputs": [],
      "stateMutability": "nonpayable",
      "type": "function"
    },
    {
      "inputs": [],
      "name": "ctx",
      "outputs": [
        {
          "internalType": "uint16",
          "name": "jackpotBP",
          "type": "uint16"
        },
        {
          "internalType": "uint16",
          "name": "dividendsBP",
          "type": "uint16"
        },
        {
          "internalType": "uint16",
          "name": "timeDecay",
          "type": "uint16"
        },
        {
          "internalType": "uint16",
          "name": "growthFactor",
          "type": "uint16"
        },
        {
          "internalType": "uint16",
          "name": "vaultType",
          "type": "uint16"
        }
      ],
      "stateMutability": "view",
      "type": "function"
    },
    {
      "inputs": [],
      "name": "currentId",
      "outputs": [
        {
          "internalType": "uint256",
          "name": "",
          "type": "uint256"
        }
      ],
      "stateMutability": "view",
      "type": "function"
    },
    {
      "inputs": [],
      "name": "deadline",
      "outputs": [
        {
          "internalType": "uint256",
          "name": "",
          "type": "uint256"
        }
      ],
      "stateMutability": "view",
      "type": "function"
    },
    {
      "inputs": [
        {
          "internalType": "uint256",
          "name": "amount",
          "type": "uint256"
        },
        {
          "internalType": "uint256",
          "name": "id",
          "type": "uint256"
        }
      ],
      "name": "depositToId",
      "outputs": [],
      "stateMutability": "nonpayable",
      "type": "function"
    },
    {
      "inputs": [
        {
          "internalType": "uint256",
          "name": "",
          "type": "uint256"
        }
      ],
      "name": "deposits",
      "outputs": [
        {
          "internalType": "uint256",
          "name": "amount",
          "type": "uint256"
        },
        {
          "internalType": "uint256",
          "name": "tracker",
          "type": "uint256"
        }
      ],
      "stateMutability": "view",
      "type": "function"
    },
    {
      "inputs": [],
      "name": "distributeYield",
      "outputs": [],
      "stateMutability": "nonpayable",
      "type": "function"
    },
    {
      "inputs": [
        {
          "internalType": "address",
          "name": "userAddress",
          "type": "address"
        },
        {
          "internalType": "bytes",
          "name": "functionSignature",
          "type": "bytes"
        },
        {
          "internalType": "bytes32",
          "name": "sigR",
          "type": "bytes32"
        },
        {
          "internalType": "bytes32",
          "name": "sigS",
          "type": "bytes32"
        },
        {
          "internalType": "uint8",
          "name": "sigV",
          "type": "uint8"
        }
      ],
      "name": "executeMetaTransaction",
      "outputs": [
        {
          "internalType": "bytes",
          "name": "",
          "type": "bytes"
        }
      ],
      "stateMutability": "payable",
      "type": "function"
    },
    {
      "inputs": [
        {
          "internalType": "uint256",
          "name": "",
          "type": "uint256"
        }
      ],
      "name": "getApproved",
      "outputs": [
        {
          "internalType": "address",
          "name": "",
          "type": "address"
        }
      ],
      "stateMutability": "view",
      "type": "function"
    },
    {
      "inputs": [],
      "name": "getChainID",
      "outputs": [
        {
          "internalType": "uint256",
          "name": "",
          "type": "uint256"
        }
      ],
      "stateMutability": "view",
      "type": "function"
    },
    {
      "inputs": [
        {
          "internalType": "address",
          "name": "user",
          "type": "address"
        }
      ],
      "name": "getNonce",
      "outputs": [
        {
          "internalType": "uint256",
          "name": "nonce",
          "type": "uint256"
        }
      ],
      "stateMutability": "view",
      "type": "function"
    },
    {
      "inputs": [
        {
          "internalType": "address",
          "name": "_vaultToken",
          "type": "address"
        },
        {
          "internalType": "address",
          "name": "_strategy",
          "type": "address"
        },
        {
          "internalType": "uint16",
          "name": "_jackpotBP",
          "type": "uint16"
        },
        {
          "internalType": "uint16",
          "name": "_dividendsBP",
          "type": "uint16"
        },
        {
          "internalType": "uint256",
          "name": "_minimumPrice",
          "type": "uint256"
        },
        {
          "internalType": "uint256",
          "name": "_intialTimeSeconds",
          "type": "uint256"
        },
        {
          "internalType": "uint16",
          "name": "_timeDecay",
          "type": "uint16"
        },
        {
          "internalType": "uint16",
          "name": "_growthFactor",
          "type": "uint16"
        },
        {
          "internalType": "string",
          "name": "_name",
          "type": "string"
        },
        {
          "internalType": "string",
          "name": "_symbol",
          "type": "string"
        }
      ],
      "name": "init",
      "outputs": [],
      "stateMutability": "nonpayable",
      "type": "function"
    },
    {
      "inputs": [],
      "name": "initStrat",
      "outputs": [],
      "stateMutability": "nonpayable",
      "type": "function"
    },
    {
      "inputs": [
        {
          "internalType": "address",
          "name": "",
          "type": "address"
        },
        {
          "internalType": "address",
          "name": "",
          "type": "address"
        }
      ],
      "name": "isApprovedForAll",
      "outputs": [
        {
          "internalType": "bool",
          "name": "",
          "type": "bool"
        }
      ],
      "stateMutability": "view",
      "type": "function"
    },
    {
      "inputs": [],
      "name": "jackpot",
      "outputs": [
        {
          "internalType": "uint256",
          "name": "",
          "type": "uint256"
        }
      ],
      "stateMutability": "view",
      "type": "function"
    },
    {
      "inputs": [],
      "name": "lastDepositer",
      "outputs": [
        {
          "internalType": "address",
          "name": "",
          "type": "address"
        }
      ],
      "stateMutability": "view",
      "type": "function"
    },
    {
      "inputs": [],
      "name": "minimumPrice",
      "outputs": [
        {
          "internalType": "uint256",
          "name": "",
          "type": "uint256"
        }
      ],
      "stateMutability": "view",
      "type": "function"
    },
    {
      "inputs": [
        {
          "internalType": "uint256",
          "name": "amount",
          "type": "uint256"
        }
      ],
      "name": "mintNewNft",
      "outputs": [
        {
          "internalType": "uint256",
          "name": "",
          "type": "uint256"
        }
      ],
      "stateMutability": "nonpayable",
      "type": "function"
    },
    {
      "inputs": [],
      "name": "name",
      "outputs": [
        {
          "internalType": "string",
          "name": "",
          "type": "string"
        }
      ],
      "stateMutability": "view",
      "type": "function"
    },
    {
      "inputs": [
        {
          "internalType": "uint256",
          "name": "",
          "type": "uint256"
        }
      ],
      "name": "ownerOf",
      "outputs": [
        {
          "internalType": "address",
          "name": "",
          "type": "address"
        }
      ],
      "stateMutability": "view",
      "type": "function"
    },
    {
      "inputs": [
        {
          "internalType": "address",
          "name": "operator",
          "type": "address"
        },
        {
          "internalType": "bool",
          "name": "approved",
          "type": "bool"
        }
      ],
      "name": "setApprovalForAll",
      "outputs": [],
      "stateMutability": "nonpayable",
      "type": "function"
    },
    {
      "inputs": [],
      "name": "strat",
      "outputs": [
        {
          "internalType": "contract IStrategy",
          "name": "",
          "type": "address"
        }
      ],
      "stateMutability": "view",
      "type": "function"
    },
    {
      "inputs": [
        {
          "internalType": "bytes4",
          "name": "interfaceId",
          "type": "bytes4"
        }
      ],
      "name": "supportsInterface",
      "outputs": [
        {
          "internalType": "bool",
          "name": "",
          "type": "bool"
        }
      ],
      "stateMutability": "pure",
      "type": "function"
    },
    {
      "inputs": [],
      "name": "symbol",
      "outputs": [
        {
          "internalType": "string",
          "name": "",
          "type": "string"
        }
      ],
      "stateMutability": "view",
      "type": "function"
    },
    {
      "inputs": [
        {
          "internalType": "uint256",
          "name": "id",
          "type": "uint256"
        }
      ],
      "name": "tokenURI",
      "outputs": [
        {
          "components": [
            {
              "internalType": "string",
              "name": "name",
              "type": "string"
            },
            {
              "internalType": "address",
              "name": "vaultAddress",
              "type": "address"
            },
            {
              "internalType": "uint256",
              "name": "withdrawable",
              "type": "uint256"
            },
            {
              "internalType": "uint256",
              "name": "id",
              "type": "uint256"
            },
            {
              "internalType": "uint256",
              "name": "vaultType",
              "type": "uint256"
            }
          ],
          "internalType": "struct BaseVault.MetaData",
          "name": "",
          "type": "tuple"
        }
      ],
      "stateMutability": "view",
      "type": "function"
    },
    {
      "inputs": [],
      "name": "totalDeposits",
      "outputs": [
        {
          "internalType": "uint256",
          "name": "",
          "type": "uint256"
        }
      ],
      "stateMutability": "view",
      "type": "function"
    },
    {
      "inputs": [
        {
          "internalType": "address",
          "name": "from",
          "type": "address"
        },
        {
          "internalType": "address",
          "name": "to",
          "type": "address"
        },
        {
          "internalType": "uint256",
          "name": "id",
          "type": "uint256"
        }
      ],
      "name": "transferFrom",
      "outputs": [],
      "stateMutability": "nonpayable",
      "type": "function"
    },
    {
      "inputs": [],
      "name": "vaultToken",
      "outputs": [
        {
          "internalType": "contract ERC20",
          "name": "",
          "type": "address"
        }
      ],
      "stateMutability": "view",
      "type": "function"
    },
    {
      "inputs": [
        {
          "internalType": "address",
          "name": "owner",
          "type": "address"
        },
        {
          "internalType": "uint256",
          "name": "nonce",
          "type": "uint256"
        },
        {
          "internalType": "uint256",
          "name": "chainID",
          "type": "uint256"
        },
        {
          "internalType": "bytes",
          "name": "functionSignature",
          "type": "bytes"
        },
        {
          "internalType": "bytes32",
          "name": "sigR",
          "type": "bytes32"
        },
        {
          "internalType": "bytes32",
          "name": "sigS",
          "type": "bytes32"
        },
        {
          "internalType": "uint8",
          "name": "sigV",
          "type": "uint8"
        }
      ],
      "name": "verify",
      "outputs": [
        {
          "internalType": "bool",
          "name": "",
          "type": "bool"
        }
      ],
      "stateMutability": "view",
      "type": "function"
    },
    {
      "inputs": [
        {
          "internalType": "uint256",
          "name": "amount",
          "type": "uint256"
        },
        {
          "internalType": "uint256",
          "name": "id",
          "type": "uint256"
        }
      ],
      "name": "withdrawFromId",
      "outputs": [],
      "stateMutability": "nonpayable",
      "type": "function"
    },
    {
      "inputs": [
        {
          "internalType": "uint256",
          "name": "id",
          "type": "uint256"
        }
      ],
      "name": "withdrawableById",
      "outputs": [
        {
          "internalType": "uint256",
          "name": "claimId",
          "type": "uint256"
        }
      ],
      "stateMutability": "view",
      "type": "function"
    },
    {
      "inputs": [],
      "name": "yieldPerDeposit",
      "outputs": [
        {
          "internalType": "uint256",
          "name": "",
          "type": "uint256"
        }
      ],
      "stateMutability": "view",
      "type": "function"
    },
    {
      "inputs": [
        {
          "internalType": "uint256",
          "name": "id",
          "type": "uint256"
        }
      ],
      "name": "yieldPerId",
      "outputs": [
        {
          "internalType": "uint256",
          "name": "",
          "type": "uint256"
        }
      ],
      "stateMutability": "view",
      "type": "function"
    }
  ],
  "bytecode": "0x6080604052600160035534801561001557600080fd5b506129e1806100256000396000f3fe60806040526004361061021a5760003560e01c80636281133d116101235780638a570a12116100ab578063e00dd1611161006f578063e00dd161146106da578063e288ea64146106f0578063e985e9c514610705578063eaaf1fca14610740578063f60fabe51461076057600080fd5b80638a570a121461061a57806395d89b411461062f578063a22cb46514610644578063b02c43d014610664578063c87b56dd146106ad57600080fd5b80636d43d9f1116100f25780636d43d9f114610581578063703bafd5146105a157806370a08231146105c15780637d882097146105ee5780637f386b6c1461060457600080fd5b80636281133d146104f55780636352211e146105155780636b31ee011461054b5780636c9980e11461056157600080fd5b806323b872dd116101a65780632d0335ab116101755780632d0335ab1461045757806334d894c91461048d57806340229cbb146104a25780634b6d69d3146104c2578063564b81ef146104e257600080fd5b806323b872dd1461038757806323edc94d146103a7578063277838df146103c757806329dcb0cf1461044157600080fd5b8063095ea7b3116101ed578063095ea7b3146102e45780630c53c51c14610306578063159b4962146103195780631ab2f6af146103395780631e86a9dc1461036757600080fd5b806301ffc9a71461021f578063059b2a101461025457806306fdde031461028c578063081812fc146102ae575b600080fd5b34801561022b57600080fd5b5061023f61023a3660046125f8565b610776565b60405190151581526020015b60405180910390f35b34801561026057600080fd5b50601154610274906001600160a01b031681565b6040516001600160a01b03909116815260200161024b565b34801561029857600080fd5b506102a16107c8565b60405161024b91906127e4565b3480156102ba57600080fd5b506102746102c93660046126a2565b6006602052600090815260409020546001600160a01b031681565b3480156102f057600080fd5b506103046102ff366004612530565b610856565b005b6102a16103143660046124c0565b61093d565b34801561032557600080fd5b506103046103343660046126d2565b610b0c565b34801561034557600080fd5b506103596103543660046126a2565b610c4b565b60405190815260200161024b565b34801561037357600080fd5b50601754610274906001600160a01b031681565b34801561039357600080fd5b506103046103a236600461244f565b610cb1565b3480156103b357600080fd5b506103046103c2366004612375565b610e78565b3480156103d357600080fd5b5060125461040c9061ffff808216916201000081048216916401000000008204811691600160301b8104821691600160401b9091041685565b6040805161ffff968716815294861660208601529285169284019290925283166060830152909116608082015260a00161024b565b34801561044d57600080fd5b5061035960145481565b34801561046357600080fd5b50610359610472366004612329565b6001600160a01b031660009081526008602052604090205490565b34801561049957600080fd5b50610304610f5d565b3480156104ae57600080fd5b506103046104bd3660046126a2565b61110a565b3480156104ce57600080fd5b506103596104dd3660046126a2565b61112e565b3480156104ee57600080fd5b5046610359565b34801561050157600080fd5b5061023f610510366004612559565b6112d9565b34801561052157600080fd5b506102746105303660046126a2565b6005602052600090815260409020546001600160a01b031681565b34801561055757600080fd5b5061035960155481565b34801561056d57600080fd5b5061030461057c366004612620565b611421565b34801561058d57600080fd5b5061035961059c3660046126a2565b6114ae565b3480156105ad57600080fd5b50600f54610274906001600160a01b031681565b3480156105cd57600080fd5b506103596105dc366004612329565b60046020526000908152604090205481565b3480156105fa57600080fd5b50610359600b5481565b34801561061057600080fd5b5061035960135481565b34801561062657600080fd5b506103046114d2565b34801561063b57600080fd5b506102a161167b565b34801561065057600080fd5b5061030461065f36600461248a565b611688565b34801561067057600080fd5b5061069861067f3660046126a2565b6009602052600090815260409020805460019091015482565b6040805192835260208301919091520161024b565b3480156106b957600080fd5b506106cd6106c83660046126a2565b6116f4565b60405161024b91906127f7565b3480156106e657600080fd5b5061035960035481565b3480156106fc57600080fd5b506103046117f1565b34801561071157600080fd5b5061023f610720366004612343565b600760209081526000928352604080842090915290825290205460ff1681565b34801561074c57600080fd5b5061030461075b3660046126d2565b61188e565b34801561076c57600080fd5b50610359600a5481565b60006301ffc9a760e01b6001600160e01b0319831614806107a757506380ac58cd60e01b6001600160e01b03198316145b806107c25750635b5e139f60e01b6001600160e01b03198316145b92915050565b600080546107d590612936565b80601f016020809104026020016040519081016040528092919081815260200182805461080190612936565b801561084e5780601f106108235761010080835404028352916020019161084e565b820191906000526020600020905b81548152906001019060200180831161083157829003601f168201915b505050505081565b6000818152600560205260409020546001600160a01b03163381148061089f57506001600160a01b038116600090815260076020908152604080832033845290915290205460ff165b6108e15760405162461bcd60e51b815260206004820152600e60248201526d1393d517d055551213d49256915160921b60448201526064015b60405180910390fd5b60008281526006602052604080822080546001600160a01b0319166001600160a01b0387811691821790925591518593918516917f8c5be1e5ebec7d5bd14f71427d1e84f3dd0314c0f7b2291e5b200ac8c7c3b92591a4505050565b6001600160a01b03851660009081526008602052604090205460609061096990879046888888886112d9565b6109bf5760405162461bcd60e51b815260206004820152602160248201527f5369676e657220616e64207369676e617475726520646f206e6f74206d6174636044820152600d60fb1b60648201526084016108d8565b6001600160a01b0386166000908152600860205260409020546109e39060016118e3565b6001600160a01b0387166000908152600860209081526040808320939093559151909182913091610a18918a918c910161273b565b60408051601f1981840301815290829052610a329161271f565b6000604051808303816000865af19150503d8060008114610a6f576040519150601f19603f3d011682016040523d82523d6000602084013e610a74565b606091505b509150915081610ac65760405162461bcd60e51b815260206004820152601c60248201527f46756e6374696f6e2063616c6c206e6f74207375636365737366756c0000000060448201526064016108d8565b7f5845892132946850460bff5a0083f71031bc5bf9aadcd40f1de79423eac9b10b883389604051610af9939291906127b8565b60405180910390a1979650505050505050565b6000818152600560205260409020546001600160a01b031633148015610b3457506013548210155b8015610b4257506014544211155b610b4b57600080fd5b6040805160a08101825260125461ffff80821683526201000082048116602084018190526401000000008304821694840194909452600160301b820481166060840152600160401b90910416608082015290610bbe9061271090610baf90866128ad565b610bb9919061288d565b6118ef565b805161271090610bd29061ffff16856128ad565b610bdc919061288d565b60156000828254610bed9190612875565b909155505060208101518151600091610c059161284f565b610c11906127106128cc565b61ffff1690506000612710610c2683876128ad565b610c30919061288d565b9050610c3a611924565b610c4481856119c1565b5050505050565b600a54600082815260096020526040812054909182916402540be40091610c71916128ad565b610c7b919061288d565b600084815260096020526040902060010154909150610ca0906402540be4009061288d565b610caa90826128ef565b9392505050565b6000818152600560205260409020546001600160a01b03848116911614610d075760405162461bcd60e51b815260206004820152600a60248201526957524f4e475f46524f4d60b01b60448201526064016108d8565b6001600160a01b038216610d515760405162461bcd60e51b81526020600482015260116024820152701253959053125117d49150d25412515395607a1b60448201526064016108d8565b336001600160a01b0384161480610d7e57506000818152600660205260409020546001600160a01b031633145b80610dac57506001600160a01b038316600090815260076020908152604080832033845290915290205460ff165b610de95760405162461bcd60e51b815260206004820152600e60248201526d1393d517d055551213d49256915160921b60448201526064016108d8565b6001600160a01b0380841660008181526004602090815260408083208054600019019055938616808352848320805460010190558583526005825284832080546001600160a01b03199081168317909155600690925284832080549092169091559251849392917fddf252ad1be2c89b69c2b068fc378daa952ba7f163c4a11628f55a4df523b3ef91a4505050565b612710610e85888a61284f565b61ffff161115610e9457600080fd5b610ea082828c8c611421565b6040805160a08101825261ffff8a81168083528a8216602084018190528883169484018590529187166060840181905260046080909401939093526012805463ffffffff1916909117620100009092029190911767ffffffff00000000191664010000000090930267ffff000000000000191692909217600160301b9091021769ffff000000000000000019166804000000000000000017905560138690556016859055610f4e8542612875565b60145550505050505050505050565b6011546001600160a01b0316610fa35760405162461bcd60e51b815260206004820152600b60248201526a4e6f20537472617465677960a81b60448201526064016108d8565b6000612710600b54611388610fb891906128ad565b610fc2919061288d565b90506000600e5482610fd491906128ef565b905080600e6000828254610fe89190612875565b9250508190555080600d60008282546110019190612875565b9250508190555080600c600082825461101a91906128ef565b9091555050600f5460115460405163095ea7b360e01b81526001600160a01b0391821660048201526024810184905291169063095ea7b390604401602060405180830381600087803b15801561106f57600080fd5b505af1158015611083573d6000803e3d6000fd5b505050506040513d601f19601f820116820180604052508101906110a791906125dc565b5060115460405163b6b55f2560e01b8152600481018390526001600160a01b039091169063b6b55f2590602401600060405180830381600087803b1580156110ee57600080fd5b505af1158015611102573d6000803e3d6000fd5b505050505050565b6000611115826114ae565b90506111218183611b2b565b61112a82611da7565b5050565b6000601354821015801561114457506014544211155b6111905760405162461bcd60e51b815260206004820152601b60248201527f556e646572706169642c206f72207061737420646561646c696e65000000000060448201526064016108d8565b6040805160a08101825260125461ffff8082168084526201000083048216602085018190526401000000008404831695850195909552600160301b830482166060850152600160401b90920416608083015290916000916111f1919061284f565b6111fd906127106128cc565b61ffff169050600061271061121283876128ad565b61121c919061288d565b90506001600354111561127d57611243612710846020015161ffff1687610baf91906128ad565b8251612710906112579061ffff16876128ad565b611261919061288d565b601560008282546112729190612875565b909155506112ad9050565b60208301518351612710916112919161284f565b61129f9061ffff16876128ad565b6112a9919061288d565b6015555b601780546001600160a01b031916331790556112c7611924565b6112d081611e74565b95945050505050565b600080611356883089896040516020016112f69493929190612772565b60408051601f1981840301815282825280516020918201207f19457468657265756d205369676e6564204d6573736167653a0a33320000000084830152603c8085019190915282518085039091018152605c909301909152815191012090565b6040805160008082526020820180845284905260ff87169282019290925260608101889052608081018790529192509060019060a0016020604051602081039080840390855afa1580156113ae573d6000803e3d6000fd5b5050604051601f1901519150506001600160a01b0381166114055760405162461bcd60e51b8152602060048201526011602482015270496e76616c6964207369676e617475726560781b60448201526064016108d8565b6001600160a01b038a8116911614915050979650505050505050565b601054156114675760405162461bcd60e51b8152602060048201526013602482015272105b1c9958591e48125b9a5d1a585b1a5e9959606a1b60448201526064016108d8565b6114718484611fb9565b601180546001600160a01b039283166001600160a01b031991821617909155600f8054939092169216919091179055505060016003819055601055565b60006114b982610c4b565b6000838152600960205260409020546107c29190612875565b600c54600f546040516370a0823160e01b8152306004820152600092916001600160a01b0316906370a082319060240160206040518083038186803b15801561151a57600080fd5b505afa15801561152e573d6000803e3d6000fd5b505050506040513d601f19601f8201168201806040525081019061155291906126ba565b61155c91906128ef565b905080600c60008282546115709190612875565b90915550506011546000906001600160a01b031661158f576000611622565b600d54601160009054906101000a90046001600160a01b03166001600160a01b031663192366376040518163ffffffff1660e01b815260040160206040518083038186803b1580156115e057600080fd5b505afa1580156115f4573d6000803e3d6000fd5b505050506040513d601f19601f8201168201806040525081019061161891906126ba565b61162291906128ef565b905080600d60008282546116369190612875565b9091555050600b546116488284612875565b611657906402540be4006128ad565b611661919061288d565b600a60008282546116729190612875565b90915550505050565b600180546107d590612936565b3360008181526007602090815260408083206001600160a01b03871680855290835292819020805460ff191686151590811790915590519081529192917f17307eab39ab6107e8899845ad3d59bd9653f200f220920489ca2b5937696c31910160405180910390a35050565b61172f6040518060a001604052806060815260200160006001600160a01b031681526020016000815260200160008152602001600081525090565b6040518060a001604052806000805461174790612936565b80601f016020809104026020016040519081016040528092919081815260200182805461177390612936565b80156117c05780601f10611795576101008083540402835291602001916117c0565b820191906000526020600020905b8154815290600101906020018083116117a357829003601f168201915b50505091835250503060208201526040016117da846114ae565b815260200183815260200160008152509050919050565b60145442116117ff57600080fd5b600f5460175460155460405163a9059cbb60e01b81526001600160a01b039283166004820152602481019190915291169063a9059cbb90604401602060405180830381600087803b15801561185357600080fd5b505af1158015611867573d6000803e3d6000fd5b505050506040513d601f19601f8201168201806040525081019061188b91906125dc565b50565b6000611899826114ae565b90508083146118d55760405162461bcd60e51b81526020600482015260086024820152672ab9b290313ab93760c11b60448201526064016108d8565b6118de8261110a565b505050565b6000610caa8284612875565b600b54611901826402540be4006128ad565b61190b919061288d565b600a600082825461191c9190612875565b909155505050565b601254601654612710916119459164010000000090910461ffff16906128ad565b61194f919061288d565b6016600082825461196091906128ef565b90915550506016546014805460009061197a908490612875565b90915550506012546013546127109161199f91600160301b90910461ffff16906128ad565b6119a9919061288d565b601360008282546119ba9190612875565b9091555050565b6000818152600560205260409020546001600160a01b03166119e1611fe0565b6001600160a01b0316146119f457600080fd5b600b5415611a0457611a046114d2565b60008181526009602052604081208054849290611a22908490612875565b9091555050600a54611a3490836128ad565b60008281526009602052604081206001018054909190611a55908490612875565b9250508190555081600b6000828254611a6e9190612875565b9250508190555081600c6000828254611a879190612875565b9091555050600f546001600160a01b03166323b872dd611aa5611fe0565b6040516001600160e01b031960e084901b1681526001600160a01b03909116600482015230602482015260448101859052606401602060405180830381600087803b158015611af357600080fd5b505af1158015611b07573d6000803e3d6000fd5b505050506040513d601f19601f820116820180604052508101906118de91906125dc565b611b336114d2565b6000818152600560205260409020546001600160a01b0316611b53611fe0565b6001600160a01b0316148015611b715750611b6d816114ae565b8211155b611b7a57600080fd5b600f546040516370a0823160e01b81523060048201526000916001600160a01b0316906370a082319060240160206040518083038186803b158015611bbe57600080fd5b505afa158015611bd2573d6000803e3d6000fd5b505050506040513d601f19601f82011682018060405250810190611bf691906126ba565b9050600080611c0484610c4b565b905080851115611c8c57611c1881866128ef565b600085815260096020526040812080549294508492909190611c3b9084906128ef565b9250508190555081600b6000828254611c5491906128ef565b9091555050600a54600085815260096020526040902054611c7591906128ad565b600085815260096020526040902060010155611cc2565b611c9b856402540be4006128ad565b60008581526009602052604081206001018054909190611cbc908490612875565b90915550505b6000838611611cd2576000611cdc565b611cdc84876128ef565b90508015611d0557611ced8161203f565b82600e6000828254611cff91906128ef565b90915550505b600f546001600160a01b031663a9059cbb611d1e611fe0565b6040516001600160e01b031960e084901b1681526001600160a01b03909116600482015260248101899052604401602060405180830381600087803b158015611d6657600080fd5b505af1158015611d7a573d6000803e3d6000fd5b505050506040513d601f19601f82011682018060405250810190611d9e91906125dc565b50505050505050565b6000818152600560205260409020546001600160a01b031680611df95760405162461bcd60e51b815260206004820152600a6024820152691393d517d3525395115160b21b60448201526064016108d8565b6001600160a01b038116600081815260046020908152604080832080546000190190558583526005825280832080546001600160a01b031990811690915560069092528083208054909216909155518492907fddf252ad1be2c89b69c2b068fc378daa952ba7f163c4a11628f55a4df523b3ef908390a45050565b600080611e8a611e82611fe0565b6003546120af565b600b5490915015611e9d57611e9d6114d2565b6000818152600960205260409020839055600a54611ebb90846128ad565b60008281526009602052604081206001018054909190611edc908490612875565b9250508190555082600b6000828254611ef59190612875565b9250508190555082600c6000828254611f0e9190612875565b9091555050600f546001600160a01b03166323b872dd611f2c611fe0565b6040516001600160e01b031960e084901b1681526001600160a01b03909116600482015230602482015260448101869052606401602060405180830381600087803b158015611f7a57600080fd5b505af1158015611f8e573d6000803e3d6000fd5b505050506040513d601f19601f82011682018060405250810190611fb291906125dc565b5092915050565b8051611fcc9060019060208401906121ca565b5081516118de9060009060208501906121ca565b60003330141561203757600080368080601f0160208091040260200160405190810160405280939291908181526020018383808284376000920191909152505050503601516001600160a01b0316915061203c9050565b503390565b90565b601154604051632e1a7d4d60e01b8152600481018390526001600160a01b0390911690632e1a7d4d90602401600060405180830381600087803b15801561208557600080fd5b505af1158015612099573d6000803e3d6000fd5b5050505080600d600082825461191c91906128ef565b60006001600160a01b0383166120fb5760405162461bcd60e51b81526020600482015260116024820152701253959053125117d49150d25412515395607a1b60448201526064016108d8565b6000828152600560205260409020546001600160a01b0316156121515760405162461bcd60e51b815260206004820152600e60248201526d1053149150511657d3525395115160921b60448201526064016108d8565b6001600160a01b038316600081815260046020908152604080832080546001908101909155600380549091019055858352600590915280822080546001600160a01b0319168417905551849291907fddf252ad1be2c89b69c2b068fc378daa952ba7f163c4a11628f55a4df523b3ef908290a450919050565b8280546121d690612936565b90600052602060002090601f0160209004810192826121f8576000855561223e565b82601f1061221157805160ff191683800117855561223e565b8280016001018555821561223e579182015b8281111561223e578251825591602001919060010190612223565b5061224a92915061224e565b5090565b5b8082111561224a576000815560010161224f565b80356001600160a01b038116811461227a57600080fd5b919050565b600082601f83011261228f578081fd5b813567ffffffffffffffff808211156122aa576122aa612987565b604051601f8301601f19908116603f011681019082821181831017156122d2576122d2612987565b816040528381528660208588010111156122ea578485fd5b8360208701602083013792830160200193909352509392505050565b803561ffff8116811461227a57600080fd5b803560ff8116811461227a57600080fd5b60006020828403121561233a578081fd5b610caa82612263565b60008060408385031215612355578081fd5b61235e83612263565b915061236c60208401612263565b90509250929050565b6000806000806000806000806000806101408b8d031215612394578586fd5b61239d8b612263565b99506123ab60208c01612263565b98506123b960408c01612306565b97506123c760608c01612306565b965060808b0135955060a08b013594506123e360c08c01612306565b93506123f160e08c01612306565b92506101008b013567ffffffffffffffff8082111561240e578384fd5b61241a8e838f0161227f565b93506101208d0135915080821115612430578283fd5b5061243d8d828e0161227f565b9150509295989b9194979a5092959850565b600080600060608486031215612463578283fd5b61246c84612263565b925061247a60208501612263565b9150604084013590509250925092565b6000806040838503121561249c578182fd5b6124a583612263565b915060208301356124b58161299d565b809150509250929050565b600080600080600060a086880312156124d7578081fd5b6124e086612263565b9450602086013567ffffffffffffffff8111156124fb578182fd5b6125078882890161227f565b945050604086013592506060860135915061252460808701612318565b90509295509295909350565b60008060408385031215612542578182fd5b61254b83612263565b946020939093013593505050565b600080600080600080600060e0888a031215612573578283fd5b61257c88612263565b96506020880135955060408801359450606088013567ffffffffffffffff8111156125a5578384fd5b6125b18a828b0161227f565b9450506080880135925060a088013591506125ce60c08901612318565b905092959891949750929550565b6000602082840312156125ed578081fd5b8151610caa8161299d565b600060208284031215612609578081fd5b81356001600160e01b031981168114610caa578182fd5b60008060008060808587031215612635578182fd5b843567ffffffffffffffff8082111561264c578384fd5b6126588883890161227f565b9550602087013591508082111561266d578384fd5b5061267a8782880161227f565b93505061268960408601612263565b915061269760608601612263565b905092959194509250565b6000602082840312156126b3578081fd5b5035919050565b6000602082840312156126cb578081fd5b5051919050565b600080604083850312156126e4578182fd5b50508035926020909101359150565b6000815180845261270b816020860160208601612906565b601f01601f19169290920160200192915050565b60008251612731818460208701612906565b9190910192915050565b6000835161274d818460208801612906565b60609390931b6bffffffffffffffffffffffff19169190920190815260140192915050565b8481526bffffffffffffffffffffffff198460601b166020820152826034820152600082516127a8816054850160208701612906565b9190910160540195945050505050565b6001600160a01b038481168252831660208201526060604082018190526000906112d0908301846126f3565b602081526000610caa60208301846126f3565b602081526000825160a0602084015261281360c08401826126f3565b905060018060a01b0360208501511660408401526040840151606084015260608401516080840152608084015160a08401528091505092915050565b600061ffff80831681851680830382111561286c5761286c612971565b01949350505050565b6000821982111561288857612888612971565b500190565b6000826128a857634e487b7160e01b81526012600452602481fd5b500490565b60008160001904831182151516156128c7576128c7612971565b500290565b600061ffff838116908316818110156128e7576128e7612971565b039392505050565b60008282101561290157612901612971565b500390565b60005b83811015612921578181015183820152602001612909565b83811115612930576000848401525b50505050565b600181811c9082168061294a57607f821691505b6020821081141561296b57634e487b7160e01b600052602260045260246000fd5b50919050565b634e487b7160e01b600052601160045260246000fd5b634e487b7160e01b600052604160045260246000fd5b801515811461188b57600080fdfea2646970667358221220b5e4891d1f060b75851931954d1e14c6fe080a21a94cd8f3c41b5c230031744264736f6c63430008040033",
  "linkReferences": {},
  "deployedLinkReferences": {}
}